:020000040806EC
:1000000000FC0120F95E0608C1570608CF57060814
:10001000DD570608EB570608F957060800000000F0
:10002000000000000000000000000000D1C206082F
:10003000075806080000000021C50608E1B80608B8
:10004000495F060815580608495F0608495F060813
:100050002758060833580608495F0608495F06080E
:10006000495F0608495F0608495F0608495F0608B8
:10007000495F0608495F0608495F0608495F0608A8
:10008000495F0608495F060841580608000000005D
:10009000000000000000000000000000495F0608AA
:1000A000495F0608495F0608495F0608495F060878
:1000B00055580608695806087D580608495F06081D
:1000C000495F0608495F0608495F06089158060817
:1000D000495F0608A5580608495F060800000000A9
:1000E000495F0608495F0608495F060800000000EE
:1000F000000000000000000000000000495F06084A
:1001000000000000495F0608B9580608495F060864
:1001100000000000000000000000000000000000DF
:10012000495F0608495F0608495F0608495F0608F7
:10013000495F060800000000000000000000000009
:10014000000000000000000000000000495F0608F9
:10015000495F0608495F0608495F0608495F0608C7
:10016000495F0608495F0608000000000000000023
:10017000000000000000000000000000000000007F
:1001800000000000CD58060800000000000000003C
:08019000495F0608495F0608FB
:1001A00010B5054C237833B9044B13B10448AFF3B1
:1001B00000800123237010BD3001012000000000E9
:1001C0007CEC060808B5034B1BB103490348AFF3A9
:1001D000008008BD00000000340101207CEC06080E
:1001E00053B94AB9002908BF00281CBF4FF0FF319E
:1001F0004FF0FF3000F088B9ADF1080C6DE904CE86
:1002000000F006F8DDF804E0DDE9022304B07047F1
:100210002DE9F047089D8E4604468846002B4AD1BA
:100220008A42174662D9B2FA82F64EB1C6F120036D
:1002300001FA06F820FA03F3B74043EA0808B4408D
:100240004FEA174E1FFA87FCB8FBFEF1230C0EFB9A
:10025000118843EA084301FB0CF29A4209D9FB18C2
:1002600001F1FF3080F0EA809A4240F2E7800239E3
:100270003B449A1AA3B2B2FBFEF00EFB102243EAF3
:10028000024300FB0CFC9C4509D9FB1800F1FF322E
:1002900080F0D6809C4540F2D3803B44023840EA4F
:1002A0000140A3EB0C0300211DB1F3400022C5E97E
:1002B0000032BDE8F0878B4205D90DB1C5E90001D8
:1002C00000210846F5E7B3FA83F1002946D17345CA
:1002D00002D3824200F20581841A6EEB03020120F0
:1002E0009046002DE5D0C5E90048E2E7002A00F07D
:1002F0009080B2FA82F6002E40F0A4808A1A030C95
:100300004FEA174E80B2BCB20121B2FBFEFC0EFBDD
:100310001C2243EA024304FB0CF29A4207D9FB1861
:100320000CF1FF3802D29A4200F2E080C4469B1AD8
:10033000B3FBFEF20EFB123340EA034302FB04F46C
:100340009C4207D9FB1802F1FF3002D29C4200F216
:10035000CA8002461B1B42EA0C40A5E7C1F12006F9
:100360008B4022FA06F71F430EFA01F420FA06F337
:100370002EFA06FE4FEA1749234300FA01F81FFA46
:1003800087FCBEFBF9F01C0C09FB10EE44EA0E449E
:1003900000FB0CFEA64502FA01F209D93C1900F156
:1003A000FF3A80F09C80A64540F2998002383C4498
:1003B000A4EB0E041FFA83FEB4FBF9F309FB13440C
:1003C0004EEA044403FB0CFCA44508D93C1903F194
:1003D000FF3E80F08280A4457FD9023B3C4443EA43
:1003E0000040A4EB0C04A0FB02EC64457346E1461C
:1003F00062D35FD05DB1B8EB030264EB090404FA89
:1004000006F622FA01F31E43CC40C5E90064002140
:100410004FE7B1FBF2FC010C41EA0E4180B240EA29
:1004200001423B4638463C46B846BE462026B1FB14
:10043000F7F1A2EB080241EA0C4166E7014618E732
:1004400010462CE7C6F120022EFA02F3B740B14065
:1004500020FA02F24FEA174E0A43B3FBFEF8BCB291
:100460000EFB1833110C41EA034108FB04F9B040BC
:1004700089454FEA104380B23ED9791808F1FF3C14
:1004800001D289451FD8A1EB0901B1FBFEF909FB97
:1004900004F80EFB191192B242EA0142424529D2F8
:1004A000BA1809F1FF31C4D24245C2D2A9F1020102
:1004B0003A44BEE7F0459DD2BEEB02036CEB070C5D
:1004C0000138E14696E7A7EB09094944A8F1020C77
:1004D000B1FBFEF909FB04F8DBE773467FE7504602
:1004E00066E70846FDE63B44023A33E7ACF1020C0E
:1004F0003B441CE749469CE7A1EB0901C446B1FB1C
:10050000FEF909FB04F8C4E7704700BF80B400AFF0
:10051000734B1B69032B02D1724B01221A70724B71
:100520001B78002B33D16F4B1B78012B2BD16C4BDD
:100530001B69002B09D16D4B1B69002B05D06B4B40
:1005400003221A61664B03221A61694B64221A70F6
:10055000684B1B680133674A1360664B1B68664A29
:10056000934240F28F80624B00221A70614B00224E
:100570001A605B4B00221A615C4B00221A61594BD6
:1005800000221A707EE05A4B00221A707AE0544B17
:100590001B69032B05D1524B00221A61534B0022D9
:1005A0001A61504B00221A70544B1B78002B0DD14E
:1005B0004D4B1B781A46920013441A4691001A4676
:1005C0000B461344DAB24A4B1A705BE0464B1B7879
:1005D0005B08DBB20133DAB2494B1A70494B1B7826
:1005E000022B03D1484B02221A7002E0464B012233
:1005F0001A70464B1B78002B07D1454B1B78002BFC
:1006000003D1444B01221A701AE0404B1B781A4662
:100610003F4B1B78D31A002BB8BF5B42102B03DD76
:100620003C4B12221A700BE0384B1B781A46384BA1
:100630001B78D31A002BB8BF5B42DAB2354B1A7065
:10064000344B1B781A46304B1B7813442C4A1278D3
:100650001344DBB2DB00DAB2254B1A70244B1B7853
:100660002D4AA2FB03239B08DBB21A4692001344D7
:10067000DAB21F4B1A701C4B1B78002B02D11C4B9B
:1006800000221A701A4B1B78002B1FD0184B1B78B6
:100690001A46224B1B685B6B9A4207D91F4B1B689B
:1006A0005A6B1E4B1B6805325A6313E0104B1B78C4
:1006B0001A461A4B1B685B6B9A420BD2174B1B688E
:1006C0005A6B164B1B68053A5A6303E0134B1B68C1
:1006D00000225A6300BFBD465DF8047B704700BF2F
:1006E0003400012066010120610101202000012069
:1006F000670101206801012020BF02006201012082
:100700006C010120630101206D01012065010120C0
:10071000640101206E010120CDCCCCCC2806012043
:1007200098B500AF814B1B68002B18D1804B1B681C
:10073000804A12685A63804B1B68804A1268DA63E9
:100740007D4B1B687E4A12689A637B4B1B687D4A0F
:1007500012685A63784B1B687B4A12681A647B4B99
:100760001B68002B02D1FFF7D1FE03E0704B1B6822
:1007700000225A63754B5B68002B40F08682012192
:10078000734807F089F903461A46724B1A70714B89
:100790001B78002B0FD1684B1B68DB6B002B04D13F
:1007A000654B1B689B6B002B05D06B4B02221A61BB
:1007B0006A4B02221A61684B1B69012B35D15E4BD3
:1007C0001B689B6B40F2C942934206D85A4B1B6888
:1007D0009A6B594B1B6819329A63574B1B6840F24E
:1007E000E242DA635E4B1B68002B03D14F4B1B6860
:1007F0005B4A13604D4B1A68594B1B68D31A3B2B4D
:100800004AD94D4B1B680022DA63534B00221A6110
:10081000524B00221A61524B00221A60514B0422A3
:100820001A70514B04221A7036E04B4B1B69022B95
:1008300032D1414B1B6840F2E242DA633E4B1B6807
:100840009B6B182B06D93C4B1B689A6B3A4B1B6869
:10085000193A9A63424B1B68002B03D1334B1B6838
:100860003F4A1360314B1A683D4B1B68D31A3B2B30
:1008700012D9314B1B680022DA63374B00221A6110
:10088000364B00221A61364B00221A60354B00228B
:100890001A70354B00221A70344B1A78344B1B787F
:1008A0009A4203D3334B01221A706EE02F4B1A7811
:1008B0002F4B1B789A4209D22C4B5A782C4B1B7821
:1008C0009A4203D32B4B02221A705EE0274B5A78D0
:1008D000274B1B789A4209D2244B9A78244B1B78D9
:1008E0009A4203D3234B03221A704EE01F4B9A788F
:1008F0001F4B1B789A4209D21C4BDA781C4B1B7891
:100900009A4203D31B4B04221A703EE0174BDA784D
:10091000174B1B789A422FD2144B1A79144B1B7821
:100920009A4229D3134B05221A702EE07001012040
:1009300028060120ACFD0120DC060120B0FD0120CD
:10094000B4FD0120B8FD0120BCFD012050030120B1
:100950000000024074010120340001202000012029
:1009600078010120A8FD0120A9FD01201800012027
:100970001D0001207C0101207B4B1A797B4B1B78E9
:100980009A4202D27A4B06221A707A4B1B78012BBC
:1009900066D1774B1B78052B31D8774B1B685A6B88
:1009A000764B1B78C3F59C6302339A421ED2724B7E
:1009B0001B681A6C714B1B78C3F59C6302339A4217
:1009C00014D26D4B1B685A6B6C4B1B7819466A4BE3
:1009D0001B680A445A63684B1B681A6C674B1B7888
:1009E0001946654B1B680A441A64AAE0614B1B78E0
:1009F000012B40F0A6805F4B02221A70A1E05E4BF3
:100A00001B685A6B5E4B1B78C3F59C6302339A429A
:100A10001ED2594B1B681A6C594B1B78C3F59C634B
:100A200002339A4214D2544B1B685A6B544B1B78B6
:100A30001946514B1B680A445A634F4B1B681A6C8A
:100A40004F4B1B7819464C4B1B680A441A6478E0DC
:100A5000484B1B78012B74D1464B02221A7070E070
:100A6000444B1B78022B6CD1414B1B78052B32D8A1
:100A7000414B1B685B6B414A127893421BD93E4B3A
:100A80001B681B6C3D4A1278934214D93A4B1B6881
:100A90005A6B3A4B1B781946374B1B68521A5A63EC
:100AA000354B1B681A6C354B1B781946324B1B684B
:100AB000521A1A6445E02F4B1B78022B41D12D4B63
:100AC00000221A702C4B1B6800225A632A4B1B68A9
:100AD00000221A6435E0264B1B78062B31D1264BB9
:100AE0001B685B6B264A127893421BD9224B1B680A
:100AF0001B6C234A1278934214D91F4B1B685A6B04
:100B00001F4B1B7819461C4B1B68521A5A631A4B11
:100B10001B681A6C1A4B1B781946174B1B68521A24
:100B20001A640EE0134B1B78022B0AD1114B0022E2
:100B30001A70114B1B6800225A630F4B1B6800226E
:100B40001A64104B1B78012B20D10F4BDB6840F649
:100B5000B73293421AD9074B1B78002B64D1054B4F
:100B600001221A7060E000BF180001201D00012062
:100B70007C0101207D010120DC0601204C010120C7
:100B80004D0101201E00012034000120914B1B78F3
:100B9000022B03D08F4B1B78032B2DD18E4B1A7851
:100BA0008E4B1B789A4206D08C4B1A788A4B1A705F
:100BB0008B4B00221A608A4B1B68002B03D1894B98
:100BC0001B68874A1360874B1A68854B1B68D11ACC
:100BD000804B1B789A1E844B1B78581E834C1346FF
:100BE0005B0013445B00034434F8133099421BD379
:100BF0007A4B01221A7017E0764B1B78042B0DD12B
:100C00007B4B1B68002B0FD1764B1B68784A136017
:100C1000784B1B781A46784B1A6005E0704B00221F
:100C20001A606D4B00221A706E4B1A68704B1B686D
:100C3000D31A724A127893420FD26D4B1B68002B65
:100C40000BD0664B1B78002B07D1644B01221A7026
:100C5000694B1B68013B684A1360604B1B78002B93
:100C60000BD1654B1B68002B07D05C4B01221A701F
:100C7000614B1B68013B604A13605F4B1B68002B94
:100C80001FD15B4B00221A601BE05D4B1B680022EA
:100C90005A635B4B1B6800229A63594B1B68002206
:100CA000DA63574B1B6800221A644D4B00221A600E
:100CB0004A4B00221A70484B00221A704A4B0022FD
:100CC0001A704F4B1B681A6C13461B029B1A4D4A35
:100CD000A2FB03239B0ADAB24B4B1A70484B1B68EA
:100CE0005A6B13461B029B1A464AA2FB03239B0A1C
:100CF000DAB2454B5A70424B1B68DA6B13461B0243
:100D00009B1A404AA2FB03239B0ADAB23E4B9A701D
:100D10003B4B1B689A6B13461B029B1A394AA2FB7A
:100D200003239B0ADAB2384BDA70384B1B685A6BD4
:100D300013461B029B1A364AA2FB03235B09DAB255
:100D4000314B1A712E4B1B681A6C13461B029B1AEF
:100D50002C4AA2FB03239B0ADAB22E4B1A70284BB3
:100D60001B685A6B13461B029B1A264AA2FB0323DD
:100D70009B0ADAB2274B5A70274B1A78254B9A7088
:100D8000264B1A78234BDA70204B1B685B6BDAB268
:100D9000204B1A711D4B1B685B6B214A1360184B6B
:100DA0001B68DB6B1F4A1360154B1B689B6B1E4A4D
:100DB0001360134B1B685B6B1C4A1360104B1B6862
:100DC0001B6C1B4A1360074B1B680133054A1360F9
:100DD00000BF98BD1E0001207E0101207D01012081
:100DE00080010120700101207C0101200000012010
:100DF0008401012050010120880101204F010120C0
:100E0000DC0601205917B7D1540101202806012022
:100E10001F85EB515C010120A8FD0120A9FD0120E7
:100E2000ACFD0120B0FD0120B4FD0120B8FD012082
:100E3000BCFD012080B582B000AF0023FB7124E02F
:100E4000FB79A14A52F82330002B1BD00023BB7141
:100E500014E0BB799D4A002142F82310BB799C4ADB
:100E6000002142F82310BB799A4A0021D154BB7962
:100E7000994A0021D154BB790133BB71BB79042B52
:100E8000E7D905E0FB790133FB71FB79022BD7D958
:100E900000237B711AE07B79904A52F82330002BB3
:100EA00011D08A4B00221A61894B00221A61894BAA
:100EB00000221A718A4B012283F83120884B0122CB
:100EC00083F8302005E07B7901337B717B79042B3B
:100ED000E1D97E4B1B697E4A136100233B7159E0C7
:100EE0003B79002B52D03B79022B4FD03A797C4989
:100EF00013465B0013449B000B4401331B78002B0B
:100F000045D13B79714A52F82330764A12789342A0
:100F10003DD23A79724913465B0013449B000B445F
:100F200004331B68591C6E4813465B0013449B0036
:100F30000344043319603A79694913465B0013444A
:100F40009B000B4404331B68674A127893421ED1FE
:100F50003A79634913465B0013449B000B44043306
:100F600000221A603A795E4913465B0013449B00E5
:100F70000B44013301221A703A79594913465B0038
:100F800013449B000B4401221A7000E000BF3B7920
:100F900001333B713B79032BA2D90023FB702AE07C
:100FA000FA784F4913465B0013449B000B441B78AF
:100FB000002B18D1FB78454A52F82330FA784B4978
:100FC00031F81220934205D8FB78414A002142F8BB
:100FD00023100DE0FA78FB783C4951F822203C4977
:100FE00041F8232004E0FB78394AFF2142F823101E
:100FF000FB780133FB70FB78032BD1D90023BB7046
:1010000014E0BB78314A52F8232013461B029A1A87
:10101000374BA3FB0213D21A52081344DA0ABB78E7
:10102000D1B22D4AD154BB780133BB70BB78032BAE
:10103000E7D9274B1B69DAB2264B1A71244B1B6880
:1010400040F2DB52934203D8224B00221A7016E082
:101050001F4B1B6840F2DB52934208D91C4B1B68A4
:10106000B3F57A6F03D21B4B01221A7007E0184BBD
:101070001B68B3F57A6F02D3164B02221A70144B19
:101080009B68B3F5966F03D2124B00229A7039E039
:101090000F4B9B68B3F5966F08D30D4B9B68B3F568
:1010A000FA6F03D20B4B01229A702BE0084B9B681E
:1010B000B3F5FA6F1ED3064B9B68B3F57A6F19D25E
:1010C000044B02229A701DE01C0301202000012025
:1010D000340001204800012050000120600201205E
:1010E000980101208C0101208D0101209001012037
:1010F000010110004C4B9B68B3F57A6F02D34B4B48
:1011000003229A70484B5B6840F6B732934203D98A
:10111000464B01225A7002E0444B00225A70424B67
:10112000DB6840F6B732934203D9404B0122DA70B4
:1011300002E03E4B0022DA7000237B7048E07A78B0
:101140003B4913465B0013449B000B4401331B785F
:10115000012B22D17A78364913465B0013449B0059
:101160000B441B78002B18D07B780133D8B27A78E7
:101170002F4913465B0013449B000B441B78194610
:1011800002F084FE7A782A4913465B0013449B00E0
:101190000B44013302221A7017E07A78244913466F
:1011A0005B0013449B000B441B78002B0DD17B7814
:1011B0000133D8B27A781E4913465B0013449B0072
:1011C0000B441B78194602F061FE7B7801337B707B
:1011D0007B78032BB3D9174B1B68012B02D1134B20
:1011E00000221A71134B5B68012B06D10E4B1B6951
:1011F000032B02D10D4B00221A710E4B9B68012B61
:1012000002D10A4B0022DA700A4BDB68012B02D1B3
:10121000064B00225A70084B1B680133064A1360C4
:1012200000BF0837BD4680BD3400012048000120C2
:101230009801012058000120D4010120B0B500AF71
:10124000034B1B68002B05D100F08EFE3AE000BF77
:10125000440201209C4B1B68012B33D100F04AFB58
:101260009A4B01221A709A4B01221A70984B4FF434
:1012700080725A60964B02221A72954B00225A7263
:10128000934B00229A72924800F0CEFB904B0122C1
:101290001A708F4B40F201125A608D4B05221A7260
:1012A0008B4B00225A728A4B00229A72884B002282
:1012B000DA72874B00221A73854B00225A738448D6
:1012C00000F0B2FB00F0B1FC0346824A1360814B90
:1012D0001B68002B00F02A817F4B5B68002B5BD1E1
:1012E0007D4800F019FC0346002B55D07A4B5B6813
:1012F000992B0ED1784B5A7A784B1A70764BDA7A52
:10130000774B1A70744B5A7B764B1A70764B0022CF
:101310001A60714B5B68982B0ED16F4B1A7B734B25
:101320001A706D4B9A7B724B1A706B4B5A7A714BD9
:101330001A70714B00221A60674B5B68972B06D1BD
:10134000654B5A7B6D4B1A706D4B00221A60624BD5
:101350005B68B3F5A26F12D15F4B5B7A102B0ED195
:101360005D4B5A7A674B1A70584B1B78032B02D08F
:10137000564B02221A70644B4FF4FA621A80564B95
:101380005B68B3F5E06F07D1604A534B14461D46C6
:101390000FCD0FC42B6823605D4B5B68002B5BD1C6
:1013A0005B4800F0B9FB0346002B55D0584B5B68F7
:1013B000992B0ED1564B5A7A484B1A70544BDA7A05
:1013C000474B1A70524B5A7B464B1A70464B0022C1
:1013D0001A604F4B5B68982B0ED14D4B1A7B434BD9
:1013E0001A704B4B9A7B424B1A70494B5A7A414BBD
:1013F0001A70414B00221A60454B5B68972B06D14F
:10140000434B5A7B3D4B1A703D4B00221A60404BB8
:101410005B68B3F5A26F12D13D4B5B7A102B0ED1F6
:101420003B4B5A7A374B1A70284B1B78032B02D050
:10143000264B02221A70344B4FF4FA621A80344B56
:101440005B68B3F5E06F07D1304A314B14461D4657
:101450000FCD0FC42B6823601F4B00221A701E4B48
:1014600000225A601C4B00221A721B4B00225A7237
:10147000194B00229A72184B0022DA72164B002286
:101480001A73154B00225A73134B00229A73124B96
:101490000022DA73104B00221A741D4B00221A70BE
:1014A0001B4B00225A601A4B00221A72184B002262
:1014B0005A72174B00229A72154B0022DA72144BA3
:1014C00000221A7326E000BF44020120F00101202F
:1014D000480201205C020120F40101206101012089
:1014E000640101201E000120D801012065010120B6
:1014F0006201012063010120DC0101201D000120A7
:10150000E00101206A000120680001203002012072
:1015100008020120764B00225A73754B00229A7301
:10152000734B0022DA73724B00221A7400F0B8FB7E
:101530000346002B16D06F4B19686F4BA3FB01239A
:101540001A0913469B0013449B00CA1A002A09D1AA
:10155000684B1B68002B05D0684B1B680133674A3A
:10156000136002E0654B00221A6000F0B2FB0346F4
:10157000002B16D05F4B19685F4BA3FB01231A09A0
:1015800013469B0013449B00CA1A002A09D1594BE9
:101590001B68002B05D0594B5B680133574A5360D9
:1015A00002E0564B00225A6000F061FB0346002B1C
:1015B0001AD0504B1968504BA3FB01231A0913464C
:1015C0009B0013449B00CA1A002A0DD1494B1B688B
:1015D000002B09D0494B9B680133484A9360012195
:1015E000092002F053FC06E0444B00229A600021DF
:1015F000092002F04BFC424B1B78002B07D0414BDB
:101600001B78002B0AD13F4B01221A7006E03D4B9C
:101610001B78012B02D13B4B00221A703A4B1B88DE
:10162000002B06D0384B1B88013B9AB2364B1A80F0
:101630000AE0354B1B88002B06D1324B1B78022B5E
:1016400002D1304B01221A702E4B1B78032B00F075
:101650000D812E4B1B78022B40F008812C4B1B6810
:1016600001332B4A13602B4B1B680133294A13604B
:10167000294B1B680133284A1360254B1B68B3F5BF
:10168000FA6F0DD901210B2002F000FC234B002240
:101690001A70234B00221A70224BFF221A7003E0AB
:1016A00000210B2002F0F2FB1A4B1B68B3F5FA6F16
:1016B0000DD90121062002F0E9FB1B4B00221A7014
:1016C0001A4B00221A701A4B00221A7003E00021F4
:1016D000062002F0DBFB104B1B68B3F5FA6F2BD929
:1016E0000121072002F0D2FB124B00221A7027E0E2
:1016F0000802012044020120CDCCCCCCE401012021
:1017000048000120F0010120680001202D04012083
:10171000D8010120DC010120E0010120610101204C
:10172000640101201E0001206501012062010120E9
:10173000630101201D0001200021072002F0A6FB0B
:101740005E4B19685E4BA3FB01231A0913469B00ED
:1017500013449B00CA1A002A35D15A4B01221A7031
:10176000584B4FF480725A60564B02221A72564BF5
:101770001A78544B5A72544B9A78524B9A72514879
:1017800000F052F94F4B00221A704E4B00225A6063
:101790004C4B00221A724B4B00225A72494B0022CA
:1017A0009A72484B0022DA72464B00221A73454B5C
:1017B00000225A73434B00229A73424B0022DA7381
:1017C000404B00221A743D4B19683D4BA3FB01238B
:1017D0001A0913469B0013449B00CA1A002A45D1DC
:1017E000384B01221A70374B40F201125A60354BC8
:1017F00005221A72354B9A78324B5A72334BDA788B
:10180000304B9A72304B1A792E4BDA7201213048E4
:1018100006F042F903461A462A4B1A732A4B5A78A5
:10182000284B5A73274800F0FFF8264B00221A7005
:10183000244B00225A60234B00221A72214B0022B3
:101840005A72204B00229A721E4B0022DA721D4BF4
:1018500000221A731B4B00225A731A4B00229A73F0
:10186000184B0022DA73174B00221A74154B002212
:101870001A70144B00225A60124B00221A72114B3C
:1018800000225A720F4B00229A720E4B0022DA721B
:101890000C4B00221A730B4B00225A73094B002287
:1018A0009A73084B0022DA73064B00221A74034B1A
:1018B0001B680133014A136000BFB0BD4402012020
:1018C000CDCCCCCC48020120480001205C01012095
:1018D0000000024080B500AF002240212C2000F023
:1018E0006BFC402240212B2000F066FC00F01EFB28
:1018F00000BF80BD80B588B000AF00F035FBFF238E
:101900003B71E0237B710023BB710023FB71FF233C
:101910003B70E0237B700023BB700023FB7012231D
:101920003B77E0237B770023BB770023FB771323F0
:101930003B7600237B760023BB760023FB761323C4
:101940003B7520237B750023BB750023FB75A22309
:101950003B7400237B740023BB740023FB74E023DF
:101960003B7300237B730023BB730023FB73E023D3
:101970003B7200237B720023BB720023FB7200F0DA
:1019800077FA00F097FA3B1D1A462321202000F039
:1019900069FB3B461A462721242000F063FB07F130
:1019A0001C031A460321002000F05CFB07F118031A
:1019B0001A460721042000F055FB07F114031A46CC
:1019C0000B21082000F04EFB07F110031A461321EB
:1019D000102000F047FB07F10C031A4617211420D2
:1019E00000F040FB07F108031A461B21182000F005
:1019F00039FB0421602000F011FB0121702000F070
:101A00000DFB00212A2000F009FB9021292000F085
:101A100005FB8221282000F001FB00F069FA012378
:101A200018462037BD4680BD80B586B000AF7860CF
:101A300072B600BF0023FB7500233B610023FB60EF
:101A400000233B7400237B740023BB740023FB74CE
:101A500000F076FB03463B733B7B03F00403DBB2F1
:101A6000002B17D17B6858687B681B7807F1100240
:101A7000194600F0A8F97B681A7A7B68093307F1E8
:101A80001001402000F018FB812000F03FFB0123F3
:101A9000FB753AE03B7B03F01003DBB2002B17D160
:101AA0007B6858687B681B7807F11002194600F0C4
:101AB0008AF97B681A7A7B68093307F110014220A2
:101AC00000F0FAFA822000F021FB0123FB751CE0F4
:101AD0003B7B03F04003DBB2002B16D17B685868D8
:101AE0007B681B7807F11002194600F06CF97B68DF
:101AF0001A7A7B68093307F11001442000F0DCFA00
:101B0000842000F003FB0123FB7562B600BFFB7D60
:101B100018461837BD4680BD80B588B000AF7860E4
:101B200072B600BF0023FB7707F1100300221A6092
:101B30005A609A601A730023FB6000F01FFB034693
:101B40003B733B7B23F03F03DBB2002B66D03B7B38
:101B500023F03F03DBB2402B0CBF01230023DAB29A
:101B60003B7B23F03F03DBB2C02B0CBF01230023E0
:101B7000DBB21343DBB2002B07D007F110030D22B9
:101B80001946902000F028FA0CE03B7B23F03F033D
:101B9000DBB2802B06D107F110030D2219469420E9
:101BA00000F01AFA3B7B03F01803DBB2102B0CD1C8
:101BB0007B6802221A70B87CF97C3A7C7B7C00F04E
:101BC000A1F802467B685A600BE07B6801221A701C
:101BD0003B7C7A7C1146184600F0D6F802467B68BA
:101BE0005A603A7D7B681A727A7D7B685A72BA7D38
:101BF0007B689A72FA7D7B68DA723A7E7B681A7328
:101C00007A7E7B685A73BA7E7B689A73FA7E7B68A9
:101C1000DA733A7F7B681A740123FB7762B600BFE0
:101C2000FB7F18462037BD4680BD80B582B000AF2F
:101C300000233B600023FB7100F082FA03463B70F7
:101C40003B7803F00103DBB2002B02D0FB790133B8
:101C5000FB713B7803F00203DBB2002B02D0FB796F
:101C60000133FB71FB7918460837BD4680BD80B54E
:101C700082B000AF00233B600023FB712D2000F0F9
:101C800087F903463B703B7803F02003DBB2002B5F
:101C900001D00123FB71FB7918460837BD4680BD92
:101CA00080B582B000AF00233B600023FB712D2084
:101CB00000F06EF903463B703B7803F00803DBB29B
:101CC000002B01D00123FB71FB7918460837BD4674
:101CD00080BD80B582B000AF00233B600023FB7164
:101CE0002D2000F055F903463B703B7803F01003BC
:101CF000DBB2002B01D00123FB71FB7918460837BA
:101D0000BD4680BD90B486B000AF0446084611467B
:101D10001A462346FB710346BB710B467B71134683
:101D20003B7100237B6100233B610023FB73002395
:101D3000BB733B7903F00303FB733B795B09BB7314
:101D40007B79DB003B61BB7B3A6913443B613B69B8
:101D50009B003B61FB7B3A6913443B613B691B027F
:101D60003B61FB793A6913443B613B691B023B6170
:101D7000BB793A6913443B613B697B617B691846D7
:101D80001837BD4690BC704780B485B000AF03469D
:101D90000A46FB711346BB710023FB600023BB6046
:101DA000FB79DB00BB60BB795B09DBB21A46BB6821
:101DB0001344BB60BB68FB60FB6818461437BD4624
:101DC0005DF8047B704780B487B000AFF8600B46C5
:101DD0007A60FB720023FB75FB7A022B2ED1FB6825
:101DE000DAB27B68DA70FB681B0AFB60FB68DAB268
:101DF0007B689A70FB681B0AFB60FB68DBB203F030
:101E00000303FB75FB68DB00FB60FB68DBB223F0C0
:101E10001F03DAB2FB7D1344FB75FB7D0833FB75B2
:101E2000FB7D23F01403DAB27B685A70FB681B0A4F
:101E3000FB60FB68DAB27B681A7013E07B680022F3
:101E40009A707B680022DA70FB685B01FB60FB68BC
:101E5000DAB27B685A70FB681B0AFB60FB68DAB277
:101E60007B681A7000BF1C37BD465DF8047B704765
:101E700080B582B000AF0A23FB71012210210B480C
:101E800005F022FE0A4807F0F1F90346012B01D1C3
:101E9000012306E0FB79013BFB71FB79002BF1D1BB
:101EA000002318460837BD4680BD00BF0008024029
:101EB000F404012080B582B000AF0A23FB718021B9
:101EC0000F2000F0ABF80E2000F062F8034603F09C
:101ED000E003802B01D1012306E0FB79013BFB717C
:101EE000FB79002BEFD1002318460837BD4680BD93
:101EF00080B582B000AF0A23FB7100210F2000F0F3
:101F00008DF80E2000F044F8034603F0E003002BA8
:101F100001D1012306E0FB79013BFB71FB79002B2A
:101F2000EFD1002318460837BD4680BD80B582B08A
:101F300000AF0A23FB7120210F2000F06FF80E2064
:101F400000F026F8034603F0E003202B01D1012323
:101F500006E0FB79013BFB71FB79002BEFD10023FD
:101F600018460837BD4680BD80B500AF002210215D
:101F7000064805F0A9FDC02000F046F90122102115
:101F8000024805F0A1FD00BF80BD00BF000802406F
:101F900080B584B000AF0346FB710023FB730022C1
:101FA00010210C4805F090FD032000F02DF9FB797D
:101FB000184600F029F900F04DF90346FB730122A1
:101FC0001021044805F080FDFB7B18461037BD4604
:101FD00080BD00BF0008024080B582B000AF03465C
:101FE0003960FB711346BB71002210210A4805F0CD
:101FF0006BFDFB79184600F007F9BB791946386884
:1020000000F03AF901221021034805F05DFD00BF00
:102010000837BD4680BD00BF0008024080B582B0D1
:1020200000AF03460A46FB711346BB710022102124
:102030000B4805F049FD022000F0E6F8FB79184650
:1020400000F0E2F8BB79184600F0DEF8012210211A
:10205000034805F039FD00BF0837BD4680BD00BF0D
:102060000008024080B582B000AF03463A60FB71C1
:102070000B46BB71002210210E4805F025FD022001
:1020800000F0C2F8FB79184600F0BEF8BA79FB7987
:10209000D31ADBB20133DBB21946386800F0C6F858
:1020A00001221021034805F00FFD00BF0837BD468F
:1020B00080BD00BF0008024080B584B000AFB960A9
:1020C0007B600346FB731346BB73002210210E484E
:1020D00005F0FAFCFB7B184600F096F80421B8687E
:1020E00000F0A4F8BB7B184600F08EF8BB7B1946C5
:1020F000786800F09BF801221021034805F0E4FC09
:1021000000BF1037BD4680BD0008024080B582B0D8
:1021100000AF0346FB7100221021084805F0D4FCF3
:10212000FB79184600F070F801221021034805F0F1
:10213000CBFC00BF0837BD4680BD00BF0008024091
:1021400080B582B000AF0023FB71002210210A4845
:1021500005F0BAFCA02000F057F800F07BF8034629
:10216000FB7101221021044805F0AEFCFB791846F2
:102170000837BD4680BD00BF0008024080B582B070
:1021800000AF0023FB71002210210A4805F09CFCDF
:10219000B02000F039F800F05DF80346FB71012231
:1021A0001021044805F090FCFB7918460837BD461D
:1021B00080BD00BF0008024080B582B000AF03467A
:1021C000FB710B46BB7113467B71002210210D4839
:1021D00005F07AFC052000F017F8FB79184600F0AE
:1021E00013F8BB79184600F00FF87B79184600F019
:1021F0000BF801221021034805F066FC00BF0837E8
:10220000BD4680BD0008024080B582B000AF0346E5
:10221000FB71F91D02230122034806F0D1FA00BF29
:102220000837BD4680BD00BFF404012080B582B0F0
:1022300000AF78600B46FB70FB789AB20223796896
:10224000034806F0BDFA00BF0837BD4680BD00BF99
:10225000F404012080B582B000AF0023FB71F91DAA
:1022600002230122034806F0EFFBFB7918460837EA
:10227000BD4680BDF404012080B582B000AF786017
:102280000B46FB70FB789AB202237968034806F08C
:10229000DBFB00BF0837BD4680BD00BFF404012052
:1022A00080B582B000AF5F4808F03EFE03461A4694
:1022B0005D4B1A605D4B1B78002B07D05B4B1B7886
:1022C0001A465B4B1A61594B00221A70554B5B6CD6
:1022D000002B0DD10023FB7107E0FB79554A00214B
:1022E00042F82310FB790133FB71FB79042BF4D9FD
:1022F0004D4B1B68E02B00F08380E02B00F28880C0
:10230000242B4FD8242B00F2838001A252F823F013
:10231000AB23060811240608112406081124060818
:1023200011240608112406081124060811240608A1
:102330001124060811240608112406081124060891
:102340001124060811240608112406081124060881
:102350001124060811240608112406081124060871
:102360001124060811240608112406081124060861
:102370001124060811240608112406081124060851
:102380001124060811240608112406081124060841
:10239000B5230608D3230608DD230608E72306082D
:1023A000C9230608A02B23D032E01F4B1B68224A0A
:1023B00013602EE0012221491A4808F0AFFA1A4BA7
:1023C0001B681D4A136024E0174B1B681A4A1360F0
:1023D0001FE0154B1B68184A13601AE0124B1B686C
:1023E000154A136015E0104B1B68134A136010E088
:1023F0000D4B1B68104A13600A4800F023F808E0F0
:10240000094B1B680C4A1360064800F01BF800E0FB
:1024100000BF0B4B1B680133094A136000BF08372C
:10242000BD4680BD440801208802012080020120B1
:1024300020000120600201207402012078020120A6
:102440008402012080B584B000AF7860786808F01D
:1024500089FDF860FB68102B42D801A252F823F0E6
:10246000E1240608A5240608B1240608E12406088C
:10247000BD240608E1240608E1240608E124060834
:10248000C9240608E1240608E1240608E124060818
:10249000E1240608E1240608E1240608E1240608F0
:1024A000D5240608114B1B680133104A136018E04D
:1024B0000E4B5B6801330D4A536012E00B4B9B6877
:1024C00001330A4A93600CE0084BDB680133074A8A
:1024D000D36006E0054B1B690133044A136100E039
:1024E00000BF00BF1037BD4680BD00BF60020120A5
:1024F00080B582B000AF78607B681B68194A934250
:102500002CD1194B1B780A2B0ED1184B1B78032B9F
:1025100006D817480CF035FA0346DAB2154B1A7094
:10252000124B00221A7014E0104B1B78022B0DD8AE
:102530000E4B1B781A460C4B19780D4B99540B4BCC
:102540001B780133DAB2094B1A7002E0074B002204
:102550001A7001220449786808F0E0F900BF0837D2
:10256000BD4680BD0010014078020120810201209B
:102570007C0201208002012080B500AF344BDB7A61
:10258000012B03D1334B01221A7006E0304BDB7A6A
:10259000022B02D12F4B00221A702F4B03221A72EA
:1025A0002D4B40F201725A602B4B01221A702A4BBC
:1025B00002225A72284BC5229A72254BDA7A264B90
:1025C000DA722548FFF730FA234B00221A70224BAB
:1025D00000225A60204B00221A721F4B00225A72AE
:1025E0001D4B00229A721C4B0022DA721A4B0022F9
:1025F0001A73194B00225A73174B00229A73164B09
:102600000022DA73144B00221A74114B00221A7044
:102610000F4B00225A600E4B00221A720C4B002204
:102620005A720B4B00229A72094B0022DA72084B45
:1026300000221A73064B00225A73054B00229A732C
:10264000034B0022DA73024B00221A7400BF80BDD4
:1026500030020120A40201201C02012080B500AF3D
:10266000344BDB7A012B03D1334B03221A7006E083
:10267000304BDB7A002B02D12F4B02221A702F4BEA
:1026800003221A722D4B40F201725A602B4B012229
:102690001A702A4B02225A72284B68229A72254BD2
:1026A000DA7A264BDA722548FFF7BEF9234B00226F
:1026B0001A70224B00225A60204B00221A721F4BC4
:1026C00000225A721D4B00229A721C4B0022DA72B1
:1026D0001A4B00221A73194B00225A73174B00220F
:1026E0009A73164B0022DA73144B00221A74114BA2
:1026F00000221A700F4B00225A600E4B00221A72F1
:102700000C4B00225A720B4B00229A72094B00228A
:10271000DA72084B00221A73064B00225A73054BDB
:1027200000229A73034B0022DA73024B00221A74C0
:1027300000BF80BD30020120F00101201C020120F9
:1027400080B500AF2C4B03221A722B4B40F2017262
:102750005A60294B01221A70274B02225A72264BCB
:102760007E229A72244B0022DA722348FFF75CF92A
:10277000214B00221A70204B00225A601E4B00226F
:102780001A721D4B00225A721B4B00229A721A4B6E
:102790000022DA72184B00221A73174B00225A7368
:1027A000154B00229A73144B0022DA73124B00224D
:1027B0001A74124B00221A70104B00225A600F4BF1
:1027C00000221A720D4B00225A720C4B00229A7290
:1027D0000A4B0022DA72094B00221A73074B0022BF
:1027E0005A73064B00229A73044B0022DA73034B90
:1027F00000221A7400BF80BD1C020120300201209B
:1028000080B500AF0F4B03221A720E4B40F20172DB
:102810005A600C4B01221A700A4B02225A72094B61
:1028200050229A72074B0422DA72074B03221A7065
:102830000448FFF7F9F801F08BFE002001F0A4FF37
:1028400000BF80BD1C020120C0FD012080B500AF8B
:102850000F4B03221A720E4B40F201725A600C4B5E
:1028600001221A700A4B02225A72094B50229A72A4
:10287000074B0522DA72074B04221A700448FFF74F
:10288000D3F801F065FE002001F07EFF00BF80BD9F
:102890001C020120C0FD012080B500AF4B4B082277
:1028A0001A724A4B40F201725A60484B01221A7068
:1028B000464B07225A72454B62229A72434B0022C2
:1028C000DA72424B02221A73414B1B68DAB23F4B59
:1028D0005A733F4B5B68DAB23C4B9A733C4B9B6834
:1028E000DAB23A4BDA733A4BDB68DAB2374B1A7426
:1028F0003648FFF799F8052003F0F2FB334B062228
:102900001A72324B40F201725A60304B01221A7037
:102910002E4B05225A722D4B62229A722B4B0022AB
:10292000DA722A4B02221A73294B1B69DAB2274B3F
:102930005A73274B5B69DAB2244B9A732348FFF72B
:1029400073F8224B00221A70204B00225A601F4B52
:1029500000221A721D4B00225A721C4B00229A72DE
:102960001A4B0022DA72194B00221A73174B0022FD
:102970005A73164B00229A73144B0022DA73134BCE
:1029800000221A74134B00221A70124B00225A6054
:10299000104B00221A720F4B00225A720D4B00226C
:1029A0009A720C4B0022DA720A4B00221A73094BFE
:1029B00000225A73074B00229A73064B0022DA73E7
:1029C000044B00221A7400BF80BD00BF1C0201200E
:1029D000FC0301203002012080B500AF634B0822C8
:1029E0001A72624B40F201725A60604B01221A70F7
:1029F0005E4B07225A725D4B62229A725B4B002239
:102A0000DA725A4B03221A73594B1B68DAB2574BCE
:102A10005A73574B5B68DAB2544B9A73544B9B68AA
:102A2000DAB2524BDA73524BDB68DAB24F4B1A749C
:102A30004E48FEF7F9FF052003F052FB4B4B0822EE
:102A40001A724A4B40F201725A60484B01221A70C6
:102A5000464B07225A72454B62229A72434B002220
:102A6000DA72424B03221A73414B1B69DAB23F4BB5
:102A70005A733F4B5B69DAB23C4B9A733C4B9B6990
:102A8000DAB23A4BDA733A4BDB69DAB2374B1A7483
:102A90003648FEF7C9FF052003F022FB334B062220
:102AA0001A72324B40F201725A60304B01221A7096
:102AB0002E4B05225A722D4B62229A722B4B00220A
:102AC000DA722A4B03221A73294B1B6ADAB2274B9C
:102AD0005A73274B5B6ADAB2244B9A732348FEF78A
:102AE000A3FF224B00221A70204B00225A601F4B7A
:102AF00000221A721D4B00225A721C4B00229A723D
:102B00001A4B0022DA72194B00221A73174B00225B
:102B10005A73164B00229A73144B0022DA73134B2C
:102B200000221A74134B00221A70124B00225A60B2
:102B3000104B00221A720F4B00225A720D4B0022CA
:102B40009A720C4B0022DA720A4B00221A73094B5C
:102B500000225A73074B00229A73064B0022DA7345
:102B6000044B00221A7400BF80BD00BF1C0201206C
:102B7000D40301203002012080B500AF364B08227B
:102B80001A72354B40F201725A60334B01221A70AF
:102B9000314B07225A72304B62229A722E4BF1222D
:102BA000DA722D4B80221A732C4B5A782A4B5A73A7
:102BB0002A4B1A78284B9A73284B9A78264BDA734B
:102BC000264BDA78244B1A742348FEF72DFF224B4C
:102BD00000221A70204B00225A601F4B00221A72EA
:102BE0001D4B00225A721C4B00229A721A4B002273
:102BF000DA72194B00221A73174B00225A73164BC4
:102C000000229A73144B0022DA73134B00221A74B9
:102C1000134B00221A70124B00225A60104B0022F4
:102C20001A720F4B00225A720D4B00229A720C4BF3
:102C30000022DA720A4B00221A73094B00225A73DF
:102C4000074B00229A73064B0022DA73044B0022D2
:102C50001A7400BF80BD00BF1C0201206C0001205F
:102C60003002012080B500AF304B05221A722F4B85
:102C700040F201725A602D4B01221A702B4B042234
:102C80005A722A4B62229A72284BF122DA72274B2F
:102C900086221A73264B1A78244B5A732348FEF760
:102CA000C3FE224B00221A70204B00225A601F4B99
:102CB00000221A721D4B00225A721C4B00229A727B
:102CC0001A4B0022DA72194B00221A73174B00229A
:102CD0005A73164B00229A73144B0022DA73134B6B
:102CE00000221A74134B00221A70124B00225A60F1
:102CF000104B00221A720F4B00225A720D4B002209
:102D00009A720C4B0022DA720A4B00221A73094B9A
:102D100000225A73074B00229A73064B0022DA7383
:102D2000044B00221A7400BF80BD00BF1C020120AA
:102D3000C0FD01203002012080B500AF394B0822D0
:102D40001A72384B40F201725A60364B01221A70E7
:102D5000344B07225A72334B62229A72314B002253
:102D6000DA72304B05221A732F4B1B681B0EDAB236
:102D70002C4B5A732C4B1B681B0CDAB2294B9A73E1
:102D8000294B1B681B0ADAB2264BDA73264B1B68E9
:102D9000DAB2244B1A742348FEF746FE214B002278
:102DA0001A70204B00225A601E4B00221A721D4BD3
:102DB00000225A721B4B00229A721A4B0022DA72BE
:102DC000184B00221A73174B00225A73154B00221E
:102DD0009A73144B0022DA73124B00221A74134BAD
:102DE00000221A70114B00225A60104B00221A72F6
:102DF0000E4B00225A720D4B00229A720B4B00228E
:102E0000DA720A4B00221A73084B00225A73074BDE
:102E100000229A73054B0022DA73044B00221A74C5
:102E200000BF80BD1C020120C4FD01203002012032
:102E300080B500AF3C4B08221A723B4B40F2017246
:102E40005A60394B01221A70374B07225A72364B9F
:102E50006A229A72354BDB7A042B03D0324B012263
:102E6000DA7206E0314BDB7A042B02D12E4B0422BE
:102E7000DA722D4B00221A732D4B1A782A4B5A7393
:102E80002C4B1A78284B9A732B4B1A78264BDA73F3
:102E9000294B5A78244B1A742348FEF7C5FD224B60
:102EA00000221A70204B00225A601F4B00221A7217
:102EB0001D4B00225A721C4B00229A721A4B0022A0
:102EC000DA72194B00221A73174B00225A73164BF1
:102ED00000229A73144B0022DA73134B00221A74E7
:102EE000124B00221A70114B00225A600F4B002225
:102EF0001A720E4B00225A720C4B00229A720B4B24
:102F00000022DA72094B00221A73084B00225A730E
:102F1000064B00229A73054B0022DA73034B002202
:102F20001A7400BF80BD00BF1C02012030020120C6
:102F300048000120500001209801012080B500AF19
:102F40003C4B08221A723B4B40F201725A60394BDB
:102F500001221A70374B07225A72364B6A229A7234
:102F6000354BDB7A042B03D0324B0122DA7206E0B8
:102F7000314BDB7A042B02D12E4B0422DA722D4B1B
:102F800001221A732D4B9A782A4B5A732C4B9A783C
:102F9000284B9A732B4B1A7E264BDA73294B5A7E99
:102FA000244B1A742348FEF73FFD224B00221A706F
:102FB000204B00225A601F4B00221A721D4B002228
:102FC0005A721C4B00229A721A4B0022DA72194B69
:102FD00000221A73174B00225A73164B00229A7361
:102FE000144B0022DA73134B00221A74124B002286
:102FF0001A70114B00225A600F4B00221A720E4BAE
:1030000000225A720C4B00229A720B4B0022DA7289
:10301000094B00221A73084B00225A73064B0022F8
:103020009A73054B0022DA73034B00221A7400BF17
:1030300080BD00BF1C020120300201204800012099
:10304000500001209801012080B500AF3C4B0822C0
:103050001A723B4B40F201725A60394B01221A70CE
:10306000374B07225A72364B6A229A72354BDB7AFB
:10307000042B03D0324B0122DA7206E0314BDB7AAB
:10308000042B02D12E4B0422DA722D4B02221A732A
:103090002D4B9A782A4B5A732B4BDA78284B9A731C
:1030A0002A4B9A78264BDA73284BDA78244B1A7419
:1030B0002348FEF7B9FC224B00221A70204B002255
:1030C0005A601F4B00221A721D4B00225A721C4B71
:1030D00000229A721A4B0022DA72194B00221A73DC
:1030E000174B00225A73164B00229A73144B00227E
:1030F000DA73134B00221A74124B00221A70114B10
:1031000000225A600F4B00221A720E4B00225A7294
:103110000C4B00229A720B4B0022DA72094B0022F0
:103120001A73084B00225A73064B00229A73054B00
:103130000022DA73034B00221A7400BF80BD00BF67
:103140001C02012030020120540101205C010120F9
:1031500080B500AF3C4B08221A723B4B40F2017223
:103160005A60394B01221A70374B07225A72364B7C
:103170006A229A72354BDB7A042B03D0324B012240
:10318000DA7206E0314BDB7A042B02D12E4B04229B
:10319000DA722D4B03221A732D4B1A782A4B5A736D
:1031A0002B4B5A78284B9A732A4B1A78264BDA7392
:1031B000284B5A78244B1A742348FEF735FC224BCF
:1031C00000221A70204B00225A601F4B00221A72F4
:1031D0001D4B00225A721C4B00229A721A4B00227D
:1031E000DA72194B00221A73174B00225A73164BCE
:1031F00000229A73144B0022DA73134B00221A74C4
:10320000124B00221A70114B00225A600F4B002201
:103210001A720E4B00225A720C4B00229A720B4B00
:103220000022DA72094B00221A73084B00225A73EB
:10323000064B00229A73054B0022DA73034B0022DF
:103240001A7400BF80BD00BF1C02012030020120A3
:10325000540101205C01012080B500AF384B0622EB
:103260001A72374B40F201725A60354B01221A70C4
:10327000334B05225A72324B6A229A72314BDB7AF7
:10328000042B03D02E4B0122DA7206E02D4BDB7AA1
:10329000042B02D12A4B0422DA72294B04221A731E
:1032A000294B1A79264B5A73284B1A79244B9A7357
:1032B0002348FEF7B9FB224B00221A70204B002254
:1032C0005A601F4B00221A721D4B00225A721C4B6F
:1032D00000229A721A4B0022DA72194B00221A73DA
:1032E000174B00225A73164B00229A73144B00227C
:1032F000DA73134B00221A74124B00221A70114B0E
:1033000000225A600F4B00221A720E4B00225A7292
:103310000C4B00229A720B4B0022DA72094B0022EE
:103320001A73084B00225A73064B00229A73054BFE
:103330000022DA73034B00221A7400BF80BD00BF65
:103340001C02012030020120540101205C010120F7
:1033500080B500AF3C4B08221A723B4B40F2017221
:103360005A60394B01221A70374B07225A72364B7A
:103370006A229A72354BDB7A042B03D0324B01223E
:10338000DA7206E0314BDB7A042B02D12E4B042299
:10339000DA722D4B05221A732D4B5A782A4B5A7329
:1033A0002C4B5A78284B9A732B4B1A7B264BDA738B
:1033B000294B5A7B244B1A742348FEF735FB224BCA
:1033C00000221A70204B00225A601F4B00221A72F2
:1033D0001D4B00225A721C4B00229A721A4B00227B
:1033E000DA72194B00221A73174B00225A73164BCC
:1033F00000229A73144B0022DA73134B00221A74C2
:10340000124B00221A70114B00225A600F4B0022FF
:103410001A720E4B00225A720C4B00229A720B4BFE
:103420000022DA72094B00221A73084B00225A73E9
:10343000064B00229A73054B0022DA73034B0022DD
:103440001A7400BF80BD00BF1C02012030020120A1
:1034500048000120500001209801012080B500AFF4
:103460003D4B08221A723C4B40F201725A603A4BB3
:1034700001221A70384B07225A72374B6A229A720D
:10348000364BDB7A042B03D0334B0122DA7206E091
:10349000324BDB7A042B02D12F4B0422DA722E4BF3
:1034A00006221A732E4BDA782B4B5A732D4BDA788F
:1034B000294B9A732C4B93F82420274BDA732A4B11
:1034C00093F82520244B1A742348FEF7ADFA224BBB
:1034D00000221A70204B00225A601F4B00221A72E1
:1034E0001D4B00225A721C4B00229A721A4B00226A
:1034F000DA72194B00221A73174B00225A73164BBB
:1035000000229A73144B0022DA73134B00221A74B0
:10351000124B00221A70114B00225A600F4B0022EE
:103520001A720E4B00225A720C4B00229A720B4BED
:103530000022DA72094B00221A73084B00225A73D8
:10354000064B00229A73054B0022DA73034B0022CC
:103550001A7400BF80BD00BF1C0201203002012090
:1035600048000120500001209801012080B500AFE3
:103570002E4B03221A722D4B40F201725A602B4BD4
:1035800001221A70294B02225A72284B50229A7239
:10359000264B0122DA72264B00221A702348FEF7CE
:1035A00043FA224B00221A70204B00225A601F4B14
:1035B00000221A721D4B00225A721C4B00229A7272
:1035C0001A4B0022DA72194B00221A73174B002291
:1035D0005A73164B00229A73144B0022DA73134B62
:1035E00000221A74134B00221A70124B00225A60E8
:1035F000104B00221A720F4B00225A720D4B002200
:103600009A720C4B0022DA720A4B00221A73094B91
:1036100000225A73074B00229A73064B0022DA737A
:10362000044B00221A7400BF80BD00BF1C020120A1
:10363000C0FD01203002012080B500AF2E4B0322D7
:103640001A722D4B40F201725A602B4B01221A70F4
:10365000294B02225A72284B50229A72264B03227F
:10366000DA72264B01221A702348FEF7DDF9224B4D
:1036700000221A70204B00225A601F4B00221A723F
:103680001D4B00225A721C4B00229A721A4B0022C8
:10369000DA72194B00221A73174B00225A73164B19
:1036A00000229A73144B0022DA73134B00221A740F
:1036B000134B00221A70124B00225A60104B00224A
:1036C0001A720F4B00225A720D4B00229A720C4B49
:1036D0000022DA720A4B00221A73094B00225A7335
:1036E000074B00229A73064B0022DA73044B002228
:1036F0001A7400BF80BD00BF1C020120C0FD012064
:103700003002012080B500AF0F4B03221A720E4B1E
:1037100040F201725A600C4B01221A700A4B0222CD
:103720005A72094B50229A72074B0222DA72074BE7
:1037300002221A700448FEF777F900F009FF002012
:1037400001F022F800BF80BD1C020120C0FD012055
:1037500080B500AF0F4B03221A720E4B40F201727C
:103760005A600C4B01221A700A4B02225A72094B02
:1037700051229A72074B0122DA72074B05221A7006
:103780000448FEF751F900F0E3FE002000F0FCFFD2
:1037900000BF80BD1C020120C0FD012080B500AF2C
:1037A0000F4B03221A720E4B40F201725A600C4BFF
:1037B00001221A700A4B02225A72094B51229A7244
:1037C000074B0322DA72074B06221A700448FEF7F1
:1037D0002BF900F0BDFE002000F0D6FF00BF80BD39
:1037E0001C020120C0FD012080B500AF2D4B02223C
:1037F0001A722C4B40F201725A602A4B01221A7045
:10380000284B01225A72274B54229A7268220021B7
:1038100025480BF04BF92348FEF706F9214B00220F
:103820001A70204B00225A601E4B00221A721D4B48
:1038300000225A721B4B00229A721A4B0022DA7233
:10384000184B00221A73174B00225A73154B002293
:103850009A73144B0022DA73124B00221A74134B22
:1038600000221A70114B00225A60104B00221A726B
:103870000E4B00225A720D4B00229A720B4B002203
:10388000DA720A4B00221A73084B00225A73074B54
:1038900000229A73054B0022DA73044B00221A743B
:1038A00000BF80BD1C020120A802012030020120BF
:1038B00080B500AF72B600BFA74B08221A72A64BA4
:1038C00040F201725A60A44B01221A70A24B0722E7
:1038D0005A72A14B59229A729F4B0A22DA729F4B5D
:1038E0001B68DAB29C4B1A739C4B5B68DAB29A4B3A
:1038F0005A739A4B9B68DAB2974B9A73974BDB6873
:10390000DAB2954BDA73954B1B69DAB2924B1A74A3
:103910009148FEF789F8052002F0E2FB8E4B082261
:103920001A728D4B40F201725A608B4B01221A7051
:10393000894B07225A72884B59229A72864B0A2267
:10394000DA72864B5B69DAB2834B1A73834B9B69DD
:10395000DAB2814B5A73814BDB69DAB27E4B9A73D0
:103960007E4B1B6ADAB27C4BDA737C4B5B6ADAB251
:10397000794B1A747848FEF757F8052002F0B0FB2F
:10398000754B08221A72744B40F201725A60724BE6
:1039900001221A70704B07225A726F4B59229A7289
:1039A0006D4B0A22DA726D4B9B6ADAB26A4B1A735C
:1039B0006A4BDB6ADAB2684B5A73684B1B6BDAB23C
:1039C000654B9A73654B5B6BDAB2634BDA73634B8F
:1039D0009B6BDAB2604B1A745F48FEF725F805203E
:1039E00002F07EFB5C4B08221A725B4B40F20172C4
:1039F0005A60594B01221A70574B07225A72564B84
:103A000059229A72544B0A22DA72544BDB6BDAB2A7
:103A1000514B1A73514B1B6CDAB24F4B5A734F4BCD
:103A20005B6CDAB24C4B9A734C4B9B6CDAB24A4BE0
:103A3000DA734A4BDB6CDAB2474B1A744648FDF72F
:103A4000F3FF052002F04CFB434B08221A72424B55
:103A500040F201725A60404B01221A703E4B07221D
:103A60005A723D4B59229A723B4B0A22DA723B4BF7
:103A70001B6DDAB2384B1A73384B5B6DDAB2364BCA
:103A80005A73364B9B6DDAB2334B9A73334BDB6D03
:103A9000DAB2314BDA73314B1B6EDAB22E4B1A7439
:103AA0002D48FDF7C1FF052002F01AFB2A4B042226
:103AB0001A72294B40F201725A60274B01221A7088
:103AC000254B03225A72244B59229A72224B0A2206
:103AD000DA72224B5B6EDAB21F4B1A731E48FDF787
:103AE000A3FF052002F0FCFA1B4B00221A701A4BB0
:103AF00000225A60184B00221A72174B00225A7289
:103B0000154B00229A72144B0022DA72124B0022DB
:103B10001A73114B00225A730F4B00229A730E4BEB
:103B20000022DA730C4B00221A740D4B00221A701B
:103B30000B4B00225A600A4B00221A72084B0022DB
:103B40005A72074B00229A72054B0022DA72044B1C
:103B500000221A7306E000BF1C020120A802012007
:103B600030020120074B00225A73064B00229A7341
:103B7000044B0022DA73034B00221A7462B600BFB2
:103B800000BF80BD3002012080B500AF5D4B1B68D7
:103B900001335C4A13605C4B1B68002B02D15B4B0A
:103BA00000221A705A4B9B7A3E2B01D1FEF7C8FDBA
:103BB000574B9B7A282B01D1FEF750FD544B9B7A33
:103BC000852B01D1FEF7D8FC514B9B7A102B29D1C4
:103BD0004F4BDB7A012B01D1FFF7C8FC4C4BDB7A52
:103BE000032B01D1FFF728FD494BDB7A022B05D1CE
:103BF000464B1B78012B01D1FFF784FD444BDB7A48
:103C0000042B05D1414B1B78012B01D1FEF7F8FDA8
:103C10003F4BDB7A052B05D13C4B1B78012B01D1A7
:103C2000FEF714FE3A4B1B7B862B09D1384BDB7A0F
:103C3000F12B05D1364B9B7A222B01D1FFF712F8DD
:103C4000334B9B7A112B09D1314BDB7A012B05D1F8
:103C50002F4B5B7A022B01D1FFF77AFD2C4B9B7A1D
:103C6000112B09D12A4BDB7A032B05D1284B5B7A28
:103C7000022B01D1FFF792FD254B9B7A142B01D12A
:103C8000FFF7B2FD224B9B7A192B01D1FFF710FEF3
:103C90001E4B1B78012B3FD11D4B9B7A2A2B0AD13F
:103CA0001B4BDB7A042B06D1194B1B7B1A46194B95
:103CB00053F822309847164B9B7A222B40F097807E
:103CC000134BDB7A002B11D1114B1B7B022B01D143
:103CD000FEF7E2FD0E4B1B7B032B01D1FEF77CFEB2
:103CE0000B4B1B7B052B01D1FFF726F8084BDB7A2A
:103CF000F12B7CD1064B1B7B802B78D1FEF73CFF50
:103D000075E000BFC4FD01208C020120C0FD012030
:103D10003002012070000120594B9B7A222B0BD0DE
:103D2000574B9B7A102B62D1554BDB7A012B03D179
:103D3000534BDB7A032B5AD0524B04221A72514B4D
:103D400040F201725A604F4B01221A704D4B032210
:103D50005A724C4B7F229A724A4B1922DA72494BA3
:103D600022221A734748FDF75FFE464B00221A7065
:103D7000444B00225A60434B00221A72414B0022EE
:103D80005A72404B00229A723E4B0022DA723D4B2F
:103D900000221A733B4B00225A733A4B00229A734B
:103DA000384B0022DA73374B00221A74344B00224E
:103DB0001A70334B00225A60314B00221A72304B7A
:103DC00000225A722E4B00229A722D4B0022DA7278
:103DD0002B4B00221A732A4B00225A73284B0022C5
:103DE0009A73274B0022DA73254B00221A74254B55
:103DF00000221A70234B00225A60224B00221A72B2
:103E0000204B00225A721F4B00229A721D4B002237
:103E1000DA721C4B00221A731A4B00225A73194B88
:103E200000229A73174B0022DA73164B00221A7481
:103E3000134B00221A70124B00225A60104B0022C2
:103E40001A720F4B00225A720D4B00229A720C4BC1
:103E50000022DA720A4B00221A73094B00225A73AD
:103E6000074B00229A73064B0022DA73044B0022A0
:103E70001A74054B1B680133034A136000BF80BDF1
:103E8000300201201C0201208C02012080B582B08A
:103E900000AF03460A46FB711346BB7172B600BF02
:103EA0002D4B1B78002B50D1BB79012B33D1FB79E3
:103EB000013B5B000133294A52F82330012B08D023
:103EC000FB79013B5B000133244A52F82330002B7D
:103ED0003BD1234B01221A70214B4FF486725A605A
:103EE0001F4B01221A721E4AFB7953721C48FDF7C0
:103EF0009BFDFB79013B5B00FA79184941F82320CF
:103F0000BB795A1CFB79013B5B0001331146134A14
:103F100042F8231019E0FB79013B5B0001330F4AA3
:103F200052F82330012B10D1FB79013B5B00FA7969
:103F30000A4941F82320BB795A1CFB79013B5B00FD
:103F400001331146054A42F8231062B600BF00BF94
:103F50000837BD4680BD00BFA4020120A802012091
:103F60009002012080B483B000AF7860044B01223E
:103F70001A7000BF0C37BD465DF8047B704700BF68
:103F80001003012080B582B000AF7860134802F0C2
:103F900093FC0346124A1360114B1B68042B12D08A
:103FA000042B16D8012B02D0022B06D011E00D4BAA
:103FB0001B6801330B4A13600BE00A4B5B6801334B
:103FC000084A536005E0074B9B680133054A93603C
:103FD00000BF00BF0837BD4680BD00BF3C040120C4
:103FE000280301201C03012080B582B000AF8E4859
:103FF00002F062FC03468D4A13608C4B1B68002B59
:1040000003D08948FFF7BEFFB2E00023FB7107E051
:10401000FB79874A002142F82310FB790133FB71B9
:10402000FB79022BF4D9A3E0824B1B78032B67D8D2
:1040300001A252F823F000BF494006087740060865
:10404000A5400608D340060801224FF480717A4843
:1040500003F03AFD00224FF48061784803F034FD0C
:1040600000221021754803F02FFD00222021734803
:1040700003F02AFD45E000224FF480716E4803F002
:1040800023FD01224FF480616C4803F01DFD0022E6
:1040900010216A4803F018FD00222021674803F030
:1040A00013FD2EE000224FF48071634803F00CFDF5
:1040B00000224FF48061614803F006FD00221021C8
:1040C0005E4803F001FD012220215C4803F0FCFC66
:1040D00017E001224FF48071574803F0F5FC0022ED
:1040E0004FF48061554803F0EFFC01221021534842
:1040F00003F0EAFC00222021504803F0E5FC00E038
:1041000000BF494802F076F84D4B00221A7004E0D7
:104110004C4B1B6801334B4A1360494B1B78002BF7
:1041200005D1484B1B6844F61F629342F0D9454BBA
:104130001B6844F62062934203D101210A20FFF755
:10414000A5FE404B00221A60374802F062FA014691
:10415000384B1B781A4689B23B4B23F81210324871
:1041600002F006F9334B1B780133DAB2314B1A7087
:10417000304B1B78032B7FF657AF2E4B00221A7063
:10418000324B1968324BA3FB01231A0913469B00DB
:1041900013449B00CA1A002A21D12C4B1B68002B08
:1041A0001DD00023BB7113E0BB792A4A52F82320AB
:1041B000BB792749A1FB02121209274941F82320A4
:1041C000BB79244A002142F82310BB790133BB712B
:1041D000BB79032BE8D91D4B00221A601BE000239A
:1041E0007B7110E07B791B4A52F823207B791649BA
:1041F00031F8133019467B790A44164941F82320D7
:104200007B7901337B717B79032BEBD90F4B1B68D7
:1042100001330E4A1360114B1B6801330F4A1360C0
:1042200000BF0837BD4680BD3C0401202C0301209F
:104230001C03012030030120000002400004024062
:10424000100301203403012014030120380301204E
:10425000CDCCCCCC3C030120200001204C0301201C
:1042600080B500AF374B1B68002B27D100213648A3
:1042700005F04CFB0021354805F048FB042133488C
:1042800005F044FB0821314805F040FB0C212F4884
:1042900005F03CFB2C4B1B6800225A632B4B1B6820
:1042A00000225A63294B1B6800229A63274B1B6824
:1042B0000022DA63254B1B6800221A64224805F0AD
:1042C000C8FE0346042B05D1214B1B680133204A4D
:1042D000136002E01E4B00221A601C4805F0B9FE74
:1042E0000346042B05D11A4B5B680133184A53600F
:1042F00002E0174B00225A60164805F0AAFE03465A
:10430000042B05D1124B9B680133114A936002E0E4
:104310000F4B00229A60104805F09BFE0346042BC9
:1043200005D10B4BDB680133094AD36002E0084B2F
:104330000022DA60034B1B680133024A136000BF9E
:1043400080BD00BF6003012028060120DC0601209B
:1043500050030120900701207405012080B582B030
:1043600000AF1A226749684800F0C4F90A22674979
:10437000674800F0BFF906226649674800F0BAF9BD
:10438000604B1B68B3F1FF3F05D1682200215D48F7
:104390000AF08CFB07E0614A5A4B10461946682325
:1043A0001A460AF013FC594B1B68B3F1FF3F33D197
:1043B0005B4B1B689AB25B4B1A80594B5B689AB295
:1043C000584B5A80564B9B689AB2564B9A80544B26
:1043D000DB689AB2534BDA80514B1B69DAB2524B0D
:1043E0001A704F4B5B69DAB2504B1A704C4B9B6999
:1043F000DAB24F4B1A704A4BDB69DAB24D4B1A7086
:10440000474B1B6ADAB24C4B1A7002230A2244490A
:104410003F4800F019F92CE03C4B1B689AB2414B25
:104420001A803A4B5B689AB23E4B5A80374B9B6876
:104430009AB23C4B9A80354BDB689AB2394BDA80A2
:10444000324B1B69DAB2384B1A70304B5B69DAB207
:10445000364B1A702D4B9B69DAB2364B1A702B4BC8
:10446000DB69DAB2324B1A70284B1B6ADAB2324B74
:104470001A70284B1B68B3F1FF3F21D10023FB7159
:104480000AE0FA79FB792D4951F822202C4941F8AC
:104490002320FB790133FB71FB79032BF1D9274BE7
:1044A0001B69DAB2274B1A70244B5B69DAB2264BD0
:1044B0001A70032306222149174800F0C5F81AE0B4
:1044C0000023BB710AE0BA79BB79124951F8222066
:1044D0001B4941F82320BB790133BB71BB79032B06
:1044E000F1D90C4B1B69DAB2164B1A70094B5B6998
:1044F000DAB2154B1A70154B01221A7000BF08373B
:10450000BD4680BD6C03012000000108D4030120DA
:1045100000800008FC03012000C00008A802012060
:104520008C000120900101208D0101208C010120CF
:104530004D0101204C0101204E010120B400012059
:10454000580001204F010120500101206903012082
:1045500080B582B000AF0023FB7115E0FB79164AED
:1045600052F82320FB79154951F823309A4208D09C
:10457000134B01221A701A2210490F480AF026FB29
:1045800005E0FB790133FB71FB79192BE6D90C4B64
:104590001B78012B08D10A4B00221A7004231A221F
:1045A0000549084800F050F8074B01221A7000BF77
:1045B0000837BD4680BD00BF6C030120A802012062
:1045C00014040120000001086A03012080B500AF37
:1045D000194B1B78032B07D1184B1B78002B03D1E9
:1045E000174B01221A7006E0134B1B78022B02D1E5
:1045F000124B00221A70124B1B78002B02D0012B99
:1046000009D011E00E4B02221A70FFF7A7FE0C4BE7
:1046100003221A7008E00A4B02221A70FFF798FF73
:10462000074B03221A7000BF064B1B680133054A73
:10463000136000BF80BD00BF2D0401206A0301206C
:104640006803012064030120B0B588B000AFF860B2
:10465000B9603B601346FB800023FB613B68BB6194
:104660003B687B6102F010FD214B00221A60204B59
:1046700002221A611E4ABB6993607A69BB69D31A28
:1046800001331B4AD36007F110031946184802F0A2
:1046900079FE0346002B1FD002F028FD034622E0DE
:1046A000FB699B00BA6813441B6800221C46154630
:1046B00022462B46F968022002F0E2FB0346002B5B
:1046C00006D1FB680433FB60FB690133FB6103E047
:1046D00002F00CFD034606E0FB88FA699A42DFD33C
:1046E00002F0F4FC002318462037BD46B0BD00BFE1
:1046F0001804012080B487B000AFF860B960134699
:10470000FB800023FB820EE0FB8A9B001A46FB68BD
:1047100013441946FB8A9B00BA6813440A681A605E
:10472000FB8A0133FB82FA8AFB889A42ECD300BFF2
:1047300000BF1C37BD465DF8047B704780B400AFF6
:10474000BFF34F8F00BF064BDB6803F4E062044900
:10475000044B1343CB60BFF34F8F00BF00BFFDE797
:1047600000ED00E00400FA0580B500AF00F070F83D
:1047700000F028F8034B1B680133024A136000BFA6
:1047800080BD00BF3004012080B582B000AF034679
:10479000FB7172B600BFFB79002B0AD0064B0022DA
:1047A0001A60064AFB791370054B1B680133044AF3
:1047B0001360FFF7C3FF00BFC4FD0120C8FD012047
:1047C000CCFD012080B582B000AF1D4B5B6F1C4A51
:1047D00043F0807353671B4B1B78002B2CD1194B74
:1047E00001221A700023FB711BE0FB79002B07D01C
:1047F000FB79012B04D1FB79134A002142F82310E5
:10480000FB7903F00103DBB2002B07D0FB79022B0D
:1048100004D9FB790C4A002142F82310FB790133BB
:10482000FB71FB79192BE0D9084B1B78002B03D0C7
:1048300001210820FFF72AFB00BF0837BD4680BDD5
:104840000038024038040120A8020120C8FD0120E0
:1048500080B500AF304B1B78042B01D100F08CF8F1
:104860002D4B1B78002B05D12B4B02221A702B4BA2
:1048700000221A602A4B1B78022B0FD0294B1B8871
:10488000B3F5966F0AD20121274803F005F90346D4
:10489000012B03D0254B1B69032B05D11E4B022294
:1048A0001A701E4B00221A601D4B1B78002B16D16C
:1048B0001C4B1B88B3F5966F11D2174B1B78022B3C
:1048C0000DD10121184803F0E7F80346002B06D16B
:1048D000164B1B69032B02D00F4B03221A700E4B91
:1048E0001B78032B16D10D4B1B68002B03D1104BEB
:1048F0001B680A4A13600E4B1A68084B1B68D31AD0
:10490000B3F5FA6F06D9054B1B68002B02D0024B9A
:1049100004221A7000BF80BD2D0401203404012040
:10492000F0010120140301200000024034000120A6
:104930003004012080B500AF01210D4803F0ACF830
:104940000346012B0DD10B4B1B780133DAB2094B17
:104950001A70084B1B78032B06D10020FFF714FFB9
:1049600002E0044B00221A7003F062F900BF80BD20
:10497000000002403904012080B582B000AF72B659
:1049800000BF0221914802F0A3FF04218F4802F0EA
:104990009FFF08218D4802F09BFF10218B4802F0F9
:1049A00097FF2021894802F093FF4021874802F0B9
:1049B0008FFF8021854802F08BFF4FF48071834880
:1049C00002F086FF4FF40071804802F081FF4FF43F
:1049D00080617E4802F07CFF4FF400617B4802F06A
:1049E00077FF4FF48051794802F072FF4FF4004195
:1049F000764802F06DFF0121754802F069FF02213F
:104A0000734802F065FF0421714802F061FF08213C
:104A10006F4802F05DFF10216D4802F059FF202120
:104A20006B4802F055FF4021694802F051FF802198
:104A3000674802F04DFF4FF48071654802F048FF6F
:104A40004FF40071624802F043FF4FF48061604808
:104A500002F03EFF4FF400615D4802F039FF4FF471
:104A600080515B4802F034FF4FF40051584802F087
:104A70002FFF4FF48041564802F02AFF4FF40041C7
:104A8000534802F025FF0121524802F021FF022184
:104A9000504802F01DFF04214E4802F019FF082182
:104AA0004C4802F015FF10214A4802F011FF202166
:104AB000484802F00DFF4021464802F009FF8021DE
:104AC000444802F005FF4FF48071424802F000FFB5
:104AD0004FF400713F4802F0FBFE4FF480613D4807
:104AE00002F0F6FE4FF400613A4802F0F1FE4FF496
:104AF0008051384802F0ECFE4FF40051354802F086
:104B0000E7FE4FF48041334802F0E2FE4FF40041EB
:104B1000304802F0DDFE04212F4802F0D9FE0121C9
:104B20002E4802F0D5FE02212C4802F0D1FE2C4B7B
:104B30001B6B2B4A23F002031363294B1B6B284A80
:104B400023F004031363264B1B6B254A23F08003D9
:104B50001363244804F068FE234804F065FE2348EC
:104B600004F046FD224805F09DFEFCF7B3FE214807
:104B700003F0F4FD00F012FE0023FB7107E097F94B
:104B80000730184602F0DCF8FB790133FB71FB7942
:104B9000512BF4D9184B1B68174A23F005031360F7
:104BA000164B00221A70164B00221A60154804F0AA
:104BB0007DFD62B600BF0121012002F0FFFF002051
:104BC000FFF7E2FD00BF0837BD4680BD0000024090
:104BD0000004024000080240000C0240001C024099
:104BE0000038024028060120DC060120740501205F
:104BF00044080120F404012010E000E0C8FD012079
:104C0000CCFD01209007012080B584B000AF3B4669
:104C100000221A605A609A60DA60214B214A1A60B9
:104C20001F4B4FF480325A601D4B00229A601C4B80
:104C300000221A611A4B00221A76194B002283F8BF
:104C40002020174B0022DA62154B174A9A62144B48
:104C50000022DA60124B0122DA61114B002283F844
:104C600030200F4B01225A610D4801F05DFA0346D6
:104C7000002B01D000F026FC04233B6001237B6065
:104C80000723BB603B461946054801F0E3FC034699
:104C9000002B01D000F016FC00BF1037BD4680BDD0
:104CA0003C040120002001400100000F80B58AB0C3
:104CB00000AF786007F1140300221A605A609A600E
:104CC000DA601A617B681B68174A934227D1002378
:104CD0003B61164B5B6C154A43F480735364134B72
:104CE0005B6C03F480733B613B690023FB600F4BFB
:104CF0001B6B0E4A43F0010313630C4B1B6B03F059
:104D00000103FB60FB6810237B610323BB6100236D
:104D1000FB6107F114031946054802F055FC00BF7A
:104D20002837BD4680BD00BF00200140003802404A
:104D30000000024080B400AF064BD3E90023501CB2
:104D400043F10001034BC3E9000100BFBD465DF81C
:104D5000047B7047B004012080B400AF064BD3E958
:104D60000023501C43F10001034BC3E9000100BFC5
:104D7000BD465DF8047B7047A804012080B582B071
:104D800000AF786039602320FFF7FEFC00BF0837D2
:104D9000BD4680BD80B500AF2220FFF7F5FC00BF07
:104DA00080BD000080B500AF284B002201212848BB
:104DB00006F0A2FE0346274A1360274B002201217A
:104DC000264806F099FE0346254A1360254B00222B
:104DD0000121254806F090FE0346244A13601D4B2E
:104DE0001B680521184606F003FF1D4B1B680A21AE
:104DF000184606F0FDFE1D4B1B686421184606F0A0
:104E0000F7FEFFF7E3FB1A4A00211A4806F0CCFD33
:104E10000346194A1360194A0021194806F0C4FDD7
:104E20000346184A1360184A0021184806F0BCFDD2
:104E30000346174A1360174A0021174806F0B4FDCD
:104E40000346164A136000BF80BD00BFA0ED0608F0
:104E5000B14F0608E8040120B0ED0608FD4F060832
:104E6000EC040120C0ED060831500608F0040120D2
:104E700010ED0608A14E0608D804012034ED0608FE
:104E8000ED4E0608DC04012058ED0608354F0608F3
:104E9000E00401207CED0608714F0608E4040120BF
:104EA000B0B582B000AF78600D4B1B78012B0AD1F2
:104EB0000C4B1B78022B06D1FBF732FCFBF7BAFF39
:104EC000074B00221A70084BD3E90023541C43F10E
:104ED0000005054BC3E90045002008F0B3FAE3E7FD
:104EE000A30401202D040120B8040120B0B582B034
:104EF00000AF78600D4B1B78012B0AD1FFF734FC13
:104F0000FFF772F8FFF7ACF9FDF7CAF9074B00227B
:104F10001A70074BD3E90023541C43F10005044BDE
:104F2000C3E90045002008F08DFAE3E7A104012061
:104F3000C0040120B0B582B000AF78600A4B1B7886
:104F4000012B04D1FFF742FB074B00221A70074BDD
:104F5000D3E90023541C43F10005044BC3E9004589
:104F6000002008F06FFAE9E7A5040120C804012039
:104F7000B0B582B000AF78600B4B1B78012B06D127
:104F8000FCF75CF9FEF700FE074B00221A70074B96
:104F9000D3E90023541C43F10005044BC3E9004549
:104FA000002008F04FFAE7E7A2040120D004012016
:104FB00080B582B000AF78600B4B01221A700B4BAA
:104FC00001221A700A4B01221A700A4B1B681846FC
:104FD00008F0E0FA084B1B68184608F0DBFA00BF3F
:104FE0000837BD4680BD00BFA0040120A1040120F8
:104FF000A2040120DC040120E404012080B582B079
:1050000000AF7860074B01221A70074B01221A701B
:10501000064B1B68184608F0BDFA00BF0837BD46AE
:1050200080BD00BFA3040120A4040120D8040120F6
:1050300080B582B000AF7860054B01221A70054B35
:105040001B68184608F0A6FA00BF0837BD4680BDA9
:10505000A5040120E004012080B58AB000AF07F16B
:10506000140300221A605A609A60DA601A61002301
:105070003B618C4B1B6B8B4A43F004031363894BDE
:105080001B6B03F004033B613B690023FB60854B12
:105090001B6B844A43F080031363824B1B6B03F04A
:1050A0008003FB60FB680023BB607E4B1B6B7D4A6B
:1050B00043F0010313637B4B1B6B03F00103BB60E5
:1050C000BB6800237B60774B1B6B764A43F002037F
:1050D0001363744B1B6B03F002037B607B6800233C
:1050E0003B60704B1B6B6F4A43F0080313636D4BBF
:1050F0001B6B03F008033B603B6800224FF62371F3
:10510000694802F0E1FC00224FF48171674802F027
:10511000DBFC01221021644802F0D6FC002240F2A0
:10512000FC71634802F0D0FC00220421614802F0C7
:10513000CBFC4FF400537B610123BB610023FB6177
:1051400000233B6207F114031946574802F03CFA6A
:105150004FF440437B610123BB610223FB610023C9
:105160003B6207F1140319464F4802F02DFA41F64D
:1051700023737B610123BB610223FB6103233B6239
:1051800007F114031946484802F01EFA0C237B610C
:105190000323BB610023FB6107F114031946424856
:1051A00002F012FA01237B610023BB610223FB6141
:1051B00007F1140319463D4802F006FA02237B6109
:1051C0000123BB610023FB6100233B6207F1140351
:1051D0001946364802F0F8F941F60C037B610323C7
:1051E000BB610023FB6107F1140319462F4802F04D
:1051F000EBF910237B610123BB610123FB610323D6
:105200003B6207F114031946274802F0DDF940F22A
:10521000BC737B610123BB610223FB6103233B62FF
:1052200007F114031946224802F0CEF94FF47043F7
:105230007B610323BB610023FB6107F11403194663
:105240001B4802F0C1F94FF480737B610123BB61FD
:105250000223FB6103233B6207F114031946134841
:1052600002F0B2F904237B610123BB610223FB61DD
:1052700003233B6207F1140319460E4802F0A4F918
:1052800040237B610123BB610023FB6100233B6260
:1052900007F114031946064802F096F900BF2837B3
:1052A000BD4680BD003802400008024000000240B8
:1052B00000040240000C024080B582B000AF00F054
:1052C000CDFE00F031F8FFF7C7FEFFF79DFC00F0C0
:1052D00001F900F08BFB00F013FB00F079FD00F00A
:1052E0001DFC00F089F801210C4802F0D5FB0346B3
:1052F0001A460B4B1A700B4B7B6000233B603B46FE
:10530000184602F0FBFB06F005FBFFF74BFD06F02D
:1053100025FB2B20FFF738FA00BFFDE70000024015
:105320002C0401200200010080B594B000AF07F109
:10533000200330220021184609F0B8FB07F10C03C6
:1053400000221A605A609A60DA601A610023BB601A
:10535000274B1B6C264A43F080531364244B1B6C71
:1053600003F08053BB60BB6800237B60214B1B684C
:10537000204A43F4404313601E4B1B6803F4404330
:105380007B607B6801233B624FF480337B620223A6
:10539000BB634FF48003FB6304233B6464237B649F
:1053A0000223BB640423FB6407F12003184602F0C8
:1053B0004FFC0346002B01D000F084F80F23FB6064
:1053C00002233B6100237B614FF48053BB610023C8
:1053D000FB6107F10C030321184602F0B1FE0346FE
:1053E000002B01D000F06EF800BF5037BD4680BDE5
:1053F000003802400070004080B500AF0022062156
:10540000052001F065FC052001F07EFC002206214C
:10541000042001F05DFC042001F076FC002206214E
:10542000012001F055FC012001F06EFC0022062154
:105430001C2001F04DFC1C2001F066FC002206211E
:105440001D2001F045FC1D2001F05EFC002206211C
:10545000252001F03DFC252001F056FC002206210C
:10546000232001F035FC232001F04EFC0022062110
:10547000512001F02DFC512001F046FC00220521B5
:10548000122001F025FC122001F03EFC00BF80BD7F
:1054900080B582B000AF78607B681B68074A934292
:1054A00001D1FFF747FA7B681B68054A934201D197
:1054B00000F0F6FD00BF0837BD4680BD0008004083
:1054C000000C004080B500AF2A20FFF75DF900BF57
:1054D000FDE7000080B500AF174B184A1A60164B65
:1054E0004FF482725A60144B00229A60124B0022D1
:1054F000DA60114B00221A610F4B00225A610E4BE9
:105500004FF400729A610C4B1822DA610A4B0022A8
:105510001A62094B00225A62074B00229A62064B1C
:105520000A22DA62044803F05DF80346002B01D03A
:10553000FFF7C8FF00BF80BDF40401200030014028
:1055400080B58AB000AF786007F1140300221A60BA
:105550005A609A60DA601A617B681B68194A934244
:105560002BD100233B61184B5B6C174A43F48053EB
:105570005364154B5B6C03F480533B613B69002320
:10558000FB60114B1B6B104A43F0010313630E4B7E
:105590001B6B03F00103FB60FB68E0237B610223CC
:1055A000BB610023FB6103233B6205237B6207F1A0
:1055B00014031946054802F007F800BF2837BD4616
:1055C00080BD00BF003001400038024000000240B2
:1055D00080B582B000AF78607B681B68094A93424F
:1055E0000CD1094B5B6C084A23F480535364E021CF
:1055F000064802F06DF9232001F094FB00BF083744
:10560000BD4680BD0030014000380240000002402D
:1056100080B582B000AF00237B60214B5B6C204AD9
:1056200043F4804353641E4B5B6C03F480437B6004
:105630007B6800233B601A4B1B6C194A43F0805374
:105640001364174B1B6C03F080533B603B680022D4
:1056500006216FF00B0001F03BFB002206216FF0EA
:105660000A0001F035FB002206216FF0090001F06D
:105670002FFB002206216FF0040001F029FB00221D
:1056800006216FF0030001F023FB00220F216FF0D1
:10569000010001F01DFB00BF0837BD4680BD00BF03
:1056A0000038024080B58EB000AF78600023FB6206
:1056B0000023BB620023FB60334B1B6C324A43F078
:1056C00008031364304B1B6C03F00803FB60FB689A
:1056D00007F1100207F114031146184602F050FFBB
:1056E0003B6AFB62FB6A002B03D102F021FF786367
:1056F00004E002F01DFF03465B007B637B6B234AE3
:10570000A2FB03239B0C013BBB62214B214A1A6085
:105710001F4B40F2E732DA601D4ABB6A53601C4BF4
:1057200000221A611A4B00229A60194B00229A61DA
:10573000174803F001FF034687F8333097F83330FA
:10574000002B1BD1124803F0B1FF034687F833301A
:1057500097F83330002B11D1322001F0D5FA7B6855
:105760000F2B08D800227968322001F0B1FA0A4ADA
:105770007B68136002E0012387F8333097F83330F9
:1057800018463837BD4680BD0038024083DE1B43D3
:1057900074050120000C0040D000012080B400AF4F
:1057A000064B1B68DA68054B1B6822F00102DA60C1
:1057B00000BFBD465DF8047B704700BF7405012043
:1057C00080B500AF2420FEF7DFFF00BF80BD80B5AD
:1057D00000AF2520FEF7D8FF00BFFDE780B500AF82
:1057E0002620FEF7D1FF00BFFDE780B500AF2720E0
:1057F000FEF7CAFF00BFFDE780B500AF2820FEF727
:10580000C3FF00BFFDE780B400AF00BFBD465DF839
:10581000047B704780B500AF02F0F0F92C20FEF752
:10582000B3FF00BF80BD80B500AF01F07DFB00BFBE
:1058300080BD80B400AF00BFBD465DF8047B7047FB
:1058400080B500AF024800F0D0FD00BF80BD00BFB2
:105850003C04012080B500AF024804F007F900BF06
:1058600080BD00BF2806012080B500AF024804F0CB
:10587000FDF800BF80BD00BFDC06012080B500AF91
:10588000024804F0F3F800BF80BD00BF900701207C
:1058900080B500AF024803F099FB00BF80BD00BF98
:1058A000F404012080B500AF024805F05DF800BFA8
:1058B00080BD00BF4408012080B500AF024804F05D
:1058C000D5F800BF80BD00BF7405012080B500AFD2
:1058D0002920FEF759FF00BF80BD000080B400AF53
:1058E000064BD3F88830054A43F47003C2F8883079
:1058F00000BFBD465DF8047B704700BF00ED00E0CF
:1059000080B58EB000AF07F1280300221A605A60FC
:105910009A60DA6007F1200300221A605A603B1D8A
:1059200000221A605A609A60DA601A615A619A61BC
:105930002D4B4FF080421A602B4B41F2FF325A60E0
:10594000294B00229A60284BC722DA60264B00229E
:105950001A61254B00229A61234803F0EDFD0346AE
:10596000002B01D0FFF7AEFD4FF48053BB6207F16F
:10597000280319461C4804F04BFA0346002B01D0BB
:10598000FFF7A0FD184803F0F3FE0346002B01D0FB
:10599000FFF798FD00233B6200237B6207F12003A1
:1059A0001946114804F094FE0346002B01D0FFF77E
:1059B00089FD60237B600023BB600023FB60042320
:1059C0007B613B1D00221946074804F05FF903463E
:1059D000002B01D0FFF776FD034800F03FF900BF30
:1059E0003837BD4680BD00BF2806012080B58EB087
:1059F00000AF07F1280300221A605A609A60DA604B
:105A000007F1200300221A605A603B1D00221A6031
:105A10005A609A60DA601A615A619A613D4B3E4A57
:105A20001A603C4B63225A603A4B00229A60394B11
:105A300042F20F72DA60374B00221A61354B0022B6
:105A40009A61344803F078FD0346002B01D0FFF73C
:105A500039FD4FF48053BB6207F1280319462D48E6
:105A600004F0D6F90346002B01D0FFF72BFD29489F
:105A700003F07EFE0346002B01D0FFF723FD002339
:105A80003B6200237B6207F120031946214804F0A2
:105A90001FFE0346002B01D0FFF714FD60237B603F
:105AA0000023BB600023FB6000237B613B1D0022C1
:105AB0001946184804F0EAF80346002B01D0FFF716
:105AC00001FD3B1D04221946124804F0DFF803468D
:105AD000002B01D0FFF7F6FC3B1D082219460D48AC
