:020000040800F2
:1000000000100120312500085D2300086523000849
:100010006D230008752300087D2300080000000000
:100020000000000000000000000000008523000820
:100030009323000800000000A1230008AF2300085C
:1000400081250008BD2300088125000881250008BE
:10005000C9230008D5230008812500088125000850
:1000600081250008812500088125000881250008D8
:1000700081250008812500088125000881250008C8
:100080008125000881250008812500080000000066
:1000900000000000000000000000000081250008B2
:1000A0008125000881250008812500088125000898
:1000B0008125000881250008812500088125000888
:1000C000812500088125000881250008E523000816
:1000D00081250008F92300088125000800000000A0
:1000E0008125000881250008812500080000000006
:1000F0000000000000000000000000008125000852
:1001000000000000812500080D240008812500085A
:1001100000000000000000000000000000000000DF
:100120008125000881250008812500088125000817
:100130008125000800000000000000000000000011
:100140000000000000000000000000008125000801
:1001500081250008812500088125000881250008E7
:100160008125000881250008000000000000000033
:10017000000000000000000000000000000000007F
:100180000000000021240008000000000000000022
:0801900081250008812500080B
:1001980010B5054C237833B9044B13B10448AFF3B9
:1001A80000800123237010BD1C0001200000000006
:1001B8002C62000808B5034B1BB103490348AFF391
:1001C800008008BD00000000200001202C6200080B
:1001D80053B94AB9002908BF00281CBF4FF0FF31A6
:1001E8004FF0FF3000F088B9ADF1080C6DE904CE8E
:1001F80000F006F8DDF804E0DDE9022304B07047FA
:100208002DE9F047089D8E4604468846002B4AD1C2
:100218008A42174662D9B2FA82F64EB1C6F1200375
:1002280001FA06F820FA03F3B74043EA0808B44095
:100238004FEA174E1FFA87FCB8FBFEF1230C0EFBA2
:10024800118843EA084301FB0CF29A4209D9FB18CA
:1002580001F1FF3080F0EA809A4240F2E7800239EB
:100268003B449A1AA3B2B2FBFEF00EFB102243EAFB
:10027800024300FB0CFC9C4509D9FB1800F1FF3236
:1002880080F0D6809C4540F2D3803B44023840EA57
:100298000140A3EB0C0300211DB1F3400022C5E986
:1002A8000032BDE8F0878B4205D90DB1C5E90001E0
:1002B80000210846F5E7B3FA83F1002946D17345D2
:1002C80002D3824200F20581841A6EEB03020120F8
:1002D8009046002DE5D0C5E90048E2E7002A00F085
:1002E8009080B2FA82F6002E40F0A4808A1A030C9D
:1002F8004FEA174E80B2BCB20121B2FBFEFC0EFBE6
:100308001C2243EA024304FB0CF29A4207D9FB1869
:100318000CF1FF3802D29A4200F2E080C4469B1AE0
:10032800B3FBFEF20EFB123340EA034302FB04F474
:100338009C4207D9FB1802F1FF3002D29C4200F21E
:10034800CA8002461B1B42EA0C40A5E7C1F1200601
:100358008B4022FA06F71F430EFA01F420FA06F33F
:100368002EFA06FE4FEA1749234300FA01F81FFA4E
:1003780087FCBEFBF9F01C0C09FB10EE44EA0E44A6
:1003880000FB0CFEA64502FA01F209D93C1900F15E
:10039800FF3A80F09C80A64540F2998002383C44A0
:1003A800A4EB0E041FFA83FEB4FBF9F309FB134414
:1003B8004EEA044403FB0CFCA44508D93C1903F19C
:1003C800FF3E80F08280A4457FD9023B3C4443EA4B
:1003D8000040A4EB0C04A0FB02EC64457346E14624
:1003E80062D35FD05DB1B8EB030264EB090404FA91
:1003F80006F622FA01F31E43CC40C5E90064002149
:100408004FE7B1FBF2FC010C41EA0E4180B240EA31
:1004180001423B4638463C46B846BE462026B1FB1C
:10042800F7F1A2EB080241EA0C4166E7014618E73A
:1004380010462CE7C6F120022EFA02F3B740B1406D
:1004480020FA02F24FEA174E0A43B3FBFEF8BCB299
:100458000EFB1833110C41EA034108FB04F9B040C4
:1004680089454FEA104380B23ED9791808F1FF3C1C
:1004780001D289451FD8A1EB0901B1FBFEF909FB9F
:1004880004F80EFB191192B242EA0142424529D200
:10049800BA1809F1FF31C4D24245C2D2A9F102010A
:1004A8003A44BEE7F0459DD2BEEB02036CEB070C65
:1004B8000138E14696E7A7EB09094944A8F1020C7F
:1004C800B1FBFEF909FB04F8DBE773467FE750460A
:1004D80066E70846FDE63B44023A33E7ACF1020C16
:1004E8003B441CE749469CE7A1EB0901C446B1FB24
:1004F800FEF909FB04F8C4E7704700BF80B58AB06D
:1005080000AF07F1140300221A605A609A60DA609B
:100518001A6100233B61474B1B6B464A43F00403B7
:100528001363444B1B6B03F004033B613B690023DB
:10053800FB60404B1B6B3F4A43F0800313633D4B0A
:100548001B6B03F08003FB60FB680023BB60394B27
:100558001B6B384A43F001031363364B1B6B03F0E4
:100568000103BB60BB6800237B60324B1B6B314AC5
:1005780043F0020313632F4B1B6B03F002037B60F2
:100588007B6800233B602B4B1B6B2A4A43F0080314
:100598001363284B1B6B03F008033B603B68002286
:1005A8001021254802F0C8FE4FF6EF737B61032344
:1005B800BB610023FB6107F1140319461E4802F0D2
:1005C80037FD49F61E137B610323BB610023FB61E2
:1005D80007F114031946194802F02AFD10237B611C
:1005E8000123BB610023FB6100233B6207F1140375
:1005F8001946114802F01CFD4FF2FF737B6103237B
:10060800BB610023FB6107F1140319460C4802F093
:100618000FFD04237B610323BB610023FB6107F10A
:1006280014031946074802F003FD00BF2837BD46EA
:1006380080BD00BF003802400008024000000240B0
:1006480000040240000C024080B400AFBFF34F8F9B
:1006580000BF064BDB6803F4E0620449044B134314
:10066800CB60BFF34F8F00BF00BFFDE700ED00E098
:100678000400FA0580B582B000AF01F07FFF00F0FA
:10068800E9F8FFF73BFF01F02DFD01F0DBFE00F07C
:1006980049F9634B00221A60624B00221A6000F08D
:1006A80075F9614B1B6801226049184600F08AFE03
:1006B8005E4B1B68B3F1FF3F07D05D4B5D4A1A6084
:1006C8005B4B1B681B685C4A13605B4B1B68022B07
:1006D8000FD0594B1B68062B0BD0574B1B68052BAB
:1006E80007D0554B1B68032B03D0534B1B68042BB7
:1006F80005D1514B1B68DAB2504B1A7039E04B4B9D
:100708001B68B3F1FF3F34D04D4B5B6F03F00063C0
:10071800002B13D04B4B7B6005E07B6800221A60EE
:100728007B6804337B607B68474A9342F5D9444B26
:100738005B6F434A43F00063536718E0404B5B6FBD
:1007480003F00073002B12D03E4B3B6005E03B6882
:1007580000221A603B6804333B603B683A4A934284
:10076800F5D9374B5B6F364A43F00073536701F096
:100778009FF8324B1B78023B042B1CD801A252F87D
:1007880023F000BFAD070008A1070008A70700086D
:10079800B3070008B907000801F0DCF83FE001F0F2
:1007A800FBF93CE001F060FB39E001F0B5F836E018
:1007B80001F0A6F833E0254800F0FAF90346002BCB
:1007C8002CD0224B5B68B3F5E06F27D11F4B9B7A87
:1007D800102B23D11D4BDB7A022B1FD11B4B5B7ACD
:1007E800022B1BD11A4B03221A72184B5B68013378
:1007F800174A5360164B01221A70154B02225A727F
:10080800134B50229A72124B0222DA72104800F0EF
:1008180057F90A4B02221A7001F026FB00BFA8E71D
:100828006800012064000120080001206C000120FC
:1008380000000120C0FD01207000012004000120FB
:1008480000380240A8FD0120FFFF012038000120E8
:100858004C00012080B594B000AF07F1200330228E
:100868000021184605F0B2FC07F10C0300221A60BB
:100878005A609A60DA601A610023BB60274B1B6CD0
:10088800264A43F080531364244B1B6C03F08053B7
:10089800BB60BB6800237B60214B1B68204A43F484
:1008A800404313601E4B1B6803F440437B607B6826
:1008B80001233B624FF480337B620223BB634FF416
:1008C8008003FB6304233B6464237B640223BB64CF
:1008D8000423FB6407F12003184602F061FD034678
:1008E800002B01D001F0FAFB0F23FB6002233B61D0
:1008F80000237B614FF48053BB610023FB6107F148
:100908000C030321184602F0C3FF0346002B01D055
:1009180001F0E4FB00BF5037BD4680BD00380240FF
:100928000070004080B500AF00220021012001F0D6
:100938001FFF012001F038FF00220021042001F0F0
:1009480017FF042001F030FF00220021052001F0EC
:100958000FFF052001F028FF00220021232001F0CD
:1009680007FF232001F020FF00220021252001F0AD
:10097800FFFE252001F018FF00220021512001F080
:10098800F7FE512001F010FF00BF80BD80B588B090
:1009980000AF00F0D1FAFF233B71E0237B71002305
:1009A800BB710023FB7100233B7000237B70002385
:1009B800BB700023FB70E0233B7720237B77002369
:1009C800BB770023FB7700233B7608237B76002345
:1009D800BB760023FB7600233B7500237B75002341
:1009E800BB750023FB7500233B7400237B74002335
:1009F800BB740023FB7400233B7300237B73002329
:100A0800BB730023FB7300233B7208237B72002314
:100A1800BB720023FB7200F031FA00F051FA3B1D63
:100A28001A462321202000F007FB3B461A462721BF
:100A3800242000F001FB07F11C031A4603210020C3
:100A480000F0FAFA07F118031A460721042000F00B
:100A5800F3FA07F114031A460B21082000F0ECFA08
:100A680007F110031A461321102000F0E5FA07F1E8
:100A78000C031A461721142000F0DEFA07F10803C8
:100A88001A461B21182000F0D7FA0421602000F034
:100A9800AFFA0121702000F0ABFA00212A2000F003
:100AA800A7FA9021292000F0A3FA8221282000F03B
:100AB8009FFA00F023FA012318462037BD4680BD6F
:100AC80080B584B000AF78600023FB73364B0022FA
:100AD8001A70354B00225A70334B00229A70324BF1
:100AE8000022DA7000F016FB03461A462F4B1A70E4
:100AF8002E4B1B7803F00403DBB2002B15D17B6867
:100B080058687B681B78284A194600F059F97B68B1
:100B18001A7A7B6809332449402000F0B7FA81200B
:100B280000F0DEFA0123FB7338E0204B1B7803F05A
:100B38001003DBB2002B15D17B6858687B681B78E3
:100B4800194A194600F03CF97B681A7A7B68093320
:100B58001549422000F09AFA822000F0C1FA0123D8
:100B6800FB731BE0114B1B7803F04003DBB2002B37
:100B780014D17B6858687B681B780B4A194600F0CB
:100B88001FF97B681A7A7B6809330749442000F00B
:100B98007DFA842000F0A4FA0123FB73FB7B18463E
:100BA8001037BD4680BD00BF7400012078000120C9
:100BB80080B588B000AF78600023FB7707F1100399
:100BC80000221A605A609A601A730023FB6000F0D2
:100BD800BFFA03463B733B7B23F03F03DBB2002B9A
:100BE80066D03B7B23F03F03DBB2402B0CBF0123D5
:100BF8000023DAB23B7B23F03F03DBB2C02B0CBFF0
:100C080001230023DBB21343DBB2002B07D007F12B
:100C180010030D221946902000F0C8F90CE03B7B28
:100C280023F03F03DBB2802B06D107F110030D221E
:100C38001946942000F0BAF93B7B03F01803DBB2A5
:100C4800102B0CD17B6802221A70B87CF97C3A7C94
:100C58007B7C00F033F802467B685A600BE07B68C7
:100C680001221A703B7C7A7C1146184600F082F803
:100C780002467B685A603A7D7B681A727A7D7B6887
:100C88005A72BA7D7B689A72FA7D7B68DA723A7E0C
:100C98007B681A737A7E7B685A73BA7E7B689A730C
:100CA800FA7E7B68DA733A7F7B681A740123FB77D4
:100CB800FB7F18462037BD4680BD000090B482B047
:100CC80000AF0446084611461A462346FB71034600
:100CD800BB710B467B7113463B713B7903F00303F1
:100CE800DAB2204B1A703B795B09DAB21E4B1A70E4
:100CF8007B79DB001D4A13601B4B1B781A461B4B84
:100D08001B681344194A1360184B1B689B00174A49
:100D18001360144B1B781A46144B1B681344134A70
:100D28001360124B1B681B02104A1360FA790F4BB1
:100D38001B6813440D4A13600C4B1B681B020B4ABB
:100D48001360BA79094B1B681344084A1360074BB0
:100D58001B68074A1360064B1B6818460837BD46D0
:100D680090BC70477C0001207D000120800001209C
:100D78008400012080B483B000AF03460A46FB71AB
:100D88001346BB71FB79DB000B4A1360BB795B0927
:100D9800DBB21A46084B1B681344074A1360064B1C
:100DA8001B68064A1360054B1B6818460C37BD467E
:100DB8005DF8047B704700BF880001208C0001208B
:100DC80080B485B000AFF8600B467A60FB72FB7A9E
:100DD800022B37D1FB68DAB27B68DA70FB681B0A32
:100DE800FB60FB68DAB27B689A70FB681B0AFB60E1
:100DF800FB68DBB203F00303DAB21F4B1A70FB681F
:100E0800DB00FB60FB68DBB223F01F03DAB21A4B8E
:100E18001B781344DAB2184B1A70174B1B78083337
:100E2800DAB2154B1A70144B1B7823F01403DAB29C
:100E38007B685A70FB681B0AFB60FB68DAB27B6848
:100E48001A7013E07B6800229A707B680022DA70BF
:100E5800FB685B01FB60FB68DAB27B685A70FB6871
:100E68001B0AFB60FB68DAB27B681A7000BF143794
:100E7800BD465DF8047B70479000012080B582B0C4
:100E880000AF0A23FB71012210210B4802F054FA2B
:100E98000A4803F061FD0346012B01D1012306E056
:100EA800FB79013BFB71FB79002BF1D1002318463C
:100EB8000837BD4680BD00BF000802409C000120E5
:100EC80080B582B000AF0A23FB7180210F2000F0AB
:100ED8008FF80E2000F044F8034603F0E003802B5F
:100EE80001D1012306E0FB79013BFB71FB79002B63
:100EF800EFD1002318460837BD4680BD80B582B0C3
:100F080000AF0A23FB7100210F2000F071F80E20BA
:100F180000F026F8034603F0E003002B01D101237B
:100F280006E0FB79013BFB71FB79002BEFD1002335
:100F380018460837BD4680BD80B500AF0022102195
:100F4800064802F0F9F9C02000F020F9012210212A
:100F5800024802F0F1F900BF80BD00BF000802405E
:100F680080B582B000AF0346FB71002210210D4806
:100F780002F0E2F9032000F009F9FB79184600F0C5
:100F880005F900F029F903461A46074B1A700122A1
:100F98001021044802F0D0F9034B1B781846083793
:100FA800BD4680BD000802409100012080B582B096
:100FB80000AF03463960FB711346BB710022102154
:100FC8000A4802F0B9F9FB79184600F0DFF8BB7956
:100FD8001946386800F010F901221021034802F080
:100FE800ABF900BF0837BD4680BD00BF000802400E
:100FF80080B582B000AF03460A46FB711346BB7149
:10100800002210210B4802F097F9022000F0BEF8E8
:10101800FB79184600F0BAF8BB79184600F0B6F824
:1010280001221021034802F087F900BF0837BD46A6
:1010380080BD00BF0008024080B582B000AF034603
:101048003A60FB710B46BB71002210210E4802F07A
:1010580073F9022000F09AF8FB79184600F096F828
:10106800BA79FB79D31ADBB20133DBB21946386897
:1010780000F09EF801221021034802F05DF900BF3C
:101088000837BD4680BD00BF0008024080B584B067
:1010980000AFB9607B600346FB731346BB73002245
:1010A80010210E4802F048F9FB7B184600F06EF854
:1010B8000421B86800F07CF8BB7B184600F066F89D
:1010C800BB7B1946786800F073F8012210210348A9
:1010D80002F032F900BF1037BD4680BD000802405B
:1010E80080B582B000AF0346FB710022102108488A
:1010F80002F022F9FB79184600F048F80122102185
:10110800034802F019F900BF0837BD4680BD00BF8B
:101118000008024080B500AF002210210A4802F002
:101128000BF9A02000F032F800F056F803461A46F2
:10113800064B1A7001221021034802F0FDF8034BF8
:101148001B78184680BD00BF0008024092000120AD
:1011580080B500AF002210210A4802F0EDF8B02057
:1011680000F014F800F038F803461A46064B1A70D7
:1011780001221021034802F0DFF8034B1B781846C0
:1011880080BD00BF000802409300012080B582B0F6
:1011980000AF0346FB71F91D03230122034802F047
:1011A80085FE00BF0837BD4680BD00BF9C000120FA
:1011B80080B582B000AF78600B46FB70FB789AB2BE
:1011C80003237968034802F071FE00BF0837BD4663
:1011D80080BD00BF9C00012080B500AF0323012221
:1011E8000349044802F0A6FF014B1B78184680BD4E
:1011F800940001209C00012080B582B000AF786087
:101208000B46FB70FB789AB203237968034802F017
:1012180091FF00BF0837BD4680BD00BF9C0001207C
:1012280080B588B000AF3B1D00221A605A609A60F2
:10123800DA601A6100233B600023FB610023BB6175
:101248000323FB610323BB6101F052FC00237B6095
:1012580002237B61FB69FB60BA69FB69D31A01331E
:101268003B613A463B1D1146184601F0BFFD034657
:10127800002B03D001F06EFC034602E001F05AFC9B
:10128800002318462037BD4680BD80B588B000AF22
:101298003B1D00221A605A609A60DA601A610023C6
:1012A8003B600023FB610023BB610223FB61022337
:1012B800BB6101F01DFC00237B6002237B61FB699D
:1012C800FB60BA69FB69D31A01333B613A463B1D9F
:1012D8001146184601F08AFD0346002B03D001F0A1
:1012E80039FC034602E001F025FC002318462037AC
:1012F800BD4680BD80B588B000AF3B1D00221A6096
:101308005A609A60DA601A6100233B600023FB612F
:101318000023BB610723FB610723BB6101F0E8FBE6
:1013280000237B6002237B61FB69FB60BA69FB6970
:10133800D31A01333B613A463B1D1146184601F06A
:1013480055FD0346002B03D001F004FC034602E0E0
:1013580001F0F0FB002318462037BD4680BDB0B52C
:1013680086B000AFF860B9601346FB8000237B614C
:1013780001F0BEFB1BE07B699B00BA6813441B6845
:1013880000221C46154622462B46F968022001F029
:10139800ABFA0346002B06D1FB680433FB607B697C
:1013A80001337B6103E001F0D5FB034606E0FB88CF
:1013B8007A699A42DFD301F0BDFB0023184618373B
:1013C800BD46B0BD80B487B000AFF860B9601346C1
:1013D800FB800023FB820EE0FB8A9B001A46FB6819
:1013E80013441946FB8A9B00BA6813440A681A60BA
:1013F800FB8A0133FB82FA8AFB889A42ECD300BF4E
:1014080000BF1C37BD465DF8047B704780B500AF50
:101418001F4B08221A721E4B40F201725A601C4B75
:1014280001221A701A4B05225A72194B74229A72A9
:10143800174B2022DA72164B02221A73144B02221F
:101448005A731348FFF73CFB114B00221A72104BDA
:1014580000225A600E4B00221A700D4B00225A725D
:101468000B4B00229A720A4B0022DA72084B0022B8
:101478001A73074B00225A73054B00229A73044BC8
:101488000022DA73024B00221A7400BF80BD00BF2D
:101498004C00012080B500AF734B1B78022B3CD168
:1014A800724BDB7B1A06714B9B7B1B041A436F4BF9
:1014B8005B7B1B0213436D4A127B13431A466C4B2A
:1014C8001A6072B600BF6B4B1B6801226849184648
:1014D800FFF745FF62B600BF664B1B680433654AD9
:1014E8001360654B1B680133634A1360634B032227
:1014F8001A72624B40F201725A60604B01221A70F4
:101508005E4B02225A725D4B76229A725B4B012225
:10151800DA725A48FFF7D4FA82E0534B1B78032B50
:101528003DD1524BDB7B1A46504B9B7B1B021A4327
:101538004E4B5B7B1B041A434C4B1B7B1B06134314
:101548001A464B4B1A6072B600BF4A4B1B68012201
:1015580047491846FFF703FF62B600BF454B1B68B3
:101568000433444A1360444B1B680133424A1360F6
:10157800424B03221A72414B40F201725A603F4BB0
:1015880001221A703D4B02225A723C4B76229A7203
:101598003A4B0122DA723948FFF792FA40E0324BAF
:1015A8001B78042B3CD1314BDB7B1A462F4B9B7BA2
:1015B8001B021A432D4B5B7B1B041A432B4B1B7BD3
:1015C8001B0613431A462A4B1A6072B600BF294BF2
:1015D8001B68012226491846FFF7C1FE62B600BF04
:1015E800244B1B680433234A1360234B1B680133C5
:1015F800214A1360214B03221A72204B40F20172D8
:101608005A601E4B01221A701C4B02225A721B4B45
:1016180076229A72194B0122DA721848FFF750FAAB
:10162800164B00221A72154B00225A60134B0022E7
:101638001A70124B00225A72104B00229A720F4BEA
:101648000022DA720D4B00221A730C4B00225A73D7
:101658000A4B00229A73094B0022DA73074B0022C7
:101668001A7400BF80BD00BF0400012038000120AB
:101678006000012068000120640001204C00012066
:1016880080B500AF1A4B02221A72194B40F2017250
:101698005A60174B01221A70154B01225A72144BCB
:1016A80077229A721248FFF70BFA114B00221A722E
:1016B8000F4B00225A600E4B00221A700C4B00226E
:1016C8005A720B4B00229A72094B0022DA72084BAD
:1016D80000221A73064B00225A73054B00229A7394
:1016E800034B0022DA73024B00221A7400BF80BD3C
:1016F8004C00012080B500AF72B600BF214B052217
:101708001A72204B40F201725A601E4B01221A7065
:101718001C4B04225A721B4B71229A72194B0022DD
:10172800DA72184B00221A73164B03225A731548A3
:10173800FFF7C6F9FFF774FD124B00221A72114B1E
:1017480000225A600F4B00221A700E4B00225A7268
:101758000C4B00229A720B4B0022DA72094B0022C2
:101768001A73084B00225A73064B00229A73054BD2
:101778000022DA73034B00221A7462B600BF00BF5E
:1017880080BD00BF4C00012080B500AF72B600BF1D
:10179800214B05221A72204B40F201725A601E4BEF
:1017A80001221A701C4B04225A721B4B71229A7226
:1017B800194B0022DA72184B00221A73164B0222B8
:1017C8005A731548FFF77CF9FFF75FFD124B0022AB
:1017D8001A72114B00225A600F4B00221A700E4BDE
:1017E80000225A720C4B00229A720B4B0022DA72BA
:1017F800094B00221A73084B00225A73064B002229
:101808009A73054B0022DA73034B00221A7462B6EE
:1018180000BF00BF80BD00BF4C00012080B500AFF5
:1018280072B600BF214B05221A72204B40F201729A
:101838005A601E4B01221A701C4B04225A721B4B11
:1018480071229A72194B0022DA72184B00221A730D
:10185800164B00225A731548FFF732F9FFF74AFD75
:10186800124B00221A72114B00225A600F4B0022B1
:101878001A700E4B00225A720C4B00229A720B4BB4
:101888000022DA72094B00221A73084B00225A739D
:10189800064B00229A73054B0022DA73034B002291
:1018A8001A7462B600BF00BF80BD00BF4C000120A3
:1018B80080B582B000AF0F4B1B681B687B6072B6A7
:1018C80000BF0D4A0B4B1B6893607B683B603B680D
:1018D80083F3088800BF074B1B6804331B681A464C
:1018E800064B1A60054B1B68984700BF0837BD4672
:1018F80080BD00BF0C00012000ED00E09800012031
:1019080080B500AF72B600BF024B1B6800221A6098
:10191800FEF79AFE0000012080B582B000AF72B6D3
:1019280000BF094B1B6800221A60084B7B6005E06A
:101938007B6800221A607B6804337B607B68044AFA
:101948009342F5D9FEF780FE00000120A8FD012092
:10195800FFFF012080B500AF8A48FFF729F9034649
:10196800002B00F00C81874B5B68B3F5E06F40F00B
:10197800E580844B9B7A222B09D1824BDB7AF12BB1
:1019880005D1804B1B7B862B01D100F027FA7D4BBC
:101998005B7A042B09D17B4B9B7A312B05D1794B90
:1019A8005B7B032B01D1FFF7A5FE764B9B7A342B8B
:1019B80008D1754B1B68002B02D1734B734A1A6010
:1019C800FFF724FD6F4B9B7A362B01D1FFF762FDA1
:1019D8006C4B9B7A102B3FD16A4BDB7A052B3BD1A2
:1019E8006B4B04221A706B4B03221A72694B40F23C
:1019F80001725A60674B01221A70664B02225A72B2
:101A0800644B50229A72634B0522DA726148FFF7E1
:101A180057F800F0C1F85F4B00221A725D4B0022A4
:101A28005A605C4B00221A705A4B00225A72594B6A
:101A380000229A72574B0022DA72564B00221A7310
:101A4800544B00225A73534B00229A73514B002275
:101A5800DA73504B00221A744A4B9B7A102B3FD1F1
:101A6800484BDB7A022B3BD1494B02221A70494B77
:101A780003221A72474B40F201725A60454B012209
:101A88001A70444B02225A72424B50229A72414BAE
:101A98000222DA723F48FFF713F800F07DF83D4B59
:101AA80000221A723B4B00225A603A4B00221A70ED
:101AB800384B00225A72374B00229A72354B00225B
:101AC800DA72344B00221A73324B00225A73314BAC
:101AD80000229A732F4B0022DA732E4B00221A74BD
:101AE800284B9B7A372B05D1264B5B7A012B01D1EA
:101AF800FFF7C6FD234B9B7A112B1FD1214BDB7AB5
:101B0800012B1BD11F4B5B7A022B17D1214B0322D0
:101B18001A72204B40F201725A601E4B01221A7051
:101B28001C4B02225A721B4B51229A72194B0122EA
:101B3800DA721848FEF7C4FFFFF7EEFE114B0022D9
:101B48001A72104B00225A600E4B00221A700D4B6D
:101B580000225A720B4B00229A720A4B0022DA7248
:101B6800084B00221A73074B00225A73054B0022B8
:101B78009A73044B0022DA73024B00221A7400BFD6
:101B880080BD00BF380001206800012000C00008A7
:101B9800040001204C00012080B500AF8A48FFF7FF
:101BA80007F80346002B00F00C81874B5B68B3F500
:101BB800E06F40F0E580844B9B7A222B09D1824B61
:101BC800DB7AF12B05D1804B1B7B862B01D100F0F2
:101BD80005F97D4B5B7A042B09D17B4B9B7A312B22
:101BE80005D1794B5B7B022B01D1FFF7CDFD764BFD
:101BF8009B7A342B08D1754B1B68002B02D1734B91
:101C0800734A1A60FFF702FC6F4B9B7A362B01D19F
:101C1800FFF740FC6C4B9B7A372B05D16A4B5B7AFC
:101C2800012B01D1FFF72CFD674B9B7A102B3FD17D
:101C3800654BDB7A042B3BD1664B03221A70664B4B
:101C480003221A72644B40F201725A60624B0122FD
:101C58001A70614B02225A725F4B50229A725E4B85
:101C68000422DA725C48FEF72BFFFFF795FF5A4B08
:101C780000221A72584B00225A60574B00221A70E1
:101C8800554B00225A72544B00229A72524B002232
:101C9800DA72514B00221A734F4B00225A734E4B83
:101CA80000229A734C4B0022DA734B4B00221A74B1
:101CB800454B9B7A102B3FD1434BDB7A022B3BD110
:101CC800444B02221A70444B03221A72424B40F2D0
:101CD80001725A60404B01221A703F4B02225A721D
:101CE8003D4B50229A723C4B0222DA723A48FEF778
:101CF800E7FEFFF751FF384B00221A72364B0022DD
:101D08005A60354B00221A70334B00225A72324BFC
:101D180000229A72304B0022DA722F4B00221A737B
:101D28002D4B00225A732C4B00229A732A4B002207
:101D3800DA73294B00221A74234B9B7A112B1FD17B
:101D4800214BDB7A012B1BD11F4B5B7A022B17D15E
:101D5800214B03221A72204B40F201725A601E4B2B
:101D680001221A701C4B02225A721B4B51229A7282
:101D7800194B0122DA721848FEF7A2FEFFF7CCFDD4
:101D8800114B00221A72104B00225A600E4B00228F
:101D98001A700D4B00225A720B4B00229A720A4B92
:101DA8000022DA72084B00221A73074B00225A737A
:101DB800054B00229A73044B0022DA73024B00226F
:101DC8001A7400BF80BD00BF3800012068000120E0
:101DD80000800008040001204C00012080B500AFFD
:101DE8001F4B05221A721E4B40F201725A601C4B9F
:101DF80001221A701A4B04225A72194B62229A72E3
:101E0800174BF122DA72164B86221A73154B1A7881
:101E1800134B5A731248FEF753FE114B00221A70E7
:101E28000F4B00225A600E4B00221A720C4B0022F4
:101E38005A720B4B00229A72094B0022DA72084B35
:101E480000221A73064B00225A73054B00229A731C
:101E5800034B0022DA73024B00221A7400BF80BDC4
:101E68004C0001200400012080B500AF8E48FEF729
:101E78009FFE0346002B00F014818B4B5B68B3F583
:101E8800E06F40F0ED80884B9B7A222B09D1864B7E
:101E9800DB7AF12B05D1844B1B7B862B01D1FFF715
:101EA8009DFF814B5B7A042B09D17F4B9B7A312BA9
:101EB80005D17D4B5B7B002B01D1FFF7AFFC7A4B43
:101EC8009B7A342B10D1784B5B7B1B0443F0006268
:101ED800754B9B7B1B021343734AD27B13431A46F1
:101EE800724B1A60FFF792FA6F4B9B7A362B01D12F
:101EF800FFF7D0FA6C4B9B7A372B05D16A4B5B7A8C
:101F0800012B01D1FFF7BCFB674B9B7A102B3FD10C
:101F1800654BDB7A042B3BD1654B03221A70654B6A
:101F280003221A72634B40F201725A60614B01221C
:101F38001A70604B02225A725E4B50229A725D4BA5
:101F48000422DA725B48FEF7BBFDFFF725FE594B0A
:101F580000221A72574B00225A60564B00221A7000
:101F6800544B00225A72534B00229A72514B002252
:101F7800DA72504B00221A734E4B00225A734D4BA3
:101F880000229A734B4B0022DA734A4B00221A74D0
:101F9800454B9B7A102B3FD1434BDB7A052B3BD12A
:101FA800434B04221A70434B03221A72414B40F2EE
:101FB80001725A603F4B01221A703E4B02225A723C
:101FC8003C4B50229A723B4B0522DA723948FEF795
:101FD80077FDFFF7E1FD374B00221A72354B0022DF
:101FE8005A60344B00221A70324B00225A72314B1D
:101FF80000229A722F4B0022DA722E4B00221A739B
:102008002C4B00225A732B4B00229A73294B002227
:10201800DA73284B00221A74234B9B7A112B1FD199
:10202800214BDB7A012B1BD11F4B5B7A022B17D17B
:10203800204B03221A721F4B40F201725A601D4B4B
:1020480001221A701B4B02225A721A4B51229A72A1
:10205800184B0122DA721748FEF732FDFFF75CFCD5
:10206800114B00221A72104B00225A600E4B0022AC
:102078001A700D4B00225A720B4B00229A720A4BAF
:102088000022DA72084B00221A73074B00225A7397
:10209800054B00229A73044B0022DA73024B00228C
:1020A8001A7400BF80BD00BF3800012068000120FD
:1020B800040001204C00012080B582B000AF786098
:1020C8007B681B68044A934201D100F079FA00BF8B
:1020D8000837BD4680BD00BF000C004080B500AF8A
:1020E800FEF7B2FA80B500AF174B184A1A60164BC4
:1020F8004FF482725A60144B00229A60124B0022ED
:10210800DA60114B00221A610F4B00225A610E4B04
:102118004FF400729A610C4B1822DA610A4B0022C4
:102128001A62094B00225A62074B00229A62064B38
:102138000A22DA62044801F0FDFD0346002B01D0B3
:10214800FFF7CCFF00BF80BD9C000120003001409C
:1021580080B58AB000AF786007F1140300221A60D6
:102168005A609A60DA601A617B681B68194A934260
:102178002BD100233B61184B5B6C174A43F4805307
:102188005364154B5B6C03F480533B613B6900233C
:10219800FB60114B1B6B104A43F0010313630E4B9A
:1021A8001B6B03F00103FB60FB68E0237B610223E8
:1021B800BB610023FB6103233B6205237B6207F1BC
:1021C80014031946054800F033FF00BF2837BD4601
:1021D80080BD00BF003001400038024000000240CE
:1021E80080B582B000AF00237B60104B5B6C0F4A58
:1021F80043F4804353640D4B5B6C03F480437B6072
:102208007B6800233B60094B1B6C084A43F08053F2
:102218001364064B1B6C03F080533B603B6807203C
:1022280000F09BFA00BF0837BD4680BD0038024069
:1022380080B58EB000AF78600023FB620023BB62DC
:102248000023FB60334B1B6C324A43F008031364D2
:10225800304B1B6C03F00803FB60FB6807F11002AE
:1022680007F114031146184601F032FD3B6AFB6280
:10227800FB6A002B03D101F003FD786304E001F051
:10228800FFFC03465B007B637B6B234AA2FB0323B3
:102298009B0C013BBB62214B214A1A601F4B40F249
:1022A800E732DA601D4ABB6A53601C4B00221A6190
:1022B8001A4B00229A60194B00229A61174802F0C3
:1022C800B1FC034687F8333097F83330002B1BD125
:1022D800124802F00DFD034687F8333097F8333083
:1022E800002B11D1322000F05FFA7B680F2B08D841
:1022F80000227968322000F03BFA0A4A7B681360B2
:1023080002E0012387F8333097F83330184638371E
:10231800BD4680BD0038024083DE1B431C010120FE
:10232800000C00401400012080B400AFBFF34F8FB1
:1023380000BF064BDB6803F4E0620449044B134317
:10234800CB60BFF34F8F00BF00BFFDE700ED00E09B
:102358000400FA0580B500AFFFF7E6FF80B500AFCF
:10236800FFF7E2FF80B500AFFFF7DEFF80B500AFF3
:10237800FFF7DAFF80B500AFFFF7D6FF80B400AFF4
:1023880000BFBD465DF8047B704780B400AF00BF56
:10239800BD465DF8047B704780B400AF00BFBD4602
:1023A8005DF8047B704780B400AF00BFBD465DF8A0
:1023B800047B704780B500AF00F0D8FF00BF80BD38
:1023C80080B500AF00F0E4FA00BF80BD80B400AF74
:1023D80000BFBD465DF8047B7047000080B500AFC4
:1023E800024802F069F900BF80BD00BF9C000120CF
:1023F80080B500AF024802F0A7FF00BF80BD00BF54
:10240800D001012080B500AF024802F0D3FC00BF24
:1024180080BD00BF1C01012080B500AFFFF784FF1D
:1024280080B400AF064BD3F88830054A43F47003F4
:10243800C2F8883000BFBD465DF8047B704700BF16
:1024480000ED00E080B500AF114B124A1A60104B46
:102458004FF4E1325A600E4B00229A600C4B002276
:10246800DA600B4B00221A61094B0C225A61084BA7
:1024780000229A61064B0022DA61054802F006FF45
:102488000346002B01D0FFF729FE00BF80BD00BF27
:10249800D00101200010014080B58AB000AF7860FB
:1024A80007F1140300221A605A609A60DA601A6110
:1024B8007B681B68194A93422CD100233B61184B57
:1024C8005B6C174A43F010035364154B5B6C03F0C5
:1024D80010033B613B690023FB60114B1B6B104AE7
:1024E80043F0010313630E4B1B6B03F00103FB6006
:1024F800FB684FF4C0637B610223BB610023FB616F
:1025080003233B6207237B6207F11403194605483E
:1025180000F08EFD00BF2837BD4680BD0010014089
:102528000038024000000240DFF834D0FFF778FF9F
:102538000C480D490D4A002302E0D458C450043316
:10254800C4188C42F9D30A4A0A4C002301E01360EC
:102558000432A242FBD303F041FEFEF78BF870472A
:1025680000100120000001201C0001206C620008FE
:102578001C0001206C020120FEE7000080B500AFBE
:102588000E4B1B680D4A43F4007313600B4B1B681A
:102598000A4A43F480631360084B1B68074A43F4F4
:1025A80080731360032000F0D8F80020FFF740FE86
:1025B800FFF716FE0023184680BD00BF003C02400E
:1025C80080B400AF064B1B781A46064B1B681344B1
:1025D800044A136000BFBD465DF8047B704700BF26
:1025E800180001204802012080B400AF034B1B688B
:1025F8001846BD465DF8047B704700BF48020120BD
:1026080080B485B000AF78607B6803F00703FB6097
:102618000C4BDB68BB60BA684FF6FF031340BB6026
:10262800FB681A02BB68134343F0BF6343F40033EB
:10263800BB60044ABB68D36000BF1437BD465DF871
:10264800047B704700ED00E080B400AF044BDB680A
:102658001B0A03F007031846BD465DF8047B704764
:1026680000ED00E080B483B000AF0346FB7197F93A
:102678000730002B0BDBFB7903F01F02074997F9A2
:1026880007305B09012000FA02F241F8232000BF5D
:102698000C37BD465DF8047B704700BF00E100E0E1
:1026A80080B483B000AF03463960FB7197F90730F7
:1026B800002B0ADB3B68DAB20C4997F907301201A4
:1026C800D2B20B4483F800230AE03B68DAB2084927
:1026D800FB7903F00F03043B1201D2B20B441A76C4
:1026E80000BF0C37BD465DF8047B704700E100E091
:1026F80000ED00E080B489B000AFF860B9607A609E
:10270800FB6803F00703FB61FB69C3F10703042BB4
:1027180028BF0423BB61FB690433062B02D9FB697C
:10272800033B00E000237B614FF0FF32BB6902FAF4
:1027380003F3DA43BB681A407B699A404FF0FF31D4
:102748007B6901FA03F3D9437B680B4013431846AE
:102758002437BD465DF8047B704780B582B000AF72
:1027680078607868FFF74CFF00BF0837BD4680BD2A
:1027780080B586B000AF0346B9607A60FB7300236A
:102788007B61FFF761FF78617A68B9687869FFF75C
:10279800B1FF024697F90F3011461846FFF780FF40
:1027A80000BF1837BD4680BD80B582B000AF034674
:1027B800FB7197F907301846FFF754FF00BF083739
:1027C800BD4680BD80B584B000AF78607B689B6DE6
:1027D800FB60FFF709FFB8607B6893F83530DBB220
:1027E800022B08D07B6880225A657B68002283F818
:1027F8003420012352E07B681B681A687B681B68D9
:1028080022F016021A607B681B685A697B681B688D
:1028180022F080025A617B681B6C002B03D17B6815
:102828009B6C002B07D07B681B681A687B681B6849
:1028380022F008021A607B681B681A687B681B68AC
:1028480022F001021A6013E0FFF7CEFE0246BB68D1
:10285800D31A052B0CD97B6820225A657B68032282
:1028680083F835207B68002283F83420032315E0A1
:102878007B681B681B6803F00103002BE4D17B68AD
:10288800DB6D3F229A40FB689A607B68012283F8DF
:1028980035207B68002283F834200023184610373F
:1028A800BD4680BD80B483B000AF78607B6893F884
:1028B8003530DBB2022B04D07B6880225A650123B5
:1028C8000CE07B68052283F835207B681B681A6852
:1028D8007B681B6822F001021A60002318460C3737
:1028E800BD465DF8047B704780B586B000AFF860E0
:1028F800B960C7E900230123FB75234B1B7E012B1D
:1029080001D102233BE0204B01221A764CF25030D1
:1029180000F02CF90346FB75FB7D002B2BD1FB68DF
:10292800002B05D13B781946B86800F0D7F916E0B6
:10293800FB68012B05D13B881946B86800F0AAF955
:102948000DE0FB68022B05D13B681946B86800F01A
:102958007FF904E0D7E90023B86800F047F94CF2A2
:10296800503000F003F90346FB75084B1B69074A12
:1029780023F001031361044B00221A76FB7D1846ED
:102988001837BD4680BD00BF4C020120003C024004
:1029980080B582B000AF00237B60494BDB6803F44D
:1029A800F973002B20D0474B1B78DBB2012B07D1E2
:1029B800444BDB687B60434B4FF0FF32DA600BE03F
:1029C800404B1B78DBB2022B03D13E4B1B697B606B
:1029D80002E03C4B5B697B6000F0A2F9786800F08C
:1029E8007DF8384B00221A70354BDB6803F0010381
:1029F800002B4AD0324B0122DA60324B1B78DBB213
:102A0800012B2DD12F4B5B68013B2E4A53602D4B78
:102A18005B68002B15D02B4BDB687B60786800F077
:102A280053F8284BDB680133264AD360254BDB6813
:102A38007B60244B1B7ADBB21946786800F06AFA8F
:102A480023E04FF0FF337B601E4A7B68D3601D4B49
:102A580000221A7000F0A6FA786800F035F814E041
:102A6800184B1B78DBB2022B07D100F09BFA154BF1
:102A78001B69184600F028F804E0124B5B691846F9
:102A880000F022F80F4B00221A700E4B1B78DBB2B5
:102A9800002B11D10A4B1B69094A23F0FF0313616C
:102AA800074B1B69064A23F080731361044B1B69AB
:102AB800034A23F00073136100BF0837BD4680BD89
:102AC800003C02404C02012080B483B000AF786023
:102AD80000BF0C37BD465DF8047B704780B483B0F7
:102AE80000AF786000BF0C37BD465DF8047B7047C7
:102AF80080B483B000AF0023FB710B4B1B69002B24
:102B08000BDA094B094A5A60074B094A5A60064BC7
:102B18001B69002B01DA0123FB71FB7918460C377E
:102B2800BD465DF8047B7047003C024023016745C1
:102B3800AB89EFCD80B400AF054B1B69044A43F065
:102B48000043136100231846BD465DF8047B7047B7
:102B5800003C024080B400AF034BDB691846BD4619
:102B68005DF8047B704700BF4C02012080B584B03B
:102B780000AF78600023FB601A4B0022DA61FFF790
:102B880033FDF86010E07B68B3F1FF3F0CD07B6841
:102B9800002B07D0FFF728FD0246FB68D31A7A6896
:102BA8009A4201D2032319E00F4BDB6803F4803308
:102BB800002BE8D10C4BDB6803F00103002B02D09B
:102BC800094B0122DA60084BDB6803F4F973002B28
:102BD80003D000F0A5F8012300E0002318461037C1
:102BE800BD4680BD4C020120003C024080B485B047
:102BF80000AFF860C7E90023144B1B69134A23F49C
:102C080040731361114B1B69104A43F440731361FD
:102C18000E4B1B690D4A43F001031361FB683A68C8
:102C28001A60BFF36F8F00BFD7E900014FF00002B1
:102C38004FF000030A000023F968043113460B60C3
:102C480000BF1437BD465DF8047B7047003C024066
:102C580080B483B000AF786039600D4B1B690C4AB3
:102C680023F4407313610A4B1B69094A43F4007348
:102C78001361074B1B69064A43F0010313617B6824
:102C88003A681A6000BF0C37BD465DF8047B704790
:102C9800003C024080B483B000AF78600B467B8074
:102CA8000D4B1B690C4A23F4407313610A4B1B69D3
:102CB800094A43F480731361074B1B69064A43F0C2
:102CC800010313617B687A881A8000BF0C37BD4600
:102CD8005DF8047B704700BF003C024080B483B0BD
:102CE80000AF78600B46FB700C4B1B690B4A23F452
:102CF80040731361094B094A1B691361074B1B6930
:102D0800064A43F0010313617B68FA781A7000BF22
:102D18000C37BD465DF8047B704700BF003C02409D
:102D280080B400AF2F4BDB6803F01003002B08D0F2
:102D38002D4BDB6943F010032B4AD361294B10223A
:102D4800DA60284BDB6803F02003002B08D0264B01
:102D5800DB6943F00803244AD361224B2022DA605E
:102D6800204BDB6803F04003002B08D01E4BDB69C7
:102D780043F004031C4AD3611A4B4022DA60194B12
:102D8800DB6803F08003002B08D0174BDB6943F0A6
:102D98000203154AD361134B8022DA60114BDB68BA
:102DA80003F48073002B09D00F4BDB6943F0010358
:102DB8000D4AD3610B4B4FF48072DA60094BDB6824
:102DC80003F00203002B08D0074BDB6943F0200314
:102DD800054AD361034B0222DA6000BFBD465DF8A5
:102DE800047B7047003C02404C02012080B584B04F
:102DF80000AF786039600123FB730023BB60314B5F
:102E08001B7E012B01D1022358E02E4B01221A769A
:102E18004CF25030FFF7AAFE0346FB73FB7B002BF6
:102E280048D13B684FF0FF321A607B681B68012B62
:102E380015D17B681B69DAB27B685B681946104656
:102E480000F044F84CF25030FFF790FE0346FB7355
:102E58001D4B1B691C4A23F00403136128E07B689F
:102E68009B68BB601CE07B681B69DBB21946B868CD
:102E780000F050F84CF25030FFF778FE0346FB7331
:102E8800114B1B69104A23F0FA031361FB7B002BDB
:102E980003D03B68BA681A600AE0BB680133BB60BC
:102EA8007B68DA687B689B681344BA689A42DAD30D
:102EB80000F078F8034B00221A76FB7B184610378F
:102EC800BD4680BD4C020120003C024080B483B066
:102ED80000AF03463960FB710D4B1B690C4A23F4A4
:102EE800407313610A4B1B69094A43F004031361D9
:102EF800074B1A69FB791B021343054A43F48033D5
:102F0800136100BF0C37BD465DF8047B704700BFF6
:102F1800003C024080B485B000AF78600B46FB707F
:102F28000023FB60FB78002B02D10023FB6010E03C
:102F3800FB78012B03D14FF48073FB6009E0FB7829
:102F4800022B03D14FF40073FB6002E04FF440738F
:102F5800FB60134B1B69124A23F440731361104B37
:102F68001A690F49FB6813430B610D4B1B690C4A27
:102F780023F0F80313610A4B1A697B68DB001343DB
:102F8800074A43F002031361054B1B69044A43F4E3
:102F98008033136100BF1437BD465DF8047B70476A
:102FA800003C024080B400AF204B1B6803F4007360
:102FB800002B17D01D4B1B681C4A23F400731360A9
:102FC8001A4B1B68194A43F400631360174B1B68BC
:102FD800164A23F400631360144B1B68134A43F426
:102FE80000731360114B1B6803F48063002B17D028
:102FF8000E4B1B680D4A23F4806313600B4B1B6850
:103008000A4A43F480531360084B1B68074A23F4A9
:1030180080531360054B1B68044A43F480631360B4
:1030280000BFBD465DF8047B704700BF003C02400E
:1030380080B489B000AF7860396000237B610023D9
:103048003B610023BB610023FB6159E10122FB695D
:1030580002FA03F37B613B681B687A6913403B61A2
:103068003A697B699A4240F048813B685B6803F0A3
:103078000303012B05D03B685B6803F00303022BB5
:1030880030D17B689B68BB61FB695B00032202FA55
:1030980003F3DB43BA691340BB613B68DA68FB6939
:1030A8005B0002FA03F3BA691343BB617B68BA6930
:1030B8009A607B685B68BB610122FB6902FA03F3D3
:1030C800DB43BA691340BB613B685B681B0903F0CB
:1030D8000102FB6902FA03F3BA691343BB617B6817
:1030E800BA695A603B685B6803F00303032B17D087
:1030F8007B68DB68BB61FB695B00032202FA03F3B0
:10310800DB43BA691340BB613B689A68FB695B00A3
:1031180002FA03F3BA691343BB617B68BA69DA60E0
:103128003B685B6803F00303022B23D1FB69DA08D1
:103138007B68083253F82230BB61FB6903F0070350
:103148009B000F2202FA03F3DB43BA691340BB6109
:103158003B681A69FB6903F007039B0002FA03F353
:10316800BA691343BB61FB69DA087B680832B9693D
:1031780043F822107B681B68BB61FB695B00032274
:1031880002FA03F3DB43BA691340BB613B685B682F
:1031980003F00302FB695B0002FA03F3BA69134305
:1031A800BB617B68BA691A603B685B6803F44033AB
:1031B800002B00F0A2800023FB60574B5B6C564A43
:1031C80043F480435364544B5B6C03F48043FB60CB
:1031D800FB68524AFB699B08023352F82330BB61F3
:1031E800FB6903F003039B000F2202FA03F3DB439E
:1031F800BA691340BB617B68494A934219D07B681E
:10320800484A934213D07B68474A93420DD07B6863
:10321800464A934207D07B68454A934201D104232A
:1032280008E0072306E0032304E0022302E0012369
:1032380000E00023FA6902F0030292009340BA69A1
:103248001343BB613549FB699B080233BA6941F8EE
:103258002320384B9B68BB613B69DB43BA69134049
:10326800BB613B685B6803F48013002B03D0BA6929
:103278003B691343BB612F4ABB6993602D4BDB68E5
:10328800BB613B69DB43BA691340BB613B685B6860
:1032980003F40013002B03D0BA693B691343BB61E5
:1032A800244ABB69D360234B5B68BB613B69DB4342
:1032B800BA691340BB613B685B6803F40033002BB9
:1032C80003D0BA693B691343BB611A4ABB695360AF
:1032D800184B1B68BB613B69DB43BA691340BB6190
:1032E8003B685B6803F48033002B03D0BA693B6901
:1032F8001343BB610F4ABB691360FB690133FB6170
:10330800FB690F2B7FF6A2AE00BF00BF2437BD4676
:103318005DF8047B704700BF003802400038014068
:10332800000002400004024000080240000C024075
:1033380000100240003C014080B483B000AF7860C8
:103348000B467B8013467B707B78002B03D07A88F2
:103358007B689A6103E07B881A047B689A6100BFE6
:103368000C37BD465DF8047B7047000080B500AFA0
:10337800064B5B6903F48033002B05D000F008F896
:10338800024B4FF480325A6100BF80BD003C0140BF
:1033980080B400AF00BFBD465DF8047B70470000F5
:1033A80080B586B000AF78607B68002B01D101231F
:1033B80067E27B681B6803F00103002B75D0884B1C
:1033C8009B6803F00C03042B0CD0854B9B6803F01F
:1033D8000C03082B12D1824B5B6803F48003B3F50E
:1033E800800F0BD17E4B1B6803F40033002B5BD09E
:1033F8007B685B68002B57D1012342E27B685B68DE
:10340800B3F5803F06D1764B1B68754A43F4803389
:1034180013601DE07B685B68B3F5A02F0CD1704B7F
:103428001B686F4A43F4802313606D4B1B686C4A1A
:1034380043F4803313600BE0694B1B68684A23F43C
:1034480080331360664B1B68654A23F4802313603E
:103458007B685B68002B13D0FFF7C6F8386108E07B
:10346800FFF7C2F802463B69D31A642B01D903233C
:1034780007E25B4B1B6803F40033002BF0D014E029
:10348800FFF7B2F8386108E0FFF7AEF802463B698B
:10349800D31A642B01D90323F3E1514B1B6803F4BE
:1034A8000033002BF0D100E000BF7B681B6803F0FD
:1034B8000203002B63D04A4B9B6803F00C03002BDC
:1034C8000BD0474B9B6803F00C03082B1CD1444BD3
:1034D8005B6803F48003002B16D1414B1B6803F093
:1034E8000203002B05D07B68DB68012B01D0012388
:1034F800C7E13B4B1B6823F0F8027B681B69DB00C4
:10350800374913430B603AE07B68DB68002B20D017
:10351800344B01221A60FFF767F8386108E0FFF7BB
:1035280063F802463B69D31A022B01D90323A8E1A9
:103538002B4B1B6803F00203002BF0D0284B1B68B1
:1035480023F0F8027B681B69DB00254913430B60F5
:1035580015E0244B00221A60FFF746F8386108E0AE
:10356800FFF742F802463B69D31A022B01D903231D
:1035780087E11B4B1B6803F00203002BF0D17B682B
:103588001B6803F00803002B36D07B685B69002BAF
:1035980016D0154B01221A60FFF726F8386108E0AB
:1035A800FFF722F802463B69D31A022B01D90323FD
:1035B80067E10B4B5B6F03F00203002BF0D01BE0BD
:1035C800094B00221A60FFF70FF838610EE0FFF789
:1035D8000BF802463B69D31A022B07D9032350E1A3
:1035E8000038024000004742800E4742884B5B6F1C
:1035F80003F00203002BEAD17B681B6803F0040385
:10360800002B00F097800023FB75814B1B6C03F0A7
:103618008053002B0FD10023BB607D4B1B6C7C4A71
:1036280043F0805313647A4B1B6C03F08053BB60E8
:10363800BB680123FB75774B1B6803F48073002B71
:1036480018D1744B1B68734A43F480731360FEF7F8
:10365800CBFF386108E0FEF7C7FF02463B69D31A83
:10366800022B01D903230CE16A4B1B6803F4807316
:10367800002BF0D07B689B68012B06D1644B1B6F35
:10368800634A43F0010313671CE07B689B68052BC2
:103698000CD15F4B1B6F5E4A43F0040313675C4B0E
:1036A8001B6F5B4A43F0010313670BE0584B1B6F1A
:1036B800574A23F001031367554B1B6F544A23F0F5
:1036C800040313677B689B68002B15D0FEF78CFFFB
:1036D80038610AE0FEF788FF02463B69D31A41F2D7
:1036E8008832934201D90323CBE0494B1B6F03F087
:1036F8000203002BEED014E0FEF776FF38610AE0F3
:10370800FEF772FF02463B69D31A41F288329342B0
:1037180001D90323B5E03E4B1B6F03F00203002BD6
:10372800EED1FB7D012B05D1394B1B6C384A23F0B8
:10373800805313647B689B69002B00F0A180344B95
:103748009B6803F00C03082B5CD07B689B69022BF9
:1037580041D1314B00221A60FEF746FF386108E07C
:10376800FEF742FF02463B69D31A022B01D9032315
:1037780087E0274B1B6803F00073002BF0D17B68B0
:10378800DA697B681B6A1A437B685B6A9B011A4388
:103798007B689B6A5B08013B1B041A437B68DB6AF6
:1037A8001B061B4913434B601B4B01221A60FEF793
:1037B8001BFF386108E0FEF717FF02463B69D31A82
:1037C800022B01D903235CE0114B1B6803F0007343
:1037D800002BF0D054E0104B00221A60FEF704FFD3
:1037E800386108E0FEF700FF02463B69D31A022B56
:1037F80001D9032345E0064B1B6803F00073002B37
:10380800F0D13DE07B689B69012B07D1012338E0AB
:103818000038024000700040600047421B4B5B6864
:10382800FB607B689B69012B28D0FB6803F480024E
:103838007B68DB699A4221D1FB6803F03F027B6811
:103848001B6A9A421AD1FA6847F6C07313407A681D
:10385800526A9201934211D1FB6803F440327B68AB
:103868009B6A5B08013B1B049A4207D1FB6803F083
:1038780070627B68DB6A1B069A4201D0012300E074
:10388800002318461837BD4680BD00BF00380240E7
:1038980080B584B000AF786039607B68002B01D1B7
:1038A8000123CCE0684B1B6803F007033A689A428F
:1038B8000CD9654B3A68D2B21A70634B1B6803F097
:1038C80007033A689A4201D00123B8E07B681B6875
:1038D80003F00203002B20D07B681B6803F004036D
:1038E800002B05D0594B9B68584A43F4E05393602A
:1038F8007B681B6803F00803002B05D0534B9B68BB
:10390800524A43F460439360504B9B6823F0F002A3
:103918007B689B684D4913438B607B681B6803F089
:103928000103002B44D07B685B68012B07D1474B10
:103938001B6803F40033002B19D101237FE07B6857
:103948005B68022B03D07B685B68032B07D13F4B76
:103958001B6803F00073002B09D101236FE03B4B78
:103968001B6803F00203002B01D1012367E0374BEA
:103978009B6823F003027B685B68344913438B60C0
:10398800FEF732FEF8600AE0FEF72EFE0246FB68FC
:10399800D31A41F28832934201D903234FE02B4BCB
:1039A8009B6803F00C027B685B689B009A42EBD132
:1039B800254B1B6803F007033A689A420CD2224B46
:1039C8003A68D2B21A70204B1B6803F007033A68B2
:1039D8009A4201D0012332E07B681B6803F004039C
:1039E800002B08D0194B9B6823F4E0527B68DB68F6
:1039F800164913438B607B681B6803F00803002B90
:103A080009D0124B9B6823F460427B681B69DB007A
:103A18000E4913438B6000F021F802460B4B9B685C
:103A28001B0903F00F030A49CB5C22FA03F3094A86
:103A38001360094B1B681846FEF7FAFB002318466B
:103A48001037BD4680BD00BF003C02400038024030
:103A58004462000810000120140001202DE9B04F35
:103A680094B000AF00237B640023FB6400233B6415
:103A78000023BB64794B9B6803F00C03082B0DD023
:103A8800082B00F2E180002B02D0042B03D0DBE0EE
:103A9800734BBB64DBE0734BBB64D8E06F4B5B6874
:103AA80003F03F037B646D4B5B6803F48003002BDA
:103AB80063D06A4B5B689B090022BB63FA63BB6BEC
:103AC800C3F308033B6300237B63D7E90C45224615
:103AD8002B464FF000004FF00001590141EAD26136
:103AE800500102460B462146511A3961294663EBBB
:103AF80001037B614FF000024FF00003D7E904ABEC
:103B080059468B01514643EA916351468A01514611
:103B1800B2EB0108594663EB01094FF000024FF080
:103B280000034FEAC90343EA58734FEAC8029046B4
:103B38009946234618EB0303BB602B4649EB030366
:103B4800FB604FF000024FF00003D7E90245294619
:103B58004B02214643EAD15321464A0210461946F0
:103B68007B6C0022BB62FA62D7E90A23FCF730FBC0
:103B780002460B461346FB6458E0384B5B689B09CA
:103B8800002218461146C0F308033B6200237B62FB
:103B9800D7E9088942464B464FF000004FF0000134
:103BA800590141EAD261500102460B464146B2EB47
:103BB800010A494663EB010B4FF000024FF0000386
:103BC8004FEA8B1343EA9A634FEA8A12B2EB0A046C
:103BD80063EB0B054FF000024FF00003EB0043EAE4
:103BE8005473E20014461D464346E3183B604B46B7
:103BF80045EB03037B604FF000024FF00003D7E969
:103C0800004529468B02214643EA915321468A0200
:103C1800104619467B6C0022BB61FA61D7E906237E
:103C2800FCF7D6FA02460B461346FB640B4B5B685F
:103C38001B0C03F0030301335B003B64FA6C3B6C21
:103C4800B2FBF3F3BB6402E0054BBB6400BFBB6C83
:103C580018465037BD46BDE8B08F00BF0038024057
:103C68000024F40000127A0080B400AF034B1B68F4
:103C78001846BD465DF8047B704700BF1000012060
:103C880080B500AFFFF7F0FF0246054B9B689B0A23
:103C980003F007030349CB5C22FA03F3184680BDFF
:103CA800003802405462000880B500AFFFF7DCFF1F
:103CB8000246054B9B685B0B03F007030349CB5C8B
:103CC80022FA03F3184680BD003802405462000807
:103CD80080B483B000AF786039607B680F221A60C7
:103CE800124B9B6803F003027B685A600F4B9B687A
:103CF80003F0F0027B689A600C4B9B6803F4E05277
:103D08007B68DA60094B9B68DB0803F4E0527B6848
:103D18001A61074B1B6803F007023B681A6000BF73
:103D28000C37BD465DF8047B704700BF0038024081
:103D3800003C024080B582B000AF78607B68002B01
:103D480001D101239BE07B685B6A002B08D17B686B
:103D58005B68B3F5827F09D07B680022DA6105E0F1
:103D68007B6800221A617B6800225A617B68002206
:103D78009A627B6893F85130DBB2002B26D17B68BE
:103D8800002283F850207B683F4A9A657B683F4A47
:103D9800DA657B683E4A1A667B683E4A5A667B68E3
:103DA8003D4A9A667B683D4ADA667B683C4A1A67F0
:103DB8007B683C4A5A677B689B6F002B02D17B6803
:103DC800394A9A677B689B6F786898477B680222B4
:103DD80083F851207B681B681A687B681B6822F08F
:103DE80040021A607B685B6803F482727B689B6898
:103DF80003F404431A437B68DB6803F400631A4343
:103E08007B681B6903F002031A437B685B6903F054
:103E180001031A437B689B6903F400731A437B68A8
:103E2800DB6903F038031A437B681B6A03F08003DD
:103E380042EA03017B689B6A03F400527B681B68B3
:103E48000A431A607B689B691B0C03F004017B68BA
:103E58005B6A03F010027B681B680A435A607B6840
:103E68001B68DA697B681B6822F40062DA617B6888
:103E780000225A657B68012283F8512000231846E6
:103E88000837BD4680BD00BFC1480008D5480008B6
:103E9800E9480008FD4800081149000825490008BC
:103EA800394900084D4900085921000880B588B0F3
:103EB80000AFF860B9603B601346FB80FEF794FBE7
:103EC800F861FB887B83FB6893F85130DBB2012BE8
:103ED80001D002232AE1BB68002B02D0FB88002B0B
:103EE80001D1012322E1FB6893F85030012B01D165
:103EF80002231BE1FB68012283F85020FB680322A0
:103F080083F85120FB6800225A65FB68BA681A6377
:103F1800FB68FA889A86FB68FA88DA86FB680022CA
:103F28009A63FB6800229A87FB680022DA87FB689D
:103F380000225A64FB6800221A64FB689B68B3F588
:103F4800004F0FD1FB681B681A68FB681B6822F0DA
:103F580040021A60FB681B681A68FB681B6842F419
:103F680080421A60FB681B681B6803F04003402B03
:103F780007D0FB681B681A68FB681B6842F04002A0
:103F88001A60FB68DB68B3F5006F52D1FB685B68A9
:103F9800002B02D07B8B012B45D1FB681B6B1A8849
:103FA800FB681B68DA60FB681B6B9A1CFB681A636A
:103FB800FB68DB8E9BB2013B9AB2FB68DA8632E083
:103FC800FB681B689B6803F00203022B12D1FB6895
:103FD8001B6B1A88FB681B68DA60FB681B6B9A1CF2
:103FE800FB681A63FB68DB8E9BB2013B9AB2FB68E5
:103FF800DA8618E0FEF7F8FA0246FB69D31A3A683F
:104008009A4203D83B68B3F1FF3F02D13B68002BCB
:1040180009D1FB68012283F85120FB68002283F84C
:104028005020032382E0FB68DB8E9BB2002BC7D1B4
:1040380053E0FB685B68002B02D07B8B012B47D1D8
:10404800FB681A6BFB681B680C3312781A70FB68E4
:104058001B6B5A1CFB681A63FB68DB8E9BB2013B27
:104068009AB2FB68DA8633E0FB681B689B6803F04A
:104078000203022B13D1FB681A6BFB681B680C3315
:1040880012781A70FB681B6B5A1CFB681A63FB6872
:10409800DB8E9BB2013B9AB2FB68DA8618E0FEF72A
:1040A800A3FA0246FB69D31A3A689A4203D83B68D6
:1040B800B3F1FF3F02D13B68002B09D1FB68012215
:1040C80083F85120FB68002283F8502003232DE059
:1040D800FB68DB8E9BB2002BC6D1FA693968F86899
:1040E80000F04CFD0346002B02D0FB6820225A65E5
:1040F800FB689B68002B0AD100237B61FB681B6867
:10410800DB687B61FB681B689B687B617B69FB687C
:10411800012283F85120FB68002283F85020FB68B5
:104128005B6D002B01D0012300E0002318462037E7
:10413800BD4680BD80B588B002AFF860B9603B600D
:104148001346FB80FB6893F85130DBB2012B01D09A
:10415800022304E1FB685B68B3F5827F12D1FB6838
:104168009B68002B0ED1FB68042283F85120FA8843
:104178003B6800931346BA68B968F86800F0F3F82A
:104188000346ECE0FEF730FA7861BB68002B02D0FA
:10419800FB88002B01D10123E1E0FB6893F8503044
:1041A800012B01D10223DAE0FB68012283F85020B9
:1041B800FB68042283F85120FB6800225A65FB68DB
:1041C800BA689A63FB68FA889A87FB68FA88DA877C
:1041D800FB6800221A63FB6800229A86FB680022AB
:1041E800DA86FB6800221A64FB6800225A64FB68BE
:1041F8009B68B3F5004F0FD1FB681B681A68FB6812
:104208001B6822F040021A60FB681B681A68FB688A
:104218001B6822F480421A60FB681B681B6803F065
:104228004003402B07D0FB681B681A68FB681B68B3
:1042380042F040021A60FB68DB68002B70D135E061
:10424800FB681B689B6803F00103012B15D1FB6811
:104258001B6803F10C02FB689B6B1278D2B21A70D0
:10426800FB689B6B5A1CFB689A63FB68DB8F9BB2ED
:10427800013B9AB2FB68DA8718E0FEF7B5F9024607
:104288007B69D31A3A689A4203D83B68B3F1FF3F77
:1042980002D13B68002B09D1FB68012283F8512029
:1042A800FB68002283F85020032358E0FB68DB8F6B
:1042B8009BB2002BC4D138E0FB681B689B6803F0F5
:1042C8000103012B13D1FB681B68DA68FB689B6B41
:1042D80092B21A80FB689B6B9A1CFB689A63FB6816
:1042E800DB8F9BB2013B9AB2FB68DA8718E0FEF7D6
:1042F8007BF902467B69D31A3A689A4203D83B682D
:10430800B3F1FF3F02D13B68002B09D1FB680122C2
:1043180083F85120FB68002283F8502003231EE015
:10432800FB68DB8F9BB2002BC6D17A693968F868C5
:1043380000F0BEFB0346002B02D0FB6820225A6522
:10434800FB68012283F85120FB68002283F8502083
:10435800FB685B6D002B01D0012300E000231846A9
:104368001837BD4680BD80B58AB000AFF860B96027
:104378007A607B8001237B62FEF736F93862FB683E
:1043880093F85130FB77FB685B68BB617B88FB82E5
:10439800FB7F012B0CD0BB69B3F5827F06D1FB688C
:1043A8009B68002B02D1FB7F042B01D002237FE105
:1043B800BB68002B05D07B68002B02D07B88002BC4
:1043C80001D1012374E1FB6893F85030012B01D12E
:1043D80002236DE1FB68012283F85020FB6893F803
:1043E8005130DBB2042B03D0FB68052283F851203F
:1043F800FB6800225A65FB687A689A63FB687A88CA
:10440800DA87FB687A889A87FB68BA681A63FB6858
:104418007A88DA86FB687A889A86FB6800221A64AA
:10442800FB6800225A64FB681B681B6803F04003A2
:10443800402B07D0FB681B681A68FB681B6842F0B2
:1044480040021A60FB68DB68B3F5006F7ED1FB6839
:104458005B68002B02D0FB8A012B6CD1FB681B6BBD
:104468001A88FB681B68DA60FB681B6B9A1CFB6880
:104478001A63FB68DB8E9BB2013B9AB2FB68DA8653
:1044880059E0FB681B689B6803F00203022B1BD1F1
:10449800FB68DB8E9BB2002B16D07B6A012B13D1F5
:1044A800FB681B6B1A88FB681B68DA60FB681B6B70
:1044B8009A1CFB681A63FB68DB8E9BB2013B9AB2BD
:1044C800FB68DA8600237B62FB681B689B6803F045
:1044D8000103012B19D1FB68DB8F9BB2002B14D091
:1044E800FB681B68DA68FB689B6B92B21A80FB68F2
:1044F8009B6B9A1CFB689A63FB68DB8F9BB2013B42
:104508009AB2FB68DA8701237B62FEF76DF80246F0
:104518003B6AD31A3A6B9A420DD83B6BB3F1FF3F13
:1045280009D0FB68012283F85120FB68002283F838
:1045380050200323BCE0FB68DB8E9BB2002BA0D18C
:10454800FB68DB8F9BB2002B9BD182E0FB685B682A
:10455800002B02D0FB8A012B71D1FB681A6BFB6818
:104568001B680C3312781A70FB681B6B5A1CFB68AB
:104578001A63FB68DB8E9BB2013B9AB2FB68DA8652
:104588005DE0FB681B689B6803F00203022B1CD1EB
:10459800FB68DB8E9BB2002B17D07B6A012B14D1F2
:1045A800FB681A6BFB681B680C3312781A70FB687F
:1045B8001B6B5A1CFB681A63FB68DB8E9BB2013BC2
:1045C8009AB2FB68DA8600237B62FB681B689B68EB
:1045D80003F00103012B19D1FB68DB8F9BB2002B81
:1045E80014D0FB681B68DA68FB689B6BD2B21A7040
:1045F800FB689B6B5A1CFB689A63FB68DB8F9BB25A
:10460800013B9AB2FB68DA8701237B62FDF7ECFF76
:1046180002463B6AD31A3A6B9A4203D83B6BB3F112
:10462800FF3F02D13B6B002B09D1FB68012283F8C5
:104638005120FB68002283F85020032338E0FB68F0
:10464800DB8E9BB2002B9CD1FB68DB8F9BB2002BCF
:1046580097D13A6A396BF86800F090FA0346002B54
:1046680008D0FB6820225A65FB68002283F8502096
:1046780001231DE0FB689B68002B0AD100233B61E6
:10468800FB681B68DB683B61FB681B689B683B61D8
:104698003B69FB68012283F85120FB68002283F8FC
:1046A8005020FB685B6D002B01D0012300E0002344
:1046B80018462837BD4680BD80B588B000AF786001
:1046C8007B681B685B68FB617B681B689B68BB61D8
:1046D800BB699B0903F00103002B0FD1BB6903F0F1
:1046E8000103002B0AD0FB699B0903F00103002B8F
:1046F80004D07B681B6C78689847D8E0BB695B0876
:1047080003F00103002B0AD0FB69DB0903F0010366
:10471800002B04D07B685B6C78689847C7E0BB695E
:104728005B0903F00103002B0CD1BB699B0903F063
:104738000103002B06D1BB691B0A03F00103002B00
:1047480000F0B580FB695B0903F00103002B00F062
:10475800AE80BB699B0903F00103002B23D07B6863
:1047680093F85130DBB2032B11D07B685B6D43F0BB
:1047780004027B685A6500237B617B681B68DB68E1
:104788007B617B681B689B687B617B690BE000230E
:104798003B617B681B68DB683B617B681B689B68C7
:1047A8003B613B6983E0BB695B0903F00103002BB4
:1047B80014D07B685B6D43F001027B685A65002367
:1047C800FB607B681B689B68FB607B681B681A68DA
:1047D8007B681B6822F040021A60FB68BB691B0AF1
:1047E80003F00103002B0CD07B685B6D43F00802DB
:1047F8007B685A650023BB607B681B689B68BB604D
:10480800BB687B685B6D002B50D07B681B685A685F
:104818007B681B6822F0E0025A607B68012283F8FB
:104828005120FB6903F00203002B04D1FB6903F05C
:104838000103002B34D07B681B685A687B681B68AF
:1048480022F003025A607B68DB6C002B11D07B6876
:10485800DB6C184A1A657B68DB6C1846FEF722F891
:104868000346002B05D07B685B6D43F040027B68F4
:104878005A657B689B6C002B17D07B689B6C0D4A34
:104888001A657B689B6C1846FEF70CF80346002BEC
:104898000BD07B685B6D43F040027B685A6504E08F
:1048A8007B681B6F7868984700E000BF00BF20371F
:1048B800BD4680BD7D49000880B483B000AF7860F4
:1048C80000BF0C37BD465DF8047B704780B483B0E9
:1048D80000AF786000BF0C37BD465DF8047B7047B9
:1048E80080B483B000AF786000BF0C37BD465DF878
:1048F800047B704780B483B000AF786000BF0C378A
:10490800BD465DF8047B704780B483B000AF786023
:1049180000BF0C37BD465DF8047B704780B483B098
:1049280000AF786000BF0C37BD465DF8047B704768
:1049380080B483B000AF786000BF0C37BD465DF827
:10494800047B704780B483B000AF786000BF0C3739
:10495800BD465DF8047B704780B483B000AF7860D3
:104968007B6893F85130DBB218460C37BD465DF8CA
:10497800047B704780B584B000AF78607B689B6B20
:10498800FB60FB680022DA87FB680022DA86FB6896
:104998001B6FF868984700BF1037BD4680BD000000
:1049A80080B588B000AFF860B9603B601346FB7112
:1049B800FDF71AFE0246BB6A9B1A3A681344FB616C
:1049C800FDF712FEB861394B1B685B011B0DFA69D4
:1049D80002FB03F37B6154E03B68B3F1FF3F50D027
:1049E800FDF702FE0246BB69D31AFA699A4202D958
:1049F800FB69002B3DD1FB681B685A68FB681B6884
:104A080022F0E0025A60FB685B68B3F5827F11D13F
:104A1800FB689B68B3F5004F04D0FB689B68B3F54F
:104A2800806F07D1FB681B681A68FB681B6822F057
:104A380040021A60FB689B6AB3F5005F0FD1FB6800
:104A48001B681A68FB681B6822F400521A60FB682E
:104A58001B681A68FB681B6842F400521A60FB68FE
:104A6800012283F85120FB68002283F85020032399
:104A780017E07B69002B01D10023FB617B69013BB7
:104A88007B61FB681B689A68BB681340BA689A42E6
:104A98000CBF01230023DBB21A46FB799A429BD153
:104AA800002318462037BD4680BD00BF10000120F6
:104AB80080B586B002AFF860B9607A60FB685B6861
:104AC800B3F5827F11D1FB689B68B3F5004F04D022
:104AD800FB689B68B3F5806F07D1FB681B681A6891
:104AE800FB681B6822F040021A60FB685B68B3F53C
:104AF800827F2AD1FB689B68B3F5806F12D07B68F0
:104B08000093BB6800228021F868FFF749FF03463D
:104B1800002B2DD0FB685B6D43F02002FB685A65C3
:104B2800032326E07B680093BB6800220121F86814
:104B3800FFF736FF0346002B1AD0FB685B6D43F086
:104B48002002FB685A65032313E07B680093BB6867
:104B580000220121F868FFF723FF0346002B07D046
:104B6800FB685B6D43F02002FB685A65032300E095
:104B7800002318461037BD4680BD000080B588B0B8
:104B880002AFF860B9607A607B680093BB68012265
:104B98000221F868FFF704FF0346002B07D0FB68E3
:104BA8005B6D43F02002FB685A65032332E01B4B20
:104BB8001B681B4AA2FB03235B0D4FF47A7202FBAE
:104BC80003F37B61FB685B68B3F5827F12D17B6876
:104BD8000093BB6800228021F868FFF7E1FE0346D6
:104BE800002B16D0FB685B6D43F02002FB685A650A
:104BF80003230FE07B69002B0AD07B69013B7B61B3
:104C0800FB681B689B6803F08003802BF2D000E0F0
:104C180000BF002318461837BD4680BD100001208C
:104C2800819F5E1680B582B000AF78607B68002BEC
:104C380001D101234CE07B6893F83D30DBB2002BB7
:104C480011D17B68002283F83C20786800F0A8FA2C
:104C58007B689B6C002B02D17B681F4A9A647B6837
:104C68009B6C786898477B68022283F83D207B68B4
:104C78001A687B6804331946104600F005FA7B6809
:104C8800012283F846207B68012283F83E207B6856
:104C9800012283F83F207B68012283F840207B684B
:104CA800012283F841207B68012283F842207B6837
:104CB800012283F843207B68012283F844207B6823
:104CC800012283F845207B68012283F83D200023D8
:104CD80018460837BD4680BDE54C000880B483B04F
:104CE80000AF786000BF0C37BD465DF8047B7047A5
:104CF80080B485B000AF78607B6893F83D30DBB254
:104D0800012B01D0012344E07B68022283F83D2077
:104D18007B681B68DA687B681B6842F00102DA600E
:104D28007B681B681E4A934218D07B681B68B3F1E6
:104D3800804F13D07B681B681A4A93420ED07B6859
:104D48001B68194A934209D07B681B68174A93422B
:104D580004D07B681B68164A934211D17B681B6894
:104D68009B6803F00703FB60FB68062B10D07B6889
:104D78001B681A687B681B6842F001021A6007E02A
:104D88007B681B681A687B681B6842F001021A601E
:104D9800002318461437BD465DF8047B704700BFF2
:104DA800000001400004004000080040000C0040E2
:104DB8000040014080B584B000AF78607B681B6814
:104DC800DB68FB607B681B681B69BB60BB6803F022
:104DD8000203002B26D0FB6803F00203002B21D02E
:104DE8007B681B686FF002021A617B6801221A77E0
:104DF8007B681B689B6903F00303002B05D07B6865
:104E0800D3F890307868984709E07B68D3F89830F1
:104E1800786898477B68D3F89C30786898477B68AF
:104E280000221A77BB6803F00403002B26D0FB6826
:104E380003F00403002B21D07B681B686FF0040289
:104E48001A617B6802221A777B681B689B6903F4E6
:104E58004073002B05D07B68D3F89030786898476A
:104E680009E07B68D3F89830786898477B68D3F86E
:104E78009C30786898477B6800221A77BB6803F0F3
:104E88000803002B26D0FB6803F00803002B21D071
:104E98007B681B686FF008021A617B6804221A7726
:104EA8007B681B68DB6903F00303002B05D07B6874
:104EB800D3F890307868984709E07B68D3F8983041
:104EC800786898477B68D3F89C30786898477B68FF
:104ED80000221A77BB6803F01003002B26D0FB686A
:104EE80003F01003002B21D07B681B686FF01002C1
:104EF8001A617B6808221A777B681B68DB6903F4F0
:104F08004073002B05D07B68D3F8903078689847B9
:104F180009E07B68D3F89830786898477B68D3F8BD
:104F28009C30786898477B6800221A77BB6803F042
:104F38000103002B0ED0FB6803F00103002B09D0FE
:104F48007B681B686FF001021A617B68D3F88030B8
:104F580078689847BB6803F08003002B0ED0FB6885
:104F680003F08003002B09D07B681B686FF0800278
:104F78001A617B68D3F8B03078689847BB6803F04B
:104F88004003002B0ED0FB6803F04003002B09D030
:104F98007B681B686FF040021A617B68D3F8883021
:104FA80078689847BB6803F02003002B0ED0FB6895
:104FB80003F02003002B09D07B681B686FF02002E8
:104FC8001A617B68D3F8A8307868984700BF103713
:104FD800BD4680BD80B483B000AF786000BF0C3799
:104FE800BD465DF8047B704780B483B000AF78603D
:104FF80000BF0C37BD465DF8047B704780B483B0B2
:1050080000AF786000BF0C37BD465DF8047B704781
:1050180080B483B000AF786000BF0C37BD465DF840
:10502800047B704780B483B000AF786000BF0C3752
:10503800BD465DF8047B704780B483B000AF7860EC
:1050480000BF0C37BD465DF8047B704780B483B061
:1050580000AF786000BF0C37BD465DF8047B704731
:1050680080B483B000AF786000BF0C37BD465DF8F0
:10507800047B704780B483B000AF786000BF0C3702
:10508800BD465DF8047B704780B485B000AF78609A
:1050980039607B681B68FB607B683A4A93420FD093
:1050A8007B68B3F1804F0BD07B68374A934207D0B7
:1050B8007B68364A934203D07B68354A934208D1CD
:1050C800FB6823F07003FB603B685B68FA68134376
:1050D800FB607B682B4A93421BD07B68B3F1804FFF
:1050E80017D07B68284A934213D07B68274A93429B
:1050F8000FD07B68264A93420BD07B68254A93429F
:1051080007D07B68244A934203D07B68234A9342A2
:1051180008D1FB6823F44073FB603B68DB68FA68DE
:105128001343FB60FB6823F080023B685B69134311
:10513800FB607B68FA681A603B689A687B68DA6289
:105148003B681A687B689A627B680E4A934203D16F
:105158003B681A697B681A637B6801225A617B681D
:105168001B6903F00103012B05D17B681B6923F040
:1051780001027B681A6100BF1437BD465DF8047BE5
:10518800704700BF000001400004004000080040D4
:10519800000C00400040014000440140004801402C
:1051A80080B483B000AF78607B681C4AC3F8802065
:1051B8007B681B4AC3F884207B681A4AC3F8882096
:1051C8007B68194AC3F88C207B68184AC3F890207A
:1051D8007B68174AC3F894207B68164AC3F898205E
:1051E8007B68154AC3F89C207B68144AC3F8A02042
:1051F8007B68134AC3F8A4207B68124AC3F8A82026
:105208007B68114AC3F8AC207B68104AC3F8B02009
:1052180000BF0C37BD465DF8047B7047C12000080D
:10522800DD4F000855500008695000080550000877
:1052380019500008F14F00082D500008415000088F
:105248007D500008595200086D520008815200082C
:1052580080B483B000AF786000BF0C37BD465DF8FE
:10526800047B704780B483B000AF786000BF0C3710
:10527800BD465DF8047B704780B483B000AF7860AA
:1052880000BF0C37BD465DF8047B704780B582B01F
:1052980000AF78607B68002B01D101234DE07B686B
:1052A80093F84130DBB2002B11D17B68002283F8E0
:1052B8004020786800F03CFB7B681B6F002B02D114
:1052C8007B68204A1A677B681B6F786898477B68F9
:1052D800242283F841207B681B68DA687B681B6896
:1052E80022F40052DA60786800F0FCFC7B681B68E6
:1052F8001A697B681B6822F490421A617B681B68F4
:105308005A697B681B6822F02A025A617B681B680D
:10531800DA687B681B6842F40052DA607B68002216
:105328005A647B68202283F841207B68202283F816
:1053380042207B6800225A63002318460837BD467E
:1053480080BD00BFA124000880B5BAB000AF786066
:105358007B681B681B68C7F8E4307B681B68DB68E0
:10536800C7F8E0307B681B685B69C7F8DC3000234E
:10537800C7F8D8300023C7F8D430D7F8E43003F0A2
:105388000F03C7F8D830D7F8D830002B0FD1D7F88B
:10539800E43003F02003002B09D0D7F8E03003F005
:1053A8002003002B03D0786800F0DBFB60E2D7F81D
:1053B800D830002B00F0E180D7F8DC3003F001038F
:1053C800002B06D1D7F8E03003F49073002B00F0DF
:1053D800D480D7F8E43003F00103002B0BD0D7F8C2
:1053E800E03003F48073002B05D07B685B6C43F0DE
:1053F80001027B685A64D7F8E43003F00403002BF9
:105408000BD0D7F8DC3003F00103002B05D07B6804
:105418005B6C43F002027B685A64D7F8E43003F00F
:105428000203002B0BD0D7F8DC3003F00103002B6C
:1054380005D07B685B6C43F004027B685A64D7F83C
:10544800E43003F00803002B11D0D7F8E03003F064
:105458002003002B05D1D7F8DC3003F00103002B23
:1054680005D07B685B6C43F008027B685A647B68F4
:105478005B6C002B00F0F781D7F8E43003F02003D1
:10548800002B08D0D7F8E03003F02003002B02D01F
:10549800786800F066FB7B681B685B6903F0400373
:1054A800402B0CBF01230023DBB2C7F8D4307B6844
:1054B8005B6C03F00803002B03D1D7F8D430002B22
:1054C80051D0786800F06CFA7B681B685B6903F060
:1054D8004003402B42D17B681B681433C7F89C30CB
:1054E800D7F89C3053E8003FC7F89830D7F8983081
:1054F80023F04003C7F8D0307B681B681433D7F813
:10550800D020C7F8A820C7F8A430D7F8A410D7F837
:10551800A82041E80023C7F8A030D7F8A030002B16
:10552800D9D17B68DB6B002B13D07B68DB6B804A9F
:105538001A657B68DB6B1846FDF7B4F90346002B48
:1055480019D07B68DB6B1B6D7A68D26B1046984765
:1055580011E07B689B6D786898470CE07B689B6DD1
:105568007868984707E07B689B6D786898477B6800
:1055780000225A6477E100BF75E17B681B6B012B41
:1055880040F05181D7F8E43003F01003002B00F00D
:105598004A81D7F8E03003F01003002B00F0438174
:1055A8000023BB607B681B681B68BB607B681B684B
:1055B8005B68BB60BB687B681B685B6903F0400382
:1055C800402B40F0B7807B68DB6B1B685B68A7F8F3
:1055D800BE30B7F8BE30002B00F047817B689B8D4A
:1055E800B7F8BE209A4280F040817B68B7F8BE20A9
:1055F800DA857B68DB6BDB69B3F5807F00F0888038
:105608007B681B680C33C7F88830D7F8883053E8B4
:10561800003FC7F88430D7F8843023F48073C7F884
:10562800B8307B681B680C33D7F8B820C7F89420CB
:10563800C7F89030D7F89010D7F8942041E80023A5
:10564800C7F88C30D7F88C30002BD9D17B681B6811
:1056580014337B677B6F53E8003F3B673B6F23F056
:105668000103C7F8B4307B681B681433D7F8B4203B
:10567800C7F88020FB67F96FD7F8802041E800233E
:10568800BB67BB6F002BE1D17B681B6814333B669B
:105698003B6E53E8003FFB65FB6D23F04003C7F802
:1056A800B0307B681B681433D7F8B020FA66BB6645
:1056B800B96EFA6E41E800237B667B6E002BE3D15E
:1056C8007B68202283F842207B6800221A637B686B
:1056D8001B680C33FB64FB6C53E8003FBB64BB6C7A
:1056E80023F01003C7F8AC307B681B680C33D7F87D
:1056F800AC20BA657B65796DBA6D41E800233B65DE
:105708003B6D002BE3D17B68DB6B1846FDF75AF83D
:105718007B6802225A637B68DB6E7A68918D7A68AF
:10572800D28D92B28A1A92B21146786898479CE054
:105738006F5A00087B689A8D7B68DB8D9BB2D31A01
:10574800A7F8CE307B68DB8D9BB2002B00F08F80F2
:10575800B7F8CE30002B00F08A807B681B680C33CA
:10576800BB63BB6B53E8003F7B637B6B23F4907395
:10577800C7F8C8307B681B680C33D7F8C8207A6430
:105788003B64396C7A6C41E80023FB63FB6B002BAC
:10579800E3D17B681B6814337B627B6A53E8003F64
:1057A8003B623B6A23F00103C7F8C4307B681B687F
:1057B8001433D7F8C4203A63FB62F96A3A6B41E8BC
:1057C8000023BB62BB6A002BE3D17B68202283F8ED
:1057D80042207B6800221A637B681B680C333B619C
:1057E8003B6953E8003FFB60FB6823F01003C7F8F0
:1057F800C0307B681B680C33D7F8C020FA61BB61E6
:10580800B969FA6941E800237B617B69002BE3D120
:105818007B6802225A637B68DB6EB7F8CE2011469C
:105828007868984723E0D7F8E43003F08003002B2A
:1058380009D0D7F8E03003F08003002B03D0786854
:1058480000F026F914E0D7F8E43003F04003002B09
:105858000ED0D7F8E03003F04003002B08D078686A
:1058680000F066F904E000BF02E000BF00E000BFFE
:10587800E837BD4680BD00BF80B483B000AF786014
:1058880000BF0C37BD465DF8047B704780B483B019
:1058980000AF786000BF0C37BD465DF8047B7047E9
:1058A80080B483B000AF786000BF0C37BD465DF8A8
:1058B800047B704780B483B000AF786000BF0C37BA
:1058C800BD465DF8047B704780B483B000AF786054
:1058D80000BF0C37BD465DF8047B704780B483B0C9
:1058E80000AF786000BF0C37BD465DF8047B704799
:1058F80080B483B000AF786000BF0C37BD465DF858
:10590800047B704780B483B000AF786000BF0C3769
:10591800BD465DF8047B704780B483B000AF786003
:105928000B467B8000BF0C37BD465DF8047B704793
:1059380080B483B000AF78607B68104A9A647B6853
:105948000F4ADA647B680F4A1A657B680E4A5A6503
:105958007B680E4A9A657B680D4ADA657B680D4A52
:105968001A667B680C4A5A667B680C4ADA6600BF7E
:105978000C37BD465DF8047B704700BF955800089A
:1059880081580008BD580008A9580008D1580008D7
:10599800E5580008F95800080D5900082159000871
:1059A80080B495B000AF78607B681B680C337B636C
:1059B8007B6B53E8003F3B633B6B23F49073FB64C2
:1059C8007B681B680C33FA6C3A64FB63F96B3A6CBE
:1059D80041E80023BB63BB6B002BE5D17B681B68E8
:1059E80014333B623B6A53E8003FFB61FB6923F0D9
:1059F8000103BB647B681B681433BA6CFA62BB6230
:105A0800B96AFA6A41E800237B627B6A002BE5D118
:105A18007B681B6B012B19D17B681B680C33FB60FF
:105A2800FB6853E8003FBB60BB6823F010037B644E
:105A38007B681B680C337A6CBA617B617969BA69D7
:105A480041E800233B613B69002BE5D17B682022BC
:105A580083F842207B6800221A6300BF5437BD4692
:105A68005DF8047B704780B584B000AF78607B68D0
:105A78009B6BFB60FB680022DA85FB680022DA84F6
:105A8800FB689B6DF868984700BF1037BD4680BD1E
:105A980080B485B000AF78607B6893F84130DBB2A2
:105AA800212B3ED17B689B68B3F5805F14D17B685E
:105AB8001B69002B10D17B681B6AFB60FB681B8885
:105AC8001A467B681B68C2F308025A607B681B6A27
