:020000041100E9
:1000000004FB01FE000000000000000000000000F2
:10001000000000000000000000000000FFFFFFFFE4
:1000200000000000000000000000000000000000D0
:1000300000000000000000000000000000000000C0
:1000400000000000000000000000000000000000B0
:1000500000000000000000000000000000000000A0
:100060000000000000000000000000000000000090
:100070000000000000000000000000000000000080
:100080007822001829200012000000000000000063
:100090000000000000000000000000000000000060
:1000A0000000000000000000000000000000000050
:1000B0000000000000000000000000000000000040
:1000C0000000000000000000000000000000000030
:1000D0000000000000000000000000000000000020
:1000E0000000000000000000000000000000000010
:1000F0000000000000000000000000000000000000
:100100007822001829200012592700128D2500128C
:1001100055270012FD240012412B001200000000A0
:100120000000000000000000000000005520001248
:100130006D2000120000000031290012952A0012E3
:100140005D2700127320001279270012732000121D
:100150007320001273200012C100000073200012EF
:1001600073200012732000127320001273200012FB
:1001700061270012732000127320001273200012F6
:1001800073200012732000126527001273200012E2
:1001900069270012732000126D27001273200012CD
:1001A00071270012732000127320001273200012B6
:1001B00073200012752700127320001273200012A2
:1001C00000F002F800F028F80AA090E8000C824441
:1001D0008344AAF10107DA4501D100F01DF8AFF21E
:1001E000090EBAE80F0013F0010F18BFFB1A43F015
:1001F00001031847300000004000000000230024E5
:1002000000250026103A28BF78C1FBD8520728BF26
:1002100030C148BF0B60704742F2090CC1F2002C9C
:10022000604700003402001100200018780200002E
:04023000FC010011BC
:020000041200E8
:102000001FB51FBD10B510BD00F04FF81146FFF70A
:10201000F7FF00F097FD00F06DF803B4FFF7F2FF53
:1020200003BC00F075F800007A46154B9A4202DBBB
:10203000144B9A4204DB1448016841F0040101602A
:102040001248804712480047FEE7FEE7FEE7FEE73A
:10205000FEE7FEE704207146084203D0EFF3098053
:102060000C490847EFF308800A490847FEE7FEE7F6
:10207000FEE7FEE708480949074A094B7047000098
:1020800000200012FFFF031240400448A92A00125A
:10209000C101001149200012782000187822001890
:1020A00078200018704770477047754600F02CF88C
:1020B000AE4605006946534620F00700854618B035
:1020C00020B5FFF7D7FFBDE820404FF000064FF0E6
:1020D00000074FF000084FF0000BAC46ACE8C00919
:1020E000ACE8C009ACE8C009ACE8C00921F00701C0
:1020F0008D46704710B50446AFF300802046BDE81A
:102100001040FFF78ABF0000004870470020001809
:1021100001491820ABBEFEE7260002007047000010
:1021200048F21800C4F60300026840F2641142F05D
:10213000010202604FF6A060C4F20001CFF6FF700A
:1021400001220A504FF0804002604FF6A860CFF69F
:10215000FF7000BF0A589207FCD530204FF6D863B5
:1021600041F8CC0C41F8C80C41F8C40C41F8C00C43
:102170000020CFF6FF734FF4101241F8B40C41F871
:10218000440C41F8400C41F83C0C41F8380CCA5062
:102190004FF6DC63CFF6FF73CA504FF6E063CFF61D
:1021A000FF73CA504FF6E463CFF6FF73CA504FF681
:1021B000E863CFF6FF73CA504FF6EC63CFF6FF73B8
:1021C000CA504FF6F063CFF6FF73CA504FF6F46370
:1021D000CFF6FF73CA504FF6F863CFF6FF73CA50BD
:1021E0004FF6FC63CFF6FF73CA506FF0FF03CA507F
:1021F00041F8FC2C41F8F82C41F8F42C41F8F02C73
:1022000041F8EC2C41F8E82C41F8E42C41F8E02CA2
:1022100041F8DC2C41F8BC0C4FF6AC60CFF6FF70F7
:102220004FF400420A504FF6B060CFF6FF704FF007
:1022300014330B504FF6B460CFF6FF700A504FF6D0
:10224000B860CFF6FF700B504FF6BC60CFF6FF7052
:102250000A504FF6C060CFF6FF700B504FF6C460C7
:10226000CFF6FF700A504FF6C860CFF6FF700B50E4
:102270004FF4E00008604FF4EE0200200A6070475F
:102280004CF2A8114FF65C62C4F60401CFF6FF725F
:10229000002088504FF65862CFF6FF7201238B5012
:1022A00040F2E732904200F1010000BFFAD3502023
:1022B00041F8280C41F8240C0868002220F04070F6
:1022C000086008684FF6806320F0405008604FF0C7
:1022D000C47041F8082C41F8042C41F8C00C41F8B6
:1022E000B00C41F8AC0C41F8A80C41F8A40C4FF428
:1022F000080041F89C0C41F8980C41F8940C41F806
:10230000900CCFF6FF730020CA50704770B540F2B2
:102310001870C4F600000068800702D08A2040B21E
:1023200070BD4CF29C00C4F604004FF0FF31016018
:102330004CF2000143F23330C4F20001C8F2330022
:10234000486200204FF4803208604A6041F2045233
:10235000C0F226028A604FF08072C860CA6140F203
:102360000442CA630A644A6440F2065240F220738F
:1023700040F2065440F220753F2641F2144C41F2DF
:10238000177EC0F20502C0F20703C0F20544C2F294
:102390000705C0F20106C1F848C0C1F84CE0C1F819
:1023A00050C0C1F854E0C1F878C0C1F87CE0C1F871
:1023B00080C0C1F884E08A65CB658A66CB66C1F8C7
:1023C0008820C1F88C30C1F89820C1F89C300C6688
:1023D0004D660C674D67C1F89040C1F89450C1F844
:1023E000A040C1F8A450C1F8D800C1F8DC60C1F821
:1023F000F800C1F80401C1F80801C1F81001C1F8E2
:102400001801C1F82001C1F80C01C1F81401C1F88C
:102410001C01C1F82401C1F82801C1F8A8C0C1F805
:10242000ACE0C1F8B0C0C1F8B4E0C1F8B820C1F860
:10243000BC30C1F8C820C1F8CC30C1F8C040C1F8E8
:10244000C450C1F8D040C1F8D4500A6840B242F03C
:1024500001020A600A6822F004020A600A6822F097
:1024600040020A600A6822F002020A600A6822F04A
:1024700020020A600A6822F080720A600A6842F448
:1024800080720A600A6822F480620A600A6822F494
:1024900080420A600A6822F400720A600A6822F424
:1024A00000520A600A6822F000720A600A6842F468
:1024B00080320A600A6822F480220A600A6822F4E4
:1024C00080020A600A6822F400320A600A6822F474
:1024D00000120A600A6822F080620A6070BD000083
:1024E0004CF21401C4F20001002044F21F02086003
:1024F000C0F2010200204A607047000070470000EF
:10250000B0B508254FF60070C4F20105C0F2FF30E7
:1025100045F8080C013045F8080C286840F20C74A6
:102520008001C4F6000407D42068C00404D400F07D
:10253000CBF928688001F7D52868800101D4FF20F5
:1025400005E01E20C0F21F0045F8040C002047F6ED
:10255000FF71C0F201016160032140B22161B0BD91
:102560000020C4F603000221C16000210161416125
:1025700001628161C1610160016341638163016442
:10258000C16341628164C16470470000704700000C
:1025900070B54CF2300E43F23330C4F2000ECFF679
:1025A000337004224CF2080348F20C04CEF8000009
:1025B000C4F600020320C4F600030F26C4F6030489
:1025C00001210C25D061106390601E602160C4F26F
:1025D000010544F224012860C4F6000100200860CF
:1025E000CEF808005061906210604FF0FF0C072297
:1025F00098606060A860C1F84CC008614865486494
:102600008A6244F21402C4F6040240F2FF1393609B
:1026100034234FF6FF74086210603F22C4F20003B7
:10262000C0F20F048A63886008630864C3F810016D
:10263000C3F81401C3F81801C3F81C01DC6540F6A7
:10264000FF741C604FF0FF14C3F89460C3F800419E
:10265000C3F80801C3F80C014CF21403C4F60403D8
:1026600043F6FF74C3F89800C3F89C00C3F8A000B9
:10267000DC604FF0FF341E60C3F840C0C3F88840F0
:10268000C3F89000C3F8940048F20813C4F20003A2
:102690004FF2FF74DC6043F63F741C6218641861EB
:1026A000586158629862186044F21003C4F2000343
:1026B0007726CEF80421C860CEF80C019E60186021
:1026C0000C2344F20C06C4F60203C4F602060A66A2
:1026D00048608865DA60F26088611860306048F2AE
:1026E00018024CF21806C4F60202C023C4F6020611
:1026F000136033605060706048F214024CF21406AC
:10270000C4F6010240F20333C4F60106D360F3605D
:10271000486110603060C1F870C0C86188664EF2D0
:102720000011CEF20001C1F80003C1F80403C1F8A2
:102730000803C1F80C03C1F81003C1F81403C1F871
:102740001803C1F81C0341F24500C2F2541008609E
:1027500070BD000070470000704700007047000027
:10276000704700007047000070470000704700008D
:10277000704700007047000070470000F0B540F25D
:10278000107042F26C0E42F26D0CC4F60000C1F6FD
:10279000000EC1F6000C9EF800609CF8003050F866
:1027A000041C090758BFF0BD42F27002C1F60002D6
:1027B00040F2D1210024032509E000BF066846F05D
:1027C00008060660002650F8047C3F071CD51768F1
:1027D0008F4201D8F707F6D050F80C6C50F80C7CFB
:1027E00066F3000787F0010640F80C6CDE07146002
:1027F0008EF80040E2D1036843F008030360012330
:10280000C5608CF80030D9E7F0BD000042F27000DE
:10281000C1F6000001680131016070471421C4F65F
:1028200000010220C1F8D00001200722C1F8C40035
:102830004A634FF0904C0023886ACCF800300B605C
:102840004B614B64CB640B654B658B65CB650B664D
:102850004A668A66CA660022C3F638028A6447F26C
:102860000402C2F20002002818BF4FF0FF304A678E
:102870007047000040F2007142F27000C4F600019F
:10288000C1F6000000220260026812097C2A13D8F7
:10289000CA681207F8D50A6842F47C120A600A680E
:1028A00022F040720A604A684B6862F3000383F0CA
:1028B00001024A600021016001680020B1F5FA6F51
:1028C00008BF6FF06400704742F27002C1F6000268
:1028D000106840F2D12142F26C0C8842C1F6000C23
:1028E00006D89CF8000001281EBF962358B27047F6
:1028F00040F20470C4F600000368016863F300014D
:1029000081F0010100230160136042F26D02C1F603
:10291000000211788CF8003041B9C168002341F001
:102920000801C160032181610120107058B2704715
:102930007047000044F20000C4F600000168016026
:1029400070470000F0B544F2440C48F20800C4F6A9
:10295000000C0021C4F600004CF8441C50F8081C80
:1029600021F0004140F8081C50F8041C21F00041FF
:1029700040F8041C33214CF8301CDCF8001011F036
:10298000020405D0DCF8001021F00201CCF80010A0
:1029900040F2505EC0F2200E0EF1280140F8081CF3
:1029A000016801600168016050F8081C41F00041B5
:1029B00040F8081C42F27401C1F600010A68951C37
:1029C0000B684268D20701D1AB42F9D30122826081
:1029D0000222CCF808202CB1DCF8002042F00202E0
:1029E000CCF80020DCF8002012F0040705D0DCF859
:1029F000002022F00402CCF8002040F804EC026829
:102A000002600268026050F8042C42F0004240F874
:102A1000042C0A68941C00BF0A684668B60701D4F3
:102A2000A242F9D3022181600420CCF808002FB122
:102A3000DCF8000040F00400CCF800000E204CF858
:102A4000440C00204CF83C0C4FF49C604CF8400CBB
:102A50006FF064000321AB4238BF00206FF06403C5
:102A6000A24228BF18464CF83C1CF0BD4EF21001A3
:102A7000CEF20001486000208860086840F0040041
:102A80000860086840F002000860086840F0010033
:102A90000860704742F27400C1F60000016801311D
:102AA0000160FFF7B3BE000080B549F64040FFF774
:102AB000DDFFFFF747FF4EF66020FFF7D7FFBDE8C9
:102AC0008040FFF7D7BE000010B5FFF733FFFFF7D8
:102AD000A5FE0446FFF724FB0443FFF7D1FB0443A4
:102AE000FFF7FEFC0443FFF70BFD0443FFF70EFC6A
:102AF0000443FFF735FDFFF74BFD44F29400C4F6A5
:102B0000040000684FF4E04101EA103042F2600234
:102B100000F58051C1F60002116000F1885142F2C7
:102B2000680201F58051C1F60002116042F26402B0
:102B300080F4E041C1F600022046116010BD0000A3
:102B400070470000FFF71AFEFFF7BEFF48F2A064CF
:102B500004260025C0F20104C4F603064FF0021754
:102B6000FFF7B2FEA54205F10105F9D33760002554
:042B7000F6E7000084
:04000005110001C124
:00000001FF
