:020000041201E7
:1000000004FB01FE000000000000000000000000F2
:10001000000000000000000000000000FFFFFFFFE4
:1000200000000000000000000000000000000000D0
:1000300000000000000000000000000000000000C0
:1000400000000000000000000000000000000000B0
:1000500000000000000000000000000000000000A0
:100060000000000000000000000000000000000090
:100070000000000000000000000000000000000080
:100080007822001841020112000000000000000068
:100090000000000000000000000000000000000060
:1000A0000000000000000000000000000000000050
:1000B0000000000000000000000000000000000040
:1000C0000000000000000000000000000000000030
:1000D0000000000000000000000000000000000020
:1000E0000000000000000000000000000000000010
:1000F0000000000000000000000000000000000000
:10010000782200184102011279090112A507011293
:100110007509011215070112A50C0112000000005B
:100120000000000000000000000000006D0201124D
:100130008502011200000000990A0112FD0B011254
:100140007D0901128B020112C50901128B020112F5
:100150008B0201128B020112C10000008B020112FE
:100160008B0201128B0201128B0201128B0201120F
:10017000810901128B0201128B0201128B02011202
:100180008B0201128B020112AD0901128B020112C6
:10019000B1090112B5090112B90901128B0201124C
:1001A000BD0901128B0201128B0201128B02011296
:1001B0008B020112C10901128B0201128B02011282
:1001C00000F002F800F02CF80AA090E8000C82443D
:1001D0008344AAF10107DA4501D100F021F8AFF21A
:1001E000090EBAE80F0013F0010F18BFFB1A43F015
:1001F000010318471C0B00002C0B000000230024F7
:1002000000250026103A28BF78C1FBD8520728BF26
:1002100030C148BF0B6070471FB51FBD10B510BD82
:1002200000F04FF81146FFF7F7FF00F04FFD00F028
:100230006DF803B4FFF7F2FF03BC00F075F800009F
:100240007A46154B9A4202DB144B9A4204DB14485F
:10025000016841F0040101601248804712480047DC
:10026000FEE7FEE7FEE7FEE7FEE7FEE70420714655
:10027000084203D0EFF309800C490847EFF30880E8
:100280000A490847FEE7FEE7FEE7FEE70848094996
:10029000074A094B7047000000200012FFFF0312BD
:1002A00040400448110C0112C10101126102011207
:1002B00078200018782200187820001870477047BE
:1002C0007047754600F02CF8AE4605006946534667
:1002D00020F00700854618B020B5FFF7D7FFBDE82E
:1002E00020404FF000064FF000074FF000084FF09D
:1002F000000BAC46ACE8C009ACE8C009ACE8C009EA
:10030000ACE8C00921F007018D46704710B50446DE
:10031000AFF300802046BDE81040FFF78ABF000021
:10032000004870470020001801491820ABBEFEE7C6
:10033000260002007047000048F21800C4F60300CF
:10034000026840F2641142F0010202604FF6A060C0
:10035000C4F20001CFF6FF7001220A504FF0804036
:1003600002604FF6A860CFF6FF7000BF0A589207F0
:10037000FCD530204FF6D86341F8CC0C41F8C80CBE
:1003800041F8C40C41F8C00C0020CFF6FF734FF4C5
:10039000101241F8B40C41F8440C41F8400C41F8FB
:1003A0003C0C41F8380CCA504FF6DC63CFF6FF73B3
:1003B000CA504FF6E063CFF6FF73CA504FF6E463BE
:1003C000CFF6FF73CA504FF6E863CFF6FF73CA50FB
:1003D0004FF6EC63CFF6FF73CA504FF6F063CFF6DB
:1003E000FF73CA504FF6F463CFF6FF73CA504FF64F
:1003F000F863CFF6FF73CA504FF6FC63CFF6FF7376
:10040000CA506FF0FF03CA5041F8FC2C41F8F82C99
:1004100041F8F42C41F8F02C41F8EC2C41F8E82C90
:1004200041F8E42C41F8E02C41F8DC2C41F8BC0CFC
:100430004FF6AC60CFF6FF704FF400420A504FF613
:10044000B060CFF6FF704FF014330B504FF6B4602E
:10045000CFF6FF700A504FF6B860CFF6FF700B5022
:100460004FF6BC60CFF6FF700A504FF6C060CFF673
:10047000FF700B504FF6C460CFF6FF700A504FF676
:10048000C860CFF6FF700B504FF4E00008604FF4E7
:10049000EE0200200A6070474CF2A8114FF65C6231
:1004A000C4F60401CFF6FF72002088504FF6586260
:1004B000CFF6FF7201238B5040F2E732904200F1F9
:1004C000010000BFFAD3502041F8280C41F8240C59
:1004D0000868002220F04070086008684FF68063CA
:1004E00020F0405008604FF0C47041F8082C41F8EB
:1004F000042C41F8C00C41F8B00C41F8AC0C41F8A8
:10050000A80C41F8A40C4FF4080041F89C0C41F8E9
:10051000980C41F8940C41F8900CCFF6FF73002032
:10052000CA50704770B540F21870C4F600000068F9
:10053000800702D08A2040B270BD4CF29C00C4F605
:1005400004004FF0FF3101604CF2000143F2333000
:10055000C4F20001C8F23300486200204FF4803238
:1005600008604A6041F20452C0F226028A604FF0ED
:100570008072C860CA6140F20442CA630A644A6475
:1005800040F2065240F2207340F2065440F22075C9
:100590003F2641F2144C41F2177EC0F20502C0F230
:1005A0000703C0F20544C2F20705C0F20106C1F814
:1005B00048C0C1F84CE0C1F850C0C1F854E0C1F8DF
:1005C00078C0C1F87CE0C1F880C0C1F884E08A65D9
:1005D000CB658A66CB66C1F88820C1F88C30C1F83B
:1005E0009820C1F89C300C664D660C674D67C1F8C9
:1005F0009040C1F89450C1F8A040C1F8A450C1F88F
:10060000D800C1F8DC60C1F8F800C1F80401C1F8F5
:100610000801C1F81001C1F81801C1F82001C1F8A2
:100620000C01C1F81401C1F81C01C1F82401C1F882
:100630002801C1F8A8C0C1F8ACE0C1F8B0C0C1F849
:10064000B4E0C1F8B820C1F8BC30C1F8C820C1F886
:10065000CC30C1F8C040C1F8C450C1F8D040C1F896
:10066000D4500A6840B242F001020A600A6822F0DF
:1006700004020A600A6822F040020A600A6822F056
:1006800002020A600A6822F020020A600A6822F068
:1006900080720A600A6842F480720A600A6822F472
:1006A00080620A600A6822F480420A600A6822F4C2
:1006B00000720A600A6822F400520A600A6822F096
:1006C00000720A600A6842F480320A600A6822F402
:1006D00080220A600A6822F480020A600A6822F412
:1006E00000320A600A6822F400120A600A6822F0E6
:1006F00080620A6070BD00004CF21401C4F2000177
:10070000002044F21F020860C0F2010200204A608B
:100710007047000070470000B0B508254FF6007024
:10072000C4F20105C0F2FF3045F8080C013045F86D
:10073000080C286840F20C748001C4F6000407D449
:100740002068C00404D400F073F928688001F7D54C
:100750002868800101D4FF2005E01E20C0F21F00A0
:1007600045F8040C002047F6FF71C0F201016160FA
:10077000032140B22161B0BD0020C4F60300052171
:100780000022C1600261426102628261C261026054
:100790000263426381630264C26342628264C26430
:1007A000704700007047000070B54CF2300E43F205
:1007B0003330C4F2000ECFF6337004234CF208023B
:1007C00048F20C04CEF80000C4F600030320C4F67F
:1007D00000020F26C4F6030401210C25D86118631A
:1007E000986016602160C4F2010544F2240128607B
:1007F000C4F6000100200860CEF808005861986235
:10080000186090604FF0FF0C022207236060A86020
:10081000C1F84CC00A61486548648B6244F2140315
:10082000C4F6040340F2FF149C60086218603F2382
:100830008B6388600A6304220A6434224FF6FF74D3
:10084000C4F20002C0F20F04C2F81001C2F8140191
:10085000C2F81801C2F81C01D46540F6FF74146098
:100860004FF0FF14C2F89460C2F80041C2F80801CA
:10087000C2F80C014CF21402C4F6040243F6FF74F1
:10088000C2F89800C2F89C00C2F8A000D4604FF0F3
:10089000FF341660C2F840C0C2F88840C2F8900029
:1008A000C2F8940048F20812C4F200024FF2FF743A
:1008B000D46043F63F74146210641061506150625A
:1008C0009062106044F21002C4F200027726CEF863
:1008D0000431C860CEF80C01966010600C2244F21E
:1008E0000C06C4F60202C4F602060B664860886570
:1008F000D360F36088611060306048F218024CF2F7
:100900001806C4F60202C023C4F602061360336060
:100910005060706048F214024CF21406C4F60102F2
:1009200040F20333C4F60106D360F36048611060FF
:100930003060C1F870C0C86188664EF20011CEF216
:100940000001C1F80003C1F80403C1F80803C1F8AD
:100950000C03C1F81003C1F81403C1F81803C1F85F
:100960001C0341F24500C2F27410086070BD000023
:1009700000F09AF9704700007047000070470000CF
:1009800010B544F25C04C4F6000454F8080C800767
:1009900044BF54F8040C5FEA407000D410BDFFF768
:1009A000E7FF206840F00400206010BD70470000A1
:1009B000704700007047000070470000704700005B
:1009C000704700007047000042F27000C1F600005E
:1009D00001680131016070471421C4F60001022052
:1009E000C1F8D00001200722C1F8C4004A634FF0CB
:1009F000904C0023886ACCF800300B604B614B644C
:100A0000CB640B654B658B65CB650B664A668A6666
:100A1000CA660022C3F638028A6447F20402C2F2B0
:100A20000002002818BF4FF0FF304A6770470000EF
:100A300042F27002C1F60002106840F2D12142F287
:100A40006C0C8842C1F6000C06D89CF80000012806
:100A50001EBF962358B2704740F20470C4F60000DF
:100A60000368016863F3000181F001010023016064
:100A7000136042F26D02C1F6000211788CF800306A
:100A800041B9C168002341F00801C16003218161BF
:100A90000120107058B270477047000044F2000007
:100AA000C4F600000168016070470000F0B544F230
:100AB000440C48F20800C4F6000C0021C4F6000003
:100AC0004CF8441C50F8081C21F0004140F8081C68
:100AD00050F8041C21F0004140F8041C33214CF86C
:100AE000301CDCF8001011F0020405D0DCF8001016
:100AF00021F00201CCF8001040F2505EC0F2200E4E
:100B00000EF1280140F8081C0168016001680160CD
:100B100050F8081C41F0004140F8081C42F27401F2
:100B2000C1F600010A68951C0B684268D20701D122
:100B3000AB42F9D3012282600222CCF808202CB10A
:100B4000DCF8002042F00202CCF80020DCF80020A3
:100B500012F0040705D0DCF8002022F00402CCF8E3
:100B6000002040F804EC026802600268026050F85D
:100B7000042C42F0004240F8042C0A68941C00BF88
:100B80000A684668B60701D4A242F9D302218160FF
:100B90000420CCF808002FB1DCF8000040F004007D
:100BA000CCF800000E204CF8440C00204CF83C0C13
:100BB0004FF49C604CF8400C6FF064000321AB4292
:100BC00038BF00206FF06403A24228BF18464CF8DB
:100BD0003C1CF0BD4EF21001CEF200014860002036
:100BE0008860086840F004000860086840F002006F
:100BF0000860086840F001000860704742F2740025
:100C0000C1F60000016801310160FFF7DDBE0000A0
:100C100080B549F64040FFF7DDFFFFF747FF4EF68E
:100C20006020BDE88040FFF7D5BF000010B5FFF79A
:100C300035FFFFF7D1FE0446FFF77EFB0443FFF7C5
:100C40002BFC0443FFF758FD0443FFF765FD044305
:100C5000FFF768FC0443FFF78FFDFFF7A5FD44F2A3
:100C60009400C4F6040000684FF4E04101EA10303B
:100C700042F2600200F58051C1F60002116000F1FD
:100C8000885142F2680201F58051C1F600021160FC
:100C900042F2640280F4E041C1F600022046116095
:100CA00010BD0000704700004EF60C50BFF34F8F90
:100CB000CEF200000168042201F4E061C0F2FA52B1
:100CC00011430160BFF34F8F00BFFDE740F2047096
:100CD00062B6C4F600000168026861F3000282F0A7
:100CE00001010160FFF7A2FF48F2A064042600257D
:100CF000C0F20104C4F603064FF00417FFF798FE94
:100D0000A54205F10105F9D337600025F6E700009B
:100D1000200D01120020001878020000FC010112D1
:04000005120101C122
:00000001FF
