:020000040802F0
:100000000000022089700208016D0208136D0208C9
:10001000216D02082F6D02083D6D020800000000EE
:10002000000000000000000000000000610803085C
:100030004B6D020800000000B10A03086DFE0208C3
:10004000FD700208596D0208FD700208FD7002087B
:10005000656D0208716D0208FD700208FD700208EE
:10006000FD700208FD700208FD700208FD700208B4
:10007000FD700208FD700208FD700208FD700208A4
:10008000FD700208FD700208FD700208816D020813
:10009000956D0208A96D0208BD6D0208FD70020889
:1000A000FD700208D16D0208FD700208FD700208A3
:1000B000FD700208E56D0208FD700208FD7002087F
:1000C000FD700208F96D02080D6E0208FD7002084D
:1000D000FD700208FD700208FD700208FD70020844
:1000E000FD700208FD700208FD700208FD70020834
:1000F000FD700208FD700208FD700208FD70020824
:10010000FD700208FD700208FD700208FD70020813
:10011000FD700208FD700208FD700208FD70020803
:10012000FD700208FD700208FD700208FD700208F3
:10013000FD700208FD700208FD700208FD700208E3
:10014000FD700208FD700208FD700208FD700208D3
:10015000FD700208FD700208216E0208FD700208A1
:10016000FD700208FD700208FD700208FD700208B3
:10017000FD700208FD700208356E020800000000E4
:08018000FD700208496E02083F
:1001900010B5054C237833B9044B13B10448AFF3C1
:1001A00000800123237010BD6C00002000000000BF
:1001B0000439030808B5034B1BB103490348AFF3E7
:1001C000008008BD00000000700000200439030812
:1001D00001F0FF01102A2BDB10F0070F08D010F8F8
:1001E000013B013A8B422DD010F0070F42B3F6D1FC
:1001F000F0B441EA012141EA014122F007047FF015
:1002000000070023F0E80256083C85EA010586EA6B
:10021000010685FA47F5A3FA87F586FA47F6A5FAA7
:1002200087F68EB9EED1F0BC01F0FF0102F00702B3
:1002300032B110F8013B013A83EA010313B1F8D15E
:100240000020704701387047002D06BF354603383F
:10025000073815F0010F07D1013015F4807F02BF78
:10026000013015F4C03F0130F0BC0138704700BFC9
:1002700053B94AB9002908BF00281CBF4FF0FF310D
:100280004FF0FF3000F088B9ADF1080C6DE904CEF5
:1002900000F006F8DDF804E0DDE9022304B0704761
:1002A0002DE9F047089D8E4604468846002B4AD12A
:1002B0008A42174662D9B2FA82F64EB1C6F12003DD
:1002C00001FA06F820FA03F3B74043EA0808B440FD
:1002D0004FEA174E1FFA87FCB8FBFEF1230C0EFB0A
:1002E000118843EA084301FB0CF29A4209D9FB1832
:1002F00001F1FF3080F0EA809A4240F2E780023953
:100300003B449A1AA3B2B2FBFEF00EFB102243EA62
:10031000024300FB0CFC9C4509D9FB1800F1FF329D
:1003200080F0D6809C4540F2D3803B44023840EABE
:100330000140A3EB0C0300211DB1F3400022C5E9ED
:100340000032BDE8F0878B4205D90DB1C5E9000147
:1003500000210846F5E7B3FA83F1002946D1734539
:1003600002D3824200F20581841A6EEB030201205F
:100370009046002DE5D0C5E90048E2E7002A00F0EC
:100380009080B2FA82F6002E40F0A4808A1A030C04
:100390004FEA174E80B2BCB20121B2FBFEFC0EFB4D
:1003A0001C2243EA024304FB0CF29A4207D9FB18D1
:1003B0000CF1FF3802D29A4200F2E080C4469B1A48
:1003C000B3FBFEF20EFB123340EA034302FB04F4DC
:1003D0009C4207D9FB1802F1FF3002D29C4200F286
:1003E000CA8002461B1B42EA0C40A5E7C1F1200669
:1003F0008B4022FA06F71F430EFA01F420FA06F3A7
:100400002EFA06FE4FEA1749234300FA01F81FFAB5
:1004100087FCBEFBF9F01C0C09FB10EE44EA0E440D
:1004200000FB0CFEA64502FA01F209D93C1900F1C5
:10043000FF3A80F09C80A64540F2998002383C4407
:10044000A4EB0E041FFA83FEB4FBF9F309FB13447B
:100450004EEA044403FB0CFCA44508D93C1903F103
:10046000FF3E80F08280A4457FD9023B3C4443EAB2
:100470000040A4EB0C04A0FB02EC64457346E1468B
:1004800062D35FD05DB1B8EB030264EB090404FAF8
:1004900006F622FA01F31E43CC40C5E900640021B0
:1004A0004FE7B1FBF2FC010C41EA0E4180B240EA99
:1004B00001423B4638463C46B846BE462026B1FB84
:1004C000F7F1A2EB080241EA0C4166E7014618E7A2
:1004D00010462CE7C6F120022EFA02F3B740B140D5
:1004E00020FA02F24FEA174E0A43B3FBFEF8BCB201
:1004F0000EFB1833110C41EA034108FB04F9B0402C
:1005000089454FEA104380B23ED9791808F1FF3C83
:1005100001D289451FD8A1EB0901B1FBFEF909FB06
:1005200004F80EFB191192B242EA0142424529D267
:10053000BA1809F1FF31C4D24245C2D2A9F1020171
:100540003A44BEE7F0459DD2BEEB02036CEB070CCC
:100550000138E14696E7A7EB09094944A8F1020CE6
:10056000B1FBFEF909FB04F8DBE773467FE7504671
:1005700066E70846FDE63B44023A33E7ACF1020C7D
:100580003B441CE749469CE7A1EB0901C446B1FB8B
:10059000FEF909FB04F8C4E7704700BF80B400AF60
:1005A0004F4B1B68002B11D14E4B1B6807EE903A46
:1005B000F8EE677A4C4BC3ED007A4C4B1B6807EEA4
:1005C000903AF8EE677A4A4BC3ED007A494B1B78B4
:1005D000032B02D1434B00221A60464B1B78022B9F
:1005E00073D1454B1B68002B6FD0444B1B680A33FB
:1005F000424A1360424B1B6807EE903AB8EE677AA6
:10060000DFED406AC7EE267A3F4BC3ED007A3F4BE1
:1006100093ED007A3C4BD3ED007A77EE277A3B4B93
:10062000C3ED007A3A4B93ED007A374BD3ED007A65
:1006300077EE277A364BC3ED007A304B1A68354B8C
:10064000A3FB02135B09642101FB03F3D31A002B04
:100650003BD12A4B1B68002B37D02C4BD3ED007AB3
:10066000DFED2D6A87EEA67A1F4BD3ED007A77EE89
:10067000277A1D4BC3ED007A254BD3ED007ADFEDD1
:10068000266A87EEA67A1A4BD3ED007A77EE277AA0
:10069000174BC3ED007A144BD3ED007AFCEEE77AEA
:1006A00017EE902A0F4B1A60114BD3ED007AFCEE37
:1006B000E77A17EE902A0D4B1A60144B4FF00002A8
:1006C0001A60134B4FF000021A60054B1B68013390
:1006D000034A136000BFBD465DF8047B704700BF4E
:1006E0000800001018000010240000101400001072
:1006F000280000100400001000000010100000107E
:10070000D0030010000061450C0000101C00001018
:10071000200000101F85EB510000C84280B582B058
:1007200002AF6E4BB4221A806D4BB4221A806D4B0F
:10073000B4221A806C4BB4221A806C4BB4221A80FB
:100740006B4B63221A706B4B63221A706A4B6322E5
:100750001A706A4B64221A70694B05221A70694B31
:10076000B4221A70684B40F24B121A80674B42F267
:1007700010721A80664B00221A60664B00221A70B3
:10078000654B00221A70654B00221A70644B4FF4BF
:10079000AA721A60634B42F210721A60624B6322B3
:1007A0001A70624B63221A70614B63221A70614B9C
:1007B00063221A70604B00221A70604B00221A707C
:1007C0005F4B00221A805F4B4FF6FF721A805E4B20
:1007D00000221A705D4B00221A605D4B00221A60E5
:1007E0005C4B00221A605C4B00221A705B4B0022AB
:1007F0001A705B4B4FF0FF321A605A4B4FF0FF32CA
:100800001A60594B63221A70584B63221A70584B66
:1008100063221A70574B63221A70574B63221A7067
:10082000564B63221A70564B09221A70554B63229D
:100830001A70554B00221A70544B00221A70544BF8
:1008400000221A70534B63221A7005F06FF80346AA
:100850001A46514B1A7062B600BF0A2006F01AFD04
:1008600072B600BF4C4B1B78002B30D1092004F02E
:10087000B9FF05F011F903469AB2484B1A800A20D5
:1008800004F0B0FF05F008F90346DAB2444B1A70E1
:10089000424B1B889C2B15D1414B1B78B42B11D19B
:1008A000404B01221A70404B1B6842F20F721A64CF
:1008B00000230093F0234FF4A0720021002004F0E5
:1008C000EDFF08E00121112003F0E8FE03E0012123
:1008D000112003F0E3FE00BFBD4680BDB40300104D
:1008E000B6030010B8030010BA030010BC030010D8
:1008F000BE030010BF030010C0030010C1030010AE
:10090000C2030010C3030010C4030010C60300108C
:10091000C8030010CC030010CD030010CE0300105C
:10092000D0030010D4030010D8030010D903001026
:10093000DA030010DB0300107403001075030010CD
:1009400076030010780300107A030010A80300104B
:10095000AC030010B0030010DC030010DD03001036
:10096000E0030010E4030010E9030010EA030010A4
:10097000EB030010EC030010ED030010EE03001079
:10098000EF03001064030010F4030010F5030010DF
:10099000F6030010F7030010590300106E03001057
:1009A0005703001058030010E803002080B500AF83
:1009B000084B1B78002B0AD1074B1B78012B06D064
:1009C000064B1B680133054A1360FFF7A7FE00BF03
:1009D00080BD00BF580300107B030010800300108F
:1009E00090B585B002AF7860A14B1A68A14B1B6827
:1009F0009A4200F039819F4B1B689D4A13609D4BC2
:100A00001B68092B2FD87B68B3F8F0007B68B3F81C
:100A1000F2107B68B3F8F4207B68B3F8F63000245A
:100A2000009404F03BFF7B68B3F8F8007B68B3F8F0
:100A3000FA10904B1A68002300934DF2B15304F062
:100A40009FFE7B68B3F80031553B98B27B68B3F8E2
:100A500002117B68D3F80421002300934DF2B153B7
:100A600004F068FE00E1834B1B68632B2FD87B6882
:100A7000B3F8F0007B68B3F8F2107B68B3F8F420A9
:100A80007B68B3F8F6300024009404F007FF7B681D
:100A9000B3F8F8007B68B3F8FA10764B1A680023B5
:100AA00000934DF2B15304F06BFE7B68B3F8003154
:100AB000443B98B27B68B3F802117B68D3F80421F9
:100AC000002300934DF2B15304F034FECCE0694BA7
:100AD0001B68B3F57A7F2FD27B68B3F8F0007B6890
:100AE000B3F8F2107B68B3F8F4207B68B3F8F63003
:100AF0000024009404F0D2FE7B68B3F8F8007B6811
:100B0000B3F8FA105B4B1A68002300934DF2B1530F
:100B100004F036FE7B68B3F80031333B98B27B6853
:100B2000B3F802117B68D3F80421002300934DF23F
:100B3000B15304F0FFFD97E04E4B1B6842F20F7279
:100B400093422FD87B68B3F8F0007B68B3F8F210BB
:100B50007B68B3F8F4207B68B3F8F6300024009487
:100B600004F09CFE7B68B3F8F8007B68B3F8FA10D9
:100B7000404B1A68002300934DF2B15304F000FE7D
:100B80007B68B3F80031223B98B27B68B3F802115E
:100B90007B68D3F80421002300934DF2B15304F095
:100BA000C9FD61E0334B1B68334A93422FD87B6801
:100BB000B3F8F0007B68B3F8F2107B68B3F8F42068
:100BC0007B68B3F8F6300024009404F067FE7B687D
:100BD000B3F8F8007B68B3F8FA10264B1A680023C4
:100BE00000934DF2B15304F0CBFD7B68B3F80031B4
:100BF000113B98B27B68B3F802117B68D3F80421EB
:100C0000002300934DF2B15304F094FD2CE07B6877
:100C1000B3F8F0007B68B3F8F2107B68B3F8F42007
:100C20007B68B3F8F6300024009404F037FE7B684C
:100C3000B3F8F8007B68B3F8FA100E4B1A6800237B
:100C400000934DF2B15304F09BFD7B68B3F80001B3
:100C50007B68B3F802117B68D3F80421002300936A
:100C60004DF2B15304F066FD00BF0C37BD4690BD98
:100C7000E0030010140000109F86010090B587B0BB
:100C800002AF7860444B1B680133434A1360002273
:100C9000424943480DF01EFD0022424940480DF0F4
:100CA000FBFD3E4B1A78404B1A703C4B5A783F4B39
:100CB0001A703A4B9A783E4B1A703A4B9A783D4BE1
:100CC0001A70384B5A783C4B1A70364BDA783B4BDB
:100CD0001A70344B1A783A4B1A702F4B1A68394BEA
:100CE000A3FB02131B09322101FB03F3D31A002BD0
:100CF0004DD1294B1B68002B49D02B4B1A78324B16
:100D00001A702A4B1A78314B1A70274B1B781A46E7
:100D100007F10C032E49184612F0A6F9234B1B7855
:100D20001A4607F108032A49184612F09DF97B6814
:100D300018887B6859887B689A887B68DB880024E0
:100D4000009404F0ABFD7B6818897B68598907F132
:100D50000C02002300934DF2B15304F0EBFC7B68CE
:100D6000188A7B68598A7B685A69002300934DF280
:100D7000B15304F0DFFC7B68188B7B68598B07F15B
:100D80000802002300934DF2B15304F0D3FC00BFDE
:100D90001437BD4690BD00BF8800002090030010AE
:100DA000F0020020A4030010660300106703001087
:100DB00068030010690300106A0300106B03001041
:100DC0006C0300101F85EB51BE030010BF03001021
:100DD0008439030890B585B002AF786072B600BF61
:100DE000684B1A78684B1A70684B1A78684B1A70FF
:100DF000684B1A78684B1A70684B1A78684B1A70EF
:100E0000674B1B78032B0ED8664B1B78022B0AD935
:100E1000654B1B78002B06D1614B1A78614B1A7019
:100E2000614B0A221A70584B1B78002B0ED05F4B77
:100E30001B78002B0AD15C4B1B78002B06D1524B40
:100E40001A785A4B1A70584B0C221A70504B1B7858
:100E5000002B0ED0564B1B78002B0AD1524B1B781F
:100E6000002B06D14A4B1A78514B1A704E4B052273
:100E70001A70494B1B78002B0ED04E4B1B78002B61
:100E80000AD1494B1B78002B06D1434B1A78494BAA
:100E90001A70454B0B221A70434B1B78002B67D0FE
:100EA000454B1B68B3F5167F44D2434B1B68132B8D
:100EB00003D8424B01221A7006E0414B1B78022BEB
:100EC00002D03E4B00221A703B4B1B6801333A4A5A
:100ED00013603C4B1B78002B4DD13A4B01221A700A
:100EE0007B68B3F840007B68B3F842107B68B3F8C6
:100EF00044207B68B3F846300024009404F0CEFC14
:100F0000294B1B781A4613469B001344DB002E4ADC
:100F10001A447B68DA647B68B3F848007B68B3F8EE
:100F20004A107B68DA6C002300934FF6FF7304F0DD
:100F300001FC20E01C4B1A78244B1A701A4B00223B
:100F40001A701D4B00221A601E4B00221A707B681B
:100F5000B3F840007B68B3F842107B68B3F84420D4
:100F60007B68B3F846300024009404F097FC02E05C
:100F7000114B00221A6062B600BF00BF0C37BD469D
:100F800090BD00BF3C060010F0030010E505001006
:100F9000F1030010E4050010F203001065030010D7
:100FA000F3030010F703001063030010F4030010B4
:100FB000F5030010F6030010A80300108C030010C6
:100FC00061030010CE0300102C0000106403001019
:100FD00090B587B002AF78604F4B1B6801334E4A23
:100FE00013607B68B3F8C830FB817B68B3F8CA3004
:100FF000BB817B68B3F8CC307B817B68B3F8CE30A3
:101000003B81464B1B78012B2BD1434B1B68642B38
:1010100010D17B895B089AB2FB89134498B27B8913
:101020005B089AB23B89B9894FF4FC64009404F0E0
:1010300035FC6DE0384B1B68C82B69D17B895B0898
:101040009AB2FB89134498B27B895B089AB23B89B8
:10105000B9890024009404F021FC2F4B00221A606F
:1010600056E02E4B1B78022B21D12B4B1B68642B97
:101070000BD17B895B089AB23B89B989F8894FF417
:10108000FC64009404F00AFC42E0234B1B68C82B6C
:101090003ED17B895B089AB23B89B989F8890024E3
:1010A000009404F0FBFB1C4B00221A6030E01B4B49
:1010B0001B78032B1DD1184B1B68642B09D13B896E
:1010C0007A89B989F8894FF4FC64009404F0E6FB4E
:1010D0001EE0114B1B68C82B1AD13B897A89B9894C
:1010E000F8890024009404F0D9FB0B4B00221A600D
:1010F0000EE0094B1B68002B0AD03B897A89B9891D
:10110000F8890024009404F0C9FB034B00221A6004
:1011100000BF1437BD4690BDAC0300105F03001044
:1011200090B585B002AF78604E4B1B78012B2AD169
:101130004D4B1B78002B40F091804B4B01221A70D5
:101140004A4B00221A707B68B3F850007B68B3F8F2
:1011500052107B68B3F854207B68B3F856304FF4D4
:101160007844009404F09AFB7B68B3F858007B68DD
:10117000B3F85A107B68DA6D002300934FF6FF73C3
:1011800004F0D8FA6AE0374B1B78022B49D1384B70
:101190001B680133364A1360344B00221A70344BFB
:1011A0001B684B2B22D17B68B3F850007B68B3F8E7
:1011B00052107B68B3F854207B68B3F856304FF474
:1011C0007844009404F06AFB7B68B3F858007B68AD
:1011D000B3F85A107B68DA6D002300934FF6FF7363
:1011E00004F0A8FA234B01221A7037E0204B1B6849
:1011F000962B33D17B68B3F850007B68B3F852105C
:101200007B68B3F854207B68B3F856300024009410
:1012100004F044FB174B00221A70154B00221A6091
:101220001CE0124B1B78002B12D1104B01221A70BC
:101230007B68B3F850007B68B3F852107B68B3F852
:1012400054207B68B3F856300024009404F026FB49
:10125000074B00221A60044B00221A7000BF0C37A3
:10126000BD4690BD61030010CC030010CD030010FB
:10127000B00300108C03001090B585B002AF786009
:10128000AA4B1A78AA4B1B789A4222D0A84B1A78FC
:10129000A64B1A707B68B3F878007B68B3F87A10B5
:1012A000002300931123332204F0F8FAA04B1B789B
:1012B000012B0ED17B68B3F880007B68B3F88210F5
:1012C0007B68D3F88420002300934FF4FC6304F080
:1012D00031FA984B1A78984B1B789A4224D0964B47
:1012E0001A78944B1A707B68B3F878303C3398B214
:1012F0007B68B3F87A10002300931123332204F0A3
:10130000CDFA8D4B1B78012B0ED17B68B3F888008A
:101310007B68B3F88A107B68D3F88C200023009395
:101320004FF6E07304F006FA844B1A78844B1B786E
:101330009A4224D0824B1A78804B1A707B68B3F89B
:101340007830783398B27B68B3F87A100023009332
:101350001123332204F0A2FA794B1B78012B0ED112
:101360007B68B3F890007B68B3F892107B68D3F881
:101370009420002300934FF4FC6304F0DBF9714BDD
:101380001A78714B1B789A4224D06F4B1A786D4BA8
:101390001A707B68B3F87830B43398B27B68B3F8CE
:1013A0007A10002300931123112204F077FA664B80
:1013B0001B78022B0ED17B68B3F898007B68B3F8DA
:1013C0009A107B68D3F89C20002300934FF620539B
:1013D00004F0B0F95D4B1A785D4B1B789A4224D02B
:1013E0005B4B1A78594B1A707B68B3F878007B68AE
:1013F000B3F87A301E3399B20023009311234422AC
:1014000004F04CFA524B1B78012B0ED17B68B3F8D9
:10141000B0007B68B3F8B2107B68D3F8B420002327
:1014200000934FF6205304F085F94A4B1A784A4B43
:101430001B789A4230D0484B1A78464B1A707B681A
:10144000B3F878007B68B3F87A303C3399B2002364
:1014500000931123332204F021FA7B68B3F8A8002B
:101460007B68B3F8AA103C4B1B7810331A46002354
:1014700000934FF6205304F083F97B68B3F8A00083
:101480007B68B3F8A2107B68D3F8A42000230093F4
:101490004FF6205304F04EF9304B1A78304B1B783E
:1014A0009A4231D02E4B1A782C4B1A707B68B3F8C5
:1014B0007830503398B27B68B3F87A301E3399B2E3
:1014C000002300931123332204F0E8F97B68B3F87A
:1014D000C0007B68B3F8C210214B1B781A4600236A
:1014E00000934FF6205304F04BF97B68B3F8B80033
:1014F0007B68B3F8BA107B68D3F8BC200023009354
:101500004FF6205304F016F9164B1A78164B1B7839
:101510009A4265D0144B1A78124B1A70124B1B78F2
:10152000632B23D9104B63221A701FE0E9030010CC
:1015300084030010EA03001085030010EB03001081
:1015400086030010EC03001087030010EE03001068
:1015500089030010ED03001088030010EF03001052
:101560008A030010C1030010650300107B68188C0B
:101570007B68598C7B689A8C7B68DB8C0024009498
:1015800004F08CF9684B1B78092B0FD87B681B8DF6
:10159000113398B27B68598D634B1B781A46002330
:1015A00000934DF2B15304F0EBF80CE07B68188D1A
:1015B0007B68598D5C4B1B781A46002300934DF2D3
:1015C000B15304F0DDF87B681B8D223398B27B6841
:1015D000598D002300934DF2B153544A04F0AAF8F8
:1015E000534B1A78534B1B789A4205D1524B1A78B9
:1015F000524B1B789A425CD04E4B1A784C4B1A7067
:101600004E4B1A784C4B1A707B68B3F860007B68BD
:10161000B3F862107B68B3F864207B68B3F8663077
:101620000024009403F0B4FF424B1B78032B3FD8F7
:1016300001A252F823F000BF4916020863160208FF
:10164000971602087D1602087B68188F7B68598FF1
:101650007B68B3F81A3100220092394A04F06AF824
:1016600027E07B68188F7B68598F7B68B3F81A3145
:1016700000220092334A04F05DF81AE07B68188F6C
:101680007B68598F7B68B3F81A31002200922E4A8A
:1016900004F050F80DE07B68188F7B68598F7B68E9
:1016A000B3F81A3100220092284A04F043F800E00F
:1016B00000BF274B1B78012B17D1264B1A78244BE0
:1016C0001B789A4211D0224B1A78224B1A707B68F1
:1016D000B3F868007B68B3F86A107B68DA6E0023A1
:1016E00000931F2304F026F819E0194B1B78002BF8
:1016F00015D1184B1A78164B1B789A420FD0144B01
:101700001A78144B1A707B68B3F868007B68B3F8DA
:101710006A10002300931F230F4A04F00BF800BF48
:101720000C37BD4690BD00BF65030010503903085B
:10173000C20300105B030010C3030010600300101D
:101740008C39030890390308943903089839030841
:101750005C030010C00300109C39030890B585B0ED
:1017600002AF7860974B1B781A46974B1B889A42BA
:1017700006D1964B1A78964B1B789A4200F09980C6
:10178000934B1A78914B1A708E4B1B781A468E4BDE
:101790001A808C4B1B781A468E4B1A608D4B1B6837
:1017A000092B2BD87B68B3F8D210002300931423A5
:1017B0006622002004F072F87B68B3F8D0007B68E2
:1017C000B3F8D2107B68D3F8D4207B68B3F81A3111
:1017D0000024009403F0AEFF7B68B3F8D030183BD0
:1017E00098B27B68B3F8D2107A4B1A687B68B3F86A
:1017F0001A310024009403F0C3FF5AE0754B1B68B4
:10180000632B2BD87B68B3F8D210002300931423EA
:101810006622002004F042F87B68B3F8D0007B68B1
:10182000B3F8D2107B68D3F8D4207B68B3F81A31B0
:101830000024009403F07EFF7B68B3F8D030283B8F
:1018400098B27B68B3F8D210624B1A687B68B3F821
:101850001A310024009403F093FF2AE07B68B3F868
:10186000D2100023009314236622002004F016F8FF
:101870007B68B3F8D0007B68B3F8D2107B68D3F8EC
:10188000D4207B68B3F81A310024009403F052FF8F
:101890007B68B3F8D0303C3B98B27B68B3F8D21089
:1018A0004C4B1A687B68B3F81A310024009403F09B
:1018B00067FF494B1B781A46484B1B889A4206D152
:1018C000474B1A78424B1B789A4200F0EB80424B10
:1018D0001B781A46414B1A803F4B1B781A46414BE6
:1018E0001A60404B1B6841F6583202FB03F33E4A34
:1018F000A2FB0323DB093B4A1360354B1A78384BB4
:101900001A70384B1B68092B2BD87B68B3F8DA1098
:10191000002300931423BE22BE2003F0BFFF7B6888
:10192000B3F8D8007B68B3F8DA107B68D3F8DC2012
:101930007B68B3F81A310024009403F0FBFE7B6847
:10194000B3F8D830183B98B27B68B3F8DA10254B5F
:101950001A687B68B3F81A310024009403F010FF72
:10196000A0E0204B1B68632B40D87B68B3F8DA10EB
:10197000002300931423BE22BE2003F08FFF7B6858
:10198000B3F8D8007B68B3F8DA107B68D3F8DC20B2
:101990007B68B3F81A310024009403F0CBFE7B6817
:1019A000B3F8D830283B98B27B68B3F8DA100D4B07
:1019B0001A687B68B3F81A310024009403F0E0FE43
:1019C00070E000BF5D030010C4030010D8030010D6
:1019D00060030010D00300105E030010C603001067
:1019E000D9030010D4030010818080802F4B1B6826
:1019F000B3F57A7F2BD27B68B3F8DA10002300931B
:101A00001423BE22BE2003F049FF7B68B3F8D80040
:101A10007B68B3F8DA107B68D3F8DC207B68B3F816
:101A20001A310024009403F085FE7B68B3F8D830A7
:101A30003C3B98B27B68B3F8DA101C4B1A687B68A1
:101A4000B3F81A310024009403F09AFE2AE07B6870
:101A5000B3F8DA10002300931423BE22BE2003F053
:101A60001DFF7B68B3F8D8007B68B3F8DA107B6899
:101A7000D3F8DC207B68B3F81A310024009403F01B
:101A800059FE7B68B3F8D8304D3B98B27B68B3F809
:101A9000DA10064B1A687B68B3F81A3100240094F8
:101AA00003F06EFE00BF0C37BD4690BDD40300109E
:101AB00090B585B002AF78605E4B1B781A465E4BDE
:101AC0001B8802FB03F35D4A82FB03121A44D21106
:101AD000DB17D31A9AB25A4B1A805A4B1B781A4604
:101AE000554B1B8802FB03F3544A82FB03121A4432
:101AF000D211DB17D31A9AB2534B1A80534B1A8860
:101B00004F4B1B889A4205D1514B1A78514B1B7889
:101B10009A423FD04F4B1A784D4B1A70484B1A8857
:101B20004A4B1A807B68B3F8E0007B68B3F8E62084
:101B3000414B1B88D31A99B27B68B3F8E4207B68C9
:101B4000B3F8E030D31A9CB23B4B1A883C4B1B884D
:101B5000D31A9BB200220092224603F09FFE7B68BC
:101B6000B3F8E0007B68B3F8E620354B1B88D31A46
:101B700099B27B68B3F8E4207B68B3F8E030D31AFD
:101B80009AB22F4B1C887B68B3F81E310093234612
:101B900003F084FE304B1A882B4B1B889A4205D1E8
:101BA0002E4B1A782B4B1B789A423FD0294B1A7830
:101BB0002A4B1A70244B1A88274B1A807B68B3F87B
:101BC000E8007B68B3F8EE201B4B1B88D31A99B250
:101BD0007B68B3F8EC207B68B3F8E830D31A9CB28A
:101BE000154B1A88184B1B88D31A9BB200220092FF
:101BF000224603F053FE7B68B3F8E8007B68B3F835
:101C0000EE20114B1B88D31A99B27B68B3F8EC20F5
:101C10007B68B3F8E830D31A9AB20B4B1C887B6808
:101C2000B3F81C310093234603F038FE00BF0C3795
:101C3000BD4690BD5D030010BC0300108180808014
:101C4000B40300105E030010B6030010B8030010C8
:101C5000DA03001060030010BA030010DB03001069
:101C600080B400AF134B1B78012B0FD1124B1B68B4
:101C70001B6C40F6C312934217D90F4B1B681A6CAA
:101C80000D4B1B68A2F5FA721A640EE00A4B1B6832
:101C90001B6C42F20E72934207D8074B1B681A6CFA
:101CA000054B1B6802F5FA721A6400BFBD465DF869
:101CB000047B704786030010E803002080B500AF66
:101CC0000648FFF74BFD0548FFF7F2FE0348FFF714
:101CD000D3FA0248FEF784FE00BF80BD3402001034
:101CE00080B582B002AF0D4B01221A700023009321
:101CF000F0234FF4A0720021002003F0CFFD084B29
:101D00001B6800221A6400220121064809F07EFAAD
:101D1000282003F067FD00BFBD4680BD54030010BE
:101D2000E80300200008024080B582B002AF284BD3
:101D30001B78002B0BD1264B01221A700023009335
:101D4000F0234FF4A0720021002003F0A7FD214BE7
:101D50001B78052B26D81F4B1B780133DAB21D4B9D
:101D60001A701D4B1B884DF20652934207D81A4B2E
:101D70001B8803F52B5338339AB2174B1A80164B36
:101D80001B8800220092154A6421642003F0D2FCD3
:101D9000114B1B8800220092114A7D217D2003F007
:101DA000C9FC12E00023009314238C2264216420D8
:101DB00003F074FD00230093142350227D217D2025
:101DC00003F06CFD074B01221A7000BFBD4680BDB9
:101DD000DD0300107403001076030010A03903081F
:101DE000AC3903085503001080B582B002AF674BD1
:101DF00000221A70664B1B78002B40F09D80644BCC
:101E000001221A7000230093F0234FF4A0720021E6
:101E1000002003F043FD5F4BB4221A805E4BB422D6
:101E20001A805E4BB4221A805D4BB4221A805D4B3F
:101E3000B4221A805C4BB4221A705C4BB4221A7024
:101E40005B4BB4221A705B4B64221A705A4B05220A
:101E50001A705A4BB4221A70594B40F24B121A8026
:101E6000584B42F210721A80574B00221A60574B9F
:101E700000221A70564B00221A70564B00221A701C
:101E8000554B40F24B121A60544B42F210721A60DA
:101E9000534BB4221A70534BB4221A70524BB422D3
:101EA0001A70524BB4221A70514B00221A70514BC7
:101EB00000221A70504B00221A80504B4FF6FF72CE
:101EC0001A804F4B00221A604E4B00221A604E4B74
:101ED00000221A604D4B00221A704D4B4FF0FF321A
:101EE0001A604C4B4FF0FF321A604B4B63221A7052
:101EF0004A4B63221A704A4B63221A70464B632284
:101F00001A70484B63221A70474B63221A70474B72
:101F100063221A70464B09221A70464B00221A702F
:101F2000454B00221A70454B00221A70444B002288
:101F30001A70444B63221A702E4B1B78052B1DD848
:101F40002C4B1B780133DAB22A4B1A702B4B1B88AF
:101F500042F6F822934207D9284B1B88A3F52B534E
:101F6000383B9AB2254B1A80244B1B8800220092E2
:101F7000354A6421642003F0DDFB04E0334B022288
:101F80001A70FFF7ADFE00BFBD4680BD55030010BF
:101F9000DC030010B4030010B6030010B8030010F7
:101FA000BA030010BC030010BE030010BF030010F2
:101FB000C0030010C1030010C2030010C3030010CF
:101FC000C4030010C6030010C8030010CC030010A7
:101FD000CD030010CE030010D0030010D403001076
:101FE000D8030010D9030010DA030010DB0300103F
:101FF00074030010750300107603001078030010BE
:10200000A8030010AC030010B0030010DD030010A3
:10201000E0030010E4030010E9030010EA030010DD
:10202000EB030010EC030010ED030010EE030010B2
:10203000EF03001064030010F4030010F503001018
:10204000F6030010F7030010B4390308560300101C
:1020500080B582B002AF2D4B1B68002B16D12C4BE4
:102060001B682A4A136000230093F0234FF4A072E8
:102070000021002003F012FC4FF478430093F0237A
:102080004FF4A0720021002003F008FC204B1A68D6
:102090001E4B1B68D31AC82B0AD14FF4FC63009364
:1020A000F0234FF4A0720021002003F0F7FB10E0B2
:1020B000174B1A68154B1B68D31AB3F5C87F08D1A4
:1020C0001F230093F0234FF4A0720021002003F09F
:1020D000E5FB0F4B1A680D4B1B68D31AB3F5167F3F
:1020E00010D900230093F0234FF4A07200210020A8
:1020F00003F0D4FB074B00221A70044B00221A6035
:1021000000F00AF800BFBD4680BD00BFC803001044
:10211000700300107C03001080B400AF444B002219
:102120001A60444B00221A60434B00221A60434B52
:10213000B4221A80424BB4221A80424BB4221A8035
:10214000414BB4221A80414BB4221A80404B632287
:102150001A70404B63221A703F4B63221A703F4B38
:1021600064221A703E4B05221A703E4B63221A708D
:102170003D4B40F24B121A803C4B42F210721A80D7
:102180003B4B00221A603B4B00221A703A4B002254
:102190001A703A4B00221A70394B4FF4AA721A6027
:1021A000384B42F210721A60374B63221A70374B69
:1021B00063221A70364B63221A70364B63221A70F0
:1021C000354B00221A70354B00221A70344B4FF0F9
:1021D000FF321A60334B4FF0FF321A60324B6322EA
:1021E0001A70324B63221A70314B63221A70314BD2
:1021F00063221A70304B63221A70304B63221A70BC
:102200002F4B63221A702F4B00221A702E4B002284
:102210001A702E4B00221A702D4B00221A702D4B73
:1022200063221A7000BFBD465DF8047B704700BF93
:10223000A8030010AC030010B0030010B40300109A
:10224000B6030010B8030010BA030010BC0300105E
:10225000BE030010BF030010C0030010C103001034
:10226000C2030010C3030010C4030010C603001013
:10227000C8030010CC030010CD030010CE030010E3
:10228000D0030010D4030010D8030010D9030010AD
:10229000DA030010DB030010DC030010DD03001084
:1022A000E0030010E4030010E9030010EA0300104B
:1022B000EB030010EC030010ED030010EE03001020
:1022C000EF03001064030010F4030010F503001086
:1022D000F6030010F703001080B582B002AF72B6AB
:1022E00000BF9E4B1B78002B0BD19D4B1B78022B04
:1022F00007D0002201219B4808F088FF9A4B00225A
:102300001A709A4B1B78012B40F01281984B1B7866
:10231000002B00F0E080964B1B78022B00F2DB8054
:10232000934B1A78934B1A70934B1B78012B1AD14D
:1023300000F036F9FFF794FC904B1B78002B0BD183
:102340008F48FEF745FE8E48FEF798FC8C48FEF756
:10235000E7FE8B48FEF73EFD834B1B781A460121B2
:10236000804808F053FF854B1B78002B40F09F807E
:10237000844B1A78814B1B789A420ED07F4B1A7887
:10238000804B1A70FFF7C8FE00230093F0234FF430
:10239000A0720021002003F081FA7B4B1B78012BF7
:1023A0000DD1794B00221A70734B00221A70774BB3
:1023B00001221A706D4B00221A70FEF7F7FA6E4B6D
:1023C0001B78002B17D1724B1A68724BA3FB0213B8
:1023D0001B09322101FB03F3D31A002B40F0B2801A
:1023E0006B4B1B68002B00F0AD80FFF79DFC674B2B
:1023F00001221A70A6E0684B1B78002B54D1674B62
:102400001A785F4B83F818215D4B93F81831002B35
:102410000FD15B4B4FF63672A3F81A21584B4BF293
:102420000412A3F81E21564B4EF65572A3F81C2138
:1024300027E0534B93F81831012B0FD1504B49F63D
:102440006662A3F81A214E4B4FF62052A3F81E21C4
:102450004B4B4FF47842A3F81C2112E0484B93F801
:102460001831022B0DD1464B1922A3F81A21444BE7
:1024700048F27D62A3F81E21414B40F2FF72A3F89F
:102480001C21434B1A68434BA3FB02131B09322147
:1024900001FB03F3D31A002B54D13D4B1B68002BD7
:1024A00050D0FFF70BFC4DE0FFF7D2FD4AE0354B73
:1024B0001A78324B1B789A4244D0304B1A78314B01
:1024C0001A7000230093F0234FF4A0720021002023
:1024D00003F0E4F936E0264B1B78002B33D1254B73
:1024E0001B78002B2FD0254B00221A70274B1B780E
:1024F000012B12D1264B1A68264BA3FB02131B0992
:10250000322101FB03F3D31A002B1CD1204B1B6893
:10251000002B18D0FFF768FC15E01C4B1B78022B32
:1025200011D1194B1B78002B0DD1FFF7D9FB0AE015
:10253000154B1B78002B02D1FFF7D2FB03E0FEF70F
:1025400035FA00E000BF124B1B680133104A1360DC
:1025500062B600BF00BFBD4680BD00BF6303001070
:1025600061030010000802408C03001058030010A3
:102570005A0300107A030010550300108B0300105B
:1025800034020010E803001054030010560300103A
:10259000700300101F85EB517C03001060030010D6
:1025A00080B500AF2E4B1B68002B05D102F00CFC50
:1025B00003461A462B4B1A702A4B1B78002B41D12D
:1025C000294B1B68002B3DD1284B1B68042B39D0AD
:1025D000274B1B78002B07D103F09EF90346254AB1
:1025E0001360234B01221A70234B1B78012B03D05D
:1025F000224B1B78022B1AD1214B1B78002B16D0B3
:10260000204B1B78002B1BD11F4B1B6801331E4A2C
:1026100013601D4B1B68C82B12D11A4B01221A7074
:10262000144B1B681946002002F098FC08E0154B7B
:1026300000221A70144B00221A6002F0BDFC07E061
:1026400000BF05E002F0C0FB03461A46054B1A70B6
:10265000034B1B680133024A136000BF80BD00BFFB
:10266000F803001008040010000400100404001017
:102670008C00002090000020FC0300105B03001081
:102680005A0300108B0300109400002080B582B024
:1026900000AF934805F012FD03461A46914B1A60AD
:1026A000914B1B68002B67D18D4805F03DF88F4B8F
:1026B00048F612721A608D4B1B681946884805F05F
:1026C000AEFA8B4B03221A708A4B01221A61894B96
:1026D00000229A60874B4FF400721A60864B1A787A
:1026E000864B1A70864B854A82497D4805F0A5F8CD
:1026F000804B08221A617F4B00229A607D4B40F28A
:1027000099221A607C4B1B780133DAB27A4B1A702B
:102710007C4B1B681B0EDAB2784B1A70794B1B6826
:102720001B0CDAB2754B5A70764B1B681B0ADAB277
:10273000724B9A70734B1B68DAB2704BDA70724B43
:102740001B681B0EDAB26D4B1A716F4B1B681B0CAA
:10275000DAB26A4B5A716C4B1B681B0ADAB2674BD0
:102760009A71694B1B68DAB2644BDA71644B634A45
:1027700060495B4805F061F85D4B1B78022B04D083
:102780005B4B1B78032B40F06181594B1B78042B6A
:1027900000F05C810023FB7107E0FB795B4A0021BC
:1027A00042F82310FB790133FB71FB79142BF4D928
:1027B000574B1B680133564A1360564B1B68013355
:1027C000544A1360544B1B680133534A1360534BF4
:1027D0001B680133514A1360514B1B680133504A47
:1027E00013604B4B1B68B3F5FA6F16D90121122009
:1027F00001F054FF4B4B00221A704B4B00221A7011
:102800004A4B00221A704A4B00221A70494B002290
:102810001A70494B00221A7003E00021122001F0C7
:102820003DFF3C4B1B68B3F5FA6F13D90121132010
:1028300001F034FF414B00221A70414B00221A7004
:10284000404B00221A70404B00221A703F4B00226E
:102850001A7003E00021132001F020FF2E4B1B68AB
:10286000B3F5FA6F07D90121152001F017FF384B96
:1028700000221A7003E00021152001F00FFF274B02
:102880001B68B3F5FA6F10D90121142001F006FF7F
:10289000304B00221A70304B00221A702F4B00224E
:1028A0001A702F4B00221A7003E00021142001F04F
:1028B000F5FE1A4B1B68B3F5FA6F53D901211420AA
:1028C00001F0ECFE234B00221A70234B00221A70F9
:1028D000224B00221A70224B00221A7046E000BFE1
:1028E000CC0000201C0400101804001098000020E8
:1028F000CC040010A004001018050010B80400104B
:10290000C004001014000010180000102004001073
:102910000805001004050010140500100C05001037
:1029200010050010DC040010DB040010D7040010B8
:10293000D3040010D6040010DF040010CE040010F1
:10294000CF040010D0040010D2040010D9040010ED
:10295000DA040010DD040010D4040010DE040010BE
:10296000D50400100021142001F098FE534B1A6882
:10297000534BA3FB02135B09CF2101FB03F3D31AD3
:10298000002B19D14F4B01221A614E4B00229A6045
:102990004C4B4FF400721A604B4B1B780133DAB288
:1029A000494B1A70484B1A78484B1A70484B474AA3
:1029B0004449484804F041FF404B1A68464BA3FB8A
:1029C00002139B09CD2101FB03F3D31A002B3DD148
:1029D0003C4B08221A613B4B00229A60394B40F273
:1029E00099221A603D4B1B681B0EDAB2374B1A70E6
:1029F0003A4B1B681B0CDAB2344B5A70374B1B68CE
:102A00001B0ADAB2314B9A70344B1B68DAB22F4B87
:102A1000DA70334B1B681B0EDAB22C4B1A71304B39
:102A20001B681B0CDAB2294B5A712D4B1B681B0A11
:102A3000DAB2264B9A712A4B1B68DAB2234BDA7151
:102A4000234B224A1F49234804F0F7FE254B1B68FD
:102A5000B3F57A7F02D3244B01221A70224B1B78E4
:102A6000012B02D1214B01221A70204B1B78012B24
:102A700008D1184804F0C1FE0346002B02D11548C6
:102A800004F096FE174B1B680133164A13600B4B7C
:102A90001B680133094A13600023BB7106E0BB7950
:102AA0000A4A0021D154BB790133BB71BB79072B92
:102AB000F5D900BF00BF0837BD4680BD180400101F
:102AC000492B9327A004001018050010B80400102B
:102AD000C0040010CC000020FF04EC4F14000010D4
:102AE00018000010C8040010CC040010C40400102A
:102AF00080B582B000AF78607B685B6AB3F5001F79
:102B000000F03F81B3F5001F00F24281B3F5801F52
:102B100000F03081B3F5801F00F23A81B3F5002F49
:102B200000F02181B3F5002F00F23281B3F5802F40
:102B300000F01281B3F5802F00F22A81B3F5803FB7
:102B400000F00381B3F5803F00F22281B3F5004F1E
:102B500000F0F780B3F5004F00F21A81B3F5804F13
:102B600000F0E880B3F5804F00F21281B3F5005F0A
:102B700000F0D980B3F5005F00F20A81B3F5805F01
:102B800000F0CA80B3F5805F00F20281B3F5006FF8
:102B900000F0BB80B3F5006F00F2FA80B3F5806FF0
:102BA00000F0AC80B3F5806F00F2F280B3F5007FE7
:102BB00000F09D80B3F5007F00F2EA80B3F5807FDE
:102BC00000F08E80B3F5807F00F2E280802B00F071
:102BD0008080802B00F2DC80202B49D8002B00F075
:102BE000D780013B1F2B00F2D38001A252F823F0C3
:102BF000772C0208852C0208912D0208932C0208DC
:102C0000912D0208912D0208912D0208A12C020895
:102C1000912D0208912D0208912D0208912D020894
:102C2000912D0208912D0208912D0208A92C02086D
:102C3000912D0208912D0208912D0208912D020874
:102C4000912D0208912D0208912D0208912D020864
:102C5000912D0208912D0208912D0208912D020854
:102C6000912D0208912D0208912D0208B72C02081F
:102C7000402B27D08CE0494B01221A60786805F080
:102C800045FA86E0454B02225A60786805F03EFA24
:102C90007FE0424B03229A60786805F037FA78E0CB
:102CA000786805F033FA74E03C4B05221A617868C5
:102CB00005F02CFA6DE0394B06225A61786805F070
:102CC00025FA66E0354B07229A61786805F01EFA0E
:102CD0005FE0324B0822DA61786805F017FA58E0B5
:102CE0002E4B09221A62786805F010FA51E02B4B3E
:102CF0000A225A62786805F009FA4AE0274B0B224B
:102D00009A62786805F002FA43E0244B0C22DA62FA
:102D1000786805F0FBF93CE0204B0D221A637868D7
:102D200005F0F4F935E01D4B0E225A63786805F082
:102D3000EDF92EE0194B0F229A63786805F0E6F959
:102D400027E0164B11221A6423E0144B12225A6416
:102D5000786805F0DBF91CE0104B13229A64786860
:102D600005F0D4F915E00D4B1422DA64786805F00B
:102D7000CDF90EE0094B15221A65786805F0C6F901
:102D800007E0064B16225A65786805F0BFF900E0A7
:102D900000BF00BF0837BD4680BD00BF2004001043
:102DA00080B58AB000AF7860954B1B680133944AB8
:102DB0001360944B1B78012B18D1934B934A00213D
:102DC000934804F00AFE914B1B68B3F5A26F0AD139
:102DD0008D4B5A788F4B1A708B4B5B78112B02D12D
:102DE000002002F05FF90AF0DBFCCFE1844B1B68A6
:102DF0000133834A1360844B844A0021844804F0E1
:102E0000ECFD824B1B68B3F5A26F14D17E4B5A7850
:102E1000804B1A707C4B5B78112B0CD17E4B0022BF
:102E20001A707E4B1B78042B02D07C4B02221A7046
:102E30007B4B00221A60754B1B68972B16D1724B87
:102E40001A78784B1A70704B1A79774B1A706E4B50
:102E5000DA78764B1A706C4B5A78754B1A706A4B4D
:102E60009A78744B1A70744B00221A60674B1B6877
:102E7000982B1AD1644B1A78704B1A70624B5A789F
:102E80006F4B1A70604B9A786E4B1A705E4BDA7803
:102E90006D4B1A705C4B1A796C4B1A705A4B5A79FD
:102EA0006B4B1A706B4B00221A60584B1B68992BA6
:102EB00012D1554B1A78684B1A70534B5A78674B9E
:102EC0001A70514B9A78664B1A704F4BDA78654BF3
:102ED0001A70654B00221A604C4B1B6840F20B12B3
:102EE000934203D1484B1A78604B1A70474B1B68CA
:102EF00040F20F12934206D1434B1A785C4B1A7082
:102F00005C4B00221A60414B1B6840F20122934245
:102F100025D1594B00221A603B4B1B7887F8233090
:102F2000394B5B7887F82130374B9B7887F8223014
:102F300007F120030022194650480BF029FC324BC0
:102F4000DB783B73304B1B797B732F4B5B79BB7307
:102F500007F10C030022194648480BF021FB2B4BCC
:102F60001B6840F20272934230D1284B1B69444ADD
:102F70001361264B5B68424A5360244B9B69404A6D
:102F80009361224B9B683E4A9360204BDB683C4A2E
:102F9000D3601E4B1B683A4A13601C4B5B69384A6E
:102FA0005361002387F827300CE097F8272097F823
:102FB00027301549895C334AD15497F827300133BB
:102FC00087F8273097F82730072BEED90F4B0022D0
:102FD0001A610E4B00225A600C4B00229A610B4B77
:102FE00000229A60094B0022DA60084B00221A6026
:102FF000064B00225A61002387F826304EE000BFBE
:10300000740400103D060010980400107C040010A9
:10301000CC000020CD040010C4040010CC0400102B
:10302000C8040010CE040010CF040010D00400101B
:10303000D2040010D904001004050010DC040010B4
:10304000DB040010D7040010D3040010D6040010D5
:10305000DF04001008050010DD040010D404001087
:10306000DE040010D50400100C050010D804001078
:10307000DA0400101405001010050010F002002002
:10308000E8040010E004001097F82630414A0021BF
:10309000D15497F82630013387F8263097F8263038
:1030A000072BF1D93C4B1B781A463C4B1A603C4B22
:1030B0001A783C4B1A703C4B1A783C4B1A703C4BBC
:1030C0001A783C4B1A703C4B1A783C4B1A70324BB6
:1030D0001A783B4B1A703B4B1A783B4B1A703B4BA0
:1030E0001A783B4B1A703B4B1A783B4B1A703B4B90
:1030F0001A783B4B1A703B4B1B78002B07D03A4B8E
:103100001B78002B03D1374B1A78374B1A70374B8B
:103110001A78374B1A70374B1A78374B1A70374B6F
:103120001A78374B1A70374B1A78374B1A70374B5F
:103130001A78374B1A70374B1A78374B1A70374B4F
:103140001B78032B14D0032B19DC012B02D0022B8C
:1031500007D014E0324B01221A70324B00221A7051
:1031600014E02F4B00221A702E4B01221A700DE032
:103170002B4B01221A702B4B01221A7006E0284BB0
:1031800000221A70274B00221A7000BF00BF283798
:10319000BD4680BD98040010CF0400100000001050
:1031A000DA04001004000010CE0400105A030010CE
:1031B000D20400105B030010D70400105C03001061
:1031C0005D030010D00400105E030010D604001050
:1031D0005F030010D404001060030010D904001035
:1031E00061030010D804001063030010D304001022
:1031F00065030010DD0400108A030010DE040010D7
:1032000088030010DC04001087030010DF040010A6
:1032100089030010D504001086030010DB040010A1
:10322000840300108503001080B58AB000AF786079
:10323000964B1B680133954A1360954B1B78012B05
:1032400018D1944B944A0021944804F0C6FB924B49
:103250001B68B3F5A26F0AD18E4B5A78904B1A7047
:103260008C4B5B78112B02D1002001F01BFF0AF080
:1032700097FAD3E18B4B1B6801338A4A1360854B65
:10328000854A0021854804F0A8FB834B1B68B3F5F1
:10329000A26F14D17F4B5A78814B1A707D4B5B78AB
:1032A000112B0CD1804B00221A70804B1B78042B01
:1032B00002D07E4B02221A707D4B00221A60764BA0
:1032C0001B68972B16D1734B1A787A4B1A70714B77
:1032D0001A79794B1A706F4BDA78784B1A706D4BFC
:1032E0005A78774B1A706B4B9A78764B1A70764BEC
:1032F00000221A60684B1B68982B1AD1654B1A780C
:10330000724B1A70634B5A78714B1A70614B9A78F2
:10331000704B1A705F4BDA786F4B1A705D4B1A79ED
:103320006E4B1A705B4B5A796D4B1A706D4B0022C5
:103330001A60594B1B68992B12D1564B1A786A4B5D
:103340001A70544B5A78694B1A70524B9A78684BE2
:103350001A70504BDA78674B1A70674B00221A606C
:103360004D4B1B6840F20B12934203D1494B1A7824
:10337000624B1A70484B1B6840F20F12934206D101
:10338000444B1A785E4B1A705E4B00221A60424B17
:103390001B6840F20122934227D15B4B00221A6046
:1033A0003C4B1B78303BDBB287F82330394B5B78E2
:1033B00087F82130374B9B7887F8223007F12003BC
:1033C0000022194651480BF0E3F9324BDB783B738E
:1033D000304B1B797B732F4B5B79BB7307F10C036D
:1033E0000022194649480BF0DBF82B4B1B6840F2D2
:1033F0000272934230D1284B1B69454A1361264B18
:103400005B68434A5360244B9B69414A9361224B5A
:103410009B683F4A9360204BDB683D4AD3601E4B5C
:103420001B683B4A13601C4B5B69394A536100239C
:1034300087F827300CE097F8272097F827301549B0
:10344000895C344AD15497F82730013387F8273004
:1034500097F82730072BEED90F4B00221A610E4B3D
:1034600000225A600C4B00229A610B4B00229A609A
:10347000094B0022DA60084B00221A60064B00223A
:103480005A61002387F8263050E000BF780400100E
:103490003D060010980400107C040010CC000020B1
:1034A000CD04001074040010C4040010CC040010FB
:1034B000C8040010CE040010CF040010D004001087
:1034C000D2040010D904001004050010DC04001020
:1034D000DB040010D7040010D3040010D604001041
:1034E000DF04001008050010DD040010D4040010F3
:1034F000DE040010D50400100C050010D8040010E4
:10350000DA0400101405001010050010F00200206D
:10351000E8040010E004001097F82630414A00212A
:10352000D15497F82630013387F8263097F82630A3
:10353000072BF1D93C4B1B781A463C4B1A603C4B8D
:103540001A783C4B1A703C4B1A783C4B1A703C4B27
:103550001A783C4B1A703C4B1A783C4B1A70324B21
:103560001A783B4B1A703B4B1A783B4B1A703B4B0B
:103570001A783B4B1A703B4B1A783B4B1A703B4BFB
:103580001A783B4B1A703B4B1B78002B07D03A4BF9
:103590001B78002B03D0374B1A78374B1A70374BF8
:1035A0001A78374B1A70374B1A78374B1A70374BDB
:1035B0001A78374B1A70374B1A78374B1A70374BCB
:1035C0001A78374B1A70374B1A78374B1A70374BBB
:1035D0001B78032B14D0032B19DC012B02D0022BF8
:1035E00007D014E0324B01221A70324B00221A70BD
:1035F00014E02F4B00221A702E4B01221A700DE09E
:103600002B4B01221A702B4B01221A7006E0284B1B
:1036100000221A70274B00221A7000BF00BF283703
:10362000BD4680BD98040010CF04001000000010BB
:10363000DA04001004000010CE0400105A03001039
:10364000D20400105B030010D70400105C030010CC
:103650005D030010D00400105E030010D6040010BB
:103660005F030010D404001060030010D9040010A0
:1036700061030010D804001063030010D30400108D
:1036800065030010DD0400108A030010DE04001042
:1036900088030010DC04001087030010DF04001012
:1036A00089030010D504001086030010DB0400100D
:1036B000840300108503001080B582B000AF194864
:1036C00008F000FB03461A46174B1A60154808F02D
:1036D00007FB0346154A1360144B1B68042B0AD1E1
:1036E00002F0DEFF114B00221A60114B1B68013300
:1036F0000F4A13600DE00023FB7107E0FB790D4AD0
:10370000002142F82310FB790133FB71FB79072B71
:10371000F4D9094B1B680133074A136000BF08370F
:10372000BD4680BD6C02002020050010040400107E
:103730000C040010240500101C05001080B483B098
:1037400000AF78607B681B6CB3F5007F00F087806A
:10375000B3F5007F00F28980802B7AD0802B00F2B5
:103760008480202B48D8002B7FD0013B1F2B7CD896
:1037700001A252F823F000BFFF3702080B380208FD
:103780006B380208173802086B3802086B380208D9
:103790006B380208233802086B3802086B380208BD
:1037A0006B3802086B3802086B3802086B38020865
:1037B0006B3802082F3802086B3802086B38020891
:1037C0006B3802086B3802086B3802086B38020845
:1037D0006B3802086B3802086B3802086B38020835
:1037E0006B3802086B3802086B3802086B38020825
:1037F0006B3802083B380208402B24D035E01E4BC2
:103800001B6801331C4A136030E01B4B5B680133BB
:10381000194A53602AE0184B9B680133164A93609B
:1038200024E0154BDB680133134AD3601EE0124BD2
:103830001B690133104A136118E00F4B5B690133B8
:103840000D4A536112E00C4B9B6901330A4A9361A4
:103850000CE0094BDB690133074AD36106E0064BF4
:103860001B6A0133044A136200E000BF00BF0C373B
:10387000BD465DF8047B70472405001080B582B01A
:1038800000AF814B1B6805337F4A13607F4B1B6879
:10389000002B02D17E4B00221A707E4B5B783E2BB0
:1038A00001D100F0B9FB7B4B5B78282B01D100F0F4
:1038B000C7FD784B5B78852B01D100F0FFFD754B80
:1038C0005B78102B15D1734B9B78012B01D100F045
:1038D00053FA704B9B78032B01D100F091FA6D4B9A
:1038E0009B78022B05D16A4B1B78012B01D100F08C
:1038F000CBFA684BDB78862B09D1664B9B78F12B92
:1039000005D1644B5B78222B01D100F023FD614B84
:103910005B78112B05D15F4B9B78012B01D100F017
:10392000FFFA5C4B5B78112B05D15A4B9B78032B2C
:1039300001D100F033FB574B5B78142B01D100F021
:10394000BDFB544B5B78192B01D100F0F7FB504BBA
:103950001B78012B5AD14F4B5B78312B23D14D4B28
:103960001B79302B01D100F0E1F84A4B1B79312B48
:1039700001D100F099F8474B9B78012B13D1454BAF
:10398000DB783E2B05D1434B1B793E2B01D100F058
:10399000D3FD404BDB783F2B05D13E4B1B793F2BB2
:1039A00001D100F0FFFD3B4B5B782A2B16D1394B40
:1039B0009B78042B07D1374BDB780C3B364A52F807
:1039C000233098470AE0334B9B78042B06D0314BC9
:1039D000DB780C3B304A52F8233098472D4B5B780C
:1039E000222B13D12B4B9B78002B05D1294BDB7855
:1039F000052B01D100F0DCFC264B9B78F12B05D187
:103A0000244BDB78802B01D100F062FC234B002299
:103A10001A61224B00225A60204B00229A601F4BF1
:103A20000022DA601D4B00221A601D4B00221A6131
:103A30001B4B00225A601A4B00229A61184B00223D
:103A40009A60174B0022DA60154B00221A60144B63
:103A500000225A610023FB710AE0FB79114A002120
:103A6000D154FB790B4A0021D154FB790133FB710E
:103A7000FB79072BF1D9054B1B680133034A13600F
:103A800000BF0837BD4680BD04FC0010480500108B
:103A900000FC0010E0040010040000204C050010A1
:103AA000E80400106405001080B500AF194B072230
:103AB0001A61184B40F203721A60174B07221A70F2
:103AC000154B71225A70144B00229A70124B00222F
:103AD000DA70114B31221A710F4B00225A710E4BC2
:103AE00000229A710C4B0022DA710C4BDB791A041C
:103AF0000A4B9B791B021343084A527913431A4617
:103B0000074B1A60074B044A0249074803F095FE29
:103B100000BF80BD4C05001064050010E0040010DB
:103B2000140000106C050010CC00002080B500AF20
:103B3000464B08221A61454B40F203721A60444B0F
:103B400007221A70424B71225A70414B00229A7020
:103B50003F4B0022DA703E4B30221A713D4B1B68FE
:103B60001B0EDAB23A4B5A713A4B1B681B0CDAB295
:103B7000374B9A71374B1B681B0ADAB2344BDA7138
:103B8000354B334A3149354803F057FE052003F0E1
:103B900081FB2E4B08221A612C4B40F203721A60F3
:103BA0002B4B07221A702A4B71225A70284B002285
:103BB0009A70274B0022DA70254B30221A71254B60
:103BC0001B68DAB2224B5A71254B1B681B0EDAB206
:103BD0001F4B9A71224B1B681B0CDAB21C4BDA711B
:103BE0001D4B1B4A19491D4803F027FE052003F011
:103BF00051FB164B08221A61144B40F203721A60F3
:103C0000134B07221A70124B71225A70104B00226C
:103C10009A700F4B0022DA700D4B30221A71104B44
:103C20001B681B0ADAB20A4B5A710D4B1B68DAB2D9
:103C3000074B9A71064B0022DA71074B044A03497D
:103C4000064803F0FAFD00BF80BD00BF4C05001020
:103C500064050010140000106C050010CC0000205A
:103C60001800001080B500AF184B08221A61174BDE
:103C700040F203721A60164B07221A70154B5B78DC
:103C80004033DAB2124B5A70124B9A78104B9A703A
:103C9000104BDA780E4BDA700F4B1B68DAB20C4B14
:103CA0001A710E4B1B68DAB2094B5A710C4B1A7819
:103CB000074B9A710B4B1A78054BDA710A4B044A81
:103CC00002490A4803F0B9FD00BF80BD4C05001051
:103CD00064050010E004001000040010040400104B
:103CE00008040010FC0300106C050010CC0000203C
:103CF00080B500AF174B08221A61164B40F20372D1
:103D00001A60154B07221A70144B5B784033DAB2F5
:103D1000114B5A70114B9A780F4B9A700F4BDA78FF
:103D20000D4BDA700E4B1A780B4B1A710D4B1A783B
:103D3000094B5A710C4B1A78074B9A710B4B1A7836
:103D4000054BDA710A4B044A02490A4803F075FD33
:103D500000BF80BD4C05001064050010E004001099
:103D60007B0300107C030010580300105403001064
:103D70006C050010CC00002080B500AF194B1B690A
:103D8000194A1361184B40F203721A60154B1B69F4
:103D9000DBB2013BDAB2154B1A70154B5B7840333E
:103DA000DAB2124B5A70124B9A78104B9A700F4B32
:103DB0000022DA700D4B00221A710C4B00225A714E
:103DC0000A4B00229A71094B0022DA71094B00223A
:103DD0001A70094B054A0449084803F02EFD00BF3C
:103DE00080BD00BFE80400104C0500106405001001
:103DF000E004001000FC00106C050010CC00002056
:103E000080B500AF194B1B69194A1361174B1B682A
:103E10000133174A1360154B1B69DBB2013BDAB261
:103E2000144B1A70144B5B784033DAB2114B5A7052
:103E3000114B9A780F4B9A700E4B0022DA700D4B93
:103E400000221A710B4B00225A710A4B00229A7100
:103E5000084B0022DA71094B01221A70084B054AFF
:103E60000349084803F0E9FC00BF80BDE8040010E6
:103E70004C05001064050010E004001000FC001068
:103E80006C050010CC00002080B500AF1D4B1B69F5
:103E90001D4A13611B4B1B6801331B4A1360194BEE
:103EA0001B69DBB2013BDAB2184B1A70184B5B7816
:103EB0004033DAB2154B5A70154B9A78134B9A70FF
:103EC000124B0022DA70114B00221A710F4B0022A4
:103ED0005A710E4B00229A710C4B0022DA710D4B75
:103EE00002221A7000F07AFD0B4B084A06490B4873
:103EF00003F0A3FC052003F0CDF9002001F0D2F877
:103F000000BF80BDE80400104C05001064050010DF
:103F1000E004001000FC00106C050010CC00002034
:103F200080B500AF184B03221A61174B40F20372A1
:103F30001A60164B02221A70144B51225A70134BFE
:103F400001229A70114B0022DA70104B00221A7174
:103F50000E4B00225A710D4B00229A710B4B00221E
:103F6000DA710B4B05221A7000F038FD094B074A35
:103F70000549094803F061FC052003F08BF9002096
:103F800001F090F800BF80BD4C05001064050010E2
:103F900000FC00106C050010CC00002080B500AFC4
:103FA000184B03221A61174B40F203721A60164B2A
:103FB00002221A70144B51225A70134B03229A702A
:103FC000114B0022DA70104B00221A710E4B0022A6
:103FD0005A710D4B00229A710B4B0022DA710B4B78
:103FE00006221A7000F0FAFC094B074A05490948F5
:103FF00003F023FC052003F04DF9002001F052F8F6
:1040000000BF80BD4C0500106405001000FC0010CE
:104010006C050010CC00002080B500AF1E4B1B6962
:104020001E4A13611C4B1B6801331C4A13601A4B58
:104030001B69DBB2013BDAB2194B1A70194B5B7882
:104040004033DAB2164B5A70164B9A78144B9A706A
:10405000134B0022DA70124B00221A71104B00220F
:104060005A710F4B00229A710D4B0022DA710E4BE0
:1040700000221A700D4B1B78042B02D00B4B02222E
:104080001A700B4B00221A700A4B054A03490A4862
:1040900003F0D3FB00BF80BDE80400104C05001006
:1040A00064050010E0040010C4040010CC040010EB
:1040B000C80400106C050010CC00002080B500AFD3
:1040C000184B1B69184A1361164B1B680133164ABB
:1040D0001360144B1B69DBB2013BDAB2134B1A704D
:1040E000134B5B784033DAB2104B5A700F4B0022FF
:1040F0009A700E4B0022DA700C4B00221A710B4B97
:1041000000225A71094B00229A71084B0022DA7181
:1041100000F088FA074B054A0349074803F08DFB76
:1041200000BF80BDE80400104C05001064050010BD
:10413000E00400106C050010CC00002080B500AF3A
:104140005E4B08221A615D4B40F203721A605C4BB1
:1041500007221A705A4B59225A70594B0A229A70E8
:10416000584B1B68DAB2564BDA70564B5B68DAB2C2
:10417000534B1A71534B9B68DAB2514B5A71514BE6
:10418000DB68DAB24E4B9A714E4B1B69DAB24C4B7C
:10419000DA714D4B4A4A49494C4803F04EFB052021
:1041A00003F078F8454B08221A61444B40F2037241
:1041B0001A60434B07221A70414B59225A70404BE8
:1041C0000A229A703F4B5B69DAB23D4BDA703D4B85
:1041D0009B69DAB23A4B1A713A4BDB69DAB2384B67
:1041E0005A71384B1B6ADAB2354B9A71354B5B6AA0
:1041F000DAB2334BDA71344B314A3049334803F089
:104200001CFB052003F046F82C4B08221A612B4BAF
:1042100040F203721A602A4B07221A70284B592267
:104220005A70274B0A229A70264B9B6ADAB2244BAB
:10423000DA70244BDB6ADAB2214B1A71214B1B6B0B
:10424000DAB21F4B5A711F4B5B6BDAB21C4B9A717F
:104250001C4B9B6BDAB21A4BDA711B4B184A17498D
:104260001A4803F0EAFA052003F014F8134B06226B
:104270001A61124B40F203721A60114B05221A7038
:104280000F4B59225A700E4B0A229A700D4BDB6B62
:10429000DAB20B4BDA700B4B1B6CDAB2084B1A71AB
:1042A000084B5B6CDAB2064B5A71074B044A034960
:1042B000064803F0C2FA00BF80BD00BF4C050010E5
:1042C00064050010740500106C050010CC0000207F
:1042D00080B500AF184B08221A61184B1B680133D8
:1042E000154A1360164B07221A70164B5B78403341
:1042F000DAB2134B5A70134B9A78114B9A70114BD8
:10430000DA780F4BDA70104B5A780D4B1A710E4B4E
:104310001A780B4B5A710C4B9A78094B9A710A4BCD
:10432000DA78074BDA71094B054A0349084803F06C
:1043300084FA00BF80BD00BF4C050010E8040010E7
:1043400064050010E0040010000000206C0500105F
:10435000CC00002080B500AF0F4B05221A610F4B37
:104360001B6801330C4A13600D4B04221A700C4B6E
:1043700062225A700A4BF1229A70094B8622DA7037
:10438000084B1A78064B1A71074B054A0249074831
:1043900003F053FA00BF80BD4C050010E804001084
:1043A0006405001000FC00106C050010CC0000201B
:1043B00080B500AF1B4B08221A611B4B1B680133F1
:1043C000184A1360194B07221A70194B5B78403357
:1043D000DAB2164B5A70164B9A78144B9A70144BEB
:1043E000DA78124BDA70134B1B681B0EDAB20F4BE4
:1043F0001A71104B1B681B0CDAB20C4B5A710D4B27
:104400001B681B0ADAB2094B9A710A4B1B68DAB2B5
:10441000064BDA71084B054A0249084803F00DFAC9
:1044200000BF80BD4C050010E804001064050010BA
:10443000E004001004FC00106C050010CC0000200B
:1044400080B500AF164B1B69164A1361144B1B68ED
:104450000133144A1360144B02221A70134B5B7819
:104460004033DAB2104B5A70104B9A780E4B9A7058
:104470000E4B9B78012B03D10D4B02221A7006E0E4
:104480000A4B9B78002B02D1094B04221A70094B6E
:10449000054A0449084803F0D0F900BF80BD00BFB9
:1044A000E80400104C05001064050010E004001042
:1044B000CC0400106C050010CC00002080B500AFCB
:1044C000164B1B69164A1361144B1B680133144ABF
:1044D0001360144B1A78144B1A70124B5B784033EC
:1044E000DAB2114B5A700F4B9A780F4B9A700D4BF2
:1044F0009B78012B03D10D4B01221A7006E0094B6A
:104500009B78022B02D1094B00221A70084B064AF5
:104510000349084803F091F900BF80BDE80400108A
:104520004C050010E004001064050010BC050010EC
:104530006C050010CC00002080B500AF144B0522A4
:104540001A61134B40F203721A60124B04221A7064
:10455000104B71225A700F4B01229A700D4B3E2264
:10456000DA700C4B3E221A710A4B00225A71094B29
:1045700000229A71074B0022DA71074B01221A7050
:10458000064B044A0249064803F057F900BF80BDB4
:104590004C050010640500107C0300106C05001031
:1045A000CC00002080B500AF174B05221A61164BD6
:1045B00040F203721A60154B04221A70134B7122D9
:1045C0005A70124B01229A70104B3F22DA700F4B37
:1045D0003F221A710D4B00225A710C4B00229A7126
:1045E0000A4B0022DA710A4B5A790A4B1A70084BAF
:1045F0005A79094B1A70094B044A0349084803F0D9
:104600001CF900BF80BD00BF4C0500106405001000
:10461000E0040010FC030010620300106C050010A1
:10462000CC00002080B582B000AF0023FB711FE0FA
:10463000FB79154A002142F82310FB79062B04D898
:10464000FB79124A002142F82310FB79032B04D88E
:10465000FB790F4A002142F82310FB79082B04D87C
:10466000FB790C4A002142F82310FB790133FB71DE
:10467000FB79142BDCD94822002107480EF016FDE7
:1046800000BF0837BD4680BD20040010180600108A
:1046900004060010240500107405001080B483B0D7
:1046A00000AF03460A46FB711346BB71254B1B78CE
:1046B000002B40D1BB79012B23D1FB79013B5B005F
:1046C0000133214A52F82330012B08D0FB79013BFA
:1046D0005B0001331C4A52F82330002B2BD1FB79AD
:1046E000013B5B00FA79184941F82320BB795A1C39
:1046F000FB79013B5B0001331146134A42F823105A
:1047000019E0FB79013B5B0001330F4A52F823307B
:10471000012B10D1FB79013B5B00FA790A4941F882
:104720002320BB795A1CFB79013B5B000133114606
:10473000054A42F8231000BF0C37BD465DF8047BE4
:10474000704700BFBC0500107405001080B582B032
:1047500000AF794B1B68002B21D10023FB711BE0BC
:10476000FB79002B07D0FB79012B04D1FB79734A2D
:10477000002142F82310FB7903F00103DBB2002B88
:1047800007D0FB79022B04D9FB796C4A002142F84F
:104790002310FB790133FB71FB79112BE0D9002346
:1047A000BB71BCE0BB79664A52F82330002B04D0C1
:1047B00001210F20FFF772FF03E000210F20FFF718
:1047C0006DFFBB79062B53D8BB795E4A52F8233074
:1047D000002B13D15C4B1B680A2B0FD85B4B1B685B
:1047E000002B0BD15A4B1B680A2B07D8594B1B784F
:1047F000002B0BD0574B1B78FF2B07D0012110202B
:10480000FFF74CFF544B01221A7006E000211020E4
:10481000FFF744FF504B00221A70504B1B68042BCB
:1048200017D04F4B1B680A2B13D84E4B1B78002B0D
:1048300003D04C4B1B78FF2B0BD14B4B1B680A2B27
:1048400007D84A4B1B889C2B03D1494B1B78B42BB0
:1048500007D001211120FFF721FF464B01221A70DA
:1048600006E000211120FFF719FF424B00221A70C9
:10487000BB79032B28D8BB793F4A52F82330002B51
:1048800013D1314B1B680A2B0FD8304B1B68002B00
:104890000BD12F4B1B680A2B07D82E4B1B78002BF4
:1048A0000BD02C4B1B78FF2B07D02B4B01221A70FF
:1048B00001211020FFF7F2FE06E0274B00221A70BC
:1048C00000211020FFF7EAFEBB79082B24D8BB7922
:1048D0002A4A52F82330002B0FD11D4B1B680A2B9C
:1048E0000BD81C4B1B78002B03D01A4B1B78FF2BCB
:1048F00003D1234B1B680A2B07D9174B01221A70CF
:1049000001211020FFF7CAFE06E0134B00221A70A7
:1049100000211020FFF7C2FEBB790133BB71BB79C8
:10492000142B7FF63FAF044B1B680133024A136020
:1049300000BF0837BD4680BD70050010740500102B
:1049400020040010180600101004001000040010CD
:104950001404001008040010E505001044060010BF
:104960004806001059030010800300106E03001069
:1049700057030010E4050010040600102405001081
:104980000C04001080B500AF12220E490E4800F052
:10499000C1F80C4B1B68FE2B04D9482200210948A2
:1049A0000EF084FB02220949094800F0B3F8074BD6
:1049B0001B68084A1360054B5B68074A136000BF19
:1049C00080BD00BF7405001000C00008F005001095
:1049D00000800008140000101800001080B500AF1F
:1049E0000A4B1B680A4A13600A4B1B68084A53604B
:1049F000022302220649084800F036F80323122257
:104A00000649074800F030F800BF80BD14000010D0
:104A1000F005001018000010008000087405001058
:104A200000C0000880B500AF0C4B1B78012B05D1EE
:104A3000FFF7A8FF094B02221A7008E0084B1B7809
:104A4000012B04D1FFF7CAFF054B02221A70054B58
:104A50001B680133034A136000BF80BDED050010E1
:104A6000EC050010E8050010B0B588B000AFF860A4
:104A7000B9603B601346FB800023FB613B68BB6170
:104A80003B687B6105F09AFE214B00221A60204BA7
:104A900002221A611E4ABB6993607A69BB69D31A04
:104AA00001331B4AD36007F110031946184805F07B
:104AB000F3FF0346002B1FD005F0B2FE034622E0B1
:104AC000FB699B00BA6813441B6800221C4615460C
:104AD00022462B46F968022005F06CFD0346002BA8
:104AE00006D1FB680433FB60FB690133FB6103E023
:104AF00005F096FE034606E0FB88FA699A42DFD38A
:104B000005F07EFE002318462037BD46B0BD00BF2D
:104B10009C00002080B487B000AFF860B9601346F5
:104B2000FB800023FB820EE0FB8A9B001A46FB6899
:104B300013441946FB8A9B00BA6813440A681A603A
:104B4000FB8A0133FB82FA8AFB889A42ECD300BFCE
:104B500000BF1C37BD465DF8047B704780B582B04E
:104B600000AF6D4803F0E8FD03461A466B4B1A6030
:104B70006B4804F0A9FA03461A466A4B1A60674B61
:104B80001B68042B03D1674B1B68042B11D0664BA9
:104B900000221A600023FB7107E0FB79634A0021C1
:104BA00042F82310FB790133FB71FB79032BF4D915
:104BB00009E001F0D9F85E4B1B6801335C4A1360D1
:104BC000594B00221A60564B5B6DB3F5807F7DD048
:104BD000B3F5807F00F28480202B47D8002B7FD054
:104BE000013B1F2B7CD801A252F823F0734C020822
:104BF000854C0208E14C0208974C0208E14C02087F
:104C0000E14C0208E14C0208E14C0208E14C0208C8
:104C1000E14C0208E14C0208E14C0208E14C0208B8
:104C2000E14C0208E14C0208E14C0208E14C0208A8
:104C3000E14C0208E14C0208E14C0208E14C020898
:104C4000E14C0208E14C0208E14C0208E14C020888
:104C5000E14C0208E14C0208E14C0208E14C020878
:104C6000E14C0208E14C0208A94C0208402B24D078
:104C700036E0304B1B6801332E4A13602A4B012269
:104C80001A603FE02B4B5B6801332A4A5360264B86
:104C900002221A6036E0274B9B680133254A936055
:104CA000214B04221A602DE0224BDB680133214A9C
:104CB000D3601D4B20221A6024E01E4B1B69013378
:104CC0001C4A1361184B40221A601BE0194B9B6968
:104CD0000133184A9361144B4FF480721A6011E04B
:104CE000114B00221A600023BB7107E0BB79114A07
:104CF000002142F82310BB790133BB71BB79052B2E
:104D0000F4D900BF0C4B1B6801330B4A136000BF82
:104D10000837BD4680BD00BF3001002000060010EE
:104D20008801002014060010000400100406001082
:104D30001004001018060010FC05001080B483B0A9
:104D400000AF78607B68DB6B402B25D0402B2CD8E4
:104D5000202B18D0202B28D8012B02D0022B09D0D1
:104D600023E0174B1B680133154A1360154B0122D2
:104D70001A601EE0124B5B680133114A5360114BFD
:104D800002221A6015E00E4B9B6801330C4A9360B7
:104D90000C4B20221A600CE0094BDB680133084AF7
:104DA000D360084B40221A6003E0064B00221A60D1
:104DB00000BF00BF0C37BD465DF8047B704700BFE5
:104DC000040600100004001080B500AF064A074931
:104DD000074800F011F803461A46064B1A70054BB7
:104DE0001B78184680BD00BF6C020020880100209F
:104DF00030010020C800002080B584B000AFF8600A
:104E0000B9607A6062B600BF2F4AFB6813602F4A10
:104E1000BB6813602E4A7B6813602E4B00221A6019
:104E200000224FF480512C4806F0F0F900224FF494
:104E30000061294806F0EAF901224FF40061264892
:104E400006F0E4F962B600BF012002F023FA72B660
:104E500000BF8021122000F0EDF803461A461F4BD8
:104E60001A7062B600BF012002F014FA72B600BFD9
:104E70008021122000F0DEF803461A46174B1A7004
:104E8000174B1B680133164A1360144B1B78002B19
:104E900003D0134B1B68092BE3D962B600BF012076
:104EA00002F0F8F972B600BF72B600BF002000F041
:104EB00019F803461A46094B1A70084B1B78184616
:104EC0001037BD4680BD00BFB0000020B4000020F8
:104ED000F8050010B8000020000C0240C9000020B6
:104EE0001404001080B584B000AF78600023FB602C
:104EF00022E0174AFB6812F813201549FB685B0093
:104F00000B445B781946104600F094F803461A46A5
:104F1000104B1A700F4B1B78002B0AD00E4B1B68DE
:104F2000092B06D80023FB600B4B1B6801330A4A90
:104F30001360FB680133FB60054AFB6812F813300D
:104F4000FF2BD6D1034B1B7818461037BD4680BDCA
:104F5000503A0308CA0000201404001080B582B043
:104F600000AF7860396000F027F87B68002B0BD128
:104F70000F4A3B6813600F4B186847F230533A688A
:104F8000002103F049FA0DE07B68012B0AD1084BA0
:104F900000221A60074B186847F230533A68022122
:104FA00003F03AFA002318460837BD4680BD00BF1B
:104FB000B8000020B000002080B500AF034B1B6894
:104FC000184603F0C9FA0023184680BDB00000203F
:104FD00080B582B000AF7860124B1B68002B05D003
:104FE000104B1B68104A1268104698470F4B1B68FD
:104FF000002B0BD07B68986B7B681B6828331946A5
:105000000A4B1A6847F2305303F0EAFD064B1B685F
:105010000133054A1360064B00221A6000BF0837AF
:10502000BD4680BDC4000020C0000020B8000020A4
:10503000BC00002080B588B004AF03460A46FB716F
:105040001346BB710123FB730A4B1868FB799AB2B4
:105050000123029301230193BB1D009301234221ED
:1050600006F0C0FA0346FB73FB7B18461037BD46BB
:1050700080BD00BFF805001080B400AFBFF34F8FB4
:1050800000BF064BDB6803F4E0620449044B1343A2
:10509000CB60BFF34F8F00BF00BFFDE700ED00E026
:1050A0000400FA0580B582B000AF0346FB7172B60A
:1050B00000BFFB79002B18D0FB79104A52F823204F
:1050C00001320E4941F82320FB790D4A012142F8B3
:1050D00023100C4B1B780133DAB20A4B1A700A4BBF
:1050E0005B6F094A43F080735367074B5B6F064A57
:1050F00043F080735367FFF7BFFF00BF08FC001049
:105100003CFC001070FC00100038024080B582B0FA
:1051100000AF364B1B68002B1FD10023FB7119E039
:10512000FB79334A52F82330002B0CD001210E209A
:10513000FFF7B4FAFB792E4A002142F823102D4BD9
:1051400001221A7003E000210E20FFF7A7FAFB7975
:105150000133FB71FB790C2BE2D9274B1B78002B19
:1051600003D1254B01221A7037E0234B1B78022B09
:1051700033D11E4B1B68B3F5FA6F03D21F4B0122CC
:105180001A702AE01E4B1B78012B12D11B4B0222F6
:105190001A701C4B1B6800221A641B4B1B78002BD7
:1051A0000AD1194B1B78022B06D0174B01221A701B
:1051B00002E0124B01221A70104B1B78022B06D111
:1051C000114B1B78022B02D10C4B03221A700B4B94
:1051D0001B78032B01D100F015F9044B1B68013338
:1051E000024A136000BF0837BD4680BD3806001074
:1051F0003CFC00103C060010ED05001034060010C9
:10520000C4040010E8030020EC05001080B500AFD6
:1052100000220121754805F0F9FF00224FF4C0512A
:10522000734805F0F3FF0421724805F0F3FE0821EE
:10523000704805F0EFFE10216E4805F0EBFE2021CE
:105240006C4805F0E7FE40216A4805F0E3FE0121C5
:10525000684805F0DFFE0221664805F0DBFE4FF4EA
:105260000051624805F0D6FE4FF480415F4805F0DA
:10527000D1FE4FF400415D4805F0CCFE02215B48B1
:1052800005F0C8FE0421594805F0C4FE082157481E
:1052900005F0C0FE1021554805F0BCFE2021534802
:1052A00005F0B8FE4FF48061504805F0B3FE4FF4AE
:1052B00080514E4805F0AEFE01214C4805F0AAFE93
:1052C00002214D4805F0A6FE04214B4805F0A2FE40
:1052D0000821494805F09EFE2021474805F09AFE26
:1052E0008021454805F096FE4FF40071424805F0D4
:1052F00091FE4FF48061404805F08CFE4FF4004170
:105300003D4805F087FE04213C4805F083FE4FF43C
:1053100080513A4805F07EFE4FF40051374805F0C1
:1053200079FE4FF48041354805F074FE4FF400419A
:10533000324805F06FFE4FF400612D4805F06AFE1B
:105340004FF480512A4805F065FE4FF480712A48D9
:1053500005F060FE0121264805F05CFE022124488C
:1053600005F058FE0421224805F054FE082120488B
:1053700005F050FE10211E4805F04CFE20211C486F
:1053800005F048FE40211A4805F044FE80211848E7
:1053900005F040FE4FF48071154805F03BFE4FF4D8
:1053A0000071134805F036FE4FF48061104805F097
:1053B00031FE4FF400610E4805F02CFE4FF4805191
:1053C0000B4805F027FE4FF40061094805F022FE66
:1053D0000B4B1B6B0A4A23F004031363084B1B6B34
:1053E000074A23F08003136300BF80BD000802401A
:1053F000000C024000100240000002400004024085
:105400000038024080B582B000AF012001F042FFB9
:1054100001F064FC1D4803F09FF81D4809F05EFD93
:105420001C4809F067FC1C4806F08AF8174802F08F
:10543000D1FF0023FB7107E097F90730184602F00F
:10544000BBFFFB790133FB71FB79512BF4D9FFF7DB
:10545000DDFE124B1B6B114A23F480031363104BC8
:105460001B680F4A23F0050313600E4B01221A70CC
:1054700062B600BF0121012008F058F90020FFF7B3
:1054800011FE00BF0837BD4680BD00BF30010020BF
:10549000E8030020300300206C02002000380240A6
:1054A00010E000E03D06001080B500AF0F4809F0A5
:1054B000ADFB03461A460E4B1A600D4B1B68042BBE
:1054C0000AD10C4B01221A700B4B1B6801330A4A9C
:1054D000136000F037FF02E0064B00221A70074B02
:1054E0001B680133054A136000BF80BD080200201D
:1054F000440600107B030010480600104006001010
:1055000090B585B000AF0446084611461A462346BA
:10551000FB800346BB800B467B8013463B80002309
:10552000FB8108E03A88B988FB88184600F066F8E5
:10553000FB890133FB81FA897B889A42F2D300BF51
:1055400000BF1437BD4690BD90B585B000AF04468E
:10555000084611461A462346FB800346BB800B468D
:105560007B8013463B800023FB8108E03A88B988A2
:10557000FB88184600F042F8FB890133FB81FA8969
:105580007B889A42F2D300BF00BF1437BD4690BD5E
:1055900090B583B000AF0446084611461A4623462C
:1055A000FB800346BB800B467B8013463B803B8BD6
:1055B0007A88B988F888FFF7A3FFBA883B88134434
:1055C0009BB2013B99B23B8B7A88F888FFF798FF32
:1055D0003B8B3A88B988F888FFF7B6FFFA887B8852
:1055E00013449BB2013B98B23B8B3A88B988FFF7D2
:1055F000ABFF00BF0C37BD4690BD000080B582B048
:1056000000AF0346FB800B46BB8013467B80FB88C4
:1056100001339AB2BB8801339BB2B988F88800F095
:10562000F0F8034A7B88138000BF0837BD4680BD71
:105630000000086090B585B000AF044608461146EA
:105640001A462346FB800346BB800B46FB7013467D
:105650003B800323BB720023FB730023BB735EE01C
:1056600000233B7352E0FB78203BBA7A03FB02F243
:1056700013465B001344DB001946BB7BBA7A02FB7E
:1056800003F3CA183B7B1344294AD35C7B73002382
:10569000FB7232E097F90D30002B12DAFB7A9AB2E6
:1056A000FB8813449AB2FB7B9BB2134498B2BB7B3A
:1056B0009AB2BB8813449BB23A881946FFF79EFF03
:1056C00015E03A8C3B889A4211D0FB7A9AB2FB885B
:1056D00013449AB2FB7B9BB2134498B2BB7B9AB241
:1056E000BB8813449BB23A8C1946FFF787FF7B7B3C
:1056F0005B007B73FB7A0133FB72FB7A072BC9D902
:10570000FB7B0833FB733B7B01333B733A7BBB7AF8
:105710009A42A8D30023FB73BB7B0133BB73BB7BD3
:10572000172B9DD900BF00BF1437BD4690BD00BFE9
:10573000AC3A030890B587B002AFBA601A46034688
:10574000FB810B46BB811346FB800FE0BB681A78D8
:10575000FC88B989F8893B8C00932346FFF76AFFE0
:10576000FB891133FB81BB680133BB60BB681B78CD
:10577000002BEBD100BF00BF1437BD4690BD000029
:1057800090B58BB002AFBA601A460346FB810B4658
:10579000BB811346FB8007F11403BA680849184619
:1057A0000DF062FCFC8807F11402B989F8893B8E80
:1057B00000932346FFF7BEFF00BF2437BD4690BDD0
:1057C000C039030880B483B000AF0346FB80044AAD
:1057D000FB88138000BF0C37BD465DF8047B704723
:1057E0000000086080B483B000AF0346FB804FF038
:1057F000C042FB88138000BF0C37BD465DF8047BB8
:10580000704790B583B000AF0446084611461A466B
:105810002346FB800346BB800B467B8013463B80C0
:105820002A20FFF7DFFFFB881B0A9BB21846FFF711
:10583000C9FFFB88DBB29BB21846FFF7C3FF7B882A
:105840001B0A9BB21846FFF7BDFF7B88DBB29BB2F9
:105850001846FFF7B7FF2B20FFF7C4FFBB881B0AD2
:105860009BB21846FFF7AEFFBB88DBB29BB218466F
:10587000FFF7A8FF3B881B0A9BB21846FFF7A2FF61
:105880003B88DBB29BB21846FFF79CFF2C20FFF74A
:10589000A9FF00BF0C37BD4690BD000090B585B094
:1058A00000AF0446084611461A462346FB800346CD
:1058B000BB800B467B8013463B80FA887B88134471
:1058C0009BB2013B9CB2BA883B8813449BB2013B1C
:1058D0009BB2B988F8882246FFF793FF0023FB812B
:1058E0000FE00023BB8105E00A4A3B8C1380BB8993
:1058F0000133BB81BA897B889A42F5D3FB89013396
:10590000FB81FA893B889A42EBD300BF00BF143772
:10591000BD4690BD0000086080B400AF024B184641
:10592000BD465DF8047B70470000086080B582B01A
:1059300002AF0120FFF756FF1120FFF753FFB620FB
:10594000FFF750FF0A20FFF73DFFC220FFF73AFFA5
:105950003620FFF747FF6820FFF734FF3A20FFF7B4
:1059600041FF5520FFF72EFFE020FFF73BFF1020FF
:10597000FFF728FF1020FFF725FF1020FFF722FF79
:105980000820FFF71FFF0E20FFF71CFF0620FFF780
:1059900019FF4220FFF716FF2820FFF713FF3620DC
:1059A000FFF710FF0320FFF70DFF0E20FFF70AFFA0
:1059B0000420FFF707FF1320FFF704FF0E20FFF777
:1059C00001FF0C20FFF7FEFEE120FFF70BFF0C208C
:1059D000FFF7F8FE2320FFF7F5FE2620FFF7F2FE83
:1059E0000420FFF7EFFE0C20FFF7ECFE0420FFF78A
:1059F000E9FE3920FFF7E6FE2420FFF7E3FE4B2007
:105A0000FFF7E0FE0320FFF7DDFE0B20FFF7DAFED5
:105A10000B20FFF7D7FE3320FFF7D4FE3720FFF728
:105A2000D1FE0F20FFF7CEFE2A20FFF7DBFE00207D
:105A3000FFF7C8FE0020FFF7C5FE0020FFF7C2FEFB
:105A4000EF20FFF7BFFE2B20FFF7CCFE0020FFF773
:105A5000B9FE0020FFF7B6FE0120FFF7B3FE3F209E
:105A6000FFF7B0FE2920FFF7BDFE2C20FFF7BAFE9E
:105A700000230093F0234FF4A07200210020FFF7D1
:105A800087FDEF2340F23F1200210020FFF7B9FE0F
:105A900000231846BD4680BD80B400AF034B1B8871
:105AA0009BB21846BD465DF8047B70470000086055
:105AB00080B58AB000AF7D4B7D4A1A607B4B0422D3
:105AC0005A607A4B00229A60784B0022DA60774B5A
:105AD0004FF470221A61754B4FF440125A61734BA8
