:020000040802F0
:1000000000000220E9820208E17F0208F37F020873
:10001000018002080F8002081D8002080000000015
:10002000000000000000000000000000114B030869
:100030002B80020800000000614D030829410308DD
:100040005D830208398002085D8302085D8302082F
:1000500045800208518002085D8302085D83020822
:100060005D8302085D8302085D8302085D830208E8
:100070005D8302085D8302085D8302085D830208D8
:100080005D8302085D8302086180020875800208B2
:10009000898002089D800208B18002085D83020801
:1000A000C5800208E58002085D8302085D830208BE
:1000B0005D8302085D8302085D8302085D83020898
:1000C0005D830208F98002080D8102085D83020841
:1000D0005D8302085D8302085D8302085D83020878
:1000E0005D8302085D8302085D8302085D83020868
:1000F0005D8302085D8302085D8302085D83020858
:100100005D8302085D8302085D8302085D83020847
:100110005D8302085D8302085D8302085D83020837
:10012000218102085D8302085D8302085D83020865
:100130005D8302085D8302085D8302085D83020817
:100140005D8302085D8302085D8302085D83020807
:100150005D8302085D830208358102085D83020821
:100160005D8302085D8302085D8302085D830208E7
:100170005D8302085D8302084981020800000000D7
:080180005D8302085D810208A5
:1001900010B5054C237833B9044B13B10448AFF3C1
:1001A00000800123237010BD8000002000000000AB
:1001B000B07F030808B5034B1BB103490348AFF3F5
:1001C000008008BD0000000084000020B07F03080C
:1001D00001F0FF01102A2BDB10F0070F08D010F8F8
:1001E000013B013A8B422DD010F0070F42B3F6D1FC
:1001F000F0B441EA012141EA014122F007047FF015
:1002000000070023F0E80256083C85EA010586EA6B
:10021000010685FA47F5A3FA87F586FA47F6A5FAA7
:1002200087F68EB9EED1F0BC01F0FF0102F00702B3
:1002300032B110F8013B013A83EA010313B1F8D15E
:100240000020704701387047002D06BF354603383F
:10025000073815F0010F07D1013015F4807F02BF78
:10026000013015F4C03F0130F0BC0138704700BFC9
:1002700081F0004102E000BF83F0004330B54FEA57
:1002800041044FEA430594EA050F08BF90EA020FC4
:100290001FBF54EA000C55EA020C7FEA645C7FEA57
:1002A000655C00F0E2804FEA5454D4EB5555B8BF7A
:1002B0006D420CDD2C4480EA020281EA030382EAEB
:1002C000000083EA010180EA020281EA0303362D7D
:1002D00088BF30BD11F0004F4FEA01314FF4801C50
:1002E0004CEA113102D0404261EB410113F0004F62
:1002F0004FEA03334CEA133302D0524263EB430319
:1003000094EA050F00F0A780A4F10104D5F1200EB6
:100310000DDB02FA0EFC22FA05F2801841F1000111
:1003200003FA0EF2801843FA05F359410EE0A5F1E5
:1003300020050EF1200E012A03FA0EFC28BF4CF016
:10034000020C43FA05F3C01851EBE37101F00045CC
:1003500007D54FF0000EDCF1000C7EEB00006EEBD9
:100360000101B1F5801F1BD3B1F5001F0CD3490863
:100370005FEA30004FEA3C0C04F101044FEA4452BA
:1003800012F5800F80F09A80BCF1004F08BF5FEA41
:10039000500C50F1000041EB045141EA050130BD21
:1003A0005FEA4C0C404141EB0101013C28BFB1F533
:1003B000801FE9D291F0000F04BF01460020B1FA7E
:1003C00081F308BF2033A3F10B03B3F120020CDA51
:1003D0000C3208DD02F1140CC2F10C0201FA0CF02F
:1003E00021FA02F10CE002F11402D8BFC2F1200C94
:1003F00001FA02F120FA0CFCDCBF41EA0C0190404A
:10040000E41AA2BF01EB0451294330BD6FEA040492
:100410001F3C1CDA0C340EDC04F11404C4F120027D
:1004200020FA04F001FA02F340EA030021FA04F38F
:1004300045EA030130BDC4F10C04C4F1200220FAE6
:1004400002F001FA04F340EA0300294630BD21FA24
:1004500004F0294630BD94F0000F83F4801306BFEA
:1004600081F480110134013D4EE77FEA645C18BFDE
:100470007FEA655C29D094EA050F08BF90EA020F75
:1004800005D054EA000C04BF1946104630BD91EA6D
:10049000030F1EBF0021002030BD5FEA545C05D170
:1004A0004000494128BF41F0004130BD14F58004AF
:1004B0003CBF01F5801130BD01F0004545F0FE4123
:1004C00041F470014FF0000030BD7FEA645C1ABF58
:1004D000194610467FEA655C1CBF0B46024650EA8F
:1004E000013406BF52EA033591EA030F41F40021BB
:1004F00030BD00BF90F0000F04BF0021704730B541
:100500004FF4806404F132044FF000054FF0000115
:1005100050E700BF90F0000F04BF0021704730B5D6
:100520004FF4806404F1320410F0004548BF4042AB
:100530004FF000013EE700BF42004FEAE2014FEA00
:1005400031014FEA02701FBF12F07F4393F07F4FDB
:1005500081F06051704732F07F4208BF704793F0DE
:100560007F4F04BF41F40021704730B54FF46074F1
:1005700001F0004521F000411CE700BF50EA0102F4
:1005800008BF704730B54FF000050AE050EA01029D
:1005900008BF704730B511F0004502D5404261EB0D
:1005A00041014FF4806404F132045FEA915C3FF44E
:1005B000D8AE4FF003025FEADC0C18BF03325FEAEB
:1005C000DC0C18BF033202EBDC02C2F1200300FA9C
:1005D00003FC20FA02F001FA03FE40EA0E0021FAC1
:1005E00002F11444BDE600BF70B54FF0FF0C4CF4AF
:1005F000E06C1CEA11541DBF1CEA135594EA0C0F61
:1006000095EA0C0F00F0DEF82C4481EA030621EA9B
:100610004C5123EA4C5350EA013518BF52EA0335D6
:1006200041F4801143F4801338D0A0FB02CE4FF088
:100630000005E1FB02E506F00042E0FB03E54FF0B8
:100640000006E1FB03569CF0000F18BF4EF0010EB0
:10065000A4F1FF04B6F5007F64F5407404D25FEAAC
:100660004E0E6D4146EB060642EAC62141EA55515F
:100670004FEAC52040EA5E504FEACE2EB4F1FD0CA1
:1006800088BFBCF5E06F1ED8BEF1004F08BF5FEA1F
:10069000500E50F1000041EB045170BD06F00046D1
:1006A00046EA010140EA020081EA0301B4EB5C047E
:1006B000C2BFD4EB0C0541EA045170BD41F4801176
:1006C0004FF0000E013C00F3AB8014F1360FDEBF9B
:1006D000002001F0004170BDC4F10004203C35DA77
:1006E0000C341BDC04F11404C4F1200500FA05F3FA
:1006F00020FA04F001FA05F240EA020001F000429B
:1007000021F0004110EBD37021FA04F642EB060110
:100710005EEA430E08BF20EAD37070BDC4F10C043A
:10072000C4F1200500FA04F320FA05F001FA04F2FE
:1007300040EA020001F0004110EBD37041F10001EA
:100740005EEA430E08BF20EAD37070BDC4F12005F5
:1007500000FA05F24EEA020E20FA04F301FA05F25D
:1007600043EA020321FA04F001F0004121FA04F205
:1007700020EA020000EBD3705EEA430E08BF20EAD5
:10078000D37070BD94F0000F0FD101F0004640000F
:1007900041EB010111F4801F08BF013CF7D041EA91
:1007A000060195F0000F18BF704703F00046520095
:1007B00043EB030313F4801F08BF013DF7D043EA66
:1007C0000603704794EA0C0F0CEA135518BF95EA1C
:1007D0000C0F0CD050EA410618BF52EA4306D1D1A3
:1007E00081EA030101F000414FF0000070BD50EAC2
:1007F000410606BF1046194652EA430619D094EA4C
:100800000C0F02D150EA013613D195EA0C0F05D135
:1008100052EA03361CBF104619460AD181EA030189
:1008200001F0004141F0FE4141F470014FF0000041
:1008300070BD41F0FE4141F4780170BD70B54FF0DC
:10084000FF0C4CF4E06C1CEA11541DBF1CEA13555C
:1008500094EA0C0F95EA0C0F00F0A7F8A4EB05043E
:1008600081EA030E52EA03354FEA013100F0888035
:100870004FEA03334FF0805545EA131343EA1263FE
:100880004FEA022245EA111545EA10654FEA0026B3
:100890000EF000419D4208BF964244F1FD0404F56C
:1008A000407402D25B084FEA3202B61A65EB0305C8
:1008B0005B084FEA32024FF480104FF4002CB6EB85
:1008C000020E75EB030E22BFB61A754640EA0C0005
:1008D0005B084FEA3202B6EB020E75EB030E22BF45
:1008E000B61A754640EA5C005B084FEA3202B6EB86
:1008F000020E75EB030E22BFB61A754640EA9C0045
:100900005B084FEA3202B6EB020E75EB030E22BF14
:10091000B61A754640EADC0055EA060E18D04FEAD2
:10092000051545EA16754FEA06164FEAC30343EA72
:1009300052734FEAC2025FEA1C1CC0D111F4801F3F
:100940000BD141EA00014FF000004FF0004CB6E738
:1009500011F4801F04BF01430020B4F1FD0C88BFD7
:10096000BCF5E06F3FF6AFAEB5EB030C04BFB6EBE2
:10097000020C5FEA500C50F1000041EB045170BDD5
:100980000EF0004E4EEA113114EB5C04C2BFD4EB02
:100990000C0541EA045170BD41F480114FF0000E86
:1009A000013C90E645EA060E8DE60CEA135594EA02
:1009B0000C0F08BF95EA0C0F3FF43BAF94EA0C0F05
:1009C0000AD150EA01347FF434AF95EA0C0F7FF47A
:1009D00025AF104619462CE795EA0C0F06D152EACE
:1009E00003353FF4FDAE1046194622E750EA4106B2
:1009F00018BF52EA43067FF4C5AE50EA41047FF4C3
:100A00000DAF52EA43057FF4EBAE12E74FEA410225
:100A1000B2F1E04324BFB3F5001CDCF1FE5C0DD95C
:100A200001F0004C4FEAC0024CEA5070B2F1004FA6
:100A300040EB830008BF20F00100704711F0804FA9
:100A400021D113F13872BCBF01F00040704741F46E
:100A500080114FEA5252C2F11802C2F1200C10FA72
:100A60000CF320FA02F018BF40F001004FEAC12356
:100A70004FEAD32303FA0CFC40EA0C0023FA02F3FA
:100A80004FEA4303CCE77FEA625307D150EA0133D0
:100A90001EBF4FF0FE4040F44000704701F00040A0
:100AA00040F0FE4040F40000704700BF53B94AB91F
:100AB000002908BF00281CBF4FF0FF314FF0FF3066
:100AC00000F06AB9ADF1080C6DE904CE00F006F84B
:100AD000DDF804E0DDE9022304B070472DE9F047BA
:100AE000089D0C46002B4ED194468C458646B2FAA2
:100AF00082F262D94AB1C2F12003914020FA03F395
:100B00000CFA02FC194300FA02FE4FEA1C471FFAD6
:100B10008CF6B1FBF7F44FEA1E4307FB141143EACE
:100B2000014304FB06F199420AD91CEB030304F1CB
:100B3000FF3080F01281994240F20F81023C634401
:100B4000591A1FFA8EF3B1FBF7F007FB101143EAB5
:100B5000014300FB06F69E420AD91CEB030300F199
:100B6000FF3180F0FC809E4240F2F98063440238FD
:100B70009B1B40EA044000211DB1D3400022C5E97F
:100B80000032BDE8F0878B4205D90DB1C5E90001FF
:100B900000210846F5E7B3FA83F1002946D1A342C4
:100BA00002D39042C0F0F080861A64EB0303012068
:100BB000002DE6D0C5E90063E3E7002A40F090800D
:100BC000A1EB0C044FEA1C481FFA8CF70121B4FB7F
:100BD000F8F64FEA1E4308FB164443EA044307FBBA
:100BE00006F0984208D91CEB030306F1FF3402D249
:100BF000984200F2CD8026461C1A1FFA8EF3B4FBF1
:100C0000F8F008FB104443EA044300FB07F79F4257
:100C100008D91CEB030300F1FF3402D29F4200F21B
:100C2000B0802046DB1B40EA0640A5E7C1F1200664
:100C30008B4022FA06F71F4320FA06FC04FA01F360
:100C400043EA0C03F44000FA01F8380C4FEA134968
:100C5000B4FBF0FE1FFA87FC00FB1E4449EA044483
:100C60000EFB0CF9A14502FA01F20AD93C190EF16A
:100C7000FF3A80F08480A14540F28180AEF1020EFF
:100C80003C44A4EB09041FFA83F9B4FBF0F300FB26
:100C9000134449EA044403FB0CFCA44507D93C195E
:100CA00003F1FF3067D2A44565D9023B3C4443EAD7
:100CB0000E40A0FB0293A4EB0C049C42CE469C4643
:100CC00051D34ED055B1B8EB0E0364EB0C0404FACB
:100CD00006F6CB401E43CC40C5E90064002150E736
:100CE000C2F1200320FA03F10CFA02FC24FA03F308
:100CF00094400C434FEA1C4800FA02FE1FFA8CF79E
:100D0000B3FBF8F008FB1031230C43EA014300FB6E
:100D100007F1994208D91CEB030300F1FF362CD2EE
:100D200099422AD9023863445B1AA4B2B3FBF8F1A2
:100D300008FB113344EA034401FB07F3A34208D93B
:100D40001CEB040401F1FF3613D2A34211D902397E
:100D50006444E41A41EA004139E70446F0E60846F3
:100D600006E7C845AED2B9EB020E63EB070C0138BB
:100D7000A8E73146EDE7034699E73046D4E7D64683
:100D80007FE7634402384DE70646234608460FE7EF
:100D9000023E634430E700BF704700BF80B400AF3D
:100DA0004F4B1B68002B11D14E4B1B6807EE903A3E
:100DB000F8EE677A4C4BC3ED007A4C4B1B6807EE9C
:100DC000903AF8EE677A4A4BC3ED007A494B1B78AC
:100DD000032B02D1434B00221A60464B1B78022B97
:100DE00073D1454B1B68002B6FD0444B1B680A33F3
:100DF000424A1360424B1B6807EE903AB8EE677A9E
:100E0000DFED406AC7EE267A3F4BC3ED007A3F4BD9
:100E100093ED007A3C4BD3ED007A77EE277A3B4B8B
:100E2000C3ED007A3A4B93ED007A374BD3ED007A5D
:100E300077EE277A364BC3ED007A304B1A68354B84
:100E4000A3FB02135B09642101FB03F3D31A002BFC
:100E50003BD12A4B1B68002B37D02C4BD3ED007AAB
:100E6000DFED2D6A87EEA67A1F4BD3ED007A77EE81
:100E7000277A1D4BC3ED007A254BD3ED007ADFEDC9
:100E8000266A87EEA67A1A4BD3ED007A77EE277A98
:100E9000174BC3ED007A144BD3ED007AFCEEE77AE2
:100EA00017EE902A0F4B1A60114BD3ED007AFCEE2F
:100EB000E77A17EE902A0D4B1A60144B4FF00002A0
:100EC0001A60134B4FF000021A60054B1B68013388
:100ED000034A136000BFBD465DF8047B704700BF46
:100EE00008000010B4000010F4000010B000001062
:100EF000F8000010040000100000001010000010A6
:100F000080070010000061450C000010EC0000108C
:100F1000F00000101F85EB510000C84280B582B080
:100F200002AF634BB4221A80624BB4221A80624B28
:100F3000B4221A80614BB4221A80614BB4221A8009
:100F4000604B63221A70604B63221A705F4B6322FE
:100F50001A705F4B63221A705E4B64221A705E4BEC
:100F600005221A705D4BB4221A705D4B40F24B1291
:100F70001A805C4B42F210721A805B4B00221A609E
:100F80005A4B00221A705A4B00221A70594B0022F9
:100F90001A70594B4FF4AA721A60584B42F21072F1
:100FA0001A60574B63221A70564B63221A70564BC5
:100FB00063221A70554B63221A70554B00221A7027
:100FC000544B00221A70544B00221A80534B4FF698
:100FD000FF721A80524B00221A70524B00221A6084
:100FE000514B00221A60514B00221A60504B0022D4
:100FF0001A70504B00221A704F4B4FF0FF321A609C
:101000004E4B4FF0FF321A604D4B63221A704D4B1E
:1010100063221A704C4B63221A704C4B63221A7075
:101020004B4B63221A704B4B63221A704A4B0922B6
:101030001A704A4B63221A7005F0B8FB03461A4631
:10104000474B1A700A2007F055FA454B1B78002BC6
:101050002AD1092005F006FB05F05EFC03469AB292
:10106000404B1A800A2005F0FDFA05F055FC0346B6
:10107000DAB23D4B1A703B4B1B889C2B14D13A4B78
:101080001B78B42B10D1394B01221A700122022196
:1010900037480DF059F900230093F0234FF4A07264
:1010A0000021002005F03AFB00BFBD4680BD00BF17
:1010B0006007001062070010640700106607001048
:1010C000680700106A0700106B0700106C0700101B
:1010D0006D0700106E0700106F07001070070010FA
:1010E0007207001074070010780700107C070010CA
:1010F0007D0700107E070010800700108407001095
:1011000088070010890700108A0700108B0700105D
:1011100020070010210700102207001024070010EC
:101120002607001054070010580700105C07001035
:101130008C0700108D070010900700109407001016
:10114000990700109A0700109B0700109C070010D9
:101150009D0700109E0700109F0700100E0700104B
:101160000107001018070010FF060010000700100C
:101170000004024080B500AF084B1B78002B0AD159
:10118000074B1B78012B06D0064B1B680133054A21
:101190001360FFF7C3FE00BF80BD00BF0007001053
:1011A000270700102C07001090B585B002AF7860BB
:1011B000894B1A68894B1B689A4200F04081874B23
:1011C0001B68854A1360854B1B68092B2FD87B68E9
:1011D000B3F8F0007B68B3F8F2107B68B3F8F42042
:1011E0007B68B3F8F6300024009405F097FA7B682A
:1011F000B3F8F8007B68B3F8FA10784B1A6800234C
:1012000000934DF2B15305F0FBF97B68B3F8003160
:10121000553B98B27B68B3F802117B68D3F8042180
:10122000002300934DF2B15305F09AF907E16B4B9F
:101230001B68632B2FD87B68B3F8F0007B68B3F88A
:10124000F2107B68B3F8F4207B68B3F8F630002422
:10125000009405F063FA7B68B3F8F8007B68B3F894
:10126000FA105E4B1A68002300934DF2B15305F05B
:10127000C7F97B68B3F80031443B98B27B68B3F898
:1012800002117B68D3F80421002300934DF2B1537F
:1012900005F066F9D3E0514B1B68B3F57A7F2FD286
:1012A0007B68B3F8F0007B68B3F8F2107B68B3F8A2
:1012B000F4207B68B3F8F6300024009405F02EFA91
:1012C0007B68B3F8F8007B68B3F8FA10434B1A68F0
:1012D000002300934DF2B15305F092F97B68B3F807
:1012E0000031333B98B27B68B3F802117B68D3F8C6
:1012F0000421002300934DF2B15305F031F99EE033
:10130000364B1B6842F20F7293422FD87B68B3F8BA
:10131000F0007B68B3F8F2107B68B3F8F4207B68C8
:10132000B3F8F6300024009405F0F8F97B68B3F8C0
:10133000F8007B68B3F8FA10284B1A680023009372
:101340004DF2B15305F05CF97B68B3F80031223BF4
:1013500098B27B68B3F802117B68D3F804210023AC
:1013600000934DF2B15305F0FBF868E01B4B1B688E
:101370001B4A934236D87B68B3F8F0007B68B3F819
:10138000F2107B68B3F8F4207B68B3F8F6300024E1
:10139000009405F0C3F97B68B3F8F8007B68B3F8F4
:1013A000FA100E4B1A68002300934DF2B15305F06A
:1013B00027F97B68B3F80031113B98B27B68B3F82A
:1013C00002117B68D3F80421002300934DF2B1533E
:1013D00005F0C6F833E000BF90070010B000001021
:1013E0009F8601007B68B3F8F0007B68B3F8F210C9
:1013F0007B68B3F8F4207B68B3F8F63000240094DF
:1014000005F08CF97B68B3F8F8007B68B3F8FA1044
:101410006C4B1A68002300934DF2B15305F0F0F8BD
:101420007B68B3F800017B68B3F802117B68D3F8DE
:101430000421002300934DF2B15305F091F8624B63
:101440001A68624B1B689A4200F0B8805F4B1B68B9
:101450005D4A13605D4B1B68092B29D87B68B3F884
:1014600008017B68B3F80A117B68B3F80C217B682C
:10147000B3F80E310024009405F050F97B68B3F8FE
:1014800010017B68B3F81211504B1A6800230093C7
:101490004DF2B15305F0B4F87B68B3F81211002394
:1014A00000934DF2B1534A4ACB2005F059F885E03C
:1014B000464B1B68632B29D87B68B3F808017B680F
:1014C000B3F80A117B68B3F80C217B68B3F80E31CE
:1014D0000024009405F022F97B68B3F810017B68C2
:1014E000B3F81211394B1A68002300934DF2B1532F
:1014F00005F086F87B68B3F81211002300934DF2D3
:10150000B153334ADC2005F02BF857E02F4B1B6812
:10151000B3F57A7F29D27B68B3F808017B68B3F80A
:101520000A117B68B3F80C217B68B3F80E310024F4
:10153000009405F0F3F87B68B3F810017B68B3F80A
:101540001211224B1A68002300934DF2B15305F09B
:1015500057F87B68B3F81211002300934DF2B15392
:101560001B4AED2004F0FCFF28E07B68B3F808017B
:101570007B68B3F80A117B68B3F80C217B68B3F879
:101580000E310024009405F0C9F87B68B3F810010F
:101590007B68B3F812110D4B1A68002300934DF2CB
:1015A000B15305F02DF87B68B3F8121100230093B6
:1015B0004DF2B153064AFE2004F0D2FF00BF0C37B3
:1015C000BD4690BDB000001094070010B40000109C
:1015D0002880030890B585B002AF786000225D498D
:1015E0005D4810F0B3FD00225C495B4810F026FF17
:1015F000584B1A785A4B1A70564B5A78594B1A70E6
:10160000544B9A78584B1A70544B9A78574B1A701F
:10161000524B5A78564B1A70504BDA78554B1A7019
:101620004E4B1A78544B1A70544B1A784C4B1B780B
:101630009A4206D1524B1A784A4B1B789A4200F0D4
:101640008580474B1A784D4B1A70464B1A784C4B95
:101650001A70434B1B78092B27D87B6818887B6846
:1016600059887B689A887B68DB880024009405F0A1
:1016700055F87B681B89113B98B27B685989384BB8
:101680001B781A46002300934DF2B15304F0B8FFC3
:101690007B68188A7B68598A7B685A6900230093A3
:1016A0004DF2B15304F086FF24E07B6818887B6814
:1016B00059887B689A887B68DB880024009405F051
:1016C0002DF87B6818897B685989254B1B781A4649
:1016D000002300934DF2B15304F092FF7B68188A07
:1016E0007B68598A7B685A69002300934DF2B15395
:1016F00004F060FF1B4B1B78092B1AD87B68188BF2
:101700007B68598B002300934DF2B153002204F003
:1017100077FF7B681B8B113398B27B68598B114B19
:101720001B781A46002300934DF2B15304F068FF72
:101730000CE07B68188B7B68598B0A4B1B781A4628
:10174000002300934DF2B15304F05AFF00BF0C3751
:10175000BD4690BD3C070010C0050020500700109A
:1017600010070010110700101207001013070010D7
:101770001407001015070010160700106A07001064
:101780006B07001090B585B002AF78603E4B1B78B8
:10179000002B72D03D4B1B680B2B47D83B4B1B6873
:1017A000012B09D83A4B1A78374B1B789A4203D051
:1017B000384B01221A7006E0374B1B78022B02D0FF
:1017C000344B00221A70314B1B6801332F4A1360CF
:1017D000324B1B78002B53D1304B01221A707B689F
:1017E000B3F840007B68B3F842107B68B3F844203C
:1017F0007B68B3F8463048F21044009404F08EFF42
:10180000214B1B785B01264A1A447B68DA647B68AB
:10181000B3F848007B68B3F84A107B68DA6C0023A1
:1018200000934FF6FF7304F09BFE29E0164B1A78E5
:10183000174B1A70144B1B781A4A52F823200132A6
:10184000184941F82320104B00221A700F4B002238
:101850001A60124B00221A707B68B3F840007B6854
:10186000B3F842107B68B3F844207B68B3F8463085
:101870000024009404F052FF02E0044B00221A609E
:1018800000BF0C37BD4690BD0D0700105407001077
:101890000E070010380700100B0700107E0700101D
:1018A000FC0000101400001090B585B002AF786005
:1018B0006B4B1B78012B3BD16A4B1B6803F0010378
:1018C000002B1FD1674B1B68002B1BD07B68B3F824
:1018D000C8007B68B3F8CA107B68B3F8CC207B687B
:1018E000B3F8CC305B089BB2D31A9AB27B68B3F8DA
:1018F000CE304FF4FC64009404F010FF594B0022EA
:101900001A60A8E0574B1B680133564A13607B6886
:10191000B3F8C8007B68B3F8CA107B68B3F8CC2072
:101920007B68B3F8CE300024009404F0F7FE92E018
:101930004B4B1B78022B3DD14A4B1B6803F0010334
:10194000002B21D1474B1B68002B1DD07B68B3F8BF
:10195000C8207B68B3F8CC305B089BB2134498B2C4
:101960007B68B3F8CA107B68B3F8CC305B089AB2D6
:101970007B68B3F8CE304FF4FC64009404F0CEFEE4
:10198000384B00221A6066E0364B1B680133354A3B
:1019900013607B68B3F8C8007B68B3F8CA107B6833
:1019A000B3F8CC207B68B3F8CE300024009404F068
:1019B000B5FE50E02A4B1B78032B34D1294B1B6812
:1019C00003F00103002B18D1264B1B68002B14D009
:1019D0007B68B3F8C8007B68B3F8CA107B68B3F8BB
:1019E000CC207B68B3F8CE304FF4FC64009404F054
:1019F00095FE1C4B00221A602DE01A4B1B68013328
:101A0000184A13607B68B3F8C8007B68B3F8CA1043
:101A10007B68B3F8CC207B68B3F8CE300024009408
:101A200004F07CFE17E00F4B1B68002B0FD07B6887
:101A3000B3F8C8007B68B3F8CA107B68B3F8CC2051
:101A40007B68B3F8CE300024009404F067FE054BA9
:101A500000221A60FFE700BF0C37BD4690BD00BFF3
:101A6000090700105807001090B585B002AF7860E4
:101A70004F4B1B78012B2AD14E4B1B78002B40F08B
:101A800093804C4B01221A704B4B00221A707B68DA
:101A9000B3F850007B68B3F852107B68B3F8542059
:101AA0007B68B3F856304FF47844009404F036FE67
:101AB0007B68B3F858007B68B3F85A107B68DA6D1E
:101AC000002300934FF6FF7304F074FD6CE0384B75
:101AD0001B78022B4BD1384B00221A70374B1B68F6
:101AE00003F00103002B29D1344B1B68002B25D0B8
:101AF0007B68B3F850007B68B3F852107B68B3F88A
:101B000054207B68B3F856304FF47844009404F0C6
:101B100005FE7B68B3F858007B68B3F85A107B6801
:101B2000DA6D002300934FF6FF7304F043FD234B5F
:101B300000221A60224B01221A7035E01F4B1B68ED
:101B400001331E4A13607B68B3F850007B68B3F81A
:101B500052107B68B3F854207B68B3F856300024E9
:101B6000009404F0DBFD164B00221A701CE0124BAF
:101B70001B78002B12D1104B01221A707B68B3F82E
:101B800050007B68B3F852107B68B3F854207B6830
:101B9000B3F856300024009404F0C0FD074B002237
:101BA0001A60044B00221A7000BF0C37BD4690BD6E
:101BB0000B0700107C0700107D0700105C07001069
:101BC0003807001090B585B002AF7860AA4B1A783C
:101BD000AA4B1B789A4222D0A84B1A78A64B1A70AF
:101BE0007B68B3F878007B68B3F87A100023009321
:101BF0001123332204F092FDA04B1B78012B0ED150
:101C00007B68B3F880007B68B3F882107B68D3F8F8
:101C10008420002300934FF4FC6304F0CBFC984B2A
:101C20001A78984B1B789A4224D0964B1A78944B8A
:101C30001A707B68B3F878303C3398B27B68B3F89D
:101C40007A10002300931123332204F067FD8D4B9B
:101C50001B78012B0ED17B68B3F888007B68B3F842
:101C60008A107B68D3F88C20002300934FF6E07332
:101C700004F0A0FC844B1A78844B1B789A4224D041
:101C8000824B1A78804B1A707B68B3F878307833BF
:101C900098B27B68B3F87A100023009311233322A3
:101CA00004F03CFD794B1B78012B0ED17B68B3F817
:101CB00090007B68B3F892107B68D3F894200023DF
:101CC00000934FF4FC6304F075FC714B1A78714B70
:101CD0001B789A4224D06F4B1A786D4B1A707B6830
:101CE000B3F87830B43398B27B68B3F87A10002335
:101CF00000931123112204F011FD664B1B78022B77
:101D00000ED17B68B3F898007B68B3F89A107B68B3
:101D1000D3F89C20002300934FF6205304F04AFC94
:101D20005D4B1A785D4B1B789A4224D05B4B1A7836
:101D3000594B1A707B68B3F878007B68B3F87A3037
:101D40001E3399B2002300931123442204F0E6FCD1
:101D5000524B1B78012B0ED17B68B3F8B0007B6827
:101D6000B3F8B2107B68D3F8B420002300934FF689
:101D7000205304F01FFC4A4B1A784A4B1B789A42B6
:101D800030D0484B1A78464B1A707B68B3F878000D
:101D90007B68B3F87A303C3399B200230093112367
:101DA000332204F0BBFC7B68B3F8A8007B68B3F86F
:101DB000AA103C4B1B7810331A46002300934FF6B1
:101DC000205304F01DFC7B68B3F8A0007B68B3F8D7
:101DD000A2107B68D3F8A420002300934FF6205371
:101DE00004F0E8FB304B1A78304B1B789A4231D024
:101DF0002E4B1A782C4B1A707B68B3F8783050331E
:101E000098B27B68B3F87A301E3399B200230093FE
:101E10001123332204F082FC7B68B3F8C0007B6896
:101E2000B3F8C210214B1B781A46002300934FF6DB
:101E3000205304F0E5FB7B68B3F8B8007B68B3F887
:101E4000BA107B68D3F8BC20002300934FF62053D0
:101E500004F0B0FB164B1A78164B1B789A4265D0EB
:101E6000144B1A78124B1A70124B1B78632B23D920
:101E7000104B63221A701FE0990700103007001002
:101E80009A070010310700109B070010320700105E
:101E90009C070010330700109E0700103507001044
:101EA0009D070010340700109F0700103607001030
:101EB0006E0700100F0700107B68188C7B68598C28
:101EC0007B689A8C7B68DB8C0024009404F026FCF1
:101ED000824B1B78092B0FD87B681B8D113398B26E
:101EE0007B68598D7D4B1B781A46002300934DF279
:101EF000B15304F085FB0CE07B68188D7B68598D2D
:101F0000764B1B781A46002300934DF2B15304F030
:101F100077FB7B681B8D223398B27B68598D002339
:101F200000934DF2B1536E4A04F044FB6D4B1A78A6
:101F30006D4B1B789A4205D16C4B1A786C4B1B7811
:101F40009A425CD0684B1A78664B1A70684B1A78C4
:101F5000664B1A707B68B3F860007B68B3F8621058
:101F60007B68B3F864207B68B3F866300024009483
:101F700004F0BEF95C4B1B78032B3FD801A252F84A
:101F800023F000BF951F0208AF1F0208C91F0208F7
:101F9000E31F02087B68188F7B68598F7B68B3F852
:101FA0001A3100220092534A04F004FB27E07B68B8
:101FB000188F7B68598F7B68B3F81A310022009222
:101FC0004D4A04F0F7FA1AE07B68188F7B68598F46
:101FD0007B68B3F81A3100220092484A04F0EAFA0A
:101FE0000DE07B68188F7B68598F7B68B3F81A31D6
:101FF00000220092424A04F0DDFA00E000BF414BAB
:102000001B78012B15D1404B1B78002B11D13D4B78
:102010001A783D4B1A707B68B3F868007B68B3F898
:102020006A107B68DA6E002300931F2304F0C2FA63
:1020300017E0344B1B78002B13D1334B1B78012B4B
:102040000FD1304B1A78304B1A707B68B3F86800A8
:102050007B68B3F86A10002300931F232B4A04F017
:10206000A9FA2B4B1B78012B16D12A4B1B78002B7E
:1020700012D1274B1A78274B1A707B68B3F870007F
:102080007B68B3F872107B685A6F002300934FF699
:10209000E07304F08FFA1CE01D4B1B78002B18D165
:1020A0001C4B1B78012B14D1194B1A78194B1A7041
:1020B000174B1A78174B1A707B68B3F870007B685F
:1020C000B3F87210002300934FF6E0730F4A04F048
:1020D00071FA00BF0C37BD4690BD00BF0F0700105E
:1020E000008003086F07001004070010700700103D
:1020F0000A07001034800308388003083C80030876
:1021000040800308050700106C0700104480030896
:10211000060700106D07001090B585B002AF78601B
:102120009D4B1B781A469D4B1B889A4206D19C4BAF
:102130001A789C4B1B789A4200F0A580994B1A782C
:10214000974B1A70944B1B781A46944B1A80924BFB
:102150001B781A46944B1A60934B1B684FF4A57278
:1021600002FB03F3914AA2FB0323DB098E4A1360AF
:102170008D4B1B68092B2BD87B68B3F8D21000233A
:10218000009314236622002004F0C8FA7B68B3F899
:10219000D0007B68B3F8D2107B68D3F8D4207B687A
:1021A000B3F81A310024009404F004FA7B68B3F801
:1021B000D030183B98B27B68B3F8D2107A4B1A68CB
:1021C0007B68B3F81A310024009404F019FA5AE03D
:1021D000754B1B68632B2BD87B68B3F8D210002398
:1021E000009314236622002004F098FA7B68B3F869
:1021F000D0007B68B3F8D2107B68D3F8D4207B681A
:10220000B3F81A310024009404F0D4F97B68B3F8D1
:10221000D030283B98B27B68B3F8D210624B1A6872
:102220007B68B3F81A310024009404F0E9F92AE03D
:102230007B68B3F8D2100023009314236622002099
:1022400004F06CFA7B68B3F8D0007B68B3F8D21066
:102250007B68D3F8D4207B68B3F81A31002400944B
:1022600004F0A8F97B68B3F8D0303C3B98B27B68A7
:10227000B3F8D2104C4B1A687B68B3F81A310024BB
:10228000009404F0BDF94A4B1B781A46494B1B8851
:102290009A4206D1484B1A78424B1B789A4200F07A
:1022A000EB80434B1B781A46424B1A80404B1B78FD
:1022B0001A46424B1A60414B1B6842F20F7202FBF6
:1022C00003F33A4AA2FB0323DB093C4A1360354B74
:1022D0001A78394B1A70394B1B68092B2BD87B683D
:1022E000B3F8DA10002300931423BE22BE2004F0BA
:1022F00015FA7B68B3F8D8007B68B3F8DA107B680E
:10230000D3F8DC207B68B3F81A310024009404F081
:1023100051F97B68B3F8D830183B98B27B68B3F8B2
:10232000DA10264B1A687B68B3F81A31002400943F
:1023300004F066F9A0E0214B1B68632B40D87B6852
:10234000B3F8DA10002300931423BE22BE2004F059
:10235000E5F97B68B3F8D8007B68B3F8DA107B68DE
:10236000D3F8DC207B68B3F81A310024009404F021
:1023700021F97B68B3F8D830283B98B27B68B3F872
:10238000DA100E4B1A687B68B3F81A3100240094F7
:1023900004F036F970E000BF070700107207001064
:1023A000880700100A0700108007001081808080D5
:1023B0000807001074070010890700108407001038
:1023C0002F4B1B68B3F57A7F2BD27B68B3F8DA10FA
:1023D000002300931423BE22BE2004F09FF97B68E3
:1023E000B3F8D8007B68B3F8DA107B68D3F8DC2048
:1023F0007B68B3F81A310024009404F0DBF87B68A2
:10240000B3F8D8303C3B98B27B68B3F8DA101C4B79
:102410001A687B68B3F81A310024009404F0F0F8CD
:102420002AE07B68B3F8DA10002300931423BE225D
:10243000BE2004F073F97B68B3F8D8007B68B3F86A
:10244000DA107B68D3F8DC207B68B3F81A310024FB
:10245000009404F0AFF87B68B3F8D8304D3B98B2E5
:102460007B68B3F8DA10064B1A687B68B3F81A3148
:102470000024009404F0C4F800BF0C37BD4690BDA2
:102480008407001090B585B002AF78605E4B1B7872
:102490001A465E4B1B8802FB03F35D4A82FB031264
:1024A0001A44D211DB17D31A9AB25A4B1A805A4BDC
:1024B0001B781A46554B1B8802FB03F3544A82FBD8
:1024C00003121A44D211DB17D31A9AB2534B1A8053
:1024D000534B1A884F4B1B889A4205D1514B1A789F
:1024E000514B1B789A423FD04F4B1A784D4B1A7084
:1024F000484B1A884A4B1A807B68B3F8E0007B6827
:10250000B3F8E620414B1B88D31A99B27B68B3F825
:10251000E4207B68B3F8E030D31A9CB23B4B1A88B6
:102520003C4B1B88D31A9BB200220092224604F037
:10253000F5F87B68B3F8E0007B68B3F8E620354B2C
:102540001B88D31A99B27B68B3F8E4207B68B3F890
:10255000E030D31A9AB22F4B1C887B68B3F81E3137
:102560000093234604F0DAF8304B1A882B4B1B8873
:102570009A4205D12E4B1A782B4B1B789A423FD0AA
:10258000294B1A782A4B1A70244B1A88274B1A8029
:102590007B68B3F8E8007B68B3F8EE201B4B1B8820
:1025A000D31A99B27B68B3F8EC207B68B3F8E830B3
:1025B000D31A9CB2154B1A88184B1B88D31A9BB29E
:1025C00000220092224604F0A9F87B68B3F8E800E4
:1025D0007B68B3F8EE20114B1B88D31A99B27B6845
:1025E000B3F8EC207B68B3F8E830D31A9AB20B4BFF
:1025F0001C887B68B3F81C310093234604F08EF8E6
:1026000000BF0C37BD4690BD0707001068070010DB
:1026100081808080600700100807001062070010AA
:10262000640700108A0700100A07001066070010F0
:102630008B07001080B500AF1048FFF715FA0F4860
:10264000FFF7A0F80D48FFF767FD0C48FFF71AFFEA
:102650000A48FFF7B7FA0948FFF726F90748FEF7D7
:10266000B9FF0648FEF7A0FD054B1B781A4601216D
:1026700004480BF069FE00BF80BD00BFDC05001000
:10268000380700100008024080B582B002AF0E4B40
:1026900001221A7000230093F0234FF4A07200214E
:1026A000002004F03BF80022022108480BF04CFE09
:1026B0000022012106480BF047FE282003F0D2FF3C
:1026C00000BFBD4680BD00BFFC06001000040240F4
:1026D0000008024080B582B002AF284B1B78002B67
:1026E0000BD1264B01221A7000230093F0234FF4E4
:1026F000A0720021002004F011F8214B1B78052B5B
:1027000026D81F4B1B780133DAB21D4B1A701D4BB4
:102710001B884DF20652934207D81A4B1B8803F5CB
:102720002B5338339AB2174B1A80164B1B88002252
:102730000092154A6421642003F03CFF114B1B8872
:1027400000220092114A7D217D2003F033FF12E028
:102750000023009314238C226421642003F0DEFF05
:1027600000230093142350227D217D2003F0D6FF07
:10277000074B01221A7000BFBD4680BD8D070010B7
:102780002007001022070010488003085480030827
:10279000FD06001080B582B002AF634B00221A70B4
:1027A000624B1B78002B40F09480604B01221A7022
:1027B00000230093F0234FF4A0720021002003F0C7
:1027C000ADFF5B4BB4221A805A4BB4221A805A4B8D
:1027D000B4221A80594BB4221A80594BB4221A8061
:1027E000584BB4221A70584BB4221A70574BB4226B
:1027F0001A70574BB4221A70564B64221A70564BFB
:1028000005221A70554BB4221A70554B40F24B12E8
:102810001A80544B42F210721A80534B00221A60F5
:10282000524B00221A70524B00221A70514B002258
:102830001A70514B40F24B121A60504B42F2107218
:102840001A604F4BB4221A704E4BB4221A704E4B82
:10285000B4221A704D4BB4221A704D4B00221A70DC
:102860004C4B00221A704C4B00221A804B4B4FF6F7
:10287000FF721A804A4B00221A604A4B00221A60EB
:10288000494B00221A60494B00221A70484B4FF006
:10289000FF321A60474B4FF0FF321A60464B6322FB
:1028A0001A70464B63221A70454B63221A70424BD2
:1028B00063221A70434B63221A70434B63221A70CF
:1028C000424B63221A70424B09221A70414B00227C
:1028D0001A70304B1B78052B1DD82E4B1B780133FB
:1028E000DAB22C4B1A702D4B1B8842F6F822934219
:1028F00007D92A4B1B88A3F52B53383B9AB2274B99
:102900001A80264B1B8800220092334A64216420DF
:1029100003F050FE04E0314B02221A70FFF7B4FEC0
:1029200000BFBD4680BD00BFFD0600108C07001033
:1029300060070010620700106407001066070010AF
:10294000680700106A0700106B0700106C07001082
:102950006D0700106E0700106F0700107007001061
:102960007207001074070010780700107C07001031
:102970007D0700107E0700108007001084070010FC
:1029800088070010890700108A0700108B070010C5
:102990002007001021070010220700102407001054
:1029A00054070010580700105C0700108D07001036
:1029B0009007001094070010990700109A07001064
:1029C0009B0700109C0700109D0700109E07001039
:1029D0009F0700100E0700105C800308FE06001021
:1029E00080B582B002AF2D4B1B68002B16D12C4B4B
:1029F0001B682A4A136000230093F0234FF4A0724F
:102A00000021002003F08AFE4FF478430093F02366
:102A10004FF4A0720021002003F080FE204B1A68C2
:102A20001E4B1B68D31AC82B0AD14FF4FC630093CA
:102A3000F0234FF4A0720021002003F06FFE10E09D
:102A4000174B1A68154B1B68D31AB3F5C87F08D10A
:102A50001F230093F0234FF4A0720021002003F005
:102A60005DFE0F4B1A680D4B1B68D31AB3F5167F2A
:102A700010D900230093F0234FF4A072002100200E
:102A800003F04CFE074B00221A70044B00221A6020
:102A900000F00AF800BFBD4680BD00BF78070010F7
:102AA0001C0700102807001080B400AF3F4B002225
:102AB0001A603F4B00221A603E4B00221A603E4BC8
:102AC000B4221A803D4BB4221A803D4BB4221A80A6
:102AD0003C4BB4221A803C4BB4221A803B4B6322FD
:102AE0001A703B4B63221A703A4B63221A703A4BAE
:102AF00063221A70394B64221A70394B05221A70FE
:102B0000384B63221A70384B40F24B121A80374B05
:102B100042F210721A80364B00221A60354B0022A6
:102B20001A70354B00221A70344B00221A70344B45
:102B30004FF4AA721A60334B42F210721A60324B91
:102B400063221A70314B63221A70314B63221A7060
:102B5000304B63221A70304B00221A702F4B002228
:102B60001A702F4B4FF0FF321A602E4B4FF0FF328E
:102B70001A602D4B63221A702C4B63221A702C4B57
:102B800063221A702B4B63221A702B4B63221A702C
:102B90002A4B63221A702A4B63221A70294B002297
:102BA0001A7000BFBD465DF8047B704754070010E3
:102BB000580700105C070010600700106207001043
:102BC0006407001066070010680700106A0700100D
:102BD0006B0700106C0700106D0700106E070010E7
:102BE0006F070010700700107207001074070010C4
:102BF000780700107C0700107D0700107E0700108A
:102C00008007001084070010880700108907001053
:102C10008A0700108B0700108C0700108D0700102A
:102C20009007001094070010990700109A070010F1
:102C30009B0700109C0700109D0700109E070010C6
:102C40009F0700100E07001080B582B002AF904BB6
:102C50001B78002B0BD18F4B1B78022B07D0002247
:102C600001218D480BF070FB8C4B00221A708C4BAD
:102C70001B78012B40F001818A4B1B781D2B40F201
:102C8000F580894B1B78002B00F0C380864B1A78A7
:102C9000864B1A70864B1B78012B01D100F01CF972
:102CA000844B1B78002B40F0A080834B1A78814B1B
:102CB0001B789A420ED07F4B1A787F4B1A70FFF721
:102CC000F3FE00230093F0234FF4A07200210020B4
:102CD00003F024FD794B1B78012B0DD1774B00229B
:102CE0001A70734B00221A70754B01221A706C4BCC
:102CF00000221A70FEF73EFA6D4B1B78002B17D19D
:102D0000704B1A68704BA3FB02131B09322101FBA5
:102D100003F3D31A002B40F0B2806A4B1B68002BE0
:102D200000F0AD80FFF7D6FC654B01221A70A6E0DB
:102D3000664B1B78002B55D1654B1A78654B83F891
:102D40001821644B93F81831002B0FD1614B4FF6CB
:102D5000FE72A3F81A215F4B4BF20412A3F81E2156
:102D60005C4B4EF65572A3F81C2128E0594B93F8A2
:102D70001831012B0FD1574B4FF2BE72A3F81A2115
:102D8000544B4FF62052A3F81E21524B4FF4784279
:102D9000A3F81C2113E04F4B93F81831022B0ED1EE
:102DA0004C4B4FF2DF72A3F81A214A4B48F27D6276
:102DB000A3F81E21474B40F2FF72A3F81C21414BA0
:102DC0001A68414BA3FB02131B09322101FB03F3D9
:102DD000D31A002B53D13B4B1B68002B4FD0FFF76E
:102DE00029FC4CE0FFF7FCFD49E0334B1A78314BEE
:102DF0001B789A4243D02F4B1A782F4B1A7000231E
:102E00000093F0234FF4A0720021002003F086FC11
:102E100035E0254B1B78002B31D1244B1B78002B40
:102E20002DD0244B00221A70254B1B78012B12D178
:102E3000244B1A68244BA3FB02131B09322101FB0C
:102E400003F3D31A002B1AD11E4B1B68002B16D08C
:102E5000FFF7A0FC13E01A4B1B78022B0FD1174B86
:102E60001B78002B0BD1FFF70FFC08E0134B1B78EE
:102E7000002B04D1FFF708FC01E0FEF77BF9114BB2
:102E80001B6801330F4A136000BFBD4680BD00BF01
:102E90000D0700100B070010000802403807001053
:102EA000000700100307001002070010260700109B
:102EB000FD0600103707001098070010FC060010F0
:102EC000FE0600101C0700101F85EB51280700109C
:102ED0000A070010DC05001080B500AF274B1B6807
:102EE000002B05D102F06CFE03461A46244B1A70E3
:102EF000234B1B78002B34D1224B1B68002B30D185
:102F0000214B1B68042B2CD0204B1B78002B07D1A6
:102F100003F042FC03461E4A13601C4B01221A7048
:102F20001C4B1B78012B03D01B4B1B78032B11D19F
:102F30001A4B1B78002B0DD0194B1B78002B0FD18F
:102F4000174B01221A70124B1B681946002002F021
:102F5000E9FE05E0124B00221A7002F011FF06E0B4
:102F600005E002F02DFE03461A46054B1A70034B8E
:102F70001B680133014A136000BF80BDA007001029
:102F8000B0070010A8070010AC0700109C0000203C
:102F9000A0000020A4070010040700100207001082
:102FA0003707001080B584B000AFA34807F005FCD8
:102FB00003461A46A14B1A60A14B1B68002B0ED189
:102FC0009D4806F085FE9F4B9F4A1A609D4B1B68EB
:102FD0001946994807F096F99C4B03221A709648B7
:102FE00007F013FC0346042B00F0FD80974B1B7881
:102FF000022B04D0954B1B78032B40F0F480934BAD
:103000001B78042B00F0EF800023FB7307E0FB7BB1
:103010008F4A002142F82310FB7B0133FB73FB7BBB
:10302000142BF4D98B4B1B6801338A4A13608A4BEB
:103030001B680133884A1360884B1B680133874A39
:103040001360874B1B680133854A1360814B1B68F3
:10305000C82B05D901220121062001F06FFF04E0F1
:1030600000220121062001F069FF7B4B1B68C82B61
:1030700005D901220121052001F060FF04E00022B2
:103080000121052001F05AFF744B1B68C82B05D99C
:1030900001220121072001F051FF04E0002201215B
:1030A000072001F04BFF6E4B1B68C82B05D901228E
:1030B0000121082001F042FF04E000220121082044
:1030C00001F03CFF5E4B1A68664BA3FB02139B09A1
:1030D000C82101FB03F3D31A002B35D1624BD3ED8A
:1030E000007AB2EE047A67EE877AFCEEE77AC7EDF3
:1030F000017A3B79DAB25D4B1A705D4BD3ED007A01
:10310000FCEEE77AC7ED017A3B79DAB2574B5A7099
:10311000584BD3ED007AB2EE047A67EE877AFCEE74
:10312000E77AC7ED017A3B79DAB2504B9A70524B8D
:1031300003221A61504B4FF488721A604F4B4B4A6E
:103140004D493D4806F096FE3D4B19684C4BA3FB9C
:103150000123DA0813469B0013445B00CA1A002AB5
:1031600019D1484B1A78414B1A70474B1A783F4B8C
:103170005A70464B1B88DAB23C4B9A703E4B032286
:103180001A613D4B40F205121A603C4B374A3A49EE
:10319000294806F06FFE2A4B1968394BA3FB01231F
:1031A0001A0913469B0013449B00CA1A002A1AD11D
:1031B000374B1B68DAB22D4B1A70364B1B68DAB2EC
:1031C0002A4B5A70344B1A78284B9A702A4B032298
:1031D0001A61294B4FF483721A60284B234A2649FF
:1031E000154806F047FE2D4B1B68B3F57A7F02D3D6
:1031F000164B01221A70154B1B78012B02D1284B5C
:1032000001221A70264B1B78012B08D10A4806F0C0
:1032100011FE0346002B02D1074806F0E6FD1F4BC6
:103220001B6801331D4A1360054B1B680133044AB8
:1032300013600023BB733CE0A8010020C40700100A
:10324000C0070010A4000020068F030074080010BF
:10325000C8070010D8080010D4080010E0080010BB
:10326000DC0800101F85EB51080B001060080010EF
:10327000040B0010000B0010480800106808001034
:10328000CDCCCCCCFF0600100007001018070010B2
:10329000A8070010AC070010B0070010700800105D
:1032A0006C080010BB7B074A0021D154BB7B013363
:1032B000BB73BB7B072BF5D900BF00BF1037BD46E2
:1032C00080BD00BF6008001080B582B000AF78609C
:1032D0007B685B6AB3F5001F00F03F81B3F5001F08
:1032E00000F24281B3F5801F00F03081B3F5801FFA
:1032F00000F23A81B3F5002F00F02181B3F5002FE1
:1033000000F23281B3F5802F00F01281B3F5802FE7
:1033100000F22A81B3F5803F00F00381B3F5803FCE
:1033200000F22281B3F5004F00F0F780B3F5004FB3
:1033300000F21A81B3F5804F00F0E880B3F5804FBA
:1033400000F21281B3F5005F00F0D980B3F5005FA1
:1033500000F20A81B3F5805F00F0CA80B3F5805FA8
:1033600000F20281B3F5006F00F0BB80B3F5006F8F
:1033700000F2FA80B3F5806F00F0AC80B3F5806F97
:1033800000F2F280B3F5007F00F09D80B3F5007F7E
:1033900000F2EA80B3F5807F00F08E80B3F5807F85
:1033A00000F2E280802B00F08080802B00F2DC8035
:1033B000202B49D8002B00F0D780013B1F2B00F2B7
:1033C000D38001A252F823F04F3402085D34020882
:1033D000693502086B34020869350208693502084C
:1033E000693502087934020869350208693502082E
:1033F000693502086935020869350208693502082D
:103400006935020881340208693502086935020805
:10341000693502086935020869350208693502080C
:1034200069350208693502086935020869350208FC
:1034300069350208693502086935020869350208EC
:10344000693502088F340208402B27D08CE0494BA5
:1034500001221A60786807F0E4F986E0454B022201
:103460005A60786807F0DDF97FE0424B03229A60EA
:10347000786807F0D6F978E0786807F0D2F974E058
:103480003C4B05221A61786807F0CBF96DE0394BA7
:1034900006225A61786807F0C4F966E0354B0722C6
:1034A0009A61786807F0BDF95FE0324B0822DA6173
:1034B000786807F0B6F958E02E4B09221A6278684E
:1034C00007F0AFF951E02B4B0A225A62786807F0F7
:1034D000A8F94AE0274B0B229A62786807F0A1F915
:1034E00043E0244B0C22DA62786807F09AF93CE05A
:1034F000204B0D221A63786807F093F935E01D4BD5
:103500000E225A63786807F08CF92EE0194B0F22CF
:103510009A63786807F085F927E0164B11221A6440
:1035200023E0144B12225A64786807F07AF91CE001
:10353000104B13229A64786807F073F915E00D4B6D
:103540001422DA64786807F06CF90EE0094B152252
:103550001A65786807F065F907E0064B16225A6588
:10356000786807F05EF900E000BF00BF0837BD468D
:1035700080BD00BFC807001080B584B000AF786080
:10358000874B1B680133864A1360864B864A0021AD
:10359000864806F089FD844B1B68B3F5A26F14D1F1
:1035A000804B1A78824B1A707E4B1B78102B0CD1F3
:1035B000804B00221A70804B1B78042B02D07E4B6C
:1035C00002221A707D4B00221A60774B1B68972BE2
:1035D0001AD1744B9A787A4B1A70724BDA79794B0C
:1035E0001A70704B9A79784B1A706E4BDA78774B69
:1035F0001A706C4B1A79764B1A706A4B5A79754B64
:103600001A70754B00221A60674B1B68982B1AD1F1
:10361000644B1A78714B1A70624BDA78704B1A70DF
:10362000604B1A796F4B1A705E4B5A796E4B1A7059
:103630005C4B9A796D4B1A705A4BDA796C4B1A7055
:103640006C4B00221A60584B1B68992B12D1554BBA
:103650001A78694B1A70534B5A78684B1A70514B51
:103660009A78674B1A704F4BDA78664B1A70664B34
:1036700000221A604C4B1B6840F20B12934203D19C
:10368000484B1A78614B1A70474B1B6840F20F1277
:1036900093420AD1434B5A785D4B1A70414B9A784A
:1036A0005C4B1A705C4B00221A603F4B1B6840F267
:1036B000047293422AD13C4B1B69584A13613A4B1E
:1036C0005B68564A5360384B9B69544A9361364B4A
:1036D0009B68524A9360344BDB68504AD360324B4C
:1036E0001B684E4A1360304B5B694C4A53610023A0
:1036F000FB7308E0FA7BFB7B2A49895C484AD1547A
:10370000FB7B0133FB73FB7B072BF3D9264B1B6839
:1037100040F2046293422AD1234B1B69414A136150
:10372000214B5B683F4A53601F4B9B693D4A936145
:103730001D4B9B683B4A93601B4BDB68394AD36047
:10374000194B1B68374A1360174B5B69354A536145
:103750000023BB7308E0BA7BBB7B1249895C324A09
:10376000D154BB7B0133BB73BB7B072BF3D90E4B0F
:1037700000221A610C4B00225A600B4B00229A6106
:10378000094B00229A60084B0022DA60064B0022A7
:103790001A60054B00225A6100237B734DE000BF85
:1037A0001C0800104008001024080010A801002088
:1037B000750800106C0800107408001070080010E4
:1037C0007608001077080010780800107B080010B9
:1037D0007C08001083080010D40800108608001030
:1037E00085080010810800107D0800108008001076
:1037F00089080010D8080010870800107E08001003
:10380000880800107F080010DC08001082080010F3
:103810007908001084080010E00800109C080010CF
:1038200094080010B80800108C0800107B7B424AF6
:103830000021D1547B7B01337B737B7B072BF5D934
:103840003E4B1B781A463E4B1A603E4B1A783E4B55
:103850001A703E4B1A783E4B1A703E4B1A783E4B0C
:103860001A703E4B1A783E4B1A703E4B1A783E4BFC
:103870001A703E4B1A783E4B1A70304B1A783D4BFB
:103880001A703D4B1A783D4B1A703D4B1A783D4BE0
:103890001A703D4B1A783D4B1A703D4B1A783D4BD0
:1038A0001A703D4B1B78002B03D03B4B1A783B4BD7
:1038B0001A703B4B1A783B4B1A703B4B1A783B4BB8
:1038C0001A703B4B1A783B4B1A703B4B1A783B4BA8
:1038D0001A703B4B1A783B4B1A703B4B1A783B4B98
:1038E0001A703B4B1B78032B14D0032B19DC012BD4
:1038F00002D0022B07D014E0364B01221A70364B4F
:1039000000221A7014E0334B00221A70324B01224D
:103910001A700DE02F4B01221A702F4B01221A70E2
:1039200006E02C4B00221A702B4B00221A7000BFAD
:1039300000BF1037BD4680BD40080010770800105A
:103940000000001084080010040000107608001029
:103950000207001079080010030700107B08001010
:103960000407001081080010050700107C080010F3
:10397000060700100707001078080010080700105D
:1039800080080010090700107E0800100A070010C8
:10399000830800100B070010820800100D070010AC
:1039A0007D0800100F070010870800103607001070
:1039B0008808001034070010860800103307001034
:1039C00089080010350700107F080010320700102A
:1039D00085080010300700103107001080B485B052
:1039E00000AF7860844B1B680133834A1360834BBC
:1039F0001B68B3F5A26F14D1814B1A78814B1A70F2
:103A00007F4B1B78102B0CD17F4B00221A707F4B01
:103A10001B78042B02D07D4B02221A707C4B0022B3
:103A20001A60764B1B68972B1AD1754B9A78794B95
:103A30001A70734BDA79784B1A70714B9A79774B0D
:103A40001A706F4BDA78764B1A706D4B1A79754B8A
:103A50001A706B4B5A79744B1A70744B00221A60AF
:103A6000664B1B68982B1AD1654B1A78704B1A70ED
:103A7000634BDA786F4B1A70614B1A796E4B1A7080
:103A80005F4B5A796D4B1A705D4B9A796C4B1A707B
:103A90005B4BDA796B4B1A706B4B00221A60574BF9
:103AA0001B68992B12D1564B1A78684B1A70544BDD
:103AB0005A78674B1A70524B9A78664B1A70504B73
:103AC000DA78654B1A70654B00221A604B4B1B6805
:103AD00040F20B12934203D1494B1A78604B1A7093
:103AE000464B1B6840F20F1293420AD1444B5A785E
:103AF0005C4B1A70424B9A785B4B1A705B4B0022FE
:103B00001A603E4B1B6840F2047293422AD13B4B31
:103B10001B69574A1361394B5B68554A5360374BF1
:103B20009B69534A9361354B9B68514A9360334B71
:103B3000DB684F4AD360314B1B684D4A13602F4BF3
:103B40005B694B4A53610023FB7308E0FA7BFB7B04
:103B50002B49895C474AD154FB7B0133FB73FB7BC8
:103B6000072BF3D9254B1B6840F2046293422AD1FC
:103B7000224B1B69404A1361204B5B683E4A5360ED
:103B80001E4B9B693C4A93611C4B9B683A4A93606D
:103B90001A4BDB68384AD360184B1B68364A1360EF
:103BA000164B5B69344A53610023BB7308E0BA7B50
:103BB000BB7B1349895C314AD154BB7B0133BB7356
:103BC000BB7B072BF3D90D4B00221A610B4B002254
:103BD0005A600A4B00229A61084B00229A60074BF8
:103BE0000022DA60054B00221A60044B00225A6161
:103BF00000237B734BE000BF200800102408001056
:103C000040080010750800106C08001074080010BF
:103C1000700800107608001077080010780800106F
:103C20007B0800107C08001083080010D4080010E6
:103C30008608001085080010810800107D0800101B
:103C40008008001089080010D808001087080010AC
:103C50007E080010880800107F080010DC080010A3
:103C6000820800107908001084080010E008001095
:103C70009C08001094080010B80800108C08001070
:103C80007B7B434A0021D1547B7B01337B737B7B5D
:103C9000072BF5D93F4B1B781A463F4B1A603F4B19
:103CA0001A783F4B1A703F4B1A783F4B1A703F4BB4
:103CB0001A783F4B1A703F4B1A783F4B1A703F4BA4
:103CC0001A783F4B1A703F4B1A783F4B1A70314BA2
:103CD0001A783E4B1A703E4B1A783E4B1A703E4B88
:103CE0001A783E4B1A703E4B1A783E4B1A703E4B78
:103CF0001A783E4B1A703E4B1B78002B03D03C4B7E
:103D00001A783C4B1A703C4B1A783C4B1A703C4B5F
:103D10001A783C4B1A703C4B1A783C4B1A703C4B4F
:103D20001A783C4B1A703C4B1A783C4B1A703C4B3F
:103D30001A783C4B1A703C4B1B78032B14D0032B86
:103D400019DC012B02D0022B07D014E0374B0122E3
:103D50001A70374B00221A7014E0344B00221A708C
:103D6000334B01221A700DE0304B01221A70304B98
:103D700001221A7006E02D4B00221A702C4B0022F3
:103D80001A7000BF00BF1437BD465DF8047B704752
:103D90004008001077080010000000108408001090
:103DA00004000010760800100207001079080010C7
:103DB000030700107B0800100407001081080010A2
:103DC000050700107C080010060700100707001008
:103DD000780800100807001080080010090700107C
:103DE0007E0800100A070010830800100B0700105F
:103DF000820800100D0700107D0800100F0700104A
:103E000087080010360700108808001034070010DB
:103E100086080010330700108908001035070010CD
:103E20007F080010320700108508001030070010CE
:103E30003107001080B582B000AF19480BF07CF854
:103E400003461A46174B1A6015480BF083F80346D1
:103E5000154A1360144B1B68042B0AD103F07AFD3A
:103E6000114B00221A60114B1B6801330F4A13607B
:103E70000DE00023FB7107E0FB790D4A002142F8B9
:103E80002310FB790133FB71FB79072BF4D9094B24
:103E90001B680133074A136000BF0837BD4680BD69
:103EA0003C050020E8080010AC070010B407001023
:103EB000EC080010E408001080B483B000AF786014
:103EC0007B681B6CB3F5007F00F08780B3F5007F43
:103ED00000F28980802B7AD0802B00F28480202B06
:103EE00048D8002B7FD0013B1F2B7CD801A252F871
:103EF00023F000BF7B3F0208873F0208E73F02082C
:103F0000933F0208E73F0208E73F0208E73F020845
:103F10009F3F0208E73F0208E73F0208E73F020829
:103F2000E73F0208E73F0208E73F0208E73F0208D1
:103F3000AB3F0208E73F0208E73F0208E73F0208FD
:103F4000E73F0208E73F0208E73F0208E73F0208B1
:103F5000E73F0208E73F0208E73F0208E73F0208A1
:103F6000E73F0208E73F0208E73F0208E73F020891
:103F7000B73F0208402B24D035E01E4B1B680133AD
:103F80001C4A136030E01B4B5B680133194A5360D5
:103F90002AE0184B9B680133164A936024E0154BC6
:103FA000DB680133134AD3601EE0124B1B690133F7
:103FB000104A136118E00F4B5B6901330D4A5361DE
:103FC00012E00C4B9B6901330A4A93610CE0094BE8
:103FD000DB690133074AD36106E0064B1B6A0133F4
:103FE000044A136200E000BF00BF0C37BD465DF815
:103FF000047B7047EC08001080B582B000AF834BA3
:104000001B680133814A1360814B1B68002B02D16E
:10401000804B00221A70804B5B783E2B01D100F060
:1040200081FB7D4B5B78282B01D100F0CDFD7A4BD5
:104030005B78852B01D100F005FE774B5B78102B68
:1040400015D1754B9B78012B01D100F00FFA724B03
:104050009B78032B01D100F04DFA6F4B9B78022B1C
:1040600005D16C4B1B78012B01D100F087FA6A4B0C
:10407000DB78862B09D1684B9B78F12B05D1664BF9
:104080005B78222B01D100F00DFD634B5B78112B87
:1040900005D1614B9B78012B01D100F0BFFA5E4B3B
:1040A0005B78112B05D15C4B9B78032B01D100F081
:1040B000F7FA594B5B78142B01D100F085FB564B76
:1040C0005B78192B01D100F06DFC524B1B78012B52
:1040D00040F0F880504B5B78312B17D14E4B9B78DA
:1040E000012B13D14C4BDB783E2B05D14A4B1B796E
:1040F0003E2B01D100F0E4FD474BDB783F2B05D18F
:10410000454B1B793F2B01D100F010FE0023FB71C2
:104110003DE0FA79414913465B0013449B000B4490
:104120001B78012B30D13A4B1968FA793B4813467A
:104130005B0013449B00034404331B68C91AFA79DB
:10414000364813465B0013449B00034401331B783D
:104150001A46FA2393FBF2F3994215D9FA792F49BB
:1041600013465B0013449B000B4408331B689847BD
:10417000FA79274B1968294813465B0013449B00C2
:1041800003440433196005E0FB790133FB71FB79CB
:10419000012BBED9204B5B782A2B7BD11E4B9B7801
:1041A000042B3DD11C4BDB78A3F10C021B491346B9
:1041B0005B0013449B000B4400221A70164BDB7803
:1041C000A3F10C02154913465B0013449B000B44FA
:1041D000043300221A60104BDB78A3F10C020F4964
:1041E00013465B0013449B000B44013304221A70F6
:1041F000094BDB78A3F10C02084913465B0013441A
:104200009B000B4408331B68984743E004FC0010F4
:104210001009001000FC0010940800100400002099
:10422000474B9B78042B35D0454BDB78A3F10C0230
:10423000444913465B0013449B000B4401221A704F
:104240003F4BDB78A3F10C023D4B98783D49134678
:104250005B0013449B000B44013302461A70384B39
:10426000DB78A3F10C02384B1968364813465B0023
:1042700013449B00034404331960314BDB78A3F1F2
:104280000C02304913465B0013449B000B44083377
:104290001B6898472A4B5B78222B13D1284B9B78BD
:1042A000002B05D1264BDB78052B01D100F03EFC1D
:1042B000234B9B78F12B05D1214BDB78802B01D14F
:1042C00000F0B0FB214B00221A61204B00225A6003
:1042D0001E4B00229A601D4B0022DA601B4B00220D
:1042E0001A601B4B00221A61194B00225A60184BAE
:1042F00000229A61164B00229A60154B0022DA6068
:10430000134B00221A60124B00225A610023BB712A
:104310000AE0BB790F4A0021D154BB79084A002139
:10432000D154BB790133BB71BB79072BF1D9064B53
:104330001B680133044A136000BF0837BD4680BDC7
:104340009408001004000020100900101409001047
:104350009C0800102C09001080B500AF184B0822F3
:104360001A61174B40F205721A60164B07221A7039
:10437000154B5B784033DAB2124B5A70124B9A7875
:10438000104B9A70104BDA780E4BDA700F4B1B689B
:10439000DAB20C4B1A710E4B1B68DAB2094B5A7128
:1043A0000C4B1A78074B9A710B4B1A78054BDA7144
:1043B0000A4B044A02490A4805F05CFD00BF80BD73
:1043C000140900102C09001094080010A807001010
:1043D000AC070010B0070010A4070010340900104B
:1043E000A801002080B500AF174B08221A61164BB8
:1043F00040F205721A60154B07221A70144B5B7855
:104400004033DAB2114B5A70114B9A780F4B9A70B5
:104410000F4BDA780D4BDA700E4B1A780B4B1A7182
:104420000D4B1A78094B5A710C4B1A78074B9A713D
:104430000B4B1A78054BDA710A4B044A02490A48B9
:1044400005F018FD00BF80BD140900102C090010F4
:10445000940800102707001028070010000700101C
:10446000FC06001034090010A801002080B500AF40
:10447000194B1B69194A1361184B40F205721A60F7
:10448000154B1B69DBB2013BDAB2154B1A70154BA9
:104490005B784033DAB2124B5A70124B9A78104B59
:1044A0009A700F4B0022DA700D4B00221A710C4BE0
:1044B00000225A710A4B00229A71094B0022DA71CC
:1044C000094B00221A70094B054A0449084805F0B7
:1044D000D1FC00BF80BD00BF9C0800101409001073
:1044E0002C0900109408001000FC00103409001082
:1044F000A801002080B500AF194B1B69194A136150
:10450000174B1B680133174A1360154B1B69DBB24D
:10451000013BDAB2144B1A70144B5B784033DAB2B9
:10452000114B5A70114B9A780F4B9A700E4B002218
:10453000DA700D4B00221A710B4B00225A710A4B94
:1045400000229A71084B0022DA71094B01221A707D
:10455000084B054A0349084805F08CFC00BF80BDA4
:104560009C080010140900102C0900109408001079
:1045700000FC001034090010A801002080B500AF35
:1045800072B600BF1E4B1B691E4A13611C4B1B6891
:1045900001331C4A13601A4B1B69DBB2013BDAB2D0
:1045A000194B1A70194B5B784033DAB2164B5A70BC
:1045B000164B9A78144B9A70134B0022DA70124BF8
:1045C00000221A71104B00225A710F4B00229A716F
:1045D0000D4B0022DA710E4B02221A7001F0CCF85A
:1045E00062B600BF0B4B084A06490B4805F042FC77
:1045F000012003F07FFF002001F038FC00BF80BDE8
:104600009C080010140900102C09001094080010D8
:1046100000FC001034090010A801002080B500AF94
:1046200072B600BF194B03221A61184B40F2057293
:104630001A60174B02221A70154B51225A70144BF4
:1046400001229A70124B0022DA70114B00221A716B
:104650000F4B00225A710E4B00229A710C4B002214
:10466000DA710C4B05221A7001F086F862B600BFB1
:10467000094B074A0549094805F0FCFB012003F0F6
:1046800039FF002001F0F2FB00BF80BD14090010CB
:104690002C09001000FC001034090010A8010020B3
:1046A00080B500AF72B600BF194B03221A61184BD8
:1046B00040F205721A60174B02221A70154B5122F4
:1046C0005A70144B03229A70124B0022DA70114B6D
:1046D00000221A710F4B00225A710E4B00229A7160
:1046E0000C4B0022DA710C4B06221A7001F044F8D0
:1046F00062B600BF094B074A0549094805F0BAFBF5
:10470000012003F0F7FE002001F0B0FB00BF80BDE8
:10471000140900102C09001000FC001034090010CE
:10472000A801002080B500AF1E4B1B691E4A136113
:104730001C4B1B6801331C4A13601A4B1B69DBB20C
:10474000013BDAB2194B1A70194B5B784033DAB27D
:10475000164B5A70164B9A78144B9A70134B0022D2
:10476000DA70124B00221A71104B00225A710F4B53
:1047700000229A710D4B0022DA710E4B00221A7042
:104780000D4B1B78042B02D00B4B02221A700B4BE3
:1047900000221A700A4B054A03490A4805F06AFBD1
:1047A00000BF80BD9C080010140900102C090010E7
:1047B000940800106C0800107408001070080010B5
:1047C00034090010A801002080B500AF184B1B6908
:1047D000184A1361164B1B680133164A1360144BB9
:1047E0001B69DBB2013BDAB2134B1A70134B5B78D7
:1047F0004033DAB2104B5A700F4B00229A700E4BB6
:104800000022DA700C4B00221A710B4B00225A71F5
:10481000094B00229A71084B0022DA7100F0C6FAA7
:10482000074B054A0349074805F024FB00BF80BD3C
:104830009C080010140900102C09001094080010A6
:1048400034090010A801002080B58EB000AF786058
:104850000B467B8007F1180300221A605A609A60A9
:10486000DA601A615A6100237B617B88FB86002332
:10487000BB86012387F8333040F20473BB61002309
:104880007B6200233B620823BB62002387F82C3045
:104890007B88072B25D97B881B0A9BB25BB203F070
:1048A0000F035BB243F010035BB2DBB23B737B8858
:1048B000DBB27B7307F10C030233062279681846DA
:1048C00012F0E8FF0623BB86FB8E063BFB8607F152
:1048D000140307F10C0207F11801314805F0CAFA78
:1048E00056E07B88DBB203F00F03DBB23B737A88C0
:1048F00007F10C0301337968184612F0CBFF07F17A
:10490000140307F10C0207F11801254805F0B2FA6B
:104910003EE097F9333003F00F035BB243F020031E
:104920005BB2DBB23B73FB8E062B10D9BB8E7A6871
:10493000D11807F10C0301330722184612F0AAFF21
:10494000BB8E0733BB86FB8E073BFB860FE0BB8E1F
:104950007A68D118FA8E07F10C030133184612F069
:1049600099FFBA8EFB8E1344BB860023FB8607F1AA
:10497000140307F10C0207F11801094805F07AFA4F
:10498000012003F0B7FD97F83330013387F8333057
:10499000FB8E002BBDD100BF00BF3837BD4680BDA8
:1049A000A801002080B582B000AF194B7B604FF4A6
:1049B000B4737B80174B03221A61164B40F20572C9
:1049C0001A60154B02221A70134B59225A70124B5F
:1049D0000A229A70104B0022DA700F4B00221A71D3
:1049E0000D4B00225A710C4B00229A710A4B002287
:1049F000DA710A4B084A0749094805F03BFA7B88F7
:104A000019467868FFF720FF00BF0837BD4680BD14
:104A10003C090010140900102C0900103409001082
:104A2000A801002080B500AF174B06221A61174B72
:104A30001B680133144A1360154B05221A70154B7D
:104A40005B784033DAB2124B5A70124B9A78104BA3
:104A50009A70104BDA780E4BDA700F4B5A780C4B79
:104A60001A710D4B1A780A4B5A71094B00229A7130
:104A7000074B0022DA71094B054A0349084805F043
:104A8000F9F900BF80BD00BF140900109C08001098
:104A90002C090010940800100000002034090010B8
:104AA000A801002080B500AF194B1B69194A13619A
:104AB000174B1B680133174A1360154B1B69DBB298
:104AC000013BDAB2144B1A70144B5B784033DAB204
:104AD000114B5A70114B9A780F4B9A700F4BDA7832
:104AE0000D4BDA700D4B1A790B4B1A710C4B1A786F
:104AF000094B5A71084B00229A71074B0022DA7158
:104B0000084B054A0349084805F0B4F900BF80BDC9
:104B10009C080010140900102C09001094080010C3
:104B200000FC001034090010A801002080B500AF7F
:104B30001D4B1B691D4A13611B4B1B6801331B4A2C
:104B40001360194B1B69DBB2013BDAB2184B1A70C8
:104B5000184B5B784033DAB2154B5A70154B9A7884
:104B6000134B9A70134BDA78114BDA70114B1A7998
:104B70000F4B1A71104B1A6813469B0013440F4ACF
:104B8000A2FB03239B0BDAB2094B5A71084B00229C
:104B90009A71074B0022DA71094B054A034909480B
:104BA00005F068F900BF80BD9C08001014090010D2
:104BB0002C0900109408001004FC001073B2E745A3
:104BC00034090010A801002080B500AF164B1B6906
:104BD000164A1361144B1B680133144A1360144BBB
:104BE00002221A70134B5B784033DAB2104B5A70C2
:104BF000104B9A780E4B9A700E4B9B78002B03D17A
:104C00000D4B02221A7006E00A4B9B78012B02D151
:104C1000094B04221A70094B054A0449084805F05B
:104C200029F900BF80BD00BF9C08001014090010C6
:104C30002C090010940800107408001034090010AA
:104C4000A801002080B500AF164B1B69164A1361FE
:104C5000144B1B680133144A1360144B1A78144B1D
:104C60001A70124B5B784033DAB2114B5A700F4B0B
:104C70009A780F4B9A700D4B9B78012B03D10D4BFB
:104C800000221A7006E0094B9B78022B02D1094BD7
:104C900001221A70084B064A0349084805F0EAF851
:104CA00000BF80BD9C08001014090010940800107B
:104CB0002C090010A40A001034090010A8010020DB
:104CC00080B500AF144B05221A61134B40F20572F8
:104CD0001A60124B04221A70104B71225A700F4B3B
:104CE00001229A700D4B3E22DA700C4B3E221A7153
:104CF0000A4B00225A71094B00229A71074B00227D
:104D0000DA71074B01221A70064B044A0249064821
:104D100005F0B0F800BF80BD140900102C09001088
:104D20002807001034090010A801002080B500AF4A
:104D3000174B05221A61164B40F205721A60154B8B
:104D400004221A70134B71225A70124B01229A706E
:104D5000104B3F22DA700F4B3F221A710D4B00228D
:104D60005A710C4B00229A710A4B0022DA710A4BDD
:104D70005A790A4B1A70084B5A79094B1A70094B29
:104D8000044A0349084805F075F800BF80BD00BF1C
:104D9000140900102C09001094080010A40700103A
:104DA0000C07001034090010A801002080B483B063
:104DB00000AF0023FB71A5E0FB79584A002142F8BF
:104DC0002310FB79062B0ED8FB79554A002142F8B7
:104DD0002310FB79534A002142F82310FB79524AF1
:104DE000002142F82310FB79032B04D8FB794F4AAA
:104DF000002142F82310FB79022B04D8FB794C4A9E
:104E0000002142F82310FB79082B04D8FB79494A8A
:104E1000002142F82310FB79042B70D8FA79464917
:104E200013469B001344DB000B4400221A60FA79FE
:104E3000414913469B001344DB000B44043300221A
:104E40001A600023BB7157E0FA79F9793A481346A2
:104E50009B001344DB0003440B44173300221A70F9
:104E6000FA79F979344813469B001344DB00034474
:104E70000B44143300221A70FA79F9792E4813463C
:104E80009B001344DB0003440B440E3300221A70D2
:104E9000FA79F979284813469B0013445B000B44C8
:104EA00006339B00034400225A60FA79F9792248BC
:104EB00013469B001344DB0003440B440B330022D6
:104EC0001A70FA79F9791C4813469B001344DB00E9
:104ED00003440B44113300221A70FA79F979164809
:104EE00013469B001344DB0003440B4408330022A9
:104EF0001A70BB790133BB71BB79022BA4D9FB7942
:104F00000133FB71FB79142B7FF656AF00BF00BF56
:104F10000C37BD465DF8047B704700BFC807001022
:104F2000E00A0010300C0010600C00101C0C001087
:104F3000D40A0010EC0800103C09001090B585B0B0
:104F400000AF03463960FB711346BB710023FB734E
:104F5000634B1B78002B40F0BE80BB79012B40F0E7
:104F6000B080FA795F4913469B001344DB000B4481
:104F70001B68032B00F2A5805B4B01221A615A4B80
:104F800040F20D121A60594AFB791370584B574A78
:104F90005549584804F06EFF0023FB730FE0FA797F
:104FA000F97B504813469B001344DB0003440B4439
:104FB00017331B78002B06D1FB7B0133FB73FB7B84
:104FC000022BECD900E000BFFA79464913469B005A
:104FD0001344DB000B441B68591C424813469B00DA
:104FE0001344DB0003441960FA793E4913469B00E1
:104FF0001344DB000B44043301221A60FA79F97B75
:105000003D4B1C78374813469B001344DB00034498
:105010000B44173322461A70FA79F97B374B1C7808
:10502000304813469B001344DB0003440B44143305
:1050300022461A70FA79F97B314B1C7829481346BD
:105040009B001344DB0003440B440E3322461A70CA
:10505000FA79F97B234813469B0013445B000B4409
:1050600006339B0003443A685A60FA79F97B254B72
:105070001C781C4813469B001344DB0003440B447C
:105080000B3322461A70204B1B68FA79F97BDCB28D
:10509000144813469B001344DB0003440B441133B4
:1050A00022461A70FA79F97B184B1C780D48134682
:1050B0009B001344DB0003440B44083322461A7060
:1050C00009E0FA79074913469B001344DB000B44BF
:1050D000043300221A6000BF1437BD4690BD00BFE4
:1050E000A40A00103C090010A80A0010C00A001011
:1050F000C80A0010A80100207B08001076080010E4
:10510000780800107708001004FC001079080010DF
:1051100080B582B000AF724B1B68002B12D1002308
:10512000FB710CE0FA796F4913469B001344DB00D6
:105130000B44043300221A60FB790133FB71FB79C5
:10514000042BEFD90023BB71BDE0BB79664A52F84E
:105150002330002B09D0BB79634A52F82330012257
:1051600019460120FFF7EAFE08E0BB795E4A52F8D3
:105170002330002219460120FFF7E0FEBB79062B01
:105180004AD8BB79594A52F82330002B09D0BB7951
:10519000564A52F82330012219460020FFF7CEFE6E
:1051A00008E0BB79514A52F823300022194600200A
:1051B000FFF7C4FEBB794E4A52F82330002B09D0CA
:1051C000BB794B4A52F82330012219460320FFF7DE
:1051D000B5FE08E0BB79464A52F823300022194652
:1051E0000320FFF7ABFEBB79424A52F82330002B75
:1051F00009D0BB793F4A52F82330012219460420D6
:10520000FFF79CFE08E0BB793A4A52F823300022AF
:1052100019460420FFF792FEBB79032B18D8BB79FF
:10522000354A52F82330002B09D0BB79324A52F864
:105230002330012219460320FFF780FE08E0BB79E6
:105240002D4A52F82330002219460320FFF776FE3C
:10525000BB79022B18D8BB79284A52F82330002B8F
:1052600009D0BB79254A52F8233001221946002083
:10527000FFF764FE08E0BB79204A52F82330002291
:1052800019460020FFF75AFEBB79082B18D8BB79C6
:105290001B4A52F82330002B09D0BB79184A52F828
:1052A0002330012219460220FFF748FE08E0BB79AF
:1052B000134A52F82330002219460220FFF73EFE1F
:1052C000BB790133BB71BB79142B7FF63EAF044B26
:1052D0001B680133024A136000BF0837BD4680BD1A
:1052E000380900103C090010C8070010E00A00103F
:1052F000300C0010600C00101C0C0010D40A0010C0
:10530000EC0800100000000080B582B000AFB24889
:1053100003F03EFF0346B14A1360B14B1B68002BFC
:1053200004D10322AF49AC4803F080FCAD4B1B68AD
:10533000002B23D0AB4B1B681846FBF7DBF89CA374
:10534000D3E90023FBF750F902460B4610461946F5
:1053500002460B46FAF792FF02460B4610461946E4
:1053600095A3D3E90023FBF769FA02460B461046E2
:105370001946FBF74BFB03469B4A1360994B9B680E
:10538000002B14D0974B9B681846FBF7B3F80246E6
:105390000B468BA1D1E90001FBF750FA02460B4600
:1053A00010461946FBF732FB0346904A13608D4BBB
:1053B0005B68002B3ED08D4BD3ED007AF5EEC07AC2
:1053C000F1EE10FA36DD874B5B6807EE903AB8EEE7
:1053D000677A864BD3ED007A27EE277ADFED846A71
:1053E000C7EE267A834BC3ED007A824B1B681846C2
:1053F000FBF7A2F874A3D3E90023FAF73DFF0246B6
:105400000B461046194672A3D3E90023FBF716FAA0
:1054100002460B46104619464FF00002764BFAF74B
:105420002DFF02460B4610461946FBF7EFFA0346DE
:10543000724A1360724B5B6DB3F5807F00F084801D
:10544000B3F5807F00F28980802B74D0802B00F22E
:105450008480202B48D8002B7FD0013B1F2B7CD889
:1054600001A252F823F000BF7F550208EF54020852
:105470005B550208015502085B5502085B5502089E
:105480005B5502085B5502085B5502085B55020834
:105490005B5502085B5502085B5502085B55020824
:1054A0005B5502085B5502085B5502085B55020814
:1054B0005B5502085B5502085B5502085B55020804
:1054C0005B5502085B5502085B5502085B550208F4
:1054D0005B5502085B5502085B5502085B550208E4
:1054E0005B55020813550208402B1BD035E0454B95
:1054F0005B680133434A5360434B01221A703FE01B
:10550000404B9B6801333F4A93603F4B01221A7026
:1055100036E03C4BDB6801333A4AD3603A4B012218
:105520001A702DE0374B1B690133364A1361364B35
:1055300001221A7024E0334B5B690133314A536115
:10554000314B01221A701BE02E4B9B6901332D4A0F
:1055500093612D4B01221A7012E00023FB7107E0CA
:10556000FB79284A002142F82310FB790133FB71B3
:10557000FB79052BF4D9244B00221A7000E000BF00
:10558000214B1B78012B0ED10023BB7107E0BB79A7
:10559000144A002142F82310BB790133BB71BB7957
:1055A000022BF4D93DE000237B7137E0AFF300809C
:1055B0005C8FC2F5285CF33F0000000000FEAF40A6
:1055C00033333333F35AB34052B81E85EB51E83FBF
:1055D0007B14AE47E17A643FE4000020D00A00105B
:1055E000CC0A0010A8000020080B0010000B0010CF
:1055F00000F07F450C0B001000003940040B001038
:1056000048010020E00A0010FC0A00107B79094ADA
:10561000002142F823107B7901337B717B79022BC7
:10562000F4D9054B1B680133034A136000BF0837E8
:10563000BD4680BDD40A0010CC0A001080B483B0EF
:1056400000AF78607B685B6C042B12D0042B16D8FB
:10565000012B02D0022B06D011E00C4B1B6801334A
:105660000A4A13600CE0094B5B680133074A536038
:1056700006E0064B9B680133044A936000E000BFDC
:1056800000BF0C37BD465DF8047B7047D40A00109C
:1056900080B582B000AF0A222F49304800F036F9B9
:1056A0002D4B5B68FE2B04D9282200212A4812F0DA
:1056B00059F836222A492B4800F028F9284BD3F80C
:1056C000D4304FF6FE72934214D90023FB7107E0E9
:1056D000FB79234A002142F82310FB790133FB7147
:1056E000FB79352BF4D9022336221D491D4800F0E1
:1056F000B7F82DE01A4B1B68DAB21B4B1A70184B27
:105700005B68DAB2194B1A700223BB710BE0BA79ED
:10571000BB79023B124951F82220154941F8232058
:10572000BB790133BB71BB79282BF0D929237B715D
:105730000BE07A797B79293B094951F822200D4900
:1057400041F823207B7901337B717B79352BF0D9AC
:1057500000BF0837BD4680BD3C09001000C00008EE
:10576000180B001000800008B0000010B4000010FA
:1057700014000010B800001080B582B000AF1F4BBD
:105780001B781A461E4B1A601E4B1B781A461C4B80
:105790005A600223FB710BE0FB799A1EFB791A49D0
:1057A00051F82220164941F82320FB790133FB717F
:1057B000FB79282BF0D92923BB710CE0BB79A3F12D
:1057C0002902BB79114951F822200D4941F82320C3
:1057D000BB790133BB71BB79352BEFD9022336225C
:1057E00007490B4800F03CF803230A2209490A48FC
:1057F00000F036F800BF0837BD4680BDB00000108D
:10580000180B0010B400001014000010B8000010B5
:10581000008000083C09001000C0000880B500AFFF
:105820000C4B1B78012B05D1FFF732FF094B0222ED
:105830001A7008E0084B1B78012B04D1FFF79CFF7E
:10584000054B02221A70054B1B680133034A136093
:1058500000BF80BD150B0010140B0010100B0010C2
:10586000B0B588B000AFF860B9603B601346FB800C
:105870000023FB613B68BB613B687B6107F0F8FD7F
:10588000214B00221A60204B02221A611E4ABB697A
:1058900093607A69BB69D31A01331B4AD36007F15D
:1058A00010031946184807F0B5FF0346002B1FD018
:1058B00007F010FE034622E0FB699B00BA68134420
:1058C0001B6800221C46154622462B46F96802201A
:1058D00007F0B8FC0346002B06D1FB680433FB60DD
:1058E000FB690133FB6103E007F0F4FD034606E0CA
:1058F000FB88FA699A42DFD307F0DCFD00231846E3
:105900002037BD46B0BD00BFB400002080B487B0D2
:1059100000AFF860B9601346FB800023FB820EE005
:10592000FB8A9B001A46FB6813441946FB8A9B00BE
:10593000BA6813440A681A60FB8A0133FB82FA8A48
:10594000FB889A42ECD300BF00BF1C37BD465DF810
:10595000047B704780B582B000AF6D4805F0C8FA8F
:1059600003461A466B4B1A606B4806F0EDF9034686
:105970001A466A4B1A60674B1B68042B03D1674BAE
:105980001B68042B11D0664B00221A600023FB71A8
:1059900007E0FB79634A002142F82310FB790133C9
:1059A000FB71FB79032BF4D909E001F035FA5E4B6A
:1059B0001B6801335C4A1360594B00221A60564B36
:1059C0005B6DB3F5807F7DD0B3F5807F00F284807E
:1059D000202B47D8002B7FD0013B1F2B7CD801A266
:1059E00052F823F06B5A02087D5A0208D95A02086D
:1059F0008F5A0208D95A0208D95A0208D95A0208FD
:105A0000D95A0208D95A0208D95A0208D95A0208A2
:105A1000D95A0208D95A0208D95A0208D95A020892
:105A2000D95A0208D95A0208D95A0208D95A020882
:105A3000D95A0208D95A0208D95A0208D95A020872
:105A4000D95A0208D95A0208D95A0208D95A020862
:105A5000D95A0208D95A0208D95A0208D95A020852
:105A6000A15A0208402B24D036E0304B1B6801338A
:105A70002E4A13602A4B01221A603FE02B4B5B68D1
:105A800001332A4A5360264B02221A6036E0274B24
:105A90009B680133254A9360214B04221A602DE054
:105AA000224BDB680133214AD3601D4B20221A6050
:105AB00024E01E4B1B6901331C4A1361184B402222
:105AC0001A601BE0194B9B690133184A9361144B10
:105AD0004FF480721A6011E0114B00221A6000230B
