:020000040806EC
:1000000000FC0120396D0608E5660608F36606085F
:10001000016706080F6706081D6706080000000054
:1000200000000000000000000000000051E606088B
:100030002B67060800000000A1E8060869DC060836
:10004000896D060839670608896D0608896D0608F6
:100050004567060851670608896D0608896D060818
:10006000896D0608896D0608896D0608896D060880
:10007000896D0608896D0608896D0608896D060870
:10008000896D0608896D0608616706080000000092
:10009000000000000000000000000000896D06085C
:1000A00075670608896D0608896D0608896D06085A
:1000B00095670608A9670608896D0608896D060810
:1000C000896D0608896D0608896D0608BD670608F2
:1000D000896D0608D1670608896D060800000000D2
:1000E000896D0608896D0608896D06080000000004
:1000F000000000000000000000000000896D0608FC
:1001000000000000896D0608E5670608896D06088D
:1001100000000000000000000000000000000000DF
:10012000896D0608896D0608896D0608896D0608BF
:10013000896D0608000000000000000000000000BB
:10014000000000000000000000000000896D0608AB
:10015000896D0608896D0608896D0608896D06088F
:10016000896D0608896D0608000000000000000087
:10017000000000000000000000000000000000007F
:1001800000000000F9670608000000000000000001
:08019000896D0608896D06085F
:1001A00010B5054C237833B9044B13B10448AFF3B1
:1001B00000800123237010BD800101200000000099
:1001C000F013070808B5034B1BB103490348AFF30D
:1001D000008008BD0000000084010120F013070822
:1001E00053B94AB9002908BF00281CBF4FF0FF319E
:1001F0004FF0FF3000F06AB9ADF1080C6DE904CEA4
:1002000000F006F8DDF804E0DDE9022304B07047F1
:100210002DE9F047089D0C46002B4ED194468C45A5
:100220008646B2FA82F262D94AB1C2F12003914005
:1002300020FA03F30CFA02FC194300FA02FE4FEA1B
:100240001C471FFA8CF6B1FBF7F44FEA1E4307FB7D
:10025000141143EA014304FB06F199420AD91CEB4D
:10026000030304F1FF3080F01281994240F20F81C4
:10027000023C6344591A1FFA8EF3B1FBF7F007FBF7
:10028000101143EA014300FB06F69E420AD91CEB1B
:10029000030300F1FF3180F0FC809E4240F2F980C0
:1002A000634402389B1B40EA044000211DB1D34047
:1002B0000022C5E90032BDE8F0878B4205D90DB1B7
:1002C000C5E9000100210846F5E7B3FA83F10029EA
:1002D00046D1A34202D39042C0F0F080861A64EB6C
:1002E00003030120002DE6D0C5E90063E3E7002AFF
:1002F00040F09080A1EB0C044FEA1C481FFA8CF7E9
:100300000121B4FBF8F64FEA1E4308FB164443EA0A
:10031000044307FB06F0984208D91CEB030306F1DF
:10032000FF3402D2984200F2CD8026461C1A1FFAF2
:100330008EF3B4FBF8F008FB104443EA044300FBDF
:1003400007F79F4208D91CEB030300F1FF3402D2E8
:100350009F4200F2B0802046DB1B40EA0640A5E742
:10036000C1F120068B4022FA06F71F4320FA06FC53
:1003700004FA01F343EA0C03F44000FA01F8380CE4
:100380004FEA1349B4FBF0FE1FFA87FC00FB1E4442
:1003900049EA04440EFB0CF9A14502FA01F20AD91C
:1003A0003C190EF1FF3A80F08480A14540F2818033
:1003B000AEF1020E3C44A4EB09041FFA83F9B4FB2E
:1003C000F0F300FB134449EA044403FB0CFCA4458E
:1003D00007D93C1903F1FF3067D2A44565D9023B28
:1003E0003C4443EA0E40A0FB0293A4EB0C049C4265
:1003F000CE469C4651D34ED055B1B8EB0E0364EBBC
:100400000C0404FA06F6CB401E43CC40C5E9006458
:10041000002150E7C2F1200320FA03F10CFA02FC9C
:1004200024FA03F394400C434FEA1C4800FA02FEFE
:100430001FFA8CF7B3FBF8F008FB1031230C43EAEA
:10044000014300FB07F1994208D91CEB030300F1BB
:10045000FF362CD299422AD9023863445B1AA4B2DF
:10046000B3FBF8F108FB113344EA034401FB07F343
:10047000A34208D91CEB040401F1FF3613D2A342B6
:1004800011D902396444E41A41EA004139E70446CB
:10049000F0E6084606E7C845AED2B9EB020E63EBBC
:1004A000070C0138A8E73146EDE7034699E73046E7
:1004B000D4E7D6467FE7634402384DE70646234635
:1004C00008460FE7023E634430E700BF704700BFB5
:1004D00080B400AF594B1B78002B0DD1584B1B78C3
:1004E0001A46920013441A4691001A460B461344CA
:1004F000DAB2544B1A7073E0514B1B785B08DBB2D5
:100500000133DAB2504B1A70504B1B78022B1BD1BF
:100510004F4B1B7A012B07D14D4BDB79012B03D1BC
:100520004C4B04221A7012E0494B1B7A012B03D06A
:10053000474BDB79012B03D1464B03221A7006E0AF
:10054000444B02221A7002E0424B01221A70424BC5
:100550001B78002B07D1414B1B78002B03D1404B5C
:1005600001221A701AE03C4B1B781A463B4B1B7851
:10057000D31A002BB8BF5B42102B03DD384B10227F
:100580001A700BE0344B1B781A46344B1B78D31A85
:10059000002BB8BF5B42DAB2314B1A70304B1B787C
:1005A0001A462C4B1B781344274A12781344DBB2AB
:1005B000DB00DAB2234B1A70224B1B78294AA2FBCC
:1005C00003239B08DBB21A4692001344DAB21D4B98
:1005D0001A701B4B1B78002B02D11A4B00221A7089
:1005E000184B1B78002B1FD0164B1B781A461E4B3E
:1005F0001B685B6B9A4207D91B4B1B685A6B1A4BE3
:100600001B6805325A6313E00E4B1B781A46164BD3
:100610001B685B6B9A420BD2134B1B685A6B124BD5
:100620001B68053A5A6303E00F4B1B6800225A63AC
:1006300000BFBD465DF8047B704700BFB2010120DA
:10064000B1010120B6010120B7010120B301012051
:10065000CC020120B8010120B5010120B401012024
:10066000B9010120CDCCCCCC700B012098B500AFE6
:10067000FFF72EFF8C4B1B68002B03D08B4B1B68A6
:1006800000225A63884B5B68002B40F04B82884BFA
:100690005B6A012B2AD1874B1B78C3F59C6302331D
:1006A0001A46854B1B685B6B9A4209D9824B1B68C3
:1006B0005A6B804B1B7819467F4B1B680A445A6360
:1006C0007C4B1B78C3F59C6302331A467A4B1B683C
:1006D0009B6B9A4232D9784B1B689A6B754B1B788F
:1006E0001946754B1B680A449A6327E0704B5B6A96
:1006F000022B23D16F4B1B781A466F4B1B685B6B29
:100700009A4209D26C4B1B685A6B6A4B1B7819468C
:10071000694B1B68521A5A63664B1B781A46664B24
:100720001B689B6B9A4209D2634B1B689A6B614BA7
:100730001B781946604B1B68521A9A635F4B1A78F4
:100740005F4B1B789A4203D35E4B01221A7048E03C
:100750005A4B1A785A4B1B789A4209D2574B5A78FF
:10076000574B1B789A4203D3564B02221A7038E03B
:10077000524B5A78524B1B789A4209D24F4B9A7877
:100780004F4B1B789A4203D34E4B03221A7028E03A
:100790004A4B9A784A4B1B789A4209D2474BDA78EF
:1007A000474B1B789A4203D3464B04221A7018E039
:1007B000424BDA78424B1B789A4209D23F4B1A7966
:1007C0003F4B1B789A4203D33E4B05221A7008E038
:1007D0003A4B1A793A4B1B789A4202D2394B06228D
:1007E0001A70394B1B78012B7CD1364B1B78052BAB
:1007F00031D8314B1B68DA6B344B1B78C3F59C63E3
:1008000002339A421ED22C4B1B681A6C2F4B1B785A
:10081000C3F59C6302339A4214D2274B1B68DA6BF0
:100820002A4B1B781946244B1B680A44DA63224B77
:100830001B681A6C254B1B7819461F4B1B680A4412
:100840001A64C0E0204B1B78012B40F0BC801E4B8B
:1008500002221A70B7E0184B1B68DA6B1C4B1B782E
:10086000C3F59C6302339A4234D2134B1B681A6C53
:10087000174B1B78C3F59C6302339A422AD20E4B66
:100880001B68DA6B124B1B7819460B4B1B680A442A
:10089000DA63094B1B681A6C0D4B1B781946064B23
:1008A0001B680A441A648EE01C060120700B0120AC
:1008B000A00201209E010120240C0120180001202B
:1008C000EE010120BA010120BB0101209C010120A1
:1008D0009D010120844B1B78012B74D1824B022295
:1008E0001A7070E0804B1B78022B6CD17F4B1B7809
:1008F000052B32D87E4B1B68DB6B7E4A1278934205
:100900001BD97B4B1B681B6C7A4A1278934214D913
:10091000774B1B68DA6B774B1B781946744B1B6857
:10092000521ADA63724B1B681A6C724B1B781946A9
:100930006F4B1B68521A1A6445E06B4B1B78022BF5
:1009400041D1694B00221A70694B1B680022DA639F
:10095000674B1B6800221A6435E0644B1B78062B3A
:1009600031D1634B1B68DB6B634A127893421BD90E
:100970005F4B1B681B6C604A1278934214D95C4B26
:100980001B68DA6B5C4B1B781946594B1B68521A73
:10099000DA63574B1B681A6C574B1B781946544B3C
:1009A0001B68521A1A640EE04F4B1B78022B0AD1B7
:1009B0004D4B00221A704E4B1B680022DA634C4BE1
:1009C0001B6800221A644D4B1B78012B0DD14C4B38
:1009D0009B6940F6B732934207D9434B1B78002BF3
:1009E00051D1414B01221A704DE0444B1B78022B30
:1009F00003D0424B1B78032B2DD1424B1A783A4B34
:100A00001B789A4206D0384B1A783E4B1A703E4BF0
:100A100000221A603C4B1B68002B03D13B4B1B6828
:100A2000394A1360394B1A68374B1B68D11A334B5C
:100A30001B789A1E2D4B1B78581E354C13465B00B5
:100A400013445B00034434F8133099421BD3264B04
:100A500001221A7017E0294B1B78042B0DD12D4B66
:100A60001B68002B0FD1294B1B682A4A13602A4BA5
:100A70001B781A46294B1A6005E0234B00221A60A6
:100A8000204B00221A70214B1A68224B1B68D31A84
:100A9000234A127893420FD21E4B1B68002B0BD0B7
:100AA000114B1B78002B07D10F4B01221A701B4BE7
:100AB0001B68013B194A13600B4B1B78002B0BD1B1
:100AC000164B1B68002B07D0074B01221A70134BE3
:100AD0001B68013B114A1360104B1B68002B3DD172
:100AE0000C4B00221A6039E0BB010120BA01012041
:100AF000240C01209C0101209D010120EF01012017
:100B0000A0020120BC010120C0010120C40101207C
:100B100000000120C8010120A0010120CC0101201A
:100B20009F0101204B4B1B6800225A63494B1B68F5
:100B300000229A63474B1B680022DA63454B1B680F
:100B400000221A64444B00221A60444B00221A709F
:100B5000434B00221A70434B00221A703D4B1B6816
:100B6000DA6B13461B029B1A3F4AA2FB03239B0A24
:100B7000DAB23E4B1A70374B1B681A6C13461B02D5
:100B80009B1A394AA2FB03239B0ADAB2374B5A70ED
:100B9000304B1B685A6B13461B029B1A324AA2FB4E
:100BA00003239B0ADAB2314B9A702A4B1B689A6B6B
:100BB00013461B029B1A2C4AA2FB03239B0ADAB2A0
:100BC0002A4BDA702A4B1B685A6B13461B029B1A7E
:100BD000284AA2FB03235B09DAB2244B1A711D4B8E
:100BE0001B68DA6B13461B029B1A1F4AA2FB0323E6
:100BF0009B0ADAB2204B1A70164B1B681A6C13460C
:100C00001B029B1A184AA2FB03239B0ADAB21A4B57
:100C10005A70104B1B685B6B184AA2FB0323DB095D
:100C2000DAB2154B9A700B4B1B689B6B134AA2FBF5
:100C30000323DB09DAB2104BDA700D4B1B685B6BD8
:100C4000DAB20D4B1A710E4B1B6801330C4A13605C
:100C500000BF98BD240C0120C0010120BB01012070
:100C6000BC010120BA0101205917B7D1A40101200C
:100C7000700B01201F85EB51AC0101208180808029
:100C8000C401012080B582B000AF0023FB7123E0D6
:100C9000FB79AA4A52F82330002B1AD00023BB71EB
:100CA00014E0BB79A64A002142F82310BB79A54A7B
:100CB000002142F82310BB79A34A0021D154BB790B
:100CC000A24A0021D154BB790133BB71BB79082BF7
:100CD000E7D9FB790133FB71FB79022BD8D90023CB
:100CE0007B711AE07B799A4A52F82330002B11D09D
:100CF000934B00225A62934B00225A62924B00227D
:100D00005A72944B012283F86D20924B0A2283F889
:100D10006C2005E07B7901337B717B79042BE1D971
:100D200000233B7151E03A798A4913465B00134432
:100D30009B000B4401331B78002B43D13B79804A45
:100D400052F82330844A127893423BD23A7981494F
:100D500013465B0013449B000B4404331B68591C6F
:100D60007C4813465B0013449B0003440433196022
:100D70003A79784913465B0013449B000B440433D3
:100D80001B68764A127893421CD13A79714913460E
:100D90005B0013449B000B44043300221A603A7931
:100DA0006C4913465B0013449B000B440133012242
:100DB0001A703A79674913465B0013449B000B4451
:100DC00001221A703B7901333B713B79082BAAD978
:100DD0000023FB702AE0FA785E4913465B00134457
:100DE0009B000B441B78002B18D1FB78544A52F817
:100DF0002330FA785A4931F81220934205D8FB780B
:100E0000504A002142F823100DE0FA78FB784C4953
:100E100051F822204B4941F8232004E0FB78494A4D
:100E2000FF2142F82310FB780133FB70FB78082B7D
:100E3000D1D90023BB7014E0BB78414A52F823207B
:100E400013461B029A1A474BA3FB0213D21A5208ED
:100E50001344DA0ABB78D1B23C4AD154BB7801338F
:100E6000BB70BB78082BE7D9364B1B685A003D4B4B
:100E7000A3FB0213D21A52081344DB0ADAB2324B34
:100E80001A70304B5B68642203FB02F2354BA3FB04
:100E90000213D21A52081344DB0ADAB22A4B5A70F0
:100EA000284B9B68642203FB02F22E4BA3FB021328
:100EB000D21A52081344DB0ADAB2234B9A70214B40
:100EC000DB68B42203FB02F2264BA3FB0213D21A07
:100ED00052081344DB0ADAB21B4BDA70194B1B6958
:100EE0005A00204BA3FB0213D21A52081344DB0A08
:100EF000DAB2154B1A71134B5B6ADAB2124B5A72A3
:100F000005237B7013E07B780E4A52F8233040F6BD
:100F1000B832934204D97B780B4A0121D15403E0C3
:100F20007B78094A0021D1547B7801337B707B7830
:100F3000082BE8D900233B707CE000BFFC050120B2
:100F4000F0010120A0020120CC020120D8020120E2
:100F5000E80301201C020120D0010120D101012061
:100F6000D8010120010110003B78042B1BD93B78EC
:100F7000082B18D83B78574A52F82330012B12D14E
:100F80003A78554913465B0013449B000B440133E8
:100F900000221A703A78504913465B0013449B00B4
:100FA0000B4400221A703A784B4913465B001344F5
:100FB0009B000B4401331B78012B21D13A78464921
:100FC00013465B0013449B000B441B78002B17D087
:100FD0003A78414913465B0013449B000B441A784E
:100FE0003B781146184603F02FFC3A783A491346ED
:100FF0005B0013449B000B44013302221A7016E07D
:101000003A78354913465B0013449B000B441B7828
:10101000002B0CD13A78304913465B0013449B00F7
:101020000B441A783B781146184603F00DFC3B78C8
:1010300001333B703B780A2B96D9264B1B68012B5A
:1010400002D1264B00225A72224B5B68012B06D13B
:10105000234B5B6A032B02D1204B00225A721D4B9B
:101060009B68012B06D11E4B5B6A042B02D11B4BE4
:1010700000225A72174BDB68012B06D1184B5B6AB2
:10108000052B02D1154B00225A72124B1B69012B02
:1010900002D1124B00229A710E4B5B69012B02D1D7
:1010A0000E4B00225A710B4B9B69012B02D10B4B4B
:1010B0000022DA71074BDB69012B02D1074B0022BA
:1010C0001A72084B1B680133064A136000BF0837C9
:1010D000BD4680BDE40201201C020120CC0201209B
:1010E000A002012008030120B0B582B000AF0F4B71
:1010F0005B6D002B0DD10023FB7107E0FB790C4ADF
:10110000002142F82310FB790133FB71FB79062B98
:10111000F4D9084B1B78012B01D101F0A9FA064B39
:101120001B68002B0AD100F057FF3FE03C0A01206A
:1011300018030120C5030120C8030120974B1B6839
:10114000012B33D100F00EFC954B01221A70954B08
:1011500001221A70934B4FF480725A60914B052212
:101160001A72904B00225A728E4B00229A728D4B4B
:101170000022DA728B4B00221A738A4B00225A73B8
:10118000884800F089FC874B01221A70854B40F299
:1011900001125A60834B02221A72824B00225A7249
:1011A000804B00229A727F4800F076FC00F075FDBB
:1011B00003467D4A13607C4B1B68002B00F0518175
:1011C0007A4B5B68002B6DD1784800F0DDFC03465C
:1011D000002B67D0754B5B68B3F5857F13D1734BDC
:1011E0001A7B734B1A70714B5A7A724B1A706F4B91
:1011F0005A7B714B1A706D4B9A7A704B1A706B4B0D
:10120000DA7B6F4B1A70694B5B68982B06D1674B82
:101210009A7B6C4B1A706C4B00221A60634B5B68B4
:10122000972B0AD1614B1A7C684B1A705F4BDA7BA3
:10123000674B1A70674B00221A605C4B5B68B3F512
:10124000A26F12D1594B5B7A102B0ED1574B5A7AA1
:10125000614B1A70524B1B78032B02D0504B022269
:101260001A705E4B4FF4FA621A80504B5B68B3F50C
:10127000C06F0AD15A4B01221A705A4A4B4B14467E
:101280001D460FCD0FC42B682360484B5B68B3F538
:10129000E06F07D1544A454B14461D460FCD0FC48D
:1012A0002B682360514B5B68002B6DD14F4800F0D9
:1012B0006BFC0346002B67D04C4B5B68B3F5857F16
:1012C00013D14A4B1A7B3A4B1A70484B5A7A394B16
:1012D0001A70464B5A7B384B1A70444B9A7A374BEC
:1012E0001A70424BDA7B364B1A70404B5B68982B76
:1012F00006D13E4B9A7B334B1A70334B00221A6057
:101300003A4B5B68972B0AD1384B1A7C2F4B1A70DB
:10131000364BDA7B2E4B1A702E4B00221A60334B61
:101320005B68B3F5A26F12D1304B5B7A102B0ED1F4
:101330002E4B5A7A284B1A70194B1B78032B02D06C
:10134000174B02221A70254B4FF4FA621A80274B72
:101350005B68B3F5C06F0AD1214B01221A70214A94
:10136000224B14461D460FCD0FC42B6823601F4B24
:101370005B68B3F5E06F07D11B4A1C4B14461D4652
:101380000FCD0FC42B682360084B00221A70074B47
:1013900000225A60054B00221A7229E0C80301207E
:1013A00048030120CC030120E00301204C0301206D
:1013B000B1010120B2010120B3010120B4010120DB
:1013C000EF010120B501012010030120EE010120F1
:1013D0000C03012014030120C40301201E0001207E
:1013E000C50301209C030120880301206003012024
:1013F000A14B00225A72A04B00229A729E4B0022EF
:10140000DA729D4B00221A739B4B00225A739A4B3F
:1014100000229A73984B0022DA73974B00221A74B9
:10142000964B00221A70954B00225A60934B002273
:101430001A72924B00225A72904B00229A728F4B72
:101440000022DA728D4B00221A738C4B00225A73E1
:101450008A4B00229A73894B0022DA73874B002251
:101460001A74874809F0E8FA0346864A1360854BE8
:101470001B68002B02D0824800F0DEF900F048FC27
:101480000346002B16D0804B1968804BA3FB012329
:101490001A0913469B0013449B00CA1A002A09D15B
:1014A000794B1B68002B05D0794B1B680133784AB8
:1014B000136002E0764B00221A6000F042FC034603
:1014C000002B16D0704B1968704BA3FB01231A092F
:1014D00013469B0013449B00CA1A002A09D16A4B89
:1014E0001B68002B05D06A4B5B680133684A536068
:1014F00002E0674B00225A6000F0F1FB0346002B2C
:101500001AD0614B1968614BA3FB01231A091346DA
:101510009B0013449B00CA1A002A0DD15A4B1B682A
:10152000002B09D05A4B9B680133594A9360012123
:101530000D2003F089F906E0554B00229A60002146
:101540000D2003F081F9534B1B78002B07D0524B31
:101550001B78002B0AD1504B01221A7006E04E4B2B
:101560001B78012B02D14C4B00221A704B4B1B886D
:10157000002B06D0494B1B88013B9AB2474B1A807F
:101580000AE0464B1B88002B06D1434B1B78022BED
:1015900002D1414B01221A703D4B1B68002B40F0D9
:1015A00016813B4B5B68002B40F01181384B9B68E8
:1015B000002B40F00C813A4B1B68002B40F0078158
:1015C000374B5B68002B40F00281354B9B68002B4A
:1015D00040F0FD80324BDB68002B40F0F880304B50
:1015E0001B69002B40F0F3802D4B5B69002B40F012
:1015F000EE802B4B9B69002B40F0E980284BDB6988
:10160000002B40F0E480264B1B6A002B40F0DF806B
:10161000214B1B78002B00F0DA801F4B1B78032B2B
:1016200000F0D5801C4B1B78012B00F0D0801D4BA7
:101630001B78022B40F0CB801B4B1B6801331A4AEE
:1016400013601A4B1B680133184A1360164B1B6852
:10165000C82B04D901210A2003F0F6F803E0002189
:101660000A2003F0F1F8114B1B68C82B20D9012187
:101670000B2003F0E9F81FE04C0301206003012078
:101680003C0A0120E4030120C8030120CDCCCCCCCE
:101690003C030120CC020120480301201E00012050
:1016A0001803012021080120100301201403012048
:1016B00000210B2003F0C8F85A4B1B6803F003030A
:1016C000002B41D1584B01221A70574B4FF48072B6
:1016D0005A60554B05221A72544B5A78524B5A7223
:1016E000524B9A78504B9A72504B1A794E4BDA7291
:1016F0004E4B1A784C4B1A734C4BDA784A4B5A7350
:10170000494800F0C9F9484B00221A70464B0022A4
:101710005A60454B00221A72434B00225A72424BC8
:1017200000229A72404B0022DA723F4B00221A7359
:101730003D4B00225A733C4B00229A733A4B0022D5
:10174000DA73394B00221A74364B1968384BA3FBF5
:1017500001231A0913469B0013449B00CA1A002A4E
:1017600035D1314B01221A702F4B40F201125A60D1
:101770002D4B02221A722F4B9A782B4B5A722D4BFB
:10178000DA78294B9A72284800F086F9264B002215
:101790001A70254B00225A60234B00221A72224BEA
:1017A00000225A72204B00229A721F4B0022DA72DA
:1017B0001D4B00221A731C4B00225A731A4B002235
:1017C0009A73194B0022DA73174B00221A74164BC6
:1017D00000221A70144B00225A60134B00221A7216
:1017E000114B00225A72104B00229A720E4B0022AB
:1017F000DA720D4B00221A730B4B00225A730A4BFC
:1018000000229A73084B0022DA73074B00221A74E5
:10181000044B1B680133034A136000BF0837BD4601
:10182000B0BD00BFC8030120CC030120CC020120C1
:10183000CDCCCCCCAC01012080B483B000AF7860BB
:101840007B685B6D202B47D8002B72D0013B1F2B90
:101850006FD801A252F823F0DF180608EB1806082B
:1018600033190608F718060833190608331906084D
:101870003319060803190608331906083319060830
:1018800033190608331906083319060833190608F0
:10189000331906080F190608331906083319060804
:1018A00033190608331906083319060833190608D0
:1018B00033190608331906083319060833190608C0
:1018C00033190608331906083319060833190608B0
:1018D000331906081B190608402B24D029E0184BA1
:1018E0001B680133164A136024E0154B5B68013313
:1018F000134A53601EE0124B9B680133104A9360F9
:1019000018E00F4BDB6801330D4AD36012E00C4B3B
:101910001B6901330A4A13610CE0094B5B6901330F
:10192000074A536106E0064B9B690133044A936101
:1019300000E000BF00BF0C37BD465DF8047B704778
:101940001803012080B500AF002240212C2000F0B8
:101950006BFC402240212B2000F066FC00F01EFBB7
:1019600000BF80BD80B588B000AF00F035FBFF231D
:101970003B71E0237B710023BB710023FB71FF23CC
:101980003B70E0237B700023BB700023FB701223AD
:101990003B77E0237B770023BB770023FB77132380
:1019A0003B7600237B760023BB760023FB76E02387
:1019B0003B7500237B750023BB750023FB75C0239B
:1019C0003B7400237B740023BB740023FB74A223AD
:1019D0003B7300237B730023BB730023FB73002343
:1019E0003B7200237B720023BB720023FB7200F06A
:1019F00077FA00F097FA3B1D1A462321202000F0C9
:101A000069FB3B461A462721242000F063FB07F1BF
:101A10001C031A460321002000F05CFB07F11803A9
:101A20001A460721042000F055FB07F114031A465B
:101A30000B21082000F04EFB07F110031A4613217A
:101A4000102000F047FB07F10C031A461721142061
:101A500000F040FB07F108031A461B21182000F094
:101A600039FB0421602000F011FB0121702000F0FF
:101A70000DFB00212A2000F009FB9021292000F015
:101A800005FB8221282000F001FB00F069FA012308
:101A900018462037BD4680BD80B586B000AF78605F
:101AA00072B600BF0023FB7500233B610023FB607F
:101AB00000233B7400237B740023BB740023FB745E
:101AC00000F076FB03463B733B7B03F00403DBB281
:101AD000002B17D17B6858687B681B7807F11002D0
:101AE000194600F0A8F97B681A7A7B68093307F178
:101AF0001001402000F018FB812000F03FFB012383
:101B0000FB753AE03B7B03F01003DBB2002B17D1EF
:101B10007B6858687B681B7807F11002194600F053
:101B20008AF97B681A7A7B68093307F11001422031
:101B300000F0FAFA822000F021FB0123FB751CE083
:101B40003B7B03F04003DBB2002B16D17B68586867
:101B50007B681B7807F11002194600F06CF97B686E
:101B60001A7A7B68093307F11001442000F0DCFA8F
:101B7000842000F003FB0123FB7562B600BFFB7DF0
:101B800018461837BD4680BD80B588B000AF786074
:101B900072B600BF0023FB7707F1100300221A6022
:101BA0005A609A601A730023FB6000F01FFB034623
:101BB0003B733B7B23F03F03DBB2002B66D03B7BC8
:101BC00023F03F03DBB2402B0CBF01230023DAB22A
:101BD0003B7B23F03F03DBB2C02B0CBF0123002370
:101BE000DBB21343DBB2002B07D007F110030D2249
:101BF0001946902000F028FA0CE03B7B23F03F03CD
:101C0000DBB2802B06D107F110030D221946942078
:101C100000F01AFA3B7B03F01803DBB2102B0CD157
:101C20007B6802221A70B87CF97C3A7C7B7C00F0DD
:101C3000A1F802467B685A600BE07B6801221A70AB
:101C40003B7C7A7C1146184600F0D6F802467B6849
:101C50005A603A7D7B681A727A7D7B685A72BA7DC7
:101C60007B689A72FA7D7B68DA723A7E7B681A73B7
:101C70007A7E7B685A73BA7E7B689A73FA7E7B6839
:101C8000DA733A7F7B681A740123FB7762B600BF70
:101C9000FB7F18462037BD4680BD80B582B000AFBF
:101CA00000233B600023FB7100F082FA03463B7087
:101CB0003B7803F00103DBB2002B02D0FB79013348
:101CC000FB713B7803F00203DBB2002B02D0FB79FF
:101CD0000133FB71FB7918460837BD4680BD80B5DE
:101CE00082B000AF00233B600023FB712D2000F089
:101CF00087F903463B703B7803F02003DBB2002BEF
:101D000001D00123FB71FB7918460837BD4680BD21
:101D100080B582B000AF00233B600023FB712D2013
:101D200000F06EF903463B703B7803F00803DBB22A
:101D3000002B01D00123FB71FB7918460837BD4603
:101D400080BD80B582B000AF00233B600023FB71F3
:101D50002D2000F055F903463B703B7803F010034B
:101D6000DBB2002B01D00123FB71FB791846083749
:101D7000BD4680BD90B486B000AF0446084611460B
:101D80001A462346FB710346BB710B467B71134613
:101D90003B7100237B6100233B610023FB73002325
:101DA000BB733B7903F00303FB733B795B09BB73A4
:101DB0007B79DB003B61BB7B3A6913443B613B6948
:101DC0009B003B61FB7B3A6913443B613B691B020F
:101DD0003B61FB793A6913443B613B691B023B6100
:101DE000BB793A6913443B613B697B617B69184667
:101DF0001837BD4690BC704780B485B000AF03462D
:101E00000A46FB711346BB710023FB600023BB60D5
:101E1000FB79DB00BB60BB795B09DBB21A46BB68B0
:101E20001344BB60BB68FB60FB6818461437BD46B3
:101E30005DF8047B704780B487B000AFF8600B4654
:101E40007A60FB720023FB75FB7A022B2ED1FB68B4
:101E5000DAB27B68DA70FB681B0AFB60FB68DAB2F7
:101E60007B689A70FB681B0AFB60FB68DBB203F0BF
:101E70000303FB75FB68DB00FB60FB68DBB223F050
:101E80001F03DAB2FB7D1344FB75FB7D0833FB7542
:101E9000FB7D23F01403DAB27B685A70FB681B0ADF
:101EA000FB60FB68DAB27B681A7013E07B68002283
:101EB0009A707B680022DA70FB685B01FB60FB684C
:101EC000DAB27B685A70FB681B0AFB60FB68DAB207
:101ED0007B681A7000BF1C37BD465DF8047B7047F5
:101EE00080B582B000AF0A23FB71012210210B489C
:101EF00006F0C6FF0A4808F091FD0346012B01D108
:101F0000012306E0FB79013BFB71FB79002BF1D14A
:101F1000002318460837BD4680BD00BF00080240B8
:101F20003C0A012080B582B000AF0A23FB718021FA
:101F30000F2000F0ABF80E2000F062F8034603F02B
:101F4000E003802B01D1012306E0FB79013BFB710B
:101F5000FB79002BEFD1002318460837BD4680BD22
:101F600080B582B000AF0A23FB7100210F2000F082
:101F70008DF80E2000F044F8034603F0E003002B38
:101F800001D1012306E0FB79013BFB71FB79002BBA
:101F9000EFD1002318460837BD4680BD80B582B01A
:101FA00000AF0A23FB7120210F2000F06FF80E20F4
:101FB00000F026F8034603F0E003202B01D10123B3
:101FC00006E0FB79013BFB71FB79002BEFD100238D
:101FD00018460837BD4680BD80B500AF00221021ED
:101FE000064806F04DFFC02000F046F901221021FE
:101FF000024806F045FF00BF80BD00BF0008024058
:1020000080B584B000AF0346FB710023FB73002250
:1020100010210C4806F034FF032000F02DF9FB7965
:10202000184600F029F900F04DF90346FB73012230
:102030001021044806F024FFFB7B18461037BD46EC
:1020400080BD00BF0008024080B582B000AF0346EB
:102050003960FB711346BB71002210210A4806F05B
:102060000FFFFB79184600F007F9BB79194638686D
:1020700000F03AF901221021034806F001FF00BFE9
:102080000837BD4680BD00BF0008024080B582B061
:1020900000AF03460A46FB711346BB7100221021B4
:1020A0000B4806F0EDFE022000F0E6F8FB7918463A
:1020B00000F0E2F8BB79184600F0DEF801221021AA
:1020C000034806F0DDFE00BF0837BD4680BD00BFF7
:1020D0000008024080B582B000AF03463A60FB7151
:1020E0000B46BB71002210210E4806F0C9FE0220EB
:1020F00000F0C2F8FB79184600F0BEF8BA79FB7917
:10210000D31ADBB20133DBB21946386800F0C6F8E7
:1021100001221021034806F0B3FE00BF0837BD4678
:1021200080BD00BF0008024080B584B000AFB96038
:102130007B600346FB731346BB73002210210E48DD
:1021400006F09EFEFB7B184600F096F80421B86866
:1021500000F0A4F8BB7B184600F08EF8BB7B194654
:10216000786800F09BF801221021034806F088FEF1
:1021700000BF1037BD4680BD0008024080B582B068
:1021800000AF0346FB7100221021084806F078FEDC
:10219000FB79184600F070F801221021034806F080
:1021A0006FFE00BF0837BD4680BD00BF000802407B
:1021B00080B582B000AF0023FB71002210210A48D5
:1021C00006F05EFEA02000F057F800F07BF8034612
:1021D000FB7101221021044806F052FEFB791846DB
:1021E0000837BD4680BD00BF0008024080B582B000
:1021F00000AF0023FB71002210210A4806F040FEC8
:10220000B02000F039F800F05DF80346FB710122C0
:102210001021044806F034FEFB7918460837BD4605
:1022200080BD00BF0008024080B582B000AF034609
:10223000FB710B46BB7113467B71002210210D48C8
:1022400006F01EFE052000F017F8FB79184600F096
:1022500013F8BB79184600F00FF87B79184600F0A8
:102260000BF801221021034806F00AFE00BF0837D0
:10227000BD4680BD0008024080B582B000AF034675
:10228000FB71F91D02230122034807F067FE00BF1E
:102290000837BD4680BD00BF3C0A012080B582B032
:1022A00000AF78600B46FB70FB789AB20223796826
:1022B000034807F053FE00BF0837BD4680BD00BF8E
:1022C0003C0A012080B582B000AF0023FB71F91DEC
:1022D00002230122034807F095FFFB7918460837CF
:1022E000BD4680BD3C0A012080B582B000AF786059
:1022F0000B46FB70FB789AB202237968034807F01B
:1023000081FF00BF0837BD4680BD00BF3C0A0120E9
:1023100080B582B000AF5F480AF084FF03461A46DA
:102320005D4B1A605D4B1B78002B07D05B4B1B7815
:102330001A465B4B5A62594B00221A70554B5B6C24
:10234000002B0DD10023FB7107E0FB79554A0021DA
:1023500042F82310FB790133FB71FB79042BF4D98C
:102360004D4B1B68E02B00F08380E02B00F288804F
:10237000242B4FD8242B00F2838001A252F823F0A3
:102380001B240608812406088124060881240608E7
:102390008124060881240608812406088124060871
:1023A0008124060881240608812406088124060861
:1023B0008124060881240608812406088124060851
:1023C0008124060881240608812406088124060841
:1023D0008124060881240608812406088124060831
:1023E0008124060881240608812406088124060821
:1023F0008124060881240608812406088124060811
:1024000025240608432406084D24060857240608F8
:1024100039240608A02B23D032E01F4B1B68224A28
:1024200013602EE0012221491A480AF0F5FB1A4BED
:102430001B681D4A136024E0174B1B681A4A13607F
:102440001FE0154B1B68184A13601AE0124B1B68FB
:10245000154A136015E0104B1B68134A136010E017
:102460000D4B1B68104A13600A4800F023F808E07F
:10247000094B1B680C4A1360064800F01BF800E08B
:1024800000BF0B4B1B680133094A136000BF0837BC
:10249000BD4680BD8C0D01201004012008040120E0
:1024A000F0010120E8030120FC03012000040120C9
:1024B0000C04012080B584B000AF786078680AF021
:1024C000CFFEF860FB68102B42D801A252F823F02F
:1024D0005125060815250608212506085125060858
:1024E0002D25060851250608512506085125060800
:1024F00039250608512506085125060851250608E4
:1025000051250608512506085125060851250608BB
:1025100045250608114B1B680133104A136018E06B
:102520000E4B5B6801330D4A536012E00B4B9B6806
:1025300001330A4A93600CE0084BDB680133074A19
:10254000D36006E0054B1B690133044A136100E0C8
:1025500000BF00BF1037BD4680BD00BFE8030120AB
:1025600080B582B000AF78607B681B68194A9342DF
:102570002CD1194B1B780A2B0ED1184B1B78032B2F
:1025800006D817480EF0BFFD0346DAB2154B1A7095
:10259000124B00221A7014E0104B1B78022B0DD83E
:1025A0000E4B1B781A460C4B19780D4B99540B4B5C
:1025B0001B780133DAB2094B1A7002E0074B002294
:1025C0001A700122044978680AF026FB00BF083718
:1025D000BD4680BD00100140000401200904012017
:1025E000040401200804012080B500AF1E4B5B6885
:1025F00001331E4A53601C4B1A781C4B1A701A4B3D
:102600001A7A1A4B1A72194BFF225A72174B002270
:102610009A72154B9A7A154BDA721448FFF73CFA06
:10262000124B00221A70114B00225A600F4B0022ED
:102630001A720E4B00225A720C4B00229A720B4BEC
:102640000022DA72094B00221A73084B00225A73D7
:10265000064B00229A73054B0022DA73034B0022CB
:102660001A7400BF80BD00BF9C030120B00301208D
:1026700080B582B000AF3D4B5B7A012B01D1FFF7F3
:10268000B3FF3A4B5B7A022B12D1FFF7ADFF374B0A
:102690001B7C1A06354BDB7B1B041A43334B9B7B9D
:1026A0001B021343314A527B13431A46304B1A60C4
:1026B0002E4B5B7A042B1AD12D4B1B687B607B68F9
:1026C0001B683B603B681B0EDAB22A4B1A733B68EF
:1026D0001B0CDAB2274B5A733B681B0ADAB2254B44
:1026E0009A733B68DAB2234BDA73FFF77DFF1F4B17
:1026F0005B7A1B2B01D1FFF777FF1C4B5B7A172B03
:1027000001D1FFF771FF194B5B7A072B04D1FFF75B
:102710006BFF194B00221A70144B00221A70134BD6
:1027200000225A60114B00221A72104B00225A727A
:102730000E4B00229A720D4B0022DA720B4B0022D4
:102740001A730A4B00225A73084B00229A73074BE4
:102750000022DA73054B00221A74084B1B68013300
:10276000064A136000BF0837BD4680BD9C030120A8
:1027700014040120B0030120C50301201804012026
:1027800080B58AB000AF78600B467B8007F10C0300
:1027900000221A605A609A60DA601A617B88FB84B2
:1027A0000023BB84012387F8233040F201733B618F
:1027B00001233B7308233B757B88072B21D97B883A
:1027C0001B0A9BB25BB203F00F035BB243F0100332
:1027D0005BB2DBB27B757B88DBB2BB7507F10C03A8
:1027E0000B330622796818460EF0AAFD0623BB8437
:1027F000FB8C063BFB8407F10C031846FFF74CF9F2
:1028000058E07B88DBB203F00F03DBB27B757A887C
:1028100007F10C030A33796818460EF091FD7B88A6
:10282000DBB20133DBB23B7507F10C031846FFF74F
:1028300033F942E097F9233003F00F035BB243F022
:1028400020035BB2DBB27B75FB8C062B10D9BB8CF3
:102850007A68D11807F10C030A33072218460EF0E4
:102860006FFDBB8C0733BB84FB8C073BFB8414E000
:10287000BB8C7A68D118FA8C07F10C030A3318461E
:102880000EF05EFDFB8CDBB20133DBB23B75BA8C24
:10289000FB8C1344BB840023FB8407F10C03184614
:1028A000FFF7FAF897F82330013387F82330012037
:1028B00004F036FBFB8C002BBCD12837BD4680BD15
:1028C00080B500AF344BDB7A012B03D1334B0122AF
:1028D0001A7006E0304BDB7A022B02D12F4B00221C
:1028E0001A702F4B03221A722D4B40F201725A605C
:1028F0002B4B01221A702A4B02225A72284BC522F6
:102900009A72254BDA7A264BDA722548FFF7C4F81B
:10291000234B00221A70224B00225A60204B0022C7
:102920001A721F4B00225A721D4B00229A721C4BC6
:102930000022DA721A4B00221A73194B00225A73C2
:10294000174B00229A73164B0022DA73144B0022A5
:102950001A74114B00221A700F4B00225A600E4B52
:1029600000221A720C4B00225A720B4B00229A72F0
:10297000094B0022DA72084B00221A73064B002220
:102980005A73054B00229A73034B0022DA73024BF1
:1029900000221A7400BF80BD880301207404012046
:1029A0007403012080B500AF344BDB7A012B03D1D7
:1029B000334B03221A7006E0304BDB7A002B02D136
:1029C0002F4B02221A702F4B03221A722D4B40F20A
:1029D00001725A602B4B01221A702A4B02225A7242
:1029E000284B68229A72254BDA7A264BDA722548F0
:1029F000FFF752F8234B00221A70224B00225A6034
:102A0000204B00221A721F4B00225A721D4B0022CB
:102A10009A721C4B0022DA721A4B00221A73194B5D
:102A200000225A73174B00229A73164B0022DA7356
:102A3000144B00221A74114B00221A700F4B002203
:102A40005A600E4B00221A720C4B00225A720B4B2A
:102A500000229A72094B0022DA72084B00221A7384
:102A6000064B00225A73054B00229A73034B002237
:102A7000DA73024B00221A7400BF80BD8803012064
:102A8000480301207403012080B500AF2C4B0322C2
:102A90001A722B4B40F201725A60294B01221A70B4
:102AA000274B02225A72264B7E229A72244B002216
:102AB000DA722348FEF7F0FF214B00221A70204BF8
:102AC00000225A601E4B00221A721D4B00225A72BD
:102AD0001B4B00229A721A4B0022DA72184B00220A
:102AE0001A73174B00225A73154B00229A73144B1A
:102AF0000022DA73124B00221A74124B00221A7051
:102B0000104B00225A600F4B00221A720D4B00220C
:102B10005A720C4B00229A720A4B0022DA72094B4D
:102B200000221A73074B00225A73064B00229A7335
:102B3000044B0022DA73034B00221A7400BF80BDDD
:102B4000740301208803012080B500AF324B0422BA
:102B50001A72314B40F201725A602F4B01221A70E7
:102B60002D4B03225A722C4B6E229A722A4B002252
:102B7000DA72294B00221A73284B997B274B5B7B17
:102B80001A46274B43F822102348FEF785FF224BB5
:102B900000221A70204B00225A601F4B00221A722A
:102BA0001D4B00225A721C4B00229A721A4B0022B3
:102BB000DA72194B00221A73174B00225A73164B04
:102BC00000229A73144B0022DA73134B00221A74FA
:102BD000124B00221A70114B00225A600F4B002238
:102BE0001A720E4B00225A720C4B00229A720B4B37
:102BF0000022DA72094B00221A73084B00225A7322
:102C0000064B00229A73054B0022DA73034B002215
:102C10001A7400BF80BD00BF740301208803012027
:102C20001C04012080B500AF0F4B03221A720E4B1B
:102C300040F201725A600C4B01221A700A4B0222B8
:102C40005A72094B50229A72074B0422DA72074BD0
:102C500003221A700448FEF71FFF02F0AFFA0020AB
:102C600002F01AFC00BF80BD74030120A8FD012002
:102C700080B500AF0F4B03221A720E4B40F2017267
:102C80005A600C4B01221A700A4B02225A72094BED
:102C900050229A72074B0522DA72074B04221A70EF
:102CA0000448FEF7F9FE02F089FA002002F0F4FB76
:102CB00000BF80BD74030120A8FD012080B500AFD6
:102CC000344B07221A72334B40F201725A60314B77
:102CD00001221A702F4B06225A722E4B62229A72D0
:102CE0002C4B0022DA722B4B01221A732A4B1A78D2
:102CF000284B5A73294B1A78264B9A73274B5A7ACA
:102D0000244BDA732348FEF7C7FE224B00221A70C9
:102D1000204B00225A601F4B00221A721D4B0022CA
:102D20005A721C4B00229A721A4B0022DA72194B0B
:102D300000221A73174B00225A73164B00229A7303
:102D4000144B0022DA73134B00221A74144B002226
:102D50001A70134B00225A60114B00221A72104B4A
:102D600000225A720E4B00229A720D4B0022DA7228
:102D70000B4B00221A730A4B00225A73084B002295
:102D80009A73074B0022DA73054B00221A7400BFB6
:102D900080BD00BF74030120C4030120CC020120C8
:102DA0008803012080B500AF3A4B08221A72394BD4
:102DB00040F201725A60374B01221A70354B0822DB
:102DC0005A72344B62229A72324B0022DA72314BC1
:102DD00002221A73304B1B68DAB22E4B5A732E4BF9
:102DE0005B68DAB22B4B9A732B4B9B68DAB2294B98
:102DF000DA73294BDB68DAB2264B1A742548FEF7E2
:102E00004BFE28212448FFF7BBFC224B00221A70FE
:102E1000204B00225A601F4B00221A721D4B0022C9
:102E20005A721C4B00229A721A4B0022DA72194B0A
:102E300000221A73174B00225A73164B00229A7302
:102E4000144B0022DA73134B00221A74134B002226
:102E50001A70124B00225A60104B00221A720F4B4C
:102E600000225A720D4B00229A720C4B0022DA7229
:102E70000A4B00221A73094B00225A73074B002297
:102E80009A73064B0022DA73044B00221A7400BFB7
:102E900080BD00BF74030120E007012088030120EA
:102EA00080B500AF3A4B08221A72394B40F20172DA
:102EB0005A60374B01221A70354B13225A72344B29
:102EC00062229A72324B0022DA72314B03221A7359
:102ED000304B1B68DAB22E4B5A732E4B5B68DAB25A
:102EE0002B4B9A732B4B9B68DAB2294BDA73294B25
:102EF000DB68DAB2264B1A742548FEF7CDFD442173
:102F00002448FFF73DFC224B00221A70204B002280
:102F10005A601F4B00221A721D4B00225A721C4B22
:102F200000229A721A4B0022DA72194B00221A738D
:102F3000174B00225A73164B00229A73144B00222F
:102F4000DA73134B00221A74134B00221A70124BBF
:102F500000225A60104B00221A720F4B00225A7244
:102F60000D4B00229A720C4B0022DA720A4B00229F
:102F70001A73094B00225A73074B00229A73064BAF
:102F80000022DA73044B00221A7400BF80BD00BF18
:102F9000740301209C0701208803012080B500AF45
:102FA000364B08221A72354B40F201725A60334B8D
:102FB00001221A70314B07225A72304B62229A72E8
:102FC0002E4B0022DA722D4B04221A732C4B1A78E6
:102FD0002A4B5A732A4B5A78284B9A73284B9A7863
:102FE000264BDA73264BDA78244B1A742348FEF703
:102FF00053FD224B00221A70204B00225A601F4BB7
:1030000000221A721D4B00225A721C4B00229A7227
:103010001A4B0022DA72194B00221A73174B002246
:103020005A73164B00229A73144B0022DA73134B17
:1030300000221A74134B00221A70124B00225A609D
:10304000104B00221A720F4B00225A720D4B0022B5
:103050009A720C4B0022DA720A4B00221A73094B47
:1030600000225A73074B00229A73064B0022DA7330
:10307000044B00221A7400BF80BD00BF74030120FE
:10308000B8FD01208803012080B500AF364B08222F
:103090001A72354B40F201725A60334B01221A709A
:1030A000314B07225A72304B62229A722E4BF12218
:1030B000DA722D4B80221A732C4B5A782A4B5A7392
:1030C0002A4B1A78284B9A73284B9A78264BDA7336
:1030D000264BDA78244B1A742348FEF7DDFC224B8A
:1030E00000221A70204B00225A601F4B00221A72D5
:1030F0001D4B00225A721C4B00229A721A4B00225E
:10310000DA72194B00221A73174B00225A73164BAE
:1031100000229A73144B0022DA73134B00221A74A4
:10312000134B00221A70124B00225A60104B0022DF
:103130001A720F4B00225A720D4B00229A720C4BDE
:103140000022DA720A4B00221A73094B00225A73CA
:10315000074B00229A73064B0022DA73044B0022BD
:103160001A7400BF80BD00BF74030120200001203D
:103170008803012080B500AF304B05221A722F4B17
:1031800040F201725A602D4B01221A702B4B04221F
:103190005A722A4B62229A72284BF122DA72274B1A
:1031A00086221A73264B1A78244B5A732348FEF74B
:1031B00073FC224B00221A70204B00225A601F4BD6
:1031C00000221A721D4B00225A721C4B00229A7266
:1031D0001A4B0022DA72194B00221A73174B002285
:1031E0005A73164B00229A73144B0022DA73134B56
:1031F00000221A74134B00221A70124B00225A60DC
:10320000104B00221A720F4B00225A720D4B0022F3
:103210009A720C4B0022DA720A4B00221A73094B85
:1032200000225A73074B00229A73064B0022DA736E
:10323000044B00221A7400BF80BD00BF740301203C
:10324000A8FD01208803012080B500AF364B052280
:103250001A72354B40F201725A60334B01221A70D8
:10326000314B04225A72304B62229A722E4B00224A
:10327000DA722D4B05221A732C4B1A6813469B00E9
:1032800013442B4AA2FB03239B0BDBB21A46120109
:10329000D31A9B00DAB2244B5A732348FEF7FCFB87
:1032A000214B00221A70204B00225A601E4B002234
:1032B0001A721D4B00225A721B4B00229A721A4B33
:1032C0000022DA72184B00221A73174B00225A732D
:1032D000154B00229A73144B0022DA73124B002212
:1032E0001A74144B00221A70124B00225A60114BB0
:1032F00000221A720F4B00225A720E4B00229A7251
:103300000C4B0022DA720B4B00221A73094B00227D
:103310005A73084B00229A73064B0022DA73054B4E
:1033200000221A7400BF80BD74030120ACFD01208F
:1033300073B2E7458803012080B500AF3C4B0822FB
:103340001A723B4B40F201725A60394B01221A70DB
:10335000374B07225A72364B6A229A72354BDB7A08
:10336000042B03D0324B0122DA7206E0314BDB7AB8
:10337000042B02D12E4B0422DA722D4B00221A7339
:103380002D4B1A782A4B5A732C4B1A78284B9A7368
:103390002B4B1A78264BDA73294B5A78244B1A7424
:1033A0002348FEF779FB224B00221A70204B0022A3
:1033B0005A601F4B00221A721D4B00225A721C4B7E
:1033C00000229A721A4B0022DA72194B00221A73E9
:1033D000174B00225A73164B00229A73144B00228B
:1033E000DA73134B00221A74124B00221A70114B1D
:1033F00000225A600F4B00221A720E4B00225A72A2
:103400000C4B00229A720B4B0022DA72094B0022FD
:103410001A73084B00225A73064B00229A73054B0D
:103420000022DA73034B00221A7400BF80BD00BF74
:103430007403012088030120CC020120D80201205E
:103440001C02012080B500AF3D4B08221A723C4B94
:1034500040F201725A603A4B01221A70384B07222F
:103460005A72374B6A229A72364BDB7A042B03D09E
:10347000334B0122DA7206E0324BDB7A042B02D1A5
:103480002F4B0422DA722E4B01221A732E4B1A791B
:103490002B4B5A732D4B1A79294B9A732C4B93F85B
:1034A0003020274BDA732A4B93F83120244B1A74BF
:1034B0002348FEF7F1FA224B00221A70204B00221B
:1034C0005A601F4B00221A721D4B00225A721C4B6D
:1034D00000229A721A4B0022DA72194B00221A73D8
:1034E000174B00225A73164B00229A73144B00227A
:1034F000DA73134B00221A74124B00221A70114B0C
:1035000000225A600F4B00221A720E4B00225A7290
:103510000C4B00229A720B4B0022DA72094B0022EC
:103520001A73084B00225A73064B00229A73054BFC
:103530000022DA73034B00221A7400BF80BD00BF63
:103540007403012088030120CC020120D80201204D
:103550001C02012080B500AF3D4B08221A723C4B83
:1035600040F201725A603A4B01221A70384B07221E
:103570005A72374B6A229A72364BDB7A042B03D08D
:10358000334B0122DA7206E0324BDB7A042B02D194
:103590002F4B0422DA722E4B02221A732E4BDA784A
:1035A0002B4B5A732D4BDA78294B9A732C4B93F88B
:1035B0002420274BDA732A4B93F82520244B1A74C6
:1035C0002348FEF769FA224B00221A70204B002292
:1035D0005A601F4B00221A721D4B00225A721C4B5C
:1035E00000229A721A4B0022DA72194B00221A73C7
:1035F000174B00225A73164B00229A73144B002269
:10360000DA73134B00221A74124B00221A70114BFA
:1036100000225A600F4B00221A720E4B00225A727F
:103620000C4B00229A720B4B0022DA72094B0022DB
:103630001A73084B00225A73064B00229A73054BEB
:103640000022DA73034B00221A7400BF80BD00BF52
:103650007403012088030120CC020120D80201203C
:103660001C02012080B500AF3C4B08221A723B4B74
:1036700040F201725A60394B01221A70374B07220F
:103680005A72364B6A229A72354BDB7A042B03D07E
:10369000324B0122DA7206E0314BDB7A042B02D185
:1036A0002E4B0422DA722D4B03221A732D4B5A78BB
:1036B0002A4B5A732C4B5A78284B9A732B4B1A7BF4
:1036C000264BDA73294B5A7B244B1A742348FEF796
:1036D000E3F9224B00221A70204B00225A601F4B44
:1036E00000221A721D4B00225A721C4B00229A7241
:1036F0001A4B0022DA72194B00221A73174B002260
:103700005A73164B00229A73144B0022DA73134B30
:1037100000221A74124B00221A70114B00225A60B8
:103720000F4B00221A720E4B00225A720C4B0022D1
:103730009A720B4B0022DA72094B00221A73084B63
:1037400000225A73064B00229A73054B0022DA734B
:10375000034B00221A7400BF80BD00BF7403012018
:1037600088030120CC020120D80201201C02012084
:1037700080B500AF3C4B08221A723B4B40F20172FD
:103780005A60394B01221A70374B07225A72364B56
:103790006A229A72354BDB7A042B03D0324B01221A
:1037A000DA7206E0314BDB7A042B02D12E4B042275
:1037B000DA722D4B04221A732D4B9A782A4B5A73C6
:1037C0002C4B9A78284B9A732B4B1A7E264BDA7324
:1037D000294B5A7E244B1A742348FEF75DF9224B7D
:1037E00000221A70204B00225A601F4B00221A72CE
:1037F0001D4B00225A721C4B00229A721A4B002257
:10380000DA72194B00221A73174B00225A73164BA7
:1038100000229A73144B0022DA73134B00221A749D
:10382000124B00221A70114B00225A600F4B0022DB
:103830001A720E4B00225A720C4B00229A720B4BDA
:103840000022DA72094B00221A73084B00225A73C5
:10385000064B00229A73054B0022DA73034B0022B9
:103860001A7400BF80BD00BF7403012088030120CB
:10387000CC020120D80201201C02012080B500AF3B
:103880003C4B08221A723B4B40F201725A60394B92
:1038900001221A70374B07225A72364B6A229A72EB
:1038A000354BDB7A042B03D0324B0122DA7206E06F
:1038B000314BDB7A042B02D12E4B0422DA722D4BD2
:1038C00005221A732D4B9A782A4B5A732B4BDA78B0
:1038D000284B9A732A4B9A78264BDA73284BDA785E
:1038E000244B1A742348FEF7D7F8224B00221A7093
:1038F000204B00225A601F4B00221A721D4B0022DF
:103900005A721C4B00229A721A4B0022DA72194B1F
:1039100000221A73174B00225A73164B00229A7317
:10392000144B0022DA73134B00221A74124B00223C
:103930001A70114B00225A600F4B00221A720E4B64
:1039400000225A720C4B00229A720B4B0022DA7240
:10395000094B00221A73084B00225A73064B0022AF
:103960009A73054B0022DA73034B00221A7400BFCE
:1039700080BD00BF7403012088030120A401012041
:10398000AC01012080B500AF3C4B08221A723B4BC2
:1039900040F201725A60394B01221A70374B0722EC
:1039A0005A72364B6A229A72354BDB7A042B03D05B
:1039B000324B0122DA7206E0314BDB7A042B02D162
:1039C0002E4B0422DA722D4B06221A732D4B1A78D5
:1039D0002A4B5A732B4B5A78284B9A732A4B1A78D6
:1039E000264BDA73284B5A78244B1A742348FEF777
:1039F00053F8224B00221A70204B00225A601F4BB2
:103A000000221A721D4B00225A721C4B00229A721D
:103A10001A4B0022DA72194B00221A73174B00223C
:103A20005A73164B00229A73144B0022DA73134B0D
:103A300000221A74124B00221A70114B00225A6095
:103A40000F4B00221A720E4B00225A720C4B0022AE
:103A50009A720B4B0022DA72094B00221A73084B40
:103A600000225A73064B00229A73054B0022DA7328
:103A7000034B00221A7400BF80BD00BF74030120F5
:103A800088030120A4010120AC01012080B500AF12
:103A9000384B06221A72374B40F201725A60354B8E
:103AA00001221A70334B05225A72324B6A229A72E3
:103AB000314BDB7A042B03D02E4B0122DA7206E065
:103AC0002D4BDB7A042B02D12A4B0422DA72294BCC
:103AD00007221A73294B1A79264B5A73284B1A79E5
:103AE000244B9A732348FDF7D7FF224B00221A700C
:103AF000204B00225A601F4B00221A721D4B0022DD
:103B00005A721C4B00229A721A4B0022DA72194B1D
:103B100000221A73174B00225A73164B00229A7315
:103B2000144B0022DA73134B00221A74124B00223A
:103B30001A70114B00225A600F4B00221A720E4B62
:103B400000225A720C4B00229A720B4B0022DA723E
:103B5000094B00221A73084B00225A73064B0022AD
:103B60009A73054B0022DA73034B00221A7400BFCC
:103B700080BD00BF7403012088030120A40101203F
:103B8000AC01012080B500AF3D4B08221A723C4BBE
:103B900040F201725A603A4B01221A70384B0722E8
:103BA0005A72374B6A229A72364BDB7A042B03D057
:103BB000334B0122DA7206E0324BDB7A042B02D15E
:103BC0002F4B0422DA722E4B08221A732E4BDA790D
:103BD0002B4B5A732D4BDA79294B9A732C4B93F854
:103BE0005420274BDA732A4B93F85520244B1A7430
:103BF0002348FDF751FF224B00221A70204B002270
:103C00005A601F4B00221A721D4B00225A721C4B25
:103C100000229A721A4B0022DA72194B00221A7390
:103C2000174B00225A73164B00229A73144B002232
:103C3000DA73134B00221A74124B00221A70114BC4
:103C400000225A600F4B00221A720E4B00225A7249
:103C50000C4B00229A720B4B0022DA72094B0022A5
:103C60001A73084B00225A73064B00229A73054BB5
:103C70000022DA73034B00221A7400BF80BD00BF1C
:103C80007403012088030120CC020120D802012006
:103C90001C02012080B500AF3D4B08221A723C4B3C
:103CA00040F201725A603A4B01221A70384B0722D7
:103CB0005A72374B6A229A72364BDB7A042B03D046
:103CC000334B0122DA7206E0324BDB7A042B02D14D
:103CD0002F4B0422DA722E4B09221A732E4B1A7ABA
:103CE0002B4B5A732D4B1A7A294B9A732C4B93F802
:103CF0006020274BDA732A4B93F86120244B1A7407
:103D00002348FDF7C9FE224B00221A70204B0022E7
:103D10005A601F4B00221A721D4B00225A721C4B14
:103D200000229A721A4B0022DA72194B00221A737F
:103D3000174B00225A73164B00229A73144B002221
:103D4000DA73134B00221A74124B00221A70114BB3
:103D500000225A600F4B00221A720E4B00225A7238
:103D60000C4B00229A720B4B0022DA72094B002294
:103D70001A73084B00225A73064B00229A73054BA4
:103D80000022DA73034B00221A7400BF80BD00BF0B
:103D90007403012088030120CC020120D8020120F5
:103DA0001C02012080B500AF3D4B08221A723C4B2B
:103DB00040F201725A603A4B01221A70384B0722C6
:103DC0005A72374B6A229A72364BDB7A042B03D035
:103DD000334B0122DA7206E0324BDB7A042B02D13C
:103DE0002F4B0422DA722E4B0A221A732E4B5A7969
:103DF0002B4B5A732D4B5A79294B9A732C4B93F8B2
:103E00003C20274BDA732A4B93F83D20244B1A743D
:103E10002348FDF741FE224B00221A70204B00225E
:103E20005A601F4B00221A721D4B00225A721C4B03
:103E300000229A721A4B0022DA72194B00221A736E
:103E4000174B00225A73164B00229A73144B002210
:103E5000DA73134B00221A74124B00221A70114BA2
:103E600000225A600F4B00221A720E4B00225A7227
:103E70000C4B00229A720B4B0022DA72094B002283
:103E80001A73084B00225A73064B00229A73054B93
:103E90000022DA73034B00221A7400BF80BD00BFFA
:103EA0007403012088030120CC020120D8020120E4
:103EB0001C02012080B500AF3D4B08221A723C4B1A
:103EC00040F201725A603A4B01221A70384B0722B5
:103ED0005A72374B6A229A72364BDB7A042B03D024
:103EE000334B0122DA7206E0324BDB7A042B02D12B
:103EF0002F4B0422DA722E4B0B221A732E4B9A7917
:103F00002B4B5A732D4B9A79294B9A732C4B93F860
:103F10004820274BDA732A4B93F84920244B1A7414
:103F20002348FDF7B9FD224B00221A70204B0022D6
:103F30005A601F4B00221A721D4B00225A721C4BF2
:103F400000229A721A4B0022DA72194B00221A735D
:103F5000174B00225A73164B00229A73144B0022FF
:103F6000DA73134B00221A74124B00221A70114B91
:103F700000225A600F4B00221A720E4B00225A7216
:103F80000C4B00229A720B4B0022DA72094B002272
:103F90001A73084B00225A73064B00229A73054B82
:103FA0000022DA73034B00221A7400BF80BD00BFE9
:103FB0007403012088030120CC020120D8020120D3
:103FC0001C02012080B500AF2E4B03221A722D4B2C
:103FD00040F201725A602B4B01221A70294B0222C7
:103FE0005A72284B50229A72264B0122DA72264BC3
:103FF00000221A702348FDF74FFD224B00221A7051
:10400000204B00225A601F4B00221A721D4B0022C7
:104010005A721C4B00229A721A4B0022DA72194B08
:1040200000221A73174B00225A73164B00229A7300
:10403000144B0022DA73134B00221A74134B002224
:104040001A70124B00225A60104B00221A720F4B4A
:1040500000225A720D4B00229A720C4B0022DA7227
:104060000A4B00221A73094B00225A73074B002295
:104070009A73064B0022DA73044B00221A7400BFB5
:1040800080BD00BF74030120A8FD0120880301202A
:1040900080B500AF2E4B03221A722D4B40F20172F5
:1040A0005A602B4B01221A70294B02225A72284B5C
:1040B00050229A72264B0322DA72264B01221A7082
:1040C0002348FDF7E9FC224B00221A70204B002206
:1040D0005A601F4B00221A721D4B00225A721C4B51
:1040E00000229A721A4B0022DA72194B00221A73BC
:1040F000174B00225A73164B00229A73144B00225E
:10410000DA73134B00221A74134B00221A70124BED
:1041100000225A60104B00221A720F4B00225A7272
:104120000D4B00229A720C4B0022DA720A4B0022CD
:104130001A73094B00225A73074B00229A73064BDD
:104140000022DA73044B00221A7400BF80BD00BF46
:1041500074030120A8FD01208803012080B500AF71
:104160000F4B03221A720E4B40F201725A600C4B35
:1041700001221A700A4B02225A72094B50229A727B
:10418000074B0222DA72074B02221A700448FDF72D
:1041900083FC01F013F8002001F07EF900BF80BD20
:1041A00074030120A8FD012080B500AF0F4B03224E
:1041B0001A720E4B40F201725A600C4B01221A70B7
:1041C0000A4B02225A72094B51229A72074B012262
:1041D000DA72074B05221A700448FDF75DFC00F007
:1041E000EDFF002001F058F900BF80BD74030120ED
:1041F000A8FD012080B500AF0F4B03221A720E4BB1
:1042000040F201725A600C4B01221A700A4B0222D2
:104210005A72094B51229A72074B0322DA72074BEA
:1042200006221A700448FDF737FC00F0C7FF002093
:1042300001F032F900BF80BD74030120A8FD012008
:1042400080B500AF3F4B02221A723E4B40F2017222
:104250005A603C4B01221A703A4B01225A72394B78
:1042600054229A721422002137480CF0E1FF3822C0
:10427000002136480CF0DCFF5822002134480CF0B5
:10428000D7FF2422002133480CF0D2FF0C2200215A
:1042900031480CF0CDFF0C22002130480CF0C8FF53
:1042A000082200212E480CF0C3FF4FF4B672002103
:1042B0002C480CF0BDFF2348FDF7EEFB214B0022FC
:1042C0001A70204B00225A601E4B00221A721D4B9E
:1042D00000225A721B4B00229A721A4B0022DA7289
:1042E000184B00221A73174B00225A73154B0022E9
:1042F0009A73144B0022DA73124B00221A741A4B71
:1043000000221A70184B00225A60174B00221A72B2
:10431000154B00225A72144B00229A72124B002243
:10432000DA72114B00221A730F4B00225A730E4B94
:1043300000229A730C4B0022DA730B4B00221A7482
:1043400000BF80BD74030120E8030120C0FD0120EF
:10435000F8FD0120180301203C030120FC05012089
:104360001C060120780401208803012080B500AFDD
:1043700072B600BF0F4B08221A720E4B40F2017248
:104380005A600C4B01221A700A4B02225A72094BD6
:1043900059229A72074B0A22DA720648FDF77CFB13
:1043A0004FF4B6710448FEF7EBF962B600BF00BFE8
:1043B00080BD00BF740301207804012080B582B065
:1043C00000AF834B1B680133814A1360814B1B682C
:1043D000002B02D1804B00221A70804B9B7A3E2B1F
:1043E00001D1FEF751FB7D4B9B7A282B01D1FEF7C3
:1043F000D9FA7A4B9B7A852B01D1FEF761FA774B7C
:104400009B7A102B29D1754BDB7A012B01D1FFF759
:10441000D9FD724BDB7A032B01D1FFF739FE6F4BCD
:10442000DB7A022B05D16C4B1B78012B01D1FFF7F6
:1044300095FE6A4BDB7A042B05D1674B1B78012B69
:1044400001D1FEF7EFFB654BDB7A052B05D1624B03
:104450001B78012B01D1FEF70BFC604B1B7B862BDD
:1044600009D15E4BDB7AF12B05D15C4B9B7A222B79
:1044700001D1FEF77FFE594B9B7A112B09D1574B87
:10448000DB7A012B05D1554B5B7A022B01D1FFF76B
:104490008BFE524B9B7A112B09D1504BDB7A032BAD
:1044A00005D14E4B5B7A022B01D1FFF7A3FE4B4B9C
:1044B0009B7A142B01D1FFF7C3FE484B9B7A192B33
:1044C00001D1FFF753FF444B1B78012B40F0FD80D7
:1044D000424B9B7A2E2B09D1404BDB7A002B05D126
:1044E0003E4B1B7B002B01D1FEF72EFB3B4B9B7AF7
:1044F0002A2B69D1394BDB7A042B2FD1374B1B7B0D
:104500001946374A0B465B000B449B0013440022BC
:104510001A70324B1B7B1946314A0B465B000B4429
:104520009B001344043300221A602C4B1B7B19465A
:104530002B4A0B465B000B449B00134401330422BF
:104540001A70264B1B7B1946254A0B465B000B4411
:104550009B00134408331B68984735E01F4BDB7AF8
:10456000042B31D01D4B1B7B19461D4A0B465B00AB
:104570000B449B00134401221A70184B1B7B1946F5
:10458000164BD87A164A0B465B000B449B0013442B
:10459000013302461A70114B1B7B18460D4B1A68EB
:1045A0000F4903465B0003449B000B4404331A602D
:1045B0000A4B1B7B19460A4A0B465B000B449B00C7
:1045C000134408331B6898470023FB7148E000BF81
:1045D000ACFD01205C040120A8FD0120880301201E
:1045E00024000120FA79944913465B0013449B0090
:1045F0000B441B78012B30D1904B1968FA798E4807
:1046000013465B0013449B00034404331B68C91A20
:10461000FA79894813465B0013449B000344013335
:104620001B781A46FA2393FBF2F3994215D9FA79CB
:10463000814913465B0013449B000B4408331B68FD
:104640009847FA797D4B19687B4813465B00134401
:104650009B0003440433196005E0FB790133FB71CF
:10466000FB79072BBED9764B9B7A222B40F09880A2
:10467000734BDB7A002B1DD1714B1B7B012B01D1BE
:10468000FEF71CFB6E4B1B7B022B01D1FEF78AFB56
:104690006B4B1B7B032B01D1FEF702FC684B1B7B92
:1046A000042B01D1FEF77AFC654B1B7B052B01D156
:1046B000FEF7CAFD624BDB7AF12B71D1604B1B7B9D
:1046C000802B6DD1FEF7E0FC6AE05D4B9B7A222BDC
:1046D0000BD05B4B9B7A102B62D1594BDB7A012BB1
:1046E00003D1574BDB7A032B5AD0564B04221A7254
:1046F000544B40F201725A60524B01221A70514BD6
:1047000003225A724F4B7F229A724E4B1922DA7251
:104710004C4B22221A734B48FDF7BEF9494B00223D
:104720001A70484B00225A60464B00221A72454BC1
:1047300000225A72434B00229A72424B0022DA72D4
:10474000404B00221A733F4B00225A733D4B00220C
:104750009A733C4B0022DA733A4B00221A74384B9E
:1047600000221A70364B00225A60354B00221A7212
:10477000334B00225A72324B00229A72304B002285
:10478000DA722F4B00221A732D4B00225A732C4BD6
:1047900000229A732A4B0022DA73294B00221A74E2
:1047A000284B00221A70274B00225A60254B00220A
:1047B0001A72244B00225A72224B00229A72214B09
:1047C0000022DA721F4B00221A731E4B00225A730A
:1047D0001C4B00229A731B4B0022DA73194B0022E8
:1047E0001A74174B00221A70154B00225A60144B92
:1047F00000221A72124B00225A72114B00229A7236
:104800000F4B0022DA720E4B00221A730C4B00225F
:104810005A730B4B00229A73094B0022DA73084B30
:1048200000221A74054B1B680133044A136000BF51
:104830000837BD4680BD00BF240001205C04012074
:10484000880301207403012090B583B000AF0346B4
:104850000A46FB711346BB7172B600BF634B1B78EF
:10486000002B40F0BC80FA7961491346DB009B1AAB
:104870009B000B441B68022B00F2A480BB79012B28
:1048800040F0A080FA795A491346DB009B1A9B003E
:104890000B4404331B68002B40F09480554B0122DD
:1048A0001A70544B4FF486725A60524B01221A729E
:1048B000504AFB7953724F48FDF7EEF8FA79B9790F
:1048C0004B481346DB009B1A9B00034404331960DA
:1048D000FA79F97946480B46DB005B1A9B000344E2
:1048E0001968454B1C7842481346DB009B1A9B0015
:1048F00003440B44143322461A70FA79F9793C4880
:104900000B46DB005B1A9B00034419683B4B1C7889
:1049100037481346DB009B1A9B0003440B440E33BD
:1049200022461A70364B1C68FA79F97930480B46E2
:10493000DB005B1A9B0003441968E4B22C48134661
:10494000DB009B1A9B0003440B44113322461A7070
:10495000FA79F97926480B46DB005B1A9B00034481
:104960001968284B1C7822481346DB009B1A9B00D1
:1049700003440B44083322461A70FA79F9791C482B
:104980000B46DB005B1A9B00034419681A4B1C7929
:1049900017481346DB009B1A9B0003440B44173354
:1049A00022461A70FA7912491346DB009B1A9B00C3
:1049B0000B441B68591C0E481346DB009B1A9B00D6
:1049C00003441960BB79002B09D1FA7908491346D1
:1049D000DB009B1A9B000B44043300221A6062B672
:1049E00000BF00BF0C37BD4690BD00BF740401205E
:1049F0007804012060040120CC0201200C03012076
:104A0000ACFD01200D03012080B483B000AF7860BD
:104A1000044B01221A7000BF0C37BD465DF8047BC1
:104A2000704700BFE405012080B582B000AF786018
:104A3000134803F021F80346124A1360114B1B6818
:104A4000042B12D0042B16D8012B02D0022B06D037
:104A500011E00D4B1B6801330B4A13600BE00A4B4E
:104A60005B680133084A536005E0074B9B680133DC
:104A7000054A936000BF00BF0837BD4680BD00BF38
:104A80002C08012008060120FC05012080B582B019
:104A900000AF934802F0F0FF0346924A1360914B37
:104AA0001B68002B03D08E48FFF7BEFF56E10023A2
:104AB000FB7107E0FB798C4A002142F82310FB7957
:104AC0000133FB71FB79022BF4D947E1874B1B784B
:104AD000092B00F2FD8001A252F823F0054B0608D5
:104AE000334B0608614B06088F4B0608BD4B060882
:104AF000EB4B0608194C0608474C0608754C06088F
:104B0000A34C060801224FF48071794804F0B8F9EB
:104B100000224FF48061774804F0B2F9002210219E
:104B2000744804F0ADF900222021724804F0A8F97D
:104B3000CFE000224FF480716D4804F0A1F901220A
:104B40004FF480616B4804F09BF900221021694802
:104B500004F096F900222021664804F091F9B8E0AB
:104B600001224FF48071624804F08AF901224FF467
:104B70008061604804F084F9002210215D4804F04F
:104B80007FF9002220215B4804F07AF9A1E000229D
:104B90004FF48071564804F073F900224FF480619D
:104BA000544804F06DF901221021524804F068F9CC
:104BB000002220214F4804F063F98AE001224FF4DB
:104BC00080714B4804F05CF900224FF48061494841
:104BD00004F056F901221021464804F051F9002250
:104BE0002021444804F04CF973E000224FF4807116
:104BF0003F4804F045F901224FF480613D4804F03C
:104C00003FF9012210213B4804F03AF9002220210B
:104C1000384804F035F95CE001224FF480713448E3
:104C200004F02EF901224FF48061324804F028F993
:104C3000012210212F4804F023F9002220212D48C1
:104C400004F01EF945E000224FF48071284804F07A
:104C500017F900224FF48061264804F011F9002270
:104C60001021244804F00CF901222021214804F0ED
:104C700007F92EE001224FF480711D4804F000F97D
:104C800000224FF480611B4804F0FAF80022102142
:104C9000184804F0F5F801222021164804F0F0F835
:104CA00017E000224FF48071114804F0E9F8012266
:104CB0004FF480610F4804F0E3F8002210210D4802
:104CC00004F0DEF8012220210A4804F0D9F800E0BF
:104CD00000BF034802F0CAFA074B00221A7012E024
:104CE0002C0801200C060120FC05012010060120E3
:104CF0000000024000040240E4050120384B1B681C
:104D00000133374A1360374B1B78002B05D1344BE6
:104D10001B6844F61F629342F0D9314B1B6844F67E
:104D20002062934203D10E210A20FFF78DFD2C4B08
:104D300000221A602C4802F007FD01462B4B1B781D
:104D40001A4689B22A4B23F81210274802F070FB4A
:104D5000264B1B780133DAB2244B1A70234B1B7895
:104D6000092B7FF6B3AE214B1B780A2B02D11F4BC8
:104D700000221A701E4B1B881A461E4B1A601C4BD1
:104D80005B881A461B4B5A60194B9B881A46194B75
:104D90009A60174B9B891A46164BDA60144BDB89D5
:104DA0001A46144B1A61124B1B8A1A46114B5A6150
:104DB0000F4B1B891A460F4B9A610D4BDB881A4625
:104DC0000C4BDA610A4B5B8A1A460A4B1A620A4B91
:104DD0001B680133084A136000BF0837BD4680BD19
:104DE00014060120E40501202C08012010060120F2
:104DF000E8050120F00101201806012080B500AF70
:104E0000284B1B68002B27D10021274806F008FA01
:104E10000021264806F004FA0421244806F000FA8E
:104E20000821224806F0FCF90C21204806F0F8F988
:104E30001D4B1B6800225A631C4B1B6800225A63DF
:104E40001A4B1B6800229A63184B1B680022DA6316
:104E5000164B1B6800221A64134807F02DF903460D
:104E6000042B05D1124B1B680133114A136002E079
:104E70000F4B00221A600D4807F01EF90346042B61
:104E800005D10B4B5B680133094A536002E0084BC4
:104E900000225A60034B1B680133024A136000BFB3
:104EA00080BD00BF24060120700B0120240C0120CE
:104EB0001C06012080B582B000AF5B228549864880
:104EC00000F0A0FA11228549854800F09BFA0A22D9
:104ED0008449854800F096FA7E4B1B68B3F1FF3F8A
:104EE00006D14FF4B67200217A480CF0A1F908E01F
:104EF0007E4A784B104619464FF4B6731A460CF0AA
:104F00001FFA764B1B68B3F1FF3F74D1784B1B68D7
:104F10009AB2784B1A80764B5B689AB2754B5A807E
:104F2000734B9B689AB2734B9A80714BDB689AB251
:104F3000704BDA806E4B1B699AB26E4B1A816C4BC8
:104F40005B699AB26B4B5A81694B9B699AB2694B08
:104F50009A81674BDB699AB2664BDA81644B1B6AB4
:104F60009AB2644B1A82624B5B6A9AB2614B5A8264
:104F70005F4B9B6A9AB2604B1A805D4BDB6A40F6CE
:104F8000B83202FB03F35D4AA2FB0323DB099AB2AA
:104F90005B4B1A80564B1B6BDAB25A4B1A70544B50
:104FA0005B6BDAB2584B1A70514B9B6BDAB2574BB2
:104FB0001A704F4BDB6BDAB2554B1A704C4B1B6CB3
:104FC000DAB2544B1A700023FB710AE0FA79FB79CC
:104FD000474951F82220504941F82320FB790133F9
:104FE000FB71FB79102BF1D90223112240493C4877
:104FF00000F0B2F965E0394B1B689AB23D4B1A805C
:10500000364B5B689AB23B4B5A80344B9B689AB2E2
:10501000384B9A80314BDB689AB2364BDA802F4B93
:105020001B699AB2334B1A812C4B5B699AB2314B94
:105030005A812A4B9B699AB22E4B9A81274BDB6986
:105040009AB22C4BDA81254B1B6A9AB2294B1A82F1
:10505000224B5B6A9AB2274B5A82204B9B6A9AB2C8
:10506000254B1A801D4BDB6A9AB2254B1A801B4BCD
:105070001B6BDAB2234B1A70184B5B6BDAB2224B04
:105080001A70164B9B6BDAB2214B1A70134BDB6B09
:10509000DAB21E4B1A70114B1B6CDAB21D4B1A7030
:1050A0000023BB710AE0BA79BB790C4951F8222080
:1050B000194941F82320BB790133BB71BB79102B0F
:1050C000F1D9084B1B68B3F1FF3F46D100237B7138
:1050D0002FE000BF30060120000001089C070120DE
:1050E00000800008E007012000C0000878040120CB
:1050F000B4000120D8010120D401012081808080EA
:10510000D2010120D1010120D00101209D01012007
:105110009C0101209E0101201C0401207A797B79E9
:105120001F4951F822201F4941F823207B79013380
:105130007B717B79092BF1D9194B1B6ADAB21A4BB7
:105140001A70174B5B6ADAB2184B1A7003230A22E3
:105150001349174800F000F91AE000233B710AE0F8
:105160003A793B79134951F822200E4941F823201E
:105170003B7901333B713B79092BF1D90D4B1B6A0C
:10518000DAB2094B1A700B4B5B6ADAB2074B1A7032
:10519000094B01221A7000BF0837BD4680BD00BF11
:1051A000F8000120E40201209F010120A00101205C
:1051B00000C00008E00701202D06012080B582B064
:1051C00000AF0023FB7117E0FB793B4A52F8232024
:1051D000FB793A4951F823309A420AD0384B0122E0
:1051E0001A70FA79FB79344951F82220334941F891
:1051F0002320FB790133FB71FB79102BE4D9304B71
:105200001B78012B08D12E4B00221A700223112289
:105210002A492C4800F0A0F80023BB7134E0BA7989
:1052200029491346DB009B1A9B000B441968BA7985
:1052300026481346DB009B1A9B0003441B689942D7
:105240001FD0234B01221A70BA791F491346DB0085
:105250009B1A9B000B44043300221A60BA791B4945
:105260001346DB009B1A9B000B44043300221A6098
:10527000154A164B104619464FF4B6731A460CF0F1
:105280005FF8BB790133BB71BB790C2BC7D9104BCD
:105290001B78012B08D10E4B00221A7004235B22CD
:1052A00009490C4800F058F80B4B01221A7000BF56
:1052B0000837BD4680BD00BF1C0401209C070120AB
:1052C0000908012000800008300601207804012030
:1052D00008080120000001082E06012080B500AF5B
:1052E000194B1B78032B07D1184B1B78002B03D1CC
:1052F000174B01221A7006E0134B1B78022B02D1C8
:10530000124B00221A70124B1B78002B02D0012B7B
:1053100009D011E00E4B02221A70FFF7CBFD0C4BA7
:1053200003221A7008E00A4B02221A70FFF746FFA8
:10533000074B03221A7000BF064B1B680133054A56
:10534000136000BF80BD00BF210801202E06012090
:105350002C06012028060120B0B588B000AFF86007
:10536000B9603B601346FB800023FB613B68BB6177
:105370003B687B6102F05AFF214B00221A60204BF0
:1053800002221A611E4ABB6993607A69BB69D31A0B
:1053900001331B4AD36007F110031946184803F084
:1053A0002FF90346002B1FD002F072FF034622E0C4
:1053B000FB699B00BA6813441B6800221C46154613
:1053C00022462B46F968022002F01AFE0346002B03
:1053D00006D1FB680433FB60FB690133FB6103E02A
:1053E00002F056FF034606E0FB88FA699A42DFD3D3
:1053F00002F03EFF002318462037BD46B0BD00BF77
:105400000C08012080B487B000AFF860B960134683
:10541000FB800023FB820EE0FB8A9B001A46FB68A0
:1054200013441946FB8A9B00BA6813440A681A6041
:10543000FB8A0133FB82FA8AFB889A42ECD300BFD5
:1054400000BF1C37BD465DF8047B704780B400AFD9
:10545000BFF34F8F00BF064BDB6803F4E0620449E3
:10546000044B1343CB60BFF34F8F00BF00BFFDE77A
:1054700000ED00E00400FA0580B500AF00F014FA7A
:1054800000F030F8034B1B680133024A136000BF81
:1054900080BD00BF2408012080B582B000AF034664
:1054A000FB7172B600BFFB79002B14D00B4B0022AE
:1054B0001A60FB790A490733FA7901F83320FA793F
:1054C0000749D31DDB000B445B68591C0448D31DFE
:1054D000DB0003445960FFF7B9FF00BFACFD0120BA
:1054E000C0FD012080B582B000AF0023FB71904B5E
:1054F0005B6F03F00053002B46D08E4B1B78072BBD
:105500000CD88C4B1B781A468B4B21219954894B14
:105510001B780133DAB2874B1A700EE0854B0022FC
:105520001A70844B1B781A46834B21219954814B66
:105530001B780133DAB27F4B1A70804B1B78072B34
:105540000CD87E4B1B781A467D4B352199547B4BEA
:105550001B780133DAB2794B1A700EE0774B0022D8
:105560001A70764B1B781A46754B35219954734B3C
:105570001B780133DAB2714B1A706D4B5B6F6C4A5A
:1055800043F00053536732E0694B5B6F03F0805385
:10559000002B2CD0694B1B78013B694AD35C332B21
:1055A0001FD0664B1B78072B0CD8644B1B781A4610
:1055B000634B34219954614B1B780133DAB25F4B52
:1055C0001A700EE05D4B00221A705C4B1B781A4675
:1055D0005B4B34219954594B1B780133DAB2574B4A
:1055E0001A70534B5B6F524A43F080535367504BD2
:1055F0005B6F4F4A43F0807353670023BB7138E001
:10560000BB79504A52F82330002B2FD04E4B2D221D
:1056100083F868214C4BD3F86C3101334A4AC2F805
:105620006C31444B1B78072B0CD8424B1B781A4625
:10563000414B112199543F4B1B780133DAB23D4B5A
:105640001A700EE03B4B00221A703A4B1B781A4638
:10565000394B11219954374B1B780133DAB2354B52
:105660001A70BB79374A002142F82310BB79013305
:10567000BB71BB79082BC3D900237B71AFE07B7969
:10568000324A52F82330002B2FD02F4B322283F88E
:1056900090212D4BD3F8943101332B4AC2F8943129
:1056A000244B1B78072B0CD8224B1B781A46224B15
:1056B000162199541F4B1B780133DAB21D4B1A7017
:1056C0000EE01C4B00221A701A4B1B781A461A4B1C
:1056D00016219954174B1B780133DAB2154B1A7007
:1056E0007B791A4A002142F823107B79184A52F834
:1056F0002330002B42D0144B302283F88021124BF0
:10570000D3F884310133104AC2F88431094B1B7835
:10571000072B1FD8074B1B781A46074B14219954A7
:10572000044B1B780133DAB2024B1A7021E000BF40
:105730000038024051FE0120B0FD012050FE012042
:10574000B8FD012018030120C0FD01203C03012009
:10575000FC0501204F4B00221A704E4B1B781A4655
:105760004D4B142199544B4B1B780133DAB2494B02
:105770001A707B79494A002142F823107B79012B6A
:105780002AD87B79464A52F82330002B24D0414B4B
:105790001B78072B0CD83F4B1B781A463E4B152124
:1057A00099543C4B1B780133DAB23A4B1A700EE035
:1057B000384B00221A70374B1B781A46364B15218E
:1057C0009954344B1B780133DAB2324B1A707B791F
:1057D000334A002142F823107B7901337B717B79B6
:1057E000022B7FF64CAF00233B714AE03B792D4AF8
:1057F0000733DB0013445B68002B35D00C210A20F3
:10580000FFF722F8234B1B78072B11D83B79254A49
:10581000073312F833301F4A12780B3BD9B21E4BB4
:1058200099541C4B1B780133DAB21A4B1A7013E0EF
:10583000184B00221A703B791A4A073312F833309A
:10584000144A12780B3BD9B2134B9954114B1B7865
:105850000133DAB20F4B1A703B79124A0733DB007F
:10586000134400225A6009E0FB790133FB71FB7994
:105870000C2B03D100210A20FEF7E6FF3B79013310
:105880003B713B790B2BB1D900BF00BF0837BD4638
:1058900080BD00BF51FE0120B0FD0120FC050120AC
:1058A0001C060120C0FD012080B500AF2C4B1B78E9
:1058B000042B01D100F060F8294B1B78002B05D197
:1058C000274B02221A70274B00221A60264B1B78A6
:1058D000022B0BD0254BDB88B3F5C87F06D2012104
:1058E000234803F0ADFA0346012B05D11C4B0222DD
:1058F0001A701C4B00221A601B4B1B78002B12D114
:105900001A4BDB88B3F5C87F0DD2154B1B78022BE1
:1059100009D10121164803F093FA0346002B02D166
:105920000F4B03221A700E4B1B78032B16D10D4B15
:105930001B68002B03D10F4B1B680A4A13600D4BE9
:105940001A68084B1B68D31AB3F5FA6F06D9054BD2
:105950001B68002B02D0024B04221A7000BF80BDCE
:10596000210801202808012048030120E805012022
:10597000000002402408012080B500AF72B600BFCD
:10598000FBF7E0FF4FF4807003F0A6FA03F0C0FAD3
:1059900000BF80BD80B584B000AF3B4600221A60D6
:1059A0005A609A60DA60214B214A1A601F4B4FF40B
:1059B00080325A601D4B00229A601C4B00221A61F3
:1059C0001A4B00221A76194B002283F82020174B1D
:1059D0000022DA62154B174A9A62144B0022DA60F1
:1059E000124B0122DA61114B002283F830200F4B59
:1059F00001225A610D4801F0B7FA0346002B01D08D
:105A000000F01AFD04233B6001237B600723BB6089
:105A10003B461946054801F0B9FE0346002B01D06C
:105A200000F00AFD00BF1037BD4680BD2C080120E4
:105A3000002001400100000F80B58AB000AF7860FF
:105A400007F1140300221A605A609A60DA601A6142
:105A50007B681B68174A934227D100233B61164B92
:105A60005B6C154A43F480735364134B5B6C03F413
:105A700080733B613B690023FB600F4B1B6B0E4A3D
:105A800043F0010313630C4B1B6B03F00103FB603A
:105A9000FB6810237B610323BB610023FB6107F1DB
:105AA00014031946054802F033FF00BF2837BD46EE
:105AB00080BD00BF002001400038024000000240CD
:105AC00080B500AF034B00221A60034805F012FABC
:105AD00000BF80BD340A0120D80C012080B400AF83
