:020000040806EC
:1000000000FC0120355F0608FD5706080B5806085E
:100010001958060827580608355806080000000039
:10002000000000000000000000000000A1C206085F
:100030004358060800000000F1C40608B9B80608D5
:10004000855F060851580608855F0608855F060823
:10005000635806086F580608855F0608855F06081E
:10006000855F0608855F0608855F0608855F0608C8
:10007000855F0608855F0608855F0608855F0608B8
:10008000855F0608855F06087D58060800000000A9
:10009000000000000000000000000000855F06086E
:1000A000855F0608855F0608855F0608855F060888
:1000B00091580608A5580608B9580608855F06082D
:1000C000855F0608855F0608855F0608CD58060827
:1000D000855F0608E1580608855F060800000000F5
:1000E000855F0608855F0608855F0608000000003A
:1000F000000000000000000000000000855F06080E
:1001000000000000855F0608F5580608855F0608B0
:1001100000000000000000000000000000000000DF
:10012000855F0608855F0608855F0608855F060807
:10013000855F0608000000000000000000000000CD
:10014000000000000000000000000000855F0608BD
:10015000855F0608855F0608855F0608855F0608D7
:10016000855F0608855F06080000000000000000AB
:10017000000000000000000000000000000000007F
:1001800000000000095906080000000000000000FF
:08019000855F0608855F060883
:1001A00010B5054C237833B9044B13B10448AFF3B1
:1001B00000800123237010BD3001012000000000E9
:1001C0004CEC060808B5034B1BB103490348AFF3D9
:1001D000008008BD00000000340101204CEC06083E
:1001E00053B94AB9002908BF00281CBF4FF0FF319E
:1001F0004FF0FF3000F088B9ADF1080C6DE904CE86
:1002000000F006F8DDF804E0DDE9022304B07047F1
:100210002DE9F047089D8E4604468846002B4AD1BA
:100220008A42174662D9B2FA82F64EB1C6F120036D
:1002300001FA06F820FA03F3B74043EA0808B4408D
:100240004FEA174E1FFA87FCB8FBFEF1230C0EFB9A
:10025000118843EA084301FB0CF29A4209D9FB18C2
:1002600001F1FF3080F0EA809A4240F2E7800239E3
:100270003B449A1AA3B2B2FBFEF00EFB102243EAF3
:10028000024300FB0CFC9C4509D9FB1800F1FF322E
:1002900080F0D6809C4540F2D3803B44023840EA4F
:1002A0000140A3EB0C0300211DB1F3400022C5E97E
:1002B0000032BDE8F0878B4205D90DB1C5E90001D8
:1002C00000210846F5E7B3FA83F1002946D17345CA
:1002D00002D3824200F20581841A6EEB03020120F0
:1002E0009046002DE5D0C5E90048E2E7002A00F07D
:1002F0009080B2FA82F6002E40F0A4808A1A030C95
:100300004FEA174E80B2BCB20121B2FBFEFC0EFBDD
:100310001C2243EA024304FB0CF29A4207D9FB1861
:100320000CF1FF3802D29A4200F2E080C4469B1AD8
:10033000B3FBFEF20EFB123340EA034302FB04F46C
:100340009C4207D9FB1802F1FF3002D29C4200F216
:10035000CA8002461B1B42EA0C40A5E7C1F12006F9
:100360008B4022FA06F71F430EFA01F420FA06F337
:100370002EFA06FE4FEA1749234300FA01F81FFA46
:1003800087FCBEFBF9F01C0C09FB10EE44EA0E449E
:1003900000FB0CFEA64502FA01F209D93C1900F156
:1003A000FF3A80F09C80A64540F2998002383C4498
:1003B000A4EB0E041FFA83FEB4FBF9F309FB13440C
:1003C0004EEA044403FB0CFCA44508D93C1903F194
:1003D000FF3E80F08280A4457FD9023B3C4443EA43
:1003E0000040A4EB0C04A0FB02EC64457346E1461C
:1003F00062D35FD05DB1B8EB030264EB090404FA89
:1004000006F622FA01F31E43CC40C5E90064002140
:100410004FE7B1FBF2FC010C41EA0E4180B240EA29
:1004200001423B4638463C46B846BE462026B1FB14
:10043000F7F1A2EB080241EA0C4166E7014618E732
:1004400010462CE7C6F120022EFA02F3B740B14065
:1004500020FA02F24FEA174E0A43B3FBFEF8BCB291
:100460000EFB1833110C41EA034108FB04F9B040BC
:1004700089454FEA104380B23ED9791808F1FF3C14
:1004800001D289451FD8A1EB0901B1FBFEF909FB97
:1004900004F80EFB191192B242EA0142424529D2F8
:1004A000BA1809F1FF31C4D24245C2D2A9F1020102
:1004B0003A44BEE7F0459DD2BEEB02036CEB070C5D
:1004C0000138E14696E7A7EB09094944A8F1020C77
:1004D000B1FBFEF909FB04F8DBE773467FE7504602
:1004E00066E70846FDE63B44023A33E7ACF1020C0E
:1004F0003B441CE749469CE7A1EB0901C446B1FB1C
:10050000FEF909FB04F8C4E7704700BF80B400AFF0
:10051000734B1B69032B02D1724B01221A70724B71
:100520001B78002B33D16F4B1B78012B2BD16C4BDD
:100530001B69002B09D16D4B1B69002B05D06B4B40
:1005400003221A61664B03221A61694B64221A70F6
:10055000684B1B680133674A1360664B1B68664A29
:10056000934240F28F80624B00221A70614B00224E
:100570001A605B4B00221A615C4B00221A61594BD6
:1005800000221A707EE05A4B00221A707AE0544B17
:100590001B69032B05D1524B00221A61534B0022D9
:1005A0001A61504B00221A70544B1B78002B0DD14E
:1005B0004D4B1B781A46920013441A4691001A4676
:1005C0000B461344DAB24A4B1A705BE0464B1B7879
:1005D0005B08DBB20133DAB2494B1A70494B1B7826
:1005E000022B03D1484B02221A7002E0464B012233
:1005F0001A70464B1B78002B07D1454B1B78002BFC
:1006000003D1444B01221A701AE0404B1B781A4662
:100610003F4B1B78D31A002BB8BF5B42102B03DD76
:100620003C4B12221A700BE0384B1B781A46384BA1
:100630001B78D31A002BB8BF5B42DAB2354B1A7065
:10064000344B1B781A46304B1B7813442C4A1278D3
:100650001344DBB2DB00DAB2254B1A70244B1B7853
:100660002D4AA2FB03239B08DBB21A4692001344D7
:10067000DAB21F4B1A701C4B1B78002B02D11C4B9B
:1006800000221A701A4B1B78002B1FD0184B1B78B6
:100690001A46224B1B685B6B9A4207D91F4B1B689B
:1006A0005A6B1E4B1B6805325A6313E0104B1B78C4
:1006B0001A461A4B1B685B6B9A420BD2174B1B688E
:1006C0005A6B164B1B68053A5A6303E0134B1B68C1
:1006D00000225A6300BFBD465DF8047B704700BF2F
:1006E0003400012066010120610101202000012069
:1006F000670101206801012020BF02006201012082
:100700006C010120630101206D01012065010120C0
:10071000640101206E010120CDCCCCCC300601203B
:1007200098B500AF814B1B68002B18D1804B1B681C
:10073000804A12685A63804B1B68804A1268DA63E9
:100740007D4B1B687E4A12689A637B4B1B687D4A0F
:1007500012685A63784B1B687B4A12681A647B4B99
:100760001B68002B02D1FFF7D1FE03E0704B1B6822
:1007700000225A63754B5B68002B40F08682012192
:10078000734807F0A7F903461A46724B1A70714B6B
:100790001B78002B0FD1684B1B68DB6B002B04D13F
:1007A000654B1B689B6B002B05D06B4B02221A61BB
:1007B0006A4B02221A61684B1B69012B35D15E4BD3
:1007C0001B689B6B40F2C942934206D85A4B1B6888
:1007D0009A6B594B1B6819329A63574B1B6840F24E
:1007E000E242DA635E4B1B68002B03D14F4B1B6860
:1007F0005B4A13604D4B1A68594B1B68D31A3B2B4D
:100800004AD94D4B1B680022DA63534B00221A6110
:10081000524B00221A61524B00221A60514B0422A3
:100820001A70514B04221A7036E04B4B1B69022B95
:1008300032D1414B1B6840F2E242DA633E4B1B6807
:100840009B6B182B06D93C4B1B689A6B3A4B1B6869
:10085000193A9A63424B1B68002B03D1334B1B6838
:100860003F4A1360314B1A683D4B1B68D31A3B2B30
:1008700012D9314B1B680022DA63374B00221A6110
:10088000364B00221A61364B00221A60354B00228B
:100890001A70354B00221A70344B1A78344B1B787F
:1008A0009A4203D3334B01221A706EE02F4B1A7811
:1008B0002F4B1B789A4209D22C4B5A782C4B1B7821
:1008C0009A4203D32B4B02221A705EE0274B5A78D0
:1008D000274B1B789A4209D2244B9A78244B1B78D9
:1008E0009A4203D3234B03221A704EE01F4B9A788F
:1008F0001F4B1B789A4209D21C4BDA781C4B1B7891
:100900009A4203D31B4B04221A703EE0174BDA784D
:10091000174B1B789A422FD2144B1A79144B1B7821
:100920009A4229D3134B05221A702EE07001012040
:1009300030060120ACFD0120E4060120B0FD0120BD
:10094000B4FD0120B8FD0120BCFD012050030120B1
:100950000000024074010120340001202000012029
:1009600078010120A8FD0120A9FD01201800012027
:100970001D0001207C0101207B4B1A797B4B1B78E9
:100980009A4202D27A4B06221A707A4B1B78012BBC
:1009900066D1774B1B78052B31D8774B1B685A6B88
:1009A000764B1B78C3F59C6302339A421ED2724B7E
:1009B0001B681A6C714B1B78C3F59C6302339A4217
:1009C00014D26D4B1B685A6B6C4B1B7819466A4BE3
:1009D0001B680A445A63684B1B681A6C674B1B7888
:1009E0001946654B1B680A441A64AAE0614B1B78E0
:1009F000012B40F0A6805F4B02221A70A1E05E4BF3
:100A00001B685A6B5E4B1B78C3F59C6302339A429A
:100A10001ED2594B1B681A6C594B1B78C3F59C634B
:100A200002339A4214D2544B1B685A6B544B1B78B6
:100A30001946514B1B680A445A634F4B1B681A6C8A
:100A40004F4B1B7819464C4B1B680A441A6478E0DC
:100A5000484B1B78012B74D1464B02221A7070E070
:100A6000444B1B78022B6CD1414B1B78052B32D8A1
:100A7000414B1B685B6B414A127893421BD93E4B3A
:100A80001B681B6C3D4A1278934214D93A4B1B6881
:100A90005A6B3A4B1B781946374B1B68521A5A63EC
:100AA000354B1B681A6C354B1B781946324B1B684B
:100AB000521A1A6445E02F4B1B78022B41D12D4B63
:100AC00000221A702C4B1B6800225A632A4B1B68A9
:100AD00000221A6435E0264B1B78062B31D1264BB9
:100AE0001B685B6B264A127893421BD9224B1B680A
:100AF0001B6C234A1278934214D91F4B1B685A6B04
:100B00001F4B1B7819461C4B1B68521A5A631A4B11
:100B10001B681A6C1A4B1B781946174B1B68521A24
:100B20001A640EE0134B1B78022B0AD1114B0022E2
:100B30001A70114B1B6800225A630F4B1B6800226E
:100B40001A64104B1B78012B20D10F4BDB6840F649
:100B5000B73293421AD9074B1B78002B64D1054B4F
:100B600001221A7060E000BF180001201D00012062
:100B70007C0101207D010120E40601204C010120BF
:100B80004D0101201E00012034000120914B1B78F3
:100B9000022B03D08F4B1B78032B2DD18E4B1A7851
:100BA0008E4B1B789A4206D08C4B1A788A4B1A705F
:100BB0008B4B00221A608A4B1B68002B03D1894B98
:100BC0001B68874A1360874B1A68854B1B68D11ACC
:100BD000804B1B789A1E844B1B78581E834C1346FF
:100BE0005B0013445B00034434F8133099421BD379
:100BF0007A4B01221A7017E0764B1B78042B0DD12B
:100C00007B4B1B68002B0FD1764B1B68784A136017
:100C1000784B1B781A46784B1A6005E0704B00221F
:100C20001A606D4B00221A706E4B1A68704B1B686D
:100C3000D31A724A127893420FD26D4B1B68002B65
:100C40000BD0664B1B78002B07D1644B01221A7026
:100C5000694B1B68013B684A1360604B1B78002B93
:100C60000BD1654B1B68002B07D05C4B01221A701F
:100C7000614B1B68013B604A13605F4B1B68002B94
:100C80001FD15B4B00221A601BE05D4B1B680022EA
:100C90005A635B4B1B6800229A63594B1B68002206
:100CA000DA63574B1B6800221A644D4B00221A600E
:100CB0004A4B00221A70484B00221A704A4B0022FD
:100CC0001A704F4B1B681A6C13461B029B1A4D4A35
:100CD000A2FB03239B0ADAB24B4B1A70484B1B68EA
:100CE0005A6B13461B029B1A464AA2FB03239B0A1C
:100CF000DAB2454B5A70424B1B68DA6B13461B0243
:100D00009B1A404AA2FB03239B0ADAB23E4B9A701D
:100D10003B4B1B689A6B13461B029B1A394AA2FB7A
:100D200003239B0ADAB2384BDA70384B1B685A6BD4
:100D300013461B029B1A364AA2FB03235B09DAB255
:100D4000314B1A712E4B1B681A6C13461B029B1AEF
:100D50002C4AA2FB03239B0ADAB22E4B1A70284BB3
:100D60001B685A6B13461B029B1A264AA2FB0323DD
:100D70009B0ADAB2274B5A70274B1A78254B9A7088
:100D8000264B1A78234BDA70204B1B685B6BDAB268
:100D9000204B1A711D4B1B685B6B214A1360184B6B
:100DA0001B68DB6B1F4A1360154B1B689B6B1E4A4D
:100DB0001360134B1B685B6B1C4A1360104B1B6862
:100DC0001B6C1B4A1360074B1B680133054A1360F9
:100DD00000BF98BD1E0001207E0101207D01012081
:100DE00080010120700101207C0101200000012010
:100DF0008401012050010120880101204F010120C0
:100E0000E40601205917B7D1540101203006012012
:100E10001F85EB515C010120A8FD0120A9FD0120E7
:100E2000ACFD0120B0FD0120B4FD0120B8FD012082
:100E3000BCFD012080B582B000AF0023FB7124E02F
:100E4000FB79A14A52F82330002B1BD00023BB7141
:100E500014E0BB799D4A002142F82310BB799C4ADB
:100E6000002142F82310BB799A4A0021D154BB7962
:100E7000994A0021D154BB790133BB71BB79042B52
:100E8000E7D905E0FB790133FB71FB79022BD7D958
:100E900000237B711AE07B79904A52F82330002BB3
:100EA00011D08A4B00221A61894B00221A61894BAA
:100EB00000221A718A4B012283F83120884B0122CB
:100EC00083F8302005E07B7901337B717B79042B3B
:100ED000E1D97E4B1B697E4A136100233B7159E0C7
:100EE0003B79002B52D03B79022B4FD03A797C4989
:100EF00013465B0013449B000B4401331B78002B0B
:100F000045D13B79714A52F82330764A12789342A0
:100F10003DD23A79724913465B0013449B000B445F
:100F200004331B68591C6E4813465B0013449B0036
:100F30000344043319603A79694913465B0013444A
:100F40009B000B4404331B68674A127893421ED1FE
:100F50003A79634913465B0013449B000B44043306
:100F600000221A603A795E4913465B0013449B00E5
:100F70000B44013301221A703A79594913465B0038
:100F800013449B000B4401221A7000E000BF3B7920
:100F900001333B713B79032BA2D90023FB702AE07C
:100FA000FA784F4913465B0013449B000B441B78AF
:100FB000002B18D1FB78454A52F82330FA784B4978
:100FC00031F81220934205D8FB78414A002142F8BB
:100FD00023100DE0FA78FB783C4951F822203C4977
:100FE00041F8232004E0FB78394AFF2142F823101E
:100FF000FB780133FB70FB78032BD1D90023BB7046
:1010000014E0BB78314A52F8232013461B029A1A87
:10101000374BA3FB0213D21A52081344DA0ABB78E7
:10102000D1B22D4AD154BB780133BB70BB78032BAE
:10103000E7D9274B1B69DAB2264B1A71244B1B6880
:1010400040F2DB52934203D8224B00221A7016E082
:101050001F4B1B6840F2DB52934208D91C4B1B68A4
:10106000B3F57A6F03D21B4B01221A7007E0184BBD
:101070001B68B3F57A6F02D3164B02221A70144B19
:101080009B68B3F5966F03D2124B00229A7039E039
:101090000F4B9B68B3F5966F08D30D4B9B68B3F568
:1010A000FA6F03D20B4B01229A702BE0084B9B681E
:1010B000B3F5FA6F1ED3064B9B68B3F57A6F19D25E
:1010C000044B02229A701DE01C0301202000012025
:1010D000340001204800012050000120600201205E
:1010E000980101208C0101208D0101209001012037
:1010F00001011000454B9B68B3F57A6F02D3444B56
:1011000003229A70414B5B6840F6B732934203D991
:101110003F4B01225A7002E03D4B00225A703B4B7C
:10112000DB6840F6B732934203D9394B0122DA70BB
:1011300002E0374B0022DA7000237B703AE07A78C5
:10114000344913465B0013449B000B4401331B7866
:10115000012B1BD17A782F4913465B0013449B0067
:101160000B441B78002B11D07B780133DBB20121BB
:10117000184602F027FE7A78264913465B0013448E
:101180009B000B44013302221A7010E07A78214947
:1011900013465B0013449B000B441B78002B06D1C5
:1011A0007B780133DBB20021184602F00BFE7B781E
:1011B00001337B707B78032BC1D9174B1B68012B44
:1011C00002D1134B00221A71134B5B68012B06D11D
:1011D0000E4B1B69032B02D10D4B00221A710E4BD3
:1011E0009B68012B02D10A4B0022DA700A4BDB68A4
:1011F000012B02D1064B00225A70084B1B680133A9
:10120000064A136000BF0837BD4680BD3400012088
:10121000480001209801012058000120D40101203C
:10122000B0B500AF034B1B68002B05D100F060FE8A
:101230003AE000BF440201209C4B1B68012B33D1D4
:1012400000F03AFB9A4B01221A709A4B01221A7055
:10125000984B4FF480725A60964B02221A72954B4B
:1012600000225A72934B00229A72924800F0BEFB01
:10127000904B01221A708F4B40F201125A608D4B35
:1012800005221A728B4B00225A728A4B00229A72E4
:10129000884B0022DA72874B00221A73854B00229A
:1012A0005A73844800F0A2FB00F0A1FC0346824A76
:1012B0001360814B1B68002B00F02A817F4B5B6819
:1012C000002B5BD17D4800F009FC0346002B55D074
:1012D0007A4B5B68992B0ED1784B5A7A784B1A70FF
:1012E000764BDA7A774B1A70744B5A7B764B1A70BE
:1012F000764B00221A60714B5B68982B0ED16F4BB6
:101300001A7B734B1A706D4B9A7B724B1A706B4B36
:101310005A7A714B1A70714B00221A60674B5B68E6
:10132000972B06D1654B5A7B6D4B1A706D4B002283
:101330001A60624B5B68B3F5A26F12D15F4B5B7AA8
:10134000102B0ED15D4B5A7A674B1A70584B1B7895
:10135000032B02D0564B02221A70644B4FF4FA62F0
:101360001A80564B5B68B3F5E06F07D1604A534B68
:1013700014461D460FCD0FC42B6823605D4B5B6880
:10138000002B5BD15B4800F0A9FB0346002B55D036
:10139000584B5B68992B0ED1564B5A7A484B1A70B2
:1013A000544BDA7A474B1A70524B5A7B464B1A70A1
:1013B000464B00221A604F4B5B68982B0ED14D4B69
:1013C0001A7B434B1A704B4B9A7B424B1A70494B1A
:1013D0005A7A414B1A70414B00221A60454B5B68A8
:1013E000972B06D1434B5A7B3D4B1A703D4B002245
:1013F0001A60404B5B68B3F5A26F12D13D4B5B7A2C
:10140000102B0ED13B4B5A7A374B1A70284B1B7856
:10141000032B02D0264B02221A70344B4FF4FA628F
:101420001A80344B5B68B3F5E06F07D1304A314B1B
:1014300014461D460FCD0FC42B6823601F4B00229E
:101440001A701E4B00225A601C4B00221A721B4B52
:1014500000225A72194B00229A72184B0022DA723B
:10146000164B00221A73154B00225A73134B00229D
:101470009A73124B0022DA73104B00221A741D4B20
:1014800000221A701B4B00225A601A4B00221A725B
:10149000184B00225A72174B00229A72154B0022E9
:1014A000DA72144B00221A7326E000BF44020120B6
:1014B000F0010120480201205C020120F40101201A
:1014C00061010120640101201E000120D8010120DA
:1014D000650101206201012063010120DC0101207E
:1014E0001D000120E00101206A00012068000120A8
:1014F0003002012008020120764B00225A73754BFE
:1015000000229A73734B0022DA73724B00221A7412
:1015100000F0A8FB0346002B16D06F4B19686F4BE9
:10152000A3FB01231A0913469B0013449B00CA1A0C
:10153000002A09D1684B1B68002B05D0684B1B683B
:101540000133674A136002E0654B00221A6000F025
:10155000A2FB0346002B16D05F4B19685F4BA3FB21
:1015600001231A0913469B0013449B00CA1A002A40
:1015700009D1594B1B68002B05D0594B5B680133CF
:10158000574A536002E0564B00225A6000F051FB6C
:101590000346002B1AD0504B1968504BA3FB012374
:1015A0001A0913469B0013449B00CA1A002A0DD146
:1015B000494B1B68002B09D0494B9B680133484AB3
:1015C00093600121092002F0FDFB06E0444B00225C
:1015D0009A600021092002F0F5FB424B1B78002B9A
:1015E00007D0414B1B78002B0AD13F4B01221A70C8
:1015F00006E03D4B1B78012B02D13B4B00221A70B9
:101600003A4B1B88002B06D0384B1B88013B9AB203
:10161000364B1A800AE0354B1B88002B06D1324B23
:101620001B78022B02D1304B01221A702E4B1B78F3
:10163000032B00F00D812E4B1B78022B40F008810C
:101640002C4B1B6801332B4A13602B4B1B68013357
:10165000294A1360294B1B680133284A1360254B24
:101660001B68B3F5FA6F0DD901210B2002F0AAFB1C
:10167000234B00221A70234B00221A70224BFF22A8
:101680001A7003E000210B2002F09CFB1A4B1B6830
:10169000B3F5FA6F0DD90121062002F093FB1B4B25
:1016A00000221A701A4B00221A701A4B00221A706C
:1016B00003E00021062002F085FB104B1B68B3F508
:1016C000FA6F2BD90121072002F07CFB124B00227C
:1016D0001A7027E00802012044020120CDCCCCCCB6
:1016E000E401012048000120F001012068000120F0
:1016F0002D040120D8010120DC010120E00101209E
:1017000061010120640101201E000120650101200A
:1017100062010120630101201D000120002107203A
:1017200002F050FB5E4B19685E4BA3FB01231A09C4
:1017300013469B0013449B00CA1A002A35D15A4B0A
:1017400001221A70584B4FF480725A60564B022295
:101750001A72564B1A78544B5A72544B9A78524B11
:101760009A72514800F042F94F4B00221A704E4BCA
:1017700000225A604C4B00221A724B4B00225A72C4
:10178000494B00229A72484B0022DA72464B0022E3
:101790001A73454B00225A73434B00229A73424BF3
:1017A0000022DA73404B00221A743D4B19683D4BFE
:1017B000A3FB01231A0913469B0013449B00CA1A7A
:1017C000002A45D1384B01221A70374B40F20112E2
:1017D0005A60354B05221A72354B9A78324B5A7241
:1017E000334BDA78304B9A72304B1A792E4BDA72CF
:1017F0000121304806F06EF903461A462A4B1A7347
:101800002A4B5A78284B5A73274800F0EFF8264B9A
:1018100000221A70244B00225A60234B00221A72B5
:10182000214B00225A72204B00229A721E4B00223A
:10183000DA721D4B00221A731B4B00225A731A4B8B
:1018400000229A73184B0022DA73174B00221A7485
:10185000154B00221A70144B00225A60124B0022C2
:101860001A72114B00225A720F4B00229A720E4BC1
:101870000022DA720C4B00221A730B4B00225A73AF
:10188000094B00229A73084B0022DA73064B0022A0
:101890001A74034B1B680133014A136000BFB0BDCB
:1018A00044020120CDCCCCCC4802012048000120CC
:1018B0005C0101200000024080B588B000AF00F05C
:1018C00017FBFF233B71E0237B710023BB710023D7
:1018D000FB71FF233B70E0237B700023BB70002370
:1018E000FB7012233B77E0237B770023BB77002339
:1018F000FB7713233B7600237B760023BB76002304
:10190000FB7613233B7520237B750023BB750023D7
:10191000FB75A2233B7400237B740023BB7400235C
:10192000FB74E0233B7300237B730023BB73002312
:10193000FB73E0233B7200237B720023BB72002306
:10194000FB7200F077FA00F097FA3B1D1A4623214C
:10195000202000F04BFB3B461A462721242000F0B4
:1019600045FB07F11C031A460321002000F03EFB53
:1019700007F118031A460721042000F037FB07F18E
:1019800014031A460B21082000F030FB07F1100366
:101990001A461321102000F029FB07F10C031A4608
:1019A0001721142000F022FB07F108031A461B211F
:1019B000182000F01BFB0421602000F0F3FA012145
:1019C000702000F0EFFA00212A2000F0EBFA9021BD
:1019D000292000F0E7FA8221282000F0E3FA00F045
:1019E00069FA012318462037BD4680BD80B586B010
:1019F00000AF786072B600BF0023FB7500233B6127
:101A00000023FB6000233B7400237B740023BB7422
:101A10000023FB7400F058FB03463B733B7B03F051
:101A20000403DBB2002B17D17B6858687B681B78F6
:101A300007F11002194600F0A8F97B681A7A7B6852
:101A4000093307F11001402000F0FAFA812000F07C
:101A500021FB0123FB753AE03B7B03F01003DBB273
:101A6000002B17D17B6858687B681B7807F1100240
:101A7000194600F08AF97B681A7A7B68093307F106
:101A80001001422000F0DCFA822000F003FB012369
:101A9000FB751CE03B7B03F04003DBB2002B16D14F
:101AA0007B6858687B681B7807F11002194600F0C4
:101AB0006CF97B681A7A7B68093307F110014420BE
:101AC00000F0BEFA842000F0E5FA0123FB7562B64F
:101AD00000BFFB7D18461837BD4680BD80B588B075
:101AE00000AF786072B600BF0023FB7707F11003E8
:101AF00000221A605A609A601A730023FB6000F09B
:101B000001FB03463B733B7B23F03F03DBB2002B1F
:101B100066D03B7B23F03F03DBB2402B0CBF01239D
:101B20000023DAB23B7B23F03F03DBB2C02B0CBFB8
:101B300001230023DBB21343DBB2002B07D007F1F4
:101B400010030D221946902000F00AFA0CE03B7BAE
:101B500023F03F03DBB2802B06D107F110030D22E7
:101B60001946942000F0FCF93B7B03F01803DBB22C
:101B7000102B0CD17B6802221A70B87CF97C3A7C5D
:101B80007B7C00F0A1F802467B685A600BE07B6822
:101B900001221A703B7C7A7C1146184600F0D6F878
:101BA00002467B685A603A7D7B681A727A7D7B6850
:101BB0005A72BA7D7B689A72FA7D7B68DA723A7ED5
:101BC0007B681A737A7E7B685A73BA7E7B689A73D5
:101BD000FA7E7B68DA733A7F7B681A740123FB779D
:101BE00062B600BFFB7F18462037BD4680BD80B57A
:101BF00082B000AF00233B600023FB7100F064FA69
:101C000003463B703B7803F00103DBB2002B02D0AC
:101C1000FB790133FB713B7803F00203DBB2002B4D
:101C200002D0FB790133FB71FB7918460837BD46BA
:101C300080BD80B582B000AF00233B600023FB7104
:101C40002D2000F069F903463B703B7803F0200338
:101C5000DBB2002B01D00123FB71FB79184608375A
:101C6000BD4680BD80B582B000AF00233B6000233D
:101C7000FB712D2000F050F903463B703B7803F0D8
:101C80000803DBB2002B01D00123FB71FB7918465E
:101C90000837BD4680BD80B582B000AF00233B60F1
:101CA0000023FB712D2000F037F903463B703B7891
:101CB00003F01003DBB2002B01D00123FB71FB7991
:101CC00018460837BD4680BD90B486B000AF0446C4
:101CD000084611461A462346FB710346BB710B4664
:101CE0007B7113463B7100237B6100233B61002322
:101CF000FB730023BB733B7903F00303FB733B7956
:101D00005B09BB737B79DB003B61BB7B3A691344A6
:101D10003B613B699B003B61FB7B3A6913443B6140
:101D20003B691B023B61FB793A6913443B613B69A8
:101D30001B023B61BB793A6913443B613B697B61A0
:101D40007B6918461837BD4690BC704780B485B093
:101D500000AF03460A46FB711346BB710023FB60CC
:101D60000023BB60FB79DB00BB60BB795B09DBB2A6
:101D70001A46BB681344BB60BB68FB60FB6818462F
:101D80001437BD465DF8047B704780B487B000AF60
:101D9000F8600B467A60FB720023FB75FB7A022B1E
:101DA0002ED1FB68DAB27B68DA70FB681B0AFB6035
:101DB000FB68DAB27B689A70FB681B0AFB60FB6801
:101DC000DBB203F00303FB75FB68DB00FB60FB6821
:101DD000DBB223F01F03DAB2FB7D1344FB75FB7DFE
:101DE0000833FB75FB7D23F01403DAB27B685A706D
:101DF000FB681B0AFB60FB68DAB27B681A7013E0B1
:101E00007B6800229A707B680022DA70FB685B01B5
:101E1000FB60FB68DAB27B685A70FB681B0AFB60E8
:101E2000FB68DAB27B681A7000BF1C37BD465DF8EC
:101E3000047B704780B582B000AF0A23FB7101229A
:101E400010210B4805F05EFE0A4807F0FBF9034637
:101E5000012B01D1012306E0FB79013BFB71FB79EA
:101E6000002BF1D1002318460837BD4680BD00BFC6
:101E700000080240FC04012080B582B000AF0A23B4
:101E8000FB7180210F2000F08DF80E2000F044F847
:101E9000034603F0E003802B01D1012306E0FB7928
:101EA000013BFB71FB79002BEFD10023184608376B
:101EB000BD4680BD80B582B000AF0A23FB71002112
:101EC0000F2000F06FF80E2000F026F8034603F014
:101ED000E003002B01D1012306E0FB79013BFB71FC
:101EE000FB79002BEFD1002318460837BD4680BD93
:101EF00080B500AF00221021064805F003FEC02087
:101F000000F01EF901221021024805F0FBFD00BF80
:101F100080BD00BF0008024080B584B000AF03461A
:101F2000FB710023FB73002210210C4805F0EAFD31
:101F3000032000F005F9FB79184600F001F900F0E4
:101F400025F90346FB7301221021044805F0DAFD50
:101F5000FB7B18461037BD4680BD00BF000802401D
:101F600080B582B000AF03463960FB711346BB7188
:101F7000002210210A4805F0C5FDFB79184600F043
:101F8000DFF8BB791946386800F012F901221021F8
:101F9000034805F0B7FD00BF0837BD4680BD00BF50
:101FA0000008024080B582B000AF03460A46FB71CC
:101FB0001346BB71002210210B4805F0A3FD02203F
:101FC00000F0BEF8FB79184600F0BAF8BB79184665
:101FD00000F0B6F801221021034805F093FD00BF80
:101FE0000837BD4680BD00BF0008024080B582B002
:101FF00000AF03463A60FB710B46BB710022102113
:102000000E4805F07FFD022000F09AF8FB79184693
:1020100000F096F8BA79FB79D31ADBB20133DBB260
:102020001946386800F09EF801221021034805F097
:1020300069FD00BF0837BD4680BD00BF00080240F3
:1020400080B584B000AFB9607B600346FB73134674
:10205000BB73002210210E4805F054FDFB7B18468F
:1020600000F06EF80421B86800F07CF8BB7B1846DD
:1020700000F066F8BB7B1946786800F073F801221F
:102080001021034805F03EFD00BF1037BD4680BD5E
:102090000008024080B582B000AF0346FB71002209
:1020A0001021084805F02EFDFB79184600F048F88D
:1020B00001221021034805F025FD00BF0837BD4669
:1020C00080BD00BF0008024080B582B000AF002391
:1020D000FB71002210210A4805F014FDA02000F039
:1020E0002FF800F053F80346FB7101221021044839
:1020F00005F008FDFB7918460837BD4680BD00BFD6
:102100000008024080B582B000AF0023FB710022BE
:1021100010210A4805F0F6FCB02000F011F800F09C
:1021200035F80346FB7101221021044805F0EAFC52
:10213000FB7918460837BD4680BD00BF0008024045
:1021400080B582B000AF0346FB71F91D0223012266
:10215000034806F021FB00BF0837BD4680BD00BF25
:10216000FC04012080B582B000AF78600B46FB70A4
:10217000FB789AB202237968034806F00DFB00BF92
:102180000837BD4680BD00BFFC04012080B582B089
:1021900000AF0023FB71F91D02230122034806F062
:1021A0003FFCFB7918460837BD4680BDFC04012082
:1021B00080B582B000AF78600B46FB70FB789AB2B6
:1021C00002237968034806F02BFC00BF0837BD46A0
:1021D00080BD00BFFC04012080B582B000AF5F4825
:1021E00008F08EFE03461A465D4B1A605D4B1B7865
:1021F000002B07D05B4B1B781A465B4B1A61594B7F
:1022000000221A70554B5B6C002B0DD10023FB7123
:1022100007E0FB79554A002142F82310FB7901338E
:10222000FB71FB79042BF4D94D4B1B68E02B00F0BC
:102230008380E02B00F28880242B4FD8242B00F2DF
:10224000838001A252F823F0E322060849230608FE
:102250004923060849230608492306084923060896
:102260004923060849230608492306084923060886
:102270004923060849230608492306084923060876
:102280004923060849230608492306084923060866
:102290004923060849230608492306084923060856
:1022A0004923060849230608492306084923060846
:1022B0004923060849230608492306084923060836
:1022C0004923060849230608ED2206080B230608C1
:1022D000152306081F23060801230608A02B23D078
:1022E00032E01F4B1B68224A13602EE00122214975
:1022F0001A4808F0FFFA1A4B1B681D4A136024E0C5
:10230000174B1B681A4A13601FE0154B1B68184ACD
:1023100013601AE0124B1B68154A136015E0104B4E
:102320001B68134A136010E00D4B1B68104A1360C2
:102330000A4800F023F808E0094B1B680C4A1360B8
:10234000064800F01BF800E000BF0B4B1B68013390
:10235000094A136000BF0837BD4680BD4C08012004
:10236000880201208002012020000120600201205B
:1023700074020120780201208402012080B584B01B
:1023800000AF7860786808F0D9FDF860FB68102B22
:1023900042D801A252F823F019240608DD230608CA
:1023A000E923060819240608F52306081924060857
:1023B0001924060819240608012406081924060809
:1023C00019240608192406081924060819240608E1
:1023D00019240608192406080D240608114B1B6849
:1023E0000133104A136018E00E4B5B6801330D4A4D
:1023F000536012E00B4B9B6801330A4A93600CE078
:10240000084BDB680133074AD36006E0054B1B69C4
:102410000133044A136100E000BF00BF1037BD461E
:1024200080BD00BF6002012080B582B000AF78603F
:102430007B681B68194A93422CD1194B1B780A2BD5
:102440000ED1184B1B78032B06D817480CF081FAD5
:102450000346DAB2154B1A70124B00221A7014E0C0
:10246000104B1B78022B0DD80E4B1B781A460C4BC9
:1024700019780D4B99540B4B1B780133DAB2094B89
:102480001A7002E0074B00221A7001220449786892
:1024900008F030FA00BF0837BD4680BD001001408B
:1024A00078020120810201207C02012080020120AB
:1024B00080B500AF344BDB7A012B03D1334B0122C3
:1024C0001A7006E0304BDB7A022B02D12F4B002230
:1024D0001A702F4B03221A722D4B40F201725A6070
:1024E0002B4B01221A702A4B02225A72284BC5220A
:1024F0009A72254BDA7A264BDA722548FFF776FA7C
:10250000234B00221A70224B00225A60204B0022DB
:102510001A721F4B00225A721D4B00229A721C4BDA
:102520000022DA721A4B00221A73194B00225A73D6
:10253000174B00229A73164B0022DA73144B0022B9
:102540001A74114B00221A700F4B00225A600E4B66
:1025500000221A720C4B00225A720B4B00229A7204
:10256000094B0022DA72084B00221A73064B002234
:102570005A73054B00229A73034B0022DA73024B05
:1025800000221A7400BF80BD30020120A402012085
:102590001C02012080B500AF344BDB7A002B03D145
:1025A000334B03221A7006E0304BDB7A012B02D149
:1025B0002F4B02221A702F4B03221A722D4B40F21E
:1025C00001725A602B4B01221A702A4B02225A7256
:1025D000284B68229A72254BDA7A264BDA72254804
:1025E000FFF704FA234B00221A70224B00225A6094
:1025F000204B00221A721F4B00225A721D4B0022E0
:102600009A721C4B0022DA721A4B00221A73194B71
:1026100000225A73174B00229A73164B0022DA736A
:10262000144B00221A74114B00221A700F4B002217
:102630005A600E4B00221A720C4B00225A720B4B3E
:1026400000229A72094B0022DA72084B00221A7398
:10265000064B00225A73054B00229A73034B00224B
:10266000DA73024B00221A7400BF80BD30020120D1
:10267000F00101201C02012080B500AF2C4B032289
:102680001A722B4B40F201725A60294B01221A70C8
:10269000274B02225A72264B7E229A72244B00222A
:1026A000DA722348FFF7A2F9214B00221A70204B5F
:1026B00000225A601E4B00221A721D4B00225A72D1
:1026C0001B4B00229A721A4B0022DA72184B00221E
:1026D0001A73174B00225A73154B00229A73144B2E
:1026E0000022DA73124B00221A74124B00221A7065
:1026F000104B00225A600F4B00221A720D4B002221
:102700005A720C4B00229A720A4B0022DA72094B61
:1027100000221A73074B00225A73064B00229A7349
:10272000044B0022DA73034B00221A7400BF80BDF1
:102730001C0201203002012080B500AF0F4B0322A4
:102740001A720E4B40F201725A600C4B01221A7041
:102750000A4B02225A72094B50229A72074B0422EA
:10276000DA72074B03221A700448FFF73FF901F0B1
:102770008BFE002001F0A4FF00BF80BD1C020120E1
:10278000C0FD012080B500AF0F4B03221A720E4B23
:1027900040F201725A600C4B01221A700A4B02225D
:1027A0005A72094B50229A72074B0522DA72074B74
:1027B00004221A700448FFF719F901F065FE0020A1
:1027C00001F07EFF00BF80BD1C020120C0FD012082
:1027D00080B500AF4B4B08221A724A4B40F201728F
:1027E0005A60484B01221A70464B07225A72454BD9
:1027F00062229A72434B0022DA72424B02221A730F
:10280000414B1B68DAB23F4B5A733F4B5B68DAB2FD
:102810003C4B9A733C4B9B68DAB23A4BDA733A4BB7
:10282000DB68DAB2374B1A743648FFF7DFF8052059
:1028300003F074FC334B06221A72324B40F20172E1
:102840005A60304B01221A702E4B05225A722D4BC2
:1028500062229A722B4B0022DA722A4B02221A73DE
:10286000294B1B69DAB2274B5A73274B5B69DAB2E3
:10287000244B9A732348FFF7B9F8224B00221A70B1
:10288000204B00225A601F4B00221A721D4B00225F
:102890005A721C4B00229A721A4B0022DA72194BA0
:1028A00000221A73174B00225A73164B00229A7398
:1028B000144B0022DA73134B00221A74134B0022BC
:1028C0001A70124B00225A60104B00221A720F4BE2
:1028D00000225A720D4B00229A720C4B0022DA72BF
:1028E0000A4B00221A73094B00225A73074B00222D
:1028F0009A73064B0022DA73044B00221A7400BF4D
:1029000080BD00BF1C020120FC0301203002012019
:1029100080B500AF634B08221A72624B40F201721D
:102920005A60604B01221A705E4B07225A725D4B4F
:1029300062229A725B4B0022DA725A4B03221A739C
:10294000594B1B68DAB2574B5A73574B5B68DAB274
:10295000544B9A73544B9B68DAB2524BDA73524B16
:10296000DB68DAB24F4B1A744E48FFF73FF8052088
:1029700003F0D4FB4B4B08221A724A4B40F201720F
:102980005A60484B01221A70464B07225A72454B37
:1029900062229A72434B0022DA72424B03221A736C
:1029A000414B1B69DAB23F4B5A733F4B5B69DAB25A
:1029B0003C4B9A733C4B9B69DAB23A4BDA733A4B15
:1029C000DB69DAB2374B1A743648FFF70FF8052087
:1029D00003F0A4FB334B06221A72324B40F2017211
:1029E0005A60304B01221A702E4B05225A722D4B21
:1029F00062229A722B4B0022DA722A4B03221A733C
:102A0000294B1B6ADAB2274B5A73274B5B6ADAB23F
:102A1000244B9A732348FEF7E9FF224B00221A70D9
:102A2000204B00225A601F4B00221A721D4B0022BD
:102A30005A721C4B00229A721A4B0022DA72194BFE
:102A400000221A73174B00225A73164B00229A73F6
:102A5000144B0022DA73134B00221A74134B00221A
:102A60001A70124B00225A60104B00221A720F4B40
:102A700000225A720D4B00229A720C4B0022DA721D
:102A80000A4B00221A73094B00225A73074B00228B
:102A90009A73064B0022DA73044B00221A7400BFAB
:102AA00080BD00BF1C020120D403012030020120A0
:102AB00080B500AF364B08221A72354B40F20172D6
:102AC0005A60334B01221A70314B07225A72304B35
:102AD00062229A722E4BF122DA722D4B80221A73E7
:102AE0002C4B5A782A4B5A732A4B1A78284B9A73D4
:102AF000284B9A78264BDA73264BDA78244B1A74D3
:102B00002348FEF773FF224B00221A70204B00224D
:102B10005A601F4B00221A721D4B00225A721C4B26
:102B200000229A721A4B0022DA72194B00221A7391
:102B3000174B00225A73164B00229A73144B002233
:102B4000DA73134B00221A74134B00221A70124BC3
:102B500000225A60104B00221A720F4B00225A7248
:102B60000D4B00229A720C4B0022DA720A4B0022A3
:102B70001A73094B00225A73074B00229A73064BB3
:102B80000022DA73044B00221A7400BF80BD00BF1C
:102B90001C0201206C0001203002012080B500AF32
:102BA000304B05221A722F4B40F201725A602D4BA6
:102BB00001221A702B4B04225A722A4B62229A72FB
:102BC000284BF122DA72274B86221A73264B1A7889
:102BD000244B5A732348FEF709FF224B00221A7038
:102BE000204B00225A601F4B00221A721D4B0022FC
:102BF0005A721C4B00229A721A4B0022DA72194B3D
:102C000000221A73174B00225A73164B00229A7334
:102C1000144B0022DA73134B00221A74134B002258
:102C20001A70124B00225A60104B00221A720F4B7E
:102C300000225A720D4B00229A720C4B0022DA725B
:102C40000A4B00221A73094B00225A73074B0022C9
:102C50009A73064B0022DA73044B00221A7400BFE9
:102C600080BD00BF1C020120C0FD012030020120F8
:102C700080B500AF394B08221A72384B40F201720E
:102C80005A60364B01221A70344B07225A72334B6A
:102C900062229A72314B0022DA72304B05221A738B
:102CA0002F4B1B681B0EDAB22C4B5A732C4B1B6834
:102CB0001B0CDAB2294B9A73294B1B681B0ADAB238
:102CC000264BDA73264B1B68DAB2244B1A7423485E
:102CD000FEF78CFE214B00221A70204B00225A6016
:102CE0001E4B00221A721D4B00225A721B4B0022EF
:102CF0009A721A4B0022DA72184B00221A73174B81
:102D000000225A73154B00229A73144B0022DA7377
:102D1000124B00221A74134B00221A70114B00221E
:102D20005A60104B00221A720E4B00225A720D4B41
:102D300000229A720B4B0022DA720A4B00221A739D
:102D4000084B00225A73074B00229A73054B00224E
:102D5000DA73044B00221A7400BF80BD1C020120EC
:102D6000C4FD01203002012080B500AF3C4B082299
:102D70001A723B4B40F201725A60394B01221A70B1
:102D8000374B07225A72364B6A229A72354BDB7ADE
:102D9000042B03D0324B0122DA7206E0314BDB7A8E
:102DA000042B02D12E4B0422DA722D4B00221A730F
:102DB0002D4B1A782A4B5A732C4B1A78284B9A733E
:102DC0002B4B1A78264BDA73294B5A78244B1A74FA
:102DD0002348FEF70BFE224B00221A70204B0022E4
:102DE0005A601F4B00221A721D4B00225A721C4B54
:102DF00000229A721A4B0022DA72194B00221A73BF
:102E0000174B00225A73164B00229A73144B002260
:102E1000DA73134B00221A74124B00221A70114BF2
:102E200000225A600F4B00221A720E4B00225A7277
:102E30000C4B00229A720B4B0022DA72094B0022D3
:102E40001A73084B00225A73064B00229A73054BE3
:102E50000022DA73034B00221A7400BF80BD00BF4A
:102E60001C020120300201204800012050000120F6
:102E70009801012080B500AF3C4B08221A723B4BF1
:102E800040F201725A60394B01221A70374B072207
:102E90005A72364B6A229A72354BDB7A042B03D076
:102EA000324B0122DA7206E0314BDB7A042B02D17D
:102EB0002E4B0422DA722D4B01221A732D4B9A7875
:102EC0002A4B5A732C4B9A78284B9A732B4B1A7EA9
:102ED000264BDA73294B5A7E244B1A742348FEF78B
:102EE00085FD224B00221A70204B00225A601F4B96
:102EF00000221A721D4B00225A721C4B00229A7239
:102F00001A4B0022DA72194B00221A73174B002257
:102F10005A73164B00229A73144B0022DA73134B28
:102F200000221A74124B00221A70114B00225A60B0
:102F30000F4B00221A720E4B00225A720C4B0022C9
:102F40009A720B4B0022DA72094B00221A73084B5B
:102F500000225A73064B00229A73054B0022DA7343
:102F6000034B00221A7400BF80BD00BF1C02012069
:102F7000300201204800012050000120980101206A
:102F800080B500AF3C4B08221A723B4B40F20172F5
:102F90005A60394B01221A70374B07225A72364B4E
:102FA0006A229A72354BDB7A042B03D0324B012212
:102FB000DA7206E0314BDB7A042B02D12E4B04226D
:102FC000DA722D4B02221A732D4B9A782A4B5A73C0
:102FD0002B4BDA78284B9A732A4B9A78264BDA7364
:102FE000284BDA78244B1A742348FEF7FFFC224B57
:102FF00000221A70204B00225A601F4B00221A72C6
:103000001D4B00225A721C4B00229A721A4B00224E
:10301000DA72194B00221A73174B00225A73164B9F
:1030200000229A73144B0022DA73134B00221A7495
:10303000124B00221A70114B00225A600F4B0022D3
:103040001A720E4B00225A720C4B00229A720B4BD2
:103050000022DA72094B00221A73084B00225A73BD
:10306000064B00229A73054B0022DA73034B0022B1
:103070001A7400BF80BD00BF1C0201203002012075
:10308000540101205C01012080B500AF3C4B0822B7
:103090001A723B4B40F201725A60394B01221A708E
:1030A000374B07225A72364B6A229A72354BDB7ABB
:1030B000042B03D0324B0122DA7206E0314BDB7A6B
:1030C000042B02D12E4B0422DA722D4B03221A73E9
:1030D0002D4B1A782A4B5A732B4B5A78284B9A73DC
:1030E0002A4B1A78264BDA73284B5A78244B1A74D9
:1030F0002348FEF77BFC224B00221A70204B002253
:103100005A601F4B00221A721D4B00225A721C4B30
:1031100000229A721A4B0022DA72194B00221A739B
:10312000174B00225A73164B00229A73144B00223D
:10313000DA73134B00221A74124B00221A70114BCF
:1031400000225A600F4B00221A720E4B00225A7254
:103150000C4B00229A720B4B0022DA72094B0022B0
:103160001A73084B00225A73064B00229A73054BC0
:103170000022DA73034B00221A7400BF80BD00BF27
:103180001C02012030020120540101205C010120B9
:1031900080B500AF384B06221A72374B40F20172ED
:1031A0005A60354B01221A70334B05225A72324B4A
:1031B0006A229A72314BDB7A042B03D02E4B012208
:1031C000DA7206E02D4BDB7A042B02D12A4B042263
:1031D000DA72294B04221A73294B1A79264B5A7337
:1031E000284B1A79244B9A732348FEF7FFFB224B96
:1031F00000221A70204B00225A601F4B00221A72C4
:103200001D4B00225A721C4B00229A721A4B00224C
:10321000DA72194B00221A73174B00225A73164B9D
:1032200000229A73144B0022DA73134B00221A7493
:10323000124B00221A70114B00225A600F4B0022D1
:103240001A720E4B00225A720C4B00229A720B4BD0
:103250000022DA72094B00221A73084B00225A73BB
:10326000064B00229A73054B0022DA73034B0022AF
:103270001A7400BF80BD00BF1C0201203002012073
:10328000540101205C01012080B500AF3C4B0822B5
:103290001A723B4B40F201725A60394B01221A708C
:1032A000374B07225A72364B6A229A72354BDB7AB9
:1032B000042B03D0324B0122DA7206E0314BDB7A69
:1032C000042B02D12E4B0422DA722D4B05221A73E5
:1032D0002D4B5A782A4B5A732C4B5A78284B9A7399
:1032E0002B4B1A7B264BDA73294B5A7B244B1A74CF
:1032F0002348FEF77BFB224B00221A70204B002252
:103300005A601F4B00221A721D4B00225A721C4B2E
:1033100000229A721A4B0022DA72194B00221A7399
:10332000174B00225A73164B00229A73144B00223B
:10333000DA73134B00221A74124B00221A70114BCD
:1033400000225A600F4B00221A720E4B00225A7252
:103350000C4B00229A720B4B0022DA72094B0022AE
:103360001A73084B00225A73064B00229A73054BBE
:103370000022DA73034B00221A7400BF80BD00BF25
:103380001C020120300201204800012050000120D1
:103390009801012080B500AF3D4B08221A723C4BCA
:1033A00040F201725A603A4B01221A70384B0722E0
:1033B0005A72374B6A229A72364BDB7A042B03D04F
:1033C000334B0122DA7206E0324BDB7A042B02D156
:1033D0002F4B0422DA722E4B06221A732E4BDA7808
:1033E0002B4B5A732D4BDA78294B9A732C4B93F84D
:1033F0002420274BDA732A4B93F82520244B1A7488
:103400002348FEF7F3FA224B00221A70204B0022C9
:103410005A601F4B00221A721D4B00225A721C4B1D
:1034200000229A721A4B0022DA72194B00221A7388
:10343000174B00225A73164B00229A73144B00222A
:10344000DA73134B00221A74124B00221A70114BBC
:1034500000225A600F4B00221A720E4B00225A7241
:103460000C4B00229A720B4B0022DA72094B00229D
:103470001A73084B00225A73064B00229A73054BAD
:103480000022DA73034B00221A7400BF80BD00BF14
:103490001C020120300201204800012050000120C0
:1034A0009801012080B500AF2E4B03221A722D4BDC
:1034B00040F201725A602B4B01221A70294B0222F2
:1034C0005A72284B50229A72264B0122DA72264BEE
:1034D00000221A702348FEF789FA224B00221A7044
:1034E000204B00225A601F4B00221A721D4B0022F3
:1034F0005A721C4B00229A721A4B0022DA72194B34
:1035000000221A73174B00225A73164B00229A732B
:10351000144B0022DA73134B00221A74134B00224F
:103520001A70124B00225A60104B00221A720F4B75
:1035300000225A720D4B00229A720C4B0022DA7252
:103540000A4B00221A73094B00225A73074B0022C0
:103550009A73064B0022DA73044B00221A7400BFE0
:1035600080BD00BF1C020120C0FD012030020120EF
:1035700080B500AF2E4B03221A722D4B40F2017220
:103580005A602B4B01221A70294B02225A72284B87
:1035900050229A72264B0322DA72264B01221A70AD
:1035A0002348FEF723FA224B00221A70204B0022F8
:1035B0005A601F4B00221A721D4B00225A721C4B7C
:1035C00000229A721A4B0022DA72194B00221A73E7
:1035D000174B00225A73164B00229A73144B002289
:1035E000DA73134B00221A74134B00221A70124B19
:1035F00000225A60104B00221A720F4B00225A729E
:103600000D4B00229A720C4B0022DA720A4B0022F8
:103610001A73094B00225A73074B00229A73064B08
:103620000022DA73044B00221A7400BF80BD00BF71
:103630001C020120C0FD01203002012080B500AF36
:103640000F4B03221A720E4B40F201725A600C4B60
:1036500001221A700A4B02225A72094B50229A72A6
:10366000074B0222DA72074B02221A700448FEF757
:10367000BDF900F009FF002001F022F800BF80BD75
:103680001C020120C0FD012080B500AF0F4B0322BA
:103690001A720E4B40F201725A600C4B01221A70E2
:1036A0000A4B02225A72094B51229A72074B01228D
:1036B000DA72074B05221A700448FEF797F900F0FA
:1036C000E3FE002000F0FCFF00BF80BD1C020120D3
:1036D000C0FD012080B500AF0F4B03221A720E4BC4
:1036E00040F201725A600C4B01221A700A4B0222FE
:1036F0005A72094B51229A72074B0322DA72074B16
:1037000006221A700448FEF771F900F0BDFE002091
:1037100000F0D6FF00BF80BD1C020120C0FD0120CB
:1037200080B500AF2D4B02221A722C4B40F2017271
:103730005A602A4B01221A70284B01225A72274BD9
:1037400054229A726822002125480BF097F92348E9
:10375000FEF74CF9214B00221A70204B00225A60D0
:103760001E4B00221A721D4B00225A721B4B002264
:103770009A721A4B0022DA72184B00221A73174BF6
:1037800000225A73154B00229A73144B0022DA73ED
:10379000124B00221A74134B00221A70114B002294
:1037A0005A60104B00221A720E4B00225A720D4BB7
:1037B00000229A720B4B0022DA720A4B00221A7313
:1037C000084B00225A73074B00229A73054B0022C4
:1037D000DA73044B00221A7400BF80BD1C02012062
:1037E000A80201203002012080B500AF72B600BFF0
:1037F000A74B08221A72A64B40F201725A60A44BE2
:1038000001221A70A24B07225A72A14B59229A72B6
:103810009F4B0A22DA729F4B1B68DAB29C4B1A73D9
:103820009C4B5B68DAB29A4B5A739A4B9B68DAB23C
:10383000974B9A73974BDB68DAB2954BDA73954BDB
:103840001B69DAB2924B1A749148FEF7CFF8052043
:1038500002F064FC8E4B08221A728D4B40F201720A
:103860005A608B4B01221A70894B07225A72884B7F
:1038700059229A72864B0A22DA72864B5B69DAB257
:10388000834B1A73834B9B69DAB2814B5A73814B1A
:10389000DB69DAB27E4B9A737E4B1B6ADAB27C4BE1
:1038A000DA737C4B5B6ADAB2794B1A747848FEF7AC
:1038B0009DF8052002F032FC754B08221A72744BF9
:1038C00040F201725A60724B01221A70704B07224B
:1038D0005A726F4B59229A726D4B0A22DA726D4BF3
:1038E0009B6ADAB26A4B1A736A4BDB6ADAB2684BCC
:1038F0005A73684B1B6BDAB2654B9A73654B5B6B03
:10390000DAB2634BDA73634B9B6BDAB2604B1A74B7
:103910005F48FEF76BF8052002F000FC5C4B0822C4
:103920001A725B4B40F201725A60594B01221A70B5
:10393000574B07225A72564B59229A72544B0A22FD
:10394000DA72544BDB6BDAB2514B1A73514B1B6C6E
:10395000DAB24F4B5A734F4B5B6CDAB24C4B9A73E3
:103960004C4B9B6CDAB24A4BDA734A4BDB6CDAB2E3
:10397000474B1A744648FEF739F8052002F0CEFB93
:10398000434B08221A72424B40F201725A60404B7C
:1039900001221A703E4B07225A723D4B59229A72ED
:1039A0003B4B0A22DA723B4B1B6DDAB2384B1A736F
:1039B000384B5B6DDAB2364B5A73364B9B6DDAB2CD
:1039C000334B9A73334BDB6DDAB2314BDA73314BD5
:1039D0001B6EDAB22E4B1A742D48FEF707F805203D
:1039E00002F09CFB2A4B04221A72294B40F201720E
:1039F0005A60274B01221A70254B03225A72244B1E
:103A000059229A72224B0A22DA72224B5B6EDAB288
:103A10001F4B1A731E48FDF7E9FF052002F07EFBDD
:103A20001B4B00221A701A4B00225A60184B0022BE
:103A30001A72174B00225A72154B00229A72144BBD
:103A40000022DA72124B00221A73114B00225A73B1
:103A50000F4B00229A730E4B0022DA730C4B00229C
:103A60001A740D4B00221A700B4B00225A600A4B3D
:103A700000221A72084B00225A72074B00229A72D7
:103A8000054B0022DA72044B00221A7306E000BFD5
:103A90001C020120A802012030020120074B002255
:103AA0005A73064B00229A73044B0022DA73034BBD
:103AB00000221A7462B600BF00BF80BD3002012030
:103AC00080B500AF5D4B1B6805335C4A13605C4BEF
:103AD0001B68002B02D15B4B00221A705A4B9B7A59
:103AE0003E2B01D1FEF7C8FD574B9B7A282B01D105
:103AF000FEF750FD544B9B7A852B01D1FEF7D8FC85
:103B0000514B9B7A102B29D14F4BDB7A012B01D1E2
:103B1000FFF7C8FC4C4BDB7A032B01D1FFF728FDE4
:103B2000494BDB7A022B05D1464B1B78012B01D187
:103B3000FFF784FD444BDB7A042B05D1414B1B7806
:103B4000012B01D1FEF7F8FD3F4BDB7A052B05D1A8
:103B50003C4B1B78012B01D1FEF714FE3A4B1B7B2B
:103B6000862B09D1384BDB7AF12B05D1364B9B7A6A
:103B7000222B01D1FFF712F8334B9B7A112B09D17D
:103B8000314BDB7A012B05D12F4B5B7A022B01D114
:103B9000FFF77AFD2C4B9B7A112B09D12A4BDB7A4C
:103BA000032B05D1284B5B7A022B01D1FFF792FD45
:103BB000254B9B7A142B01D1FFF7B2FD224B9B7A48
:103BC000192B01D1FFF710FE1E4B1B78012B3FD1A3
:103BD0001D4B9B7A2A2B0AD11B4BDB7A042B06D177
:103BE000194B1B7B1A46194B53F822309847164B3A
:103BF0009B7A222B40F09780134BDB7A002B11D15C
:103C0000114B1B7B022B01D1FEF7E2FD0E4B1B7B00
:103C1000032B01D1FEF77CFE0B4B1B7B052B01D147
:103C2000FFF726F8084BDB7AF12B7CD1064B1B7B88
:103C3000802B78D1FEF73CFF75E000BFC4FD01206A
:103C40008C020120C0FD0120300201207000012003
:103C5000594B9B7A222B0BD0574B9B7A102B62D15E
:103C6000554BDB7A012B03D1534BDB7A032B5AD014
:103C7000524B04221A72514B40F201725A604F4B60
:103C800001221A704D4B03225A724C4B7F229A72BA
:103C90004A4B1922DA72494B22221A734748FDF720
:103CA000A5FE464B00221A70444B00225A60434B3B
:103CB00000221A72414B00225A72404B00229A7223
:103CC0003E4B0022DA723D4B00221A733B4B00221E
:103CD0005A733A4B00229A73384B0022DA73374BEF
:103CE00000221A74344B00221A70334B00225A609F
:103CF000314B00221A72304B00225A722E4B002296
:103D00009A722D4B0022DA722B4B00221A732A4B27
:103D100000225A73284B00229A73274B0022DA7331
:103D2000254B00221A74254B00221A70234B0022C7
:103D30005A60224B00221A72204B00225A721F4BEB
:103D400000229A721D4B0022DA721C4B00221A7359
:103D50001A4B00225A73194B00229A73174B0022F8
:103D6000DA73164B00221A74134B00221A70124B8E
:103D700000225A60104B00221A720F4B00225A7216
:103D80000D4B00229A720C4B0022DA720A4B002271
:103D90001A73094B00225A73074B00229A73064B81
:103DA0000022DA73044B00221A74054B1B6801339E
:103DB000034A136000BF80BD300201201C020120B5
:103DC0008C02012080B582B000AF03460A46FB7129
:103DD0001346BB7172B600BF2D4B1B78002B50D120
:103DE000BB79012B33D1FB79013B5B000133294ABD
:103DF00052F82330012B08D0FB79013B5B000133E3
:103E0000244A52F82330002B3BD1234B01221A7055
:103E1000214B4FF486725A601F4B01221A721E4AC0
:103E2000FB7953721C48FDF7E1FDFB79013B5B0018
:103E3000FA79184941F82320BB795A1CFB79013BD8
:103E40005B0001331146134A42F8231019E0FB7955
:103E5000013B5B0001330F4A52F82330012B10D194
:103E6000FB79013B5B00FA790A4941F82320BB79D1
:103E70005A1CFB79013B5B0001331146054A42F8AD
:103E8000231062B600BF00BF0837BD4680BD00BF2B
:103E9000A4020120A80201209002012080B483B076
:103EA00000AF7860044B01221A7000BF0C37BD468A
:103EB0005DF8047B704700BF1003012080B582B01D
:103EC00000AF7860134802F015FD0346124A1360F4
:103ED000114B1B68042B12D0042B16D8012B02D0D7
:103EE000022B06D011E00D4B1B6801330B4A136007
:103EF0000BE00A4B5B680133084A536005E0074B4F
:103F00009B680133054A936000BF00BF0837BD4678
:103F100080BD00BF40040120280301201C030120B4
:103F200080B582B000AF8E4802F0E4FC03468D4AB3
:103F300013608C4B1B68002B03D08948FFF7BEFF32
:103F4000B2E00023FB7107E0FB79874A002142F8C9
:103F50002310FB790133FB71FB79022BF4D9A3E029
:103F6000824B1B78032B67D801A252F823F000BFC5
:103F7000813F0608AF3F0608DD3F06080B400608F4
:103F800001224FF480717A4803F0BCFD00224FF407
:103F90008061784803F0B6FD00221021754803F0D7
:103FA000B1FD00222021734803F0ACFD45E0002262
:103FB0004FF480716E4803F0A5FD01224FF480613B
:103FC0006C4803F09FFD002210216A4803F09AFD1F
:103FD00000222021674803F095FD2EE000224FF4D7
:103FE0008071634803F08EFD00224FF480616148C8
:103FF00003F088FD002210215E4803F083FD0122BA
:1040000020215C4803F07EFD17E001224FF480710F
:10401000574803F077FD00224FF48061554803F0C4
:1040200071FD01221021534803F06CFD0022202174
:10403000504803F067FD00E000BF494802F0F8F87F
:104040004D4B00221A7004E04C4B1B6801334B4A65
:104050001360494B1B78002B05D1484B1B6844F675
:104060001F629342F0D9454B1B6844F6206293428D
:1040700003D101210A20FFF7A5FE404B00221A6060
:10408000374802F0E4FA0146384B1B781A4689B2E9
:104090003B4B23F81210324802F088F9334B1B785F
:1040A0000133DAB2314B1A70304B1B78032B7FF699
:1040B00057AF2E4B00221A70324B1968324BA3FBBC
:1040C00001231A0913469B0013449B00CA1A002AB5
:1040D00021D12C4B1B68002B1DD00023BB7113E09A
:1040E000BB792A4A52F82320BB792749A1FB021247
:1040F0001209274941F82320BB79244A002142F8BC
:104100002310BB790133BB71BB79032BE8D91D4B5D
:1041100000221A601BE000237B7110E07B791B4AB0
:1041200052F823207B79164931F8133019467B79F0
:104130000A44164941F823207B7901337B717B794E
:10414000032BEBD90F4B1B6801330E4A1360114B45
:104150001B6801330F4A136000BF0837BD4680BD9E
:10416000400401202C0301201C0301203003012006
:10417000000002400004024010030120340301202B
:104180001403012038030120CDCCCCCC3C0301200A
:10419000200001204C03012080B500AF374B1B6885
:1041A000002B27D10021364805F09CFB0021354823
:1041B00005F098FB0421334805F094FB08213148B1
:1041C00005F090FB0C212F4805F08CFB2C4B1B6855
:1041D00000225A632B4B1B6800225A63294B1B6831
:1041E00000229A63274B1B680022DA63254B1B6869
:1041F00000221A64224805F018FF0346042B05D15B
:10420000214B1B680133204A136002E01E4B002241
:104210001A601C4805F009FF0346042B05D11A4B10
:104220005B680133184A536002E0174B00225A6062
:10423000164805F0FAFE0346042B05D1124B9B6885
:104240000133114A936002E00F4B00229A6010483C
:1042500005F0EBFE0346042B05D10B4BDB68013365
:10426000094AD36002E0084B0022DA60034B1B6866
:104270000133024A136000BF80BD00BF600301200C
:1042800030060120E4060120500301209807012098
:104290007C05012080B582B000AF1A2267496848CA
:1042A00000F0C4F90A226749674800F0BFF9062206
:1042B0006649674800F0BAF9604B1B68B3F1FF3FED
:1042C00005D1682200215D480AF0D8FB07E0614A69
:1042D0005A4B1046194668231A460AF05FFC594BA0
:1042E0001B68B3F1FF3F33D15B4B1B689AB25B4B4A
:1042F0001A80594B5B689AB2584B5A80564B9B6850
:104300009AB2564B9A80544BDB689AB2534BDA8080
:10431000514B1B69DAB2524B1A704F4B5B69DAB2E0
:10432000504B1A704C4B9B69DAB24F4B1A704A4B88
:10433000DB69DAB24D4B1A70474B1B6ADAB24C4B51
:104340001A7002230A2244493F4800F019F92CE070
:104350003C4B1B689AB2414B1A803A4B5B689AB24D
:104360003E4B5A80374B9B689AB23C4B9A80354BF8
:10437000DB689AB2394BDA80324B1B69DAB2384BC0
:104380001A70304B5B69DAB2364B1A702D4BDB6911
:10439000DAB2364B1A702B4B9B69DAB2324B1A7079
:1043A000284B1B6ADAB2324B1A70284B1B68B3F1E8
:1043B000FF3F21D10023FB710AE0FA79FB792D49F7
:1043C00051F822202C4941F82320FB790133FB715D
:1043D000FB79032BF1D9274B1B69DAB2274B1A70F3
:1043E000244B5B69DAB2264B1A700323062221495B
:1043F000174800F0C5F81AE00023BB710AE0BA794B
:10440000BB79124951F822201B4941F82320BB797E
:104410000133BB71BB79032BF1D90C4B1B69DAB2A9
:10442000164B1A70094B5B69DAB2154B1A70154BB3
:1044300001221A7000BF0837BD4680BD6C03012001
:1044400000000108D403012000800008FC030120C3
:1044500000C00008A80201208C000120900101206A
:104460008D0101208C0101204D0101204C01012012
:104470004E010120B4000120580001204F0101200D
:10448000500101206903012080B582B000AF0023F4
:10449000FB7115E0FB79164A52F82320FB79154988
:1044A00051F823309A4208D0134B01221A701A2275
:1044B00010490F480AF072FB05E0FB790133FB71EC
:1044C000FB79192BE6D90C4B1B78012B08D10A4B31
:1044D00000221A7004231A220549084800F050F8F7
:1044E000074B01221A7000BF0837BD4680BD00BFD0
:1044F0006C030120A802012014040120000001081F
:104500006A03012080B500AF194B1B78032B07D13C
:10451000184B1B78002B03D1174B01221A7006E0B1
:10452000134B1B78022B02D1124B00221A70124B34
:104530001B78002B02D0012B09D011E00E4B022278
:104540001A70FFF7A7FE0C4B03221A7008E00A4B03
:1045500002221A70FFF798FF074B03221A7000BF60
:10456000064B1B680133054A136000BF80BD00BFC6
:104570002D0401206A030120680301206403012047
:10458000B0B588B000AFF860B9603B601346FB80FF
:104590000023FB613B68BB613B687B6102F092FDDD
:1045A000214B00221A60204B02221A611E4ABB696D
:1045B00093607A69BB69D31A01331B4AD36007F150
:1045C00010031946184802F0FBFE0346002B1FD0CB
:1045D00002F0AAFD034622E0FB699B00BA6813447F
:1045E0001B6800221C46154622462B46F96802200D
:1045F00002F064FC0346002B06D1FB680433FB6029
:10460000FB690133FB6103E002F08EFD034606E027
:10461000FB88FA699A42DFD302F076FD0023184640
:104620002037BD46B0BD00BF1804012080B487B05C
:1046300000AFF860B9601346FB800023FB820EE0F8
:10464000FB8A9B001A46FB6813441946FB8A9B00B1
:10465000BA6813440A681A60FB8A0133FB82FA8A3B
:10466000FB889A42ECD300BF00BF1C37BD465DF803
:10467000047B704780B400AFBFF34F8F00BF064B81
:10468000DB6803F4E0620449044B1343CB60BFF3DF
:104690004F8F00BF00BFFDE700ED00E00400FA050A
:1046A00080B500AF00F084F800F03CF8034B1B68C5
:1046B0000133024A136000BF80BD00BF30040120F7
:1046C00080B582B000AF0346FB7172B600BFFB79C4
:1046D000002B15D00E4B00221A600E4AFB79137086
:1046E0000D4B1B6801330C4A13600C4B1B680133E4
:1046F0000A4A13600A4B5B6F094A43F080735367A1
:10470000074B5B6F064A43F080735367FFF7B2FFB6
:10471000C4FD0120C8FD0120CCFD0120D0FD0120F9
:104720000038024080B582B000AF1D4B5B6F1C4A61
:1047300043F0807353671B4B1B78002B2CD1194B14
:1047400001221A700023FB711BE0FB79002B07D0BC
:10475000FB79012B04D1FB79134A002142F8231085
:10476000FB7903F00103DBB2002B07D0FB79022BAE
:1047700004D9FB790C4A002142F82310FB7901335C
:10478000FB71FB79192BE0D9084B1B78002B03D068
:1047900001210820FFF716FB00BF0837BD4680BD8A
:1047A0000038024038040120A8020120C8FD012081
:1047B00080B500AF304B1B78042B01D100F044F9D9
:1047C0002D4B1B78002B05D12B4B02221A702B4B43
:1047D00000221A602A4B1B78022B0FD0294B1B8812
:1047E000B3F5966F0AD20121274803F073F9034607
:1047F000012B03D0254B1B69032B05D11E4B022235
:104800001A701E4B00221A601D4B1B78002B16D10C
:104810001C4B1B88B3F5966F11D2174B1B78022BDC
:104820000DD10121184803F055F90346002B06D19C
:10483000164B1B69032B02D00F4B03221A700E4B31
:104840001B78032B16D10D4B1B68002B03D1104B8B
:104850001B680A4A13600E4B1A68084B1B68D31A70
:10486000B3F5FA6F06D9054B1B68002B02D0024B3B
:1048700004221A7000BF80BD2D04012034040120E1
:10488000F001012014030120000002403400012047
:104890003004012080B500AF0121664803F01AF909
:1048A0000346012B0DD1644B1B780133DAB2624B06
:1048B0001A70614B1B78032B06D10020FFF700FF15
:1048C00002E05D4B00221A70FDF791F903465B4A46
:1048D00013605A4B1B68002B00F0A880584B5B6894
:1048E000002B2ED15648FDF7F9F80346002B28D0AF
:1048F000534B5B68992B02D10020FFF7E1FE504B30
:104900005B68982B02D10020FFF7DAFE4C4B5B6806
:10491000972B02D10020FFF7D3FE494B5B68B3F51C
:10492000A26F06D1464B5B7A102B02D10020FFF715
:10493000C7FE434B5B68B3F5E06F02D10020FFF781
:10494000BFFE404B5B68002B2ED13E48FDF7C6F8FA
:104950000346002B28D03B4B5B68992B02D10020EB
:10496000FFF7AEFE374B5B68982B02D10020FFF7B4
:10497000A7FE344B5B68972B02D10020FFF7A0FE07
:10498000304B5B68B3F5A26F06D12E4B5B7A102BD0
:1049900002D10020FFF794FE2A4B5B68B3F5E06F6D
:1049A00002D10020FFF78CFE254B00221A70244B09
:1049B00000225A60224B00221A72214B00225A72A6
:1049C0001F4B00229A721E4B0022DA721C4B0022EF
:1049D0001A731B4B00225A73194B00229A73184BFF
:1049E0000022DA73164B00221A74164B00221A703A
:1049F000144B00225A60134B00221A72114B0022F2
:104A00005A72104B00229A720E4B0022DA720D4B32
:104A100000221A730B4B00225A730A4B00229A731E
:104A2000084B0022DA73074B00221A7403F01EF9B8
:104A300000BF80BD00000240390401203C04012079
:104A4000F40101200802012080B582B000AF72B6E7
:104A500000BF02217E4802F059FF04217C4802F089
:104A600055FF08217A4802F051FF1021784802F0E2
:104A70004DFF4FF48071764802F048FF4FF400710B
:104A8000734802F043FF4FF48061714802F03EFF2B
:104A90004FF400616E4802F039FF4FF480516C48CA
:104AA00002F034FF4FF40041694802F02FFF01216A
:104AB000684802F02BFF0221664802F027FF04211C
:104AC000644802F023FF0821624802F01FFF102112
:104AD000604802F01BFF20215E4802F017FF4021D2
:104AE0005C4802F013FF80215A4802F00FFF4FF498
:104AF0008071584802F00AFF4FF40071554802F0E7
:104B000005FF4FF48061534802F000FF4FF400614D
:104B1000504802F0FBFE4FF480514E4802F0F6FE82
:104B20004FF400514B4802F0F1FE4FF480414948E8
:104B300002F0ECFE4FF40041464802F0E7FE01218E
:104B4000454802F0E3FE0221434802F0DFFE042163
:104B5000414802F0DBFE08213F4802F0D7FE202149
:104B60003D4802F0D3FE40213B4802F0CFFE8021B9
:104B7000394802F0CBFE4FF48071374802F0C6FE90
:104B80004FF40071344802F0C1FE4FF480613248A6
:104B900002F0BCFE4FF400612F4802F0B7FE4FF464
:104BA00080512D4802F0B2FE4FF400512A4802F025
:104BB000ADFE4FF48041284802F0A8FE4FF40041BA
:104BC000254802F0A3FE0421244802F09FFE0121A3
:104BD000234802F09BFE0221214802F097FE214863
:104BE00004F00EFE204804F00BFE204804F0ECFC1C
:104BF0001F4805F043FE00F0EFFD0023FB7107E0C6
:104C000097F90730184602F0B9F8FB790133FB71C8
:104C1000FB79512BF4D9174B1B68164A23F0050377
:104C20001360154B00221A70144B00221A601448AE
:104C300004F028FD62B600BF0121012002F0DCFF74
:104C40000020FFF73DFD00BF0837BD4680BD00BF17
:104C5000000002400004024000080240000C024034
:104C6000001C024030060120E40601207C050120E2
:104C70004C08012010E000E0C8FD0120CCFD01201F
:104C80009807012080B584B000AF3B4600221A602F
:104C90005A609A60DA60214B214A1A601F4B4FF428
:104CA00080325A601D4B00229A601C4B00221A6110
:104CB0001A4B00221A76194B002283F82020174B3A
:104CC0000022DA62154B174A9A62144B0022DA600E
:104CD000124B0122DA61114B002283F830200F4B76
:104CE00001225A610D4801F03DFA0346002B01D024
:104CF00000F026FC04233B6001237B600723BB609C
:104D00003B461946054801F0C3FC0346002B01D081
:104D100000F016FC00BF1037BD4680BD40040120E6
:104D2000002001400100000F80B58AB000AF78601C
:104D300007F1140300221A605A609A60DA601A615F
:104D40007B681B68174A934227D100233B61164BAF
:104D50005B6C154A43F480735364134B5B6C03F430
:104D600080733B613B690023FB600F4B1B6B0E4A5A
:104D700043F0010313630C4B1B6B03F00103FB6057
:104D8000FB6810237B610323BB610023FB6107F1F8
:104D900014031946054802F035FC00BF2837BD460C
:104DA00080BD00BF002001400038024000000240EA
:104DB00080B400AF064BD3E90023501C43F100013F
:104DC000034BC3E9000100BFBD465DF8047B70479B
:104DD000B804012080B400AF064BD3E90023501C77
:104DE00043F10001034BC3E9000100BFBD465DF87C
:104DF000047B7047B004012080B582B000AF7860BA
:104E000039602320FFF75CFC00BF0837BD4680BD3A
:104E100080B500AF2220FFF753FC00BF80BD00002B
:104E200080B500AF284B00220121284806F050FE33
:104E30000346274A1360274B00220121264806F02B
:104E400047FE0346254A1360254B002201212548D1
:104E500006F03EFE0346244A13601D4B1B680521E5
:104E6000184606F0B1FE1D4B1B680A21184606F0D5
:104E7000ABFE1D4B1B686421184606F0A5FEFFF72C
:104E800041FB1A4A00211A4806F07AFD0346194AE6
:104E90001360194A0021194806F072FD0346184AAA
:104EA0001360184A0021184806F06AFD0346174AA5
:104EB0001360174A0021174806F062FD0346164AA0
:104EC000136000BF80BD00BF70ED06082D500608BE
:104ED000F004012080ED060879500608F404012052
:104EE00090ED0608AD500608F8040120E0EC060835
:104EF0001D4F0608E004012004ED0608694F06086E
:104F0000E404012028ED0608B14F0608E80401205A
:104F10004CED0608ED4F0608EC040120B0B582B058
:104F200000AF78600D4B1B78012B0AD10C4B1B781E
:104F3000022B06D1FBF7F4FBFBF77CFF074B0022AB
:104F40001A70084BD3E90023541C43F10005054BAC
:104F5000C3E90045002008F05DFAE3E7A70401205B
:104F60002D040120C0040120B0B582B000AF7860EC
:104F70000D4B1B78012B0AD1FFF792FBFEF7D0FFF8
:104F8000FFF70AF9FDF728F9074B00221A70074BC3
:104F9000D3E90023541C43F10005044BC3E9004549
:104FA000002008F037FAE3E7A5040120C804012037
:104FB000B0B582B000AF78600A4B1B78012B04D1EA
:104FC000FFF7A0FA074B00221A70074BD3E9002322
:104FD000541C43F10005044BC3E90045002008F0D0
:104FE00019FAE9E7A9040120D0040120B0B582B084
:104FF00000AF78600B4B1B78012B06D1FCF710F942
:10500000FEF75EFD074B00221A70074BD3E9002321
:10501000541C43F10005044BC3E90045002008F08F
:10502000F9F9E7E7A6040120D804012080B582B091
:1050300000AF78600B4B01221A700B4B01221A70E3
:105040000A4B01221A700A4B1B68184608F08AFAAC
:10505000084B1B68184608F085FA00BF0837BD46A4
:1050600080BD00BFA4040120A5040120A6040120E6
:10507000E4040120EC04012080B582B000AF786028
:10508000074B01221A70074B01221A70064B1B684E
:10509000184608F067FA00BF0837BD4680BD00BF5C
:1050A000A7040120A8040120E004012080B582B0FB
:1050B00000AF7860054B01221A70054B1B6818463B
:1050C00008F050FA00BF0837BD4680BDA904012092
:1050D000E804012080B58AB000AF07F11403002274
:1050E0001A605A609A60DA601A6100233B618C4B47
:1050F0001B6B8B4A43F004031363894B1B6B03F058
:1051000004033B613B690023FB60854B1B6B844AB6
:1051100043F080031363824B1B6B03F08003FB603F
:10512000FB680023BB607E4B1B6B7D4A43F0010391
:1051300013637B4B1B6B03F00103BB60BB68002355
:105140007B60774B1B6B764A43F002031363744B0F
:105150001B6B03F002037B607B6800233B60704B9A
:105160001B6B6F4A43F0080313636D4B1B6B03F01B
:1051700008033B603B6800224FF62371694802F048
:10518000C1FC00224FF48171674802F0BBFC012290
:105190001021644802F0B6FC002240F2FC71634822
:1051A00002F0B0FC00220421614802F0ABFC4FF495
:1051B00000537B610123BB610023FB6100233B6241
:1051C00007F114031946574802F01CFA4FF4404304
:1051D0007B610123BB610223FB6100233B6207F17A
:1051E000140319464F4802F00DFA41F623737B6110
:1051F0000123BB610223FB6103233B6207F114031C
:105200001946484802F0FEF90C237B610323BB6179
:105210000023FB6107F114031946424802F0F2F93A
:1052200001237B610023BB610223FB6107F11403AF
:1052300019463D4802F0E6F902237B610123BB6178
:105240000023FB6100233B6207F114031946364833
:1052500002F0D8F941F60C037B610323BB61002304
:10526000FB6107F1140319462F4802F0CBF9102314
:105270007B610123BB610123FB6103233B6207F1D7
:1052800014031946274802F0BDF940F2BC737B6154
:105290000123BB610223FB6103233B6207F114037B
:1052A0001946224802F0AEF94FF470437B610323A4
:1052B000BB610023FB6107F1140319461B4802F090
:1052C000A1F94FF480737B610123BB610223FB6171
:1052D00003233B6207F114031946134802F092F9C5
:1052E00004237B610123BB610223FB6103233B6237
:1052F00007F1140319460E4802F084F940237B613C
:105300000123BB610023FB6100233B6207F114030F
:105310001946064802F076F900BF2837BD4680BD21
:105320000038024000080240000002400004024031
:10533000000C024080B582B000AF00F0ADFE00F07E
:1053400031F8FFF7C7FEFFF79DFC00F001F900F010
:105350006BFB00F0F3FA00F059FD00F0FDFB00F0EC
:1053600089F801210C4802F0B5FB03461A460B4BA5
:105370001A700B4B7B6000233B603B46184602F0E3
:10538000DBFB06F0B3FAFFF74BFD06F0D3FA2B2058
:10539000FFF796F900BFFDE7000002402C04012052
:1053A0000200010080B594B000AF07F12003302265
:1053B0000021184609F062FB07F10C0300221A6075
:1053C0005A609A60DA601A610023BB60274B1B6C3D
:1053D000264A43F080531364244B1B6C03F0805324
:1053E000BB60BB6800237B60214B1B68204A43F4F1
:1053F000404313601E4B1B6803F440437B607B6893
:1054000001233B624FF480337B620223BB634FF482
:105410008003FB6304233B6464237B640223BB643B
:105420000423FB6407F12003184602F02FFC034617
:10543000002B01D000F084F80F23FB6002233B61B6
:1054400000237B614FF48053BB610023FB6107F1B4
:105450000C030321184602F091FE0346002B01D0F5
:1054600000F06EF800BF5037BD4680BD00380240E6
:105470000070004080B500AF00220621052001F039
:1054800045FC052001F05EFC00220621042001F00D
:105490003DFC042001F056FC00220621012001F011
:1054A00035FC012001F04EFC002206211C2001F0F9
:1054B0002DFC1C2001F046FC002206211D2001F0DD
:1054C00025FC1D2001F03EFC00220621252001F0D4
:1054D0001DFC252001F036FC00220621232001F0CE
:1054E00015FC232001F02EFC00220621512001F0A2
:1054F0000DFC512001F026FC00220521122001F0B4
:1055000005FC122001F01EFC00BF80BD80B582B0FA
:1055100000AF78607B681B68074A934201D1FFF7B0
:10552000B9F97B681B68054A934201D100F0D6FDAA
:1055300000BF0837BD4680BD00080040000C004099
:1055400080B500AF2A20FFF7BBF800BFFDE70000E1
:1055500080B500AF174B184A1A60164B4FF4827291
:105560005A60144B00229A60124B0022DA60114BF1
:1055700000221A610F4B00225A610E4B4FF4007249
:105580009A610C4B1822DA610A4B00221A62094B0D
:1055900000225A62074B00229A62064B0A22DA6204
:1055A000044803F03DF80346002B01D0FFF7C8FF85
:1055B00000BF80BDFC0401200030014080B58AB0EE
:1055C00000AF786007F1140300221A605A609A60F5
:1055D000DA601A617B681B68194A93422BD1002359
:1055E0003B61184B5B6C174A43F480535364154B73
:1055F0005B6C03F480533B613B690023FB60114B00
:105600001B6B104A43F0010313630E4B1B6B03F03B
:105610000103FB60FB68E0237B610223BB61002385
:10562000FB6103233B6205237B6207F114031946E8
:10563000054801F0E7FF00BF2837BD4680BD00BF29
:1056400000300140003802400000024080B582B0C6
:1056500000AF00237B60214B5B6C204A43F4804306
:1056600053641E4B5B6C03F480437B607B680023B8
:105670003B601A4B1B6C194A43F080531364174B61
:105680001B6C03F080533B603B68002206216FF0E7
:105690000B0001F03BFB002206216FF00A0001F035
:1056A00035FB002206216FF0090001F02FFB0022DC
:1056B00006216FF0040001F029FB002206216FF0A3
:1056C000030001F023FB00220F216FF0010001F025
:1056D0001DFB00BF0837BD4680BD00BF003802403B
:1056E00080B58EB000AF78600023FB620023BB6200
:1056F0000023FB60334B1B6C324A43F008031364F6
:10570000304B1B6C03F00803FB60FB6807F11002D1
:1057100007F114031146184602F050FF3B6AFB6282
:10572000FB6A002B03D102F021FF786304E002F052
:105730001DFF03465B007B637B6B234AA2FB0323B5
:105740009B0C013BBB62214B214A1A601F4B40F26C
:10575000E732DA601D4ABB6A53601C4B00221A61B3
:105760001A4B00229A60194B00229A61174803F0E5
:10577000CFFE034687F8333097F83330002B1BD128
:10578000124803F07FFF034687F8333097F8333031
:10579000002B11D1322001F0D5FA7B680F2B08D8ED
:1057A00000227968322001F0B1FA0A4A7B6813605E
:1057B00002E0012387F8333097F833301846383742
:1057C000BD4680BD0038024083DE1B437C050120BE
:1057D000000C0040D000012080B400AF064B1B68D5
:1057E000DA68054B1B6822F00102DA6000BFBD4693
:1057F0005DF8047B704700BF7C05012080B500AFD9
:105800002420FEF75DFF00BF80BD80B500AF2520DE
:10581000FEF756FF00BFFDE780B500AF2620FEF77C
:105820004FFF00BFFDE780B500AF2720FEF748FF20
:1058300000BFFDE780B500AF2820FEF741FF00BFA5
:10584000FDE780B400AF00BFBD465DF8047B704744
:1058500080B500AF02F0F0F92C20FEF731FF00BF59
:1058600080BD80B500AF01F07DFB00BF80BD80B47E
:1058700000AF00BFBD465DF8047B704780B500AF48
:10588000024800F0D0FD00BF80BD00BF40040120F1
:1058900080B500AF024804F0D5F800BF80BD00BF5E
:1058A0003006012080B500AF024804F0CBF800BFFD
:1058B00080BD00BFE406012080B500AF024804F0BF
:1058C000C1F800BF80BD00BF9807012080B500AFC0
:1058D000024803F067FB00BF80BD00BFFC0401204D
:1058E00080B500AF024805F02BF800BF80BD00BFB7
:1058F0004C08012080B500AF024804F0A3F800BFB7
:1059000080BD00BF7C05012080B500AF2920FEF7D7
:10591000D7FE00BF80BD000080B400AF064BD3F8B7
:105920008830054A43F47003C2F8883000BFBD4692
:105930005DF8047B704700BF00ED00E080B58EB0DD
:1059400000AF07F1280300221A605A609A60DA60FB
:1059500007F1200300221A605A603B1D00221A60E2
:105960005A609A60DA601A615A619A612D4B4FF061
:1059700080421A602B4B41F2FF325A60294B0022C1
:105980009A60284BC722DA60264B00221A61254B09
:1059900000229A61234803F0BBFD0346002B01D08F
:1059A000FFF7CEFD4FF48053BB6207F12803194681
:1059B0001C4804F019FA0346002B01D0FFF7C0FD84
:1059C000184803F0C1FE0346002B01D0FFF7B8FDD5
:1059D00000233B6200237B6207F120031946114834
:1059E00004F062FE0346002B01D0FFF7A9FD6023FF
:1059F0007B600023BB600023FB6004237B613B1DB5
:105A000000221946074804F02DF90346002B01D067
:105A1000FFF796FD034800F03FF900BF3837BD4659
:105A200080BD00BF3006012080B58EB000AF07F109
:105A3000280300221A605A609A60DA6007F1200396
:105A400000221A605A603B1D00221A605A609A6058
:105A5000DA601A615A619A613D4B3E4A1A603C4BCA
:105A600063225A603A4B00229A60394B42F20F721D
:105A7000DA60374B00221A61354B00229A613448B4
:105A800003F046FD0346002B01D0FFF759FD4FF40C
:105A90008053BB6207F1280319462D4804F0A4F98E
:105AA0000346002B01D0FFF74BFD294803F04CFEC5
:105AB0000346002B01D0FFF743FD00233B62002388
:105AC0007B6207F120031946214804F0EDFD0346EF
:105AD000002B01D0FFF734FD60237B600023BB6007
