:020000040802F0
:1000000000000220816E0208F96A02080B6B0208E8
:10001000196B0208276B0208356B0208000000000C
:10002000000000000000000000000000510603086E
:10003000436B020800000000A108030865FC0208E9
:10004000F56E0208516B0208F56E0208F56E0208A3
:100050005D6B0208696B0208F56E0208F56E020816
:10006000F56E0208F56E0208F56E0208F56E0208DC
:10007000F56E0208F56E0208F56E0208F56E0208CC
:10008000F56E0208F56E0208F56E0208796B02083B
:100090008D6B0208A16B0208B56B0208F56E0208B1
:1000A000F56E0208C96B0208F56E0208F56E0208CB
:1000B000F56E0208DD6B0208F56E0208F56E0208A7
:1000C000F56E0208F16B0208056C0208F56E020875
:1000D000F56E0208F56E0208F56E0208F56E02086C
:1000E000F56E0208F56E0208F56E0208F56E02085C
:1000F000F56E0208F56E0208F56E0208F56E02084C
:10010000F56E0208F56E0208F56E0208F56E02083B
:10011000F56E0208F56E0208F56E0208F56E02082B
:10012000F56E0208F56E0208F56E0208F56E02081B
:10013000F56E0208F56E0208F56E0208F56E02080B
:10014000F56E0208F56E0208F56E0208F56E0208FB
:10015000F56E0208F56E0208196C0208F56E0208C9
:10016000F56E0208F56E0208F56E0208F56E0208DB
:10017000F56E0208F56E02082D6C02080000000002
:08018000F56E0208416C020853
:1001900010B5054C237833B9044B13B10448AFF3C1
:1001A00000800123237010BD6C00002000000000BF
:1001B000F436030808B5034B1BB103490348AFF3FA
:1001C000008008BD0000000070000020F436030825
:1001D00001F0FF01102A2BDB10F0070F08D010F8F8
:1001E000013B013A8B422DD010F0070F42B3F6D1FC
:1001F000F0B441EA012141EA014122F007047FF015
:1002000000070023F0E80256083C85EA010586EA6B
:10021000010685FA47F5A3FA87F586FA47F6A5FAA7
:1002200087F68EB9EED1F0BC01F0FF0102F00702B3
:1002300032B110F8013B013A83EA010313B1F8D15E
:100240000020704701387047002D06BF354603383F
:10025000073815F0010F07D1013015F4807F02BF78
:10026000013015F4C03F0130F0BC0138704700BFC9
:1002700053B94AB9002908BF00281CBF4FF0FF310D
:100280004FF0FF3000F088B9ADF1080C6DE904CEF5
:1002900000F006F8DDF804E0DDE9022304B0704761
:1002A0002DE9F047089D8E4604468846002B4AD12A
:1002B0008A42174662D9B2FA82F64EB1C6F12003DD
:1002C00001FA06F820FA03F3B74043EA0808B440FD
:1002D0004FEA174E1FFA87FCB8FBFEF1230C0EFB0A
:1002E000118843EA084301FB0CF29A4209D9FB1832
:1002F00001F1FF3080F0EA809A4240F2E780023953
:100300003B449A1AA3B2B2FBFEF00EFB102243EA62
:10031000024300FB0CFC9C4509D9FB1800F1FF329D
:1003200080F0D6809C4540F2D3803B44023840EABE
:100330000140A3EB0C0300211DB1F3400022C5E9ED
:100340000032BDE8F0878B4205D90DB1C5E9000147
:1003500000210846F5E7B3FA83F1002946D1734539
:1003600002D3824200F20581841A6EEB030201205F
:100370009046002DE5D0C5E90048E2E7002A00F0EC
:100380009080B2FA82F6002E40F0A4808A1A030C04
:100390004FEA174E80B2BCB20121B2FBFEFC0EFB4D
:1003A0001C2243EA024304FB0CF29A4207D9FB18D1
:1003B0000CF1FF3802D29A4200F2E080C4469B1A48
:1003C000B3FBFEF20EFB123340EA034302FB04F4DC
:1003D0009C4207D9FB1802F1FF3002D29C4200F286
:1003E000CA8002461B1B42EA0C40A5E7C1F1200669
:1003F0008B4022FA06F71F430EFA01F420FA06F3A7
:100400002EFA06FE4FEA1749234300FA01F81FFAB5
:1004100087FCBEFBF9F01C0C09FB10EE44EA0E440D
:1004200000FB0CFEA64502FA01F209D93C1900F1C5
:10043000FF3A80F09C80A64540F2998002383C4407
:10044000A4EB0E041FFA83FEB4FBF9F309FB13447B
:100450004EEA044403FB0CFCA44508D93C1903F103
:10046000FF3E80F08280A4457FD9023B3C4443EAB2
:100470000040A4EB0C04A0FB02EC64457346E1468B
:1004800062D35FD05DB1B8EB030264EB090404FAF8
:1004900006F622FA01F31E43CC40C5E900640021B0
:1004A0004FE7B1FBF2FC010C41EA0E4180B240EA99
:1004B00001423B4638463C46B846BE462026B1FB84
:1004C000F7F1A2EB080241EA0C4166E7014618E7A2
:1004D00010462CE7C6F120022EFA02F3B740B140D5
:1004E00020FA02F24FEA174E0A43B3FBFEF8BCB201
:1004F0000EFB1833110C41EA034108FB04F9B0402C
:1005000089454FEA104380B23ED9791808F1FF3C83
:1005100001D289451FD8A1EB0901B1FBFEF909FB06
:1005200004F80EFB191192B242EA0142424529D267
:10053000BA1809F1FF31C4D24245C2D2A9F1020171
:100540003A44BEE7F0459DD2BEEB02036CEB070CCC
:100550000138E14696E7A7EB09094944A8F1020CE6
:10056000B1FBFEF909FB04F8DBE773467FE7504671
:1005700066E70846FDE63B44023A33E7ACF1020C7D
:100580003B441CE749469CE7A1EB0901C446B1FB8B
:10059000FEF909FB04F8C4E7704700BF80B400AF60
:1005A0004F4B1B68002B11D14E4B1B6807EE903A46
:1005B000F8EE677A4C4BC3ED007A4C4B1B6807EEA4
:1005C000903AF8EE677A4A4BC3ED007A494B1B78B4
:1005D000032B02D1434B00221A60464B1B78022B9F
:1005E00073D1454B1B68002B6FD0444B1B680A33FB
:1005F000424A1360424B1B6807EE903AB8EE677AA6
:10060000DFED406AC7EE267A3F4BC3ED007A3F4BE1
:1006100093ED007A3C4BD3ED007A77EE277A3B4B93
:10062000C3ED007A3A4B93ED007A374BD3ED007A65
:1006300077EE277A364BC3ED007A304B1A68354B8C
:10064000A3FB02135B09642101FB03F3D31A002B04
:100650003BD12A4B1B68002B37D02C4BD3ED007AB3
:10066000DFED2D6A87EEA67A1F4BD3ED007A77EE89
:10067000277A1D4BC3ED007A254BD3ED007ADFEDD1
:10068000266A87EEA67A1A4BD3ED007A77EE277AA0
:10069000174BC3ED007A144BD3ED007AFCEEE77AEA
:1006A00017EE902A0F4B1A60114BD3ED007AFCEE37
:1006B000E77A17EE902A0D4B1A60144B4FF00002A8
:1006C0001A60134B4FF000021A60054B1B68013390
:1006D000034A136000BFBD465DF8047B704700BF4E
:1006E0000800001018000010240000101400001072
:1006F000280000100400001000000010100000107E
:10070000D0030010000061450C0000101C00001018
:10071000200000101F85EB510000C84280B582B058
:1007200002AF694BB4221A80684BB4221A80684B1E
:10073000B4221A80674BB4221A80674BB4221A8005
:10074000664B63221A70664B63221A70654B6322F4
:100750001A70654B64221A70644B05221A70644B40
:10076000B4221A70634B40F24B121A80624B42F271
:1007700010721A80614B00221A60614B00221A70BD
:10078000604B00221A70604B00221A705F4B4FF4CE
:10079000AA721A605E4B42F210721A605D4B6322BD
:1007A0001A705D4B63221A705C4B63221A705C4BAB
:1007B00063221A705B4B00221A705B4B00221A7086
:1007C0005A4B00221A805A4B4FF6FF721A80594B2F
:1007D00000221A70584B00221A60584B00221A60EF
:1007E000574B00221A60574B00221A70564B0022BA
:1007F0001A70564B4FF0FF321A60554B4FF0FF32D4
:100800001A60544B63221A70534B63221A70534B75
:1008100063221A70524B63221A70524B63221A7071
:10082000514B63221A70514B09221A70504B6322AC
:100830001A70504B00221A704F4B00221A704F4B07
:1008400000221A704E4B63221A7004F06BFF0346AD
:100850001A464C4B1A7062B600BF0A2006F016FC0E
:1008600072B600BF474B1B78002B2AD1092004F039
:10087000B5FE05F00DF803469AB2434B1A800A20E4
:1008800004F0ACFE05F004F80346DAB23F4B1A70F0
:100890003D4B1B889C2B14D13C4B1B78B42B10D1A7
:1008A0003B4B01221A703B4B1B6842F20F721A64D9
:1008B00000230093F0234FF4A0720021002004F0E5
:1008C000E9FE00BFBD4680BDB4030010B6030010B2
:1008D000B8030010BA030010BC030010BE030010E0
:1008E000BF030010C0030010C1030010C2030010BA
:1008F000C3030010C4030010C6030010C803001097
:10090000CC030010CD030010CE030010D003001064
:10091000D4030010D8030010D9030010DA0300102C
:10092000DB03001074030010750300107603001041
:10093000780300107A030010A8030010AC03001025
:10094000B0030010DC030010DD030010E003001012
:10095000E4030010E9030010EA030010EB030010A9
:10096000EC030010ED030010EE030010EF03001085
:1009700064030010F4030010F5030010F6030010E8
:10098000F7030010590300106E0300105703001006
:1009900058030010E003002080B500AF084B1B781F
:1009A000002B0AD1074B1B78012B06D0064B1B6886
:1009B0000133054A1360FFF7B1FE00BF80BD00BFE1
:1009C000580300107B0300108003001090B585B021
:1009D00002AF7860894B1A68894B1B689A4200F015
:1009E0004081874B1B68854A1360854B1B68092B28
:1009F0002FD87B68B3F8F0007B68B3F8F2107B68FF
:100A0000B3F8F4207B68B3F8F6300024009404F0C7
:100A100041FE7B68B3F8F8007B68B3F8FA10784BB6
:100A20001A68002300934DF2B15304F0A5FD7B68D2
:100A3000B3F80031553B98B27B68B3F802117B687C
:100A4000D3F80421002300934DF2B15304F06EFD5E
:100A500007E16B4B1B68632B2FD87B68B3F8F00062
:100A60007B68B3F8F2107B68B3F8F4207B68B3F8C6
:100A7000F6300024009404F00DFE7B68B3F8F80013
:100A80007B68B3F8FA105E4B1A68002300934DF2AE
:100A9000B15304F071FD7B68B3F80031443B98B268
:100AA0007B68B3F802117B68D3F80421002300931C
:100AB0004DF2B15304F03AFDD3E0514B1B68B3F54E
:100AC0007A7F2FD27B68B3F8F0007B68B3F8F2101E
:100AD0007B68B3F8F4207B68B3F8F6300024009408
:100AE00004F0D8FD7B68B3F8F8007B68B3F8FA101F
:100AF000434B1A68002300934DF2B15304F03CFDC0
:100B00007B68B3F80031333B98B27B68B3F80211CD
:100B10007B68D3F80421002300934DF2B15304F015
:100B200005FD9EE0364B1B6842F20F7293422FD8B0
:100B30007B68B3F8F0007B68B3F8F2107B68B3F819
:100B4000F4207B68B3F8F6300024009404F0A2FD92
:100B50007B68B3F8F8007B68B3F8FA10284B1A6882
:100B6000002300934DF2B15304F006FD7B68B3F807
:100B70000031223B98B27B68B3F802117B68D3F84E
:100B80000421002300934DF2B15304F0CFFC68E040
:100B90001B4B1B681B4A934236D87B68B3F8F000A6
:100BA0007B68B3F8F2107B68B3F8F4207B68B3F885
:100BB000F6300024009404F06DFD7B68B3F8F80073
:100BC0007B68B3F8FA100E4B1A68002300934DF2BD
:100BD000B15304F0D1FC7B68B3F80031113B98B2FB
:100BE0007B68B3F802117B68D3F8042100230093DB
:100BF0004DF2B15304F09AFC33E000BFE003001063
:100C0000140000109F8601007B68B3F8F0007B6839
:100C1000B3F8F2107B68B3F8F4207B68B3F8F630D1
:100C20000024009404F036FD7B68B3F8F8007B687C
:100C3000B3F8FA106C4B1A68002300934DF2B153CD
:100C400004F09AFC7B68B3F800017B68B3F80211EA
:100C50007B68D3F80421002300934DF2B15304F0D4
:100C600065FC624B1A68624B1B689A4200F0B880C0
:100C70005F4B1B685D4A13605D4B1B68092B29D8CD
:100C80007B68B3F808017B68B3F80A117B68B3F896
:100C90000C217B68B3F80E310024009404F0FAFCB8
:100CA0007B68B3F810017B68B3F81211504B1A68D7
:100CB000002300934DF2B15304F05EFC7B68B3F85F
:100CC0001211002300934DF2B1534A4ACB2004F095
:100CD0002DFC85E0464B1B68632B29D87B68B3F855
:100CE00008017B68B3F80A117B68B3F80C217B68B4
:100CF000B3F80E310024009404F0CCFC7B68B3F808
:100D000010017B68B3F81211394B1A680023009365
:100D10004DF2B15304F030FC7B68B3F8121100239C
:100D200000934DF2B153334ADC2004F0FFFB57E04F
:100D30002F4B1B68B3F57A7F29D27B68B3F8080183
:100D40007B68B3F80A117B68B3F80C217B68B3F8B1
:100D50000E310024009404F09DFC7B68B3F8100170
:100D60007B68B3F81211224B1A68002300934DF2EE
:100D7000B15304F001FC7B68B3F812110023009317
:100D80004DF2B1531B4AED2004F0D0FB28E07B6804
:100D9000B3F808017B68B3F80A117B68B3F80C213B
:100DA0007B68B3F80E310024009404F073FC7B6878
:100DB000B3F810017B68B3F812110D4B1A680023C9
:100DC00000934DF2B15304F0D7FB7B68B3F81211D6
:100DD000002300934DF2B153064AFE2004F0A6FB17
:100DE00000BF0C37BD4690BD14000010E403001096
:100DF000180000106837030890B585B002AF78601E
:100E000000225D495D480DF061FB00225C495B48B2
:100E10000DF03EFC584B1A785A4B1A70564B5A78C4
:100E2000594B1A70544B9A78584B1A70544B9A7805
:100E3000574B1A70524B5A78564B1A70504BDA78FF
:100E4000554B1A704E4B1A78544B1A70544B1A78F3
:100E50004C4B1B789A4206D1524B1A784A4B1B785E
:100E60009A4200F08580474B1A784D4B1A70464BDA
:100E70001A784C4B1A70434B1B78092B27D87B6888
:100E800018887B6859887B689A887B68DB8800248F
:100E9000009404F0FFFB7B681B89113398B27B68D8
:100EA0005989384B1B781A46002300934DF2B153F1
:100EB00004F062FB7B68188A7B68598A7B685A69F0
:100EC000002300934DF2B15304F030FB24E07B6823
:100ED00018887B6859887B689A887B68DB8800243F
:100EE000009404F0D7FB7B6818897B685989254BEF
:100EF0001B781A46002300934DF2B15304F03CFBDB
:100F00007B68188A7B68598A7B685A69002300933A
:100F10004DF2B15304F00AFB1B4B1B78092B1AD876
:100F20007B68188B7B68598B002300934DF2B1537B
:100F3000002204F021FB7B681B8B113398B27B6885
:100F4000598B114B1B781A46002300934DF2B15375
:100F500004F012FB0CE07B68188B7B68598B0A4B02
:100F60001B781A46002300934DF2B15304F004FBA2
:100F700000BF0C37BD4690BD90030010E802002072
:100F8000A40300106603001067030010680300103C
:100F9000690300106A0300106B0300106C0300105B
:100FA000BE030010BF03001090B585B002AF78609B
:100FB00072B600BF6E4B1A786E4B1A706E4B1B6880
:100FC000DAB26E4B1B68DBB21343DAB26C4B1A70A9
:100FD0006C4B1A786C4B1A706C4B1A786C4B1A70FD
:100FE0006B4B1B78032B0ED86A4B1B78022B0AD94C
:100FF000694B1B78002B06D1654B1A78654B1A702C
:10100000654B0A221A705B4B1B78002B0ED0634B8A
:101010001B78002B0AD1604B1B78002B06D1554B57
:101020001A785E4B1A705C4B0C221A70544B1B786A
:10103000002B0ED05A4B1B78002B0AD1564B1B7835
:10104000002B06D14E4B1A78554B1A70524B052285
:101050001A704D4B1B78002B0ED0524B1B78002B77
:101060000AD14D4B1B78002B06D1474B1A784D4BBC
:101070001A70494B0B221A70474B1B78002B6DD00E
:10108000494B1B68B3F5167F4AD2474B1B68132B9D
:1010900009D8464B1A78404B1B789A4203D0444BF0
:1010A00001221A7006E0434B1B78022B02D0404B02
:1010B00000221A703C4B1B6801333B4A13603E4BC5
:1010C0001B78002B4DD13C4B01221A707B68B3F882
:1010D00040007B68B3F842107B68B3F844207B681B
:1010E000B3F846300024009404F0D4FA2A4B1B785D
:1010F0001A4613469B001344DB00304A1A447B68AF
:10110000DA647B68B3F848007B68B3F84A107B6800
:10111000DA6C002300934FF6FF7304F007FA20E027
:101120001D4B1A78214B1A701B4B00221A701E4B54
:1011300000221A60204B00221A707B68B3F840002E
:101140007B68B3F842107B68B3F844207B68B3F83F
:1011500046300024009404F09DFA02E0124B002275
:101160001A6062B600BF00BF0C37BD4690BD00BF1D
:1011700038060010F00300100404001000040010F2
:10118000F10300107B030010F20300106503001050
:10119000F3030010F703001063030010F4030010C2
:1011A000F5030010F6030010A803001064030010FC
:1011B0008C03001061030010CE0300102C000010FF
:1011C00090B585B002AF7860644B1B680133634A09
:1011D0001360634B1B78012B37D1604B1B680133C5
:1011E0005E4A13605D4B1B68642B17D17B68B3F8B4
:1011F000C8007B68B3F8CA107B68B3F8CC207B6862
:10120000B3F8CC305B089BB2D31A9AB27B68B3F8C0
:10121000CE300024009404F03DFA9AE04F4B1B6856
:10122000C82B40F096807B68B3F8C8007B68B3F8A1
:10123000CA107B68B3F8CC207B68B3F8CE304FF48B
:10124000FC64009404F026FA83E0454B1B78022BE3
:1012500036D1424B1B68642B19D17B68B3F8C82088
:101260007B68B3F8CC305B089BB2134498B27B68C0
:10127000B3F8CA107B68B3F8CC305B089AB27B68CD
:10128000B3F8CE300024009404F004FA61E0334B4C
:101290001B68C82B5DD1314B00221A607B68B3F804
:1012A000C8007B68B3F8CA107B68B3F8CC207B68B1
:1012B000B3F8CE304FF4FC64009404F0EBF948E04E
:1012C000274B1B78032B2DD1244B1B68642B10D18B
:1012D0007B68B3F8C8007B68B3F8CA107B68B3F8C2
:1012E000CC207B68B3F8CE300024009404F0D2F90F
:1012F0002FE01A4B1B68C82B2BD1184B00221A6009
:101300007B68B3F8C8007B68B3F8CA107B68B3F891
:10131000CC207B68B3F8CE304FF4FC64009404F02A
:10132000B9F916E00D4B1B68002B0FD07B68B3F8A2
:10133000C8007B68B3F8CA107B68B3F8CC207B6820
:10134000B3F8CE300024009404F0A4F9034B00223B
:101350001A6000BF0C37BD4690BD00BFAC03001043
:101360005F03001090B585B002AF78604E4B1B78DC
:10137000012B2AD14D4B1B78002B40F091804B4B19
:1013800001221A704A4B00221A707B68B3F8500091
:101390007B68B3F852107B68B3F854207B68B3F8CD
:1013A00056304FF47844009404F074F97B68B3F835
:1013B00058007B68B3F85A107B68DA6D00230093FD
:1013C0004FF6FF7304F0B2F86AE0374B1B78022B3C
:1013D00049D1384B1B680133364A1360344B002225
:1013E0001A70344B1B684B2B22D17B68B3F850002A
:1013F0007B68B3F852107B68B3F854207B68B3F86D
:1014000056304FF47844009404F044F97B68B3F804
:1014100058007B68B3F85A107B68DA6D002300939C
:101420004FF6FF7304F082F8234B01221A7037E065
:10143000204B1B68962B33D17B68B3F850007B6838
:10144000B3F852107B68B3F854207B68B3F8563079
:101450000024009404F01EF9174B00221A70154B5B
:1014600000221A601CE0124B1B78002B12D1104B8B
:1014700001221A707B68B3F850007B68B3F85210F1
:101480007B68B3F854207B68B3F85630002400948E
:1014900004F000F9074B00221A60044B00221A7076
:1014A00000BF0C37BD4690BD61030010CC03001097
:1014B000CD030010B00300108C03001090B585B070
:1014C00002AF7860AA4B1A78AA4B1B789A4222D0B6
:1014D000A84B1A78A64B1A707B68B3F878007B6823
:1014E000B3F87A10002300931123332204F0D2F8CA
:1014F000A04B1B78012B0ED17B68B3F880007B6872
:10150000B3F882107B68D3F88420002300934FF453
:10151000FC6304F00BF8984B1A78984B1B789A42AE
:1015200024D0964B1A78944B1A707B68B3F87830B5
:101530003C3398B27B68B3F87A10002300931123F0
:10154000332204F0A7F88D4B1B78012B0ED17B685A
:10155000B3F888007B68B3F88A107B68D3F88C20D6
:10156000002300934FF6E07303F0E0FF844B1A78FA
:10157000844B1B789A4224D0824B1A78804B1A7085
:101580007B68B3F87830783398B27B68B3F87A1018
:10159000002300931123332204F07CF8794B1B784D
:1015A000012B0ED17B68B3F890007B68B3F89210E2
:1015B0007B68D3F89420002300934FF4FC6303F07E
:1015C000B5FF714B1A78714B1B789A4224D06F4B40
:1015D0001A786D4B1A707B68B3F87830B43398B2D0
:1015E0007B68B3F87A10002300931123112204F0D2
:1015F00051F8664B1B78022B0ED17B68B3F898002C
:101600007B68B3F89A107B68D3F89C200023009382
:101610004FF6205303F08AFF5D4B1A785D4B1B7821
:101620009A4224D05B4B1A78594B1A707B68B3F8F6
:1016300078007B68B3F87A301E3399B200230093A8
:101640001123442204F026F8524B1B78012B0ED1B3
:101650007B68B3F8B0007B68B3F8B2107B68D3F84E
:10166000B420002300934FF6205303F05FFF4A4B52
:101670001A784A4B1B789A4230D0484B1A78464B1E
:101680001A707B68B3F878007B68B3F87A303C3323
:1016900099B2002300931123332203F0FBFF7B68F0
:1016A000B3F8A8007B68B3F8AA103C4B1B78103342
:1016B0001A46002300934FF6205303F05DFF7B682A
:1016C000B3F8A0007B68B3F8A2107B68D3F8A4201D
:1016D000002300934FF6205303F028FF304B1A7875
:1016E000304B1B789A4231D02E4B1A782C4B1A7003
:1016F0007B68B3F87830503398B27B68B3F87A30AF
:101700001E3399B2002300931123332203F0C2FF4A
:101710007B68B3F8C0007B68B3F8C210214B1B781C
:101720001A46002300934FF6205303F025FF7B68F1
:10173000B3F8B8007B68B3F8BA107B68D3F8BC2064
:10174000002300934FF6205303F0F0FE164B1A7857
:10175000164B1B789A4265D0144B1A78124B1A70AC
:10176000124B1B78632B23D9104B63221A701FE096
:10177000E903001084030010EA0300108503001041
:10178000EB03001086030010EC0300108703001029
:10179000EE03001089030010ED0300108803001011
:1017A000EF0300108A030010C1030010650300104E
:1017B0007B68188C7B68598C7B689A8C7B68DB8C87
:1017C0000024009403F066FF684B1B78092B0FD8A8
:1017D0007B681B8D113398B27B68598D634B1B78E6
:1017E0001A46002300934DF2B15303F0C5FE0CE0FE
:1017F0007B68188D7B68598D5C4B1B781A460023DB
:1018000000934DF2B15303F0B7FE7B681B8D22337A
:1018100098B27B68598D002300934DF2B153544A1E
:1018200003F084FE534B1A78534B1B789A4205D130
:10183000524B1A78524B1B789A425CD04E4B1A7816
:101840004C4B1A704E4B1A784C4B1A707B68B3F89D
:1018500060007B68B3F862107B68B3F864207B6833
:10186000B3F866300024009403F08EFD424B1B78E1
:10187000032B3FD801A252F823F000BF8D180208B5
:10188000A7180208C1180208DB1802087B68188F25
:101890007B68598F7B68B3F81A3100220092394A6D
:1018A00003F044FE27E07B68188F7B68598F7B68C4
:1018B000B3F81A3100220092334A03F037FE1AE0DF
:1018C0007B68188F7B68598F7B68B3F81A310022C8
:1018D00000922E4A03F02AFE0DE07B68188F7B6889
:1018E000598F7B68B3F81A3100220092284A03F01E
:1018F0001DFE00E000BF274B1B78012B17D1264BA4
:101900001A78244B1B789A4211D0224B1A78224B1A
:101910001A707B68B3F868007B68B3F86A107B685C
:10192000DA6E002300931F2303F000FE19E0194B29
:101930001B78002B15D1184B1A78164B1B789A423E
:101940000FD0144B1A78144B1A707B68B3F86800E8
:101950007B68B3F86A10002300931F230F4A03F03B
:10196000E5FD00BF0C37BD4690BD00BF650300100C
:1019700040370308C20300105B030010C3030010CC
:101980006003001074370308783703087C370308B6
:10199000803703085C030010C0030010843703087D
:1019A00090B585B002AF7860974B1B781A46974B7D
:1019B0001B889A4206D1964B1A78964B1B789A420E
:1019C00000F09980934B1A78914B1A708E4B1B78CC
:1019D0001A468E4B1A808C4B1B781A468E4B1A6017
:1019E0008D4B1B68092B2BD87B68B3F8D2100023D2
:1019F000009314236622002003F04CFE7B68B3F8AA
:101A0000D0007B68B3F8D2107B68D3F8D4207B6811
:101A1000B3F81A310024009403F088FD7B68B3F812
:101A2000D030183B98B27B68B3F8D2107A4B1A6862
:101A30007B68B3F81A310024009403F09DFD5AE04E
:101A4000754B1B68632B2BD87B68B3F8D21000232F
:101A5000009314236622002003F01CFE7B68B3F879
:101A6000D0007B68B3F8D2107B68D3F8D4207B68B1
:101A7000B3F81A310024009403F058FD7B68B3F8E2
:101A8000D030283B98B27B68B3F8D210624B1A680A
:101A90007B68B3F81A310024009403F06DFD2AE04E
:101AA0007B68B3F8D2100023009314236622002031
:101AB00003F0F0FD7B68B3F8D0007B68B3F8D21078
:101AC0007B68D3F8D4207B68B3F81A3100240094E3
:101AD00003F02CFD7B68B3F8D0303C3B98B27B68B8
:101AE000B3F8D2104C4B1A687B68B3F81A31002453
:101AF000009403F041FD494B1B781A46484B1B8864
:101B00009A4206D1474B1A78424B1B789A4200F012
:101B1000EB80424B1B781A46414B1A803F4B1B7897
:101B20001A46414B1A60404B1B6841F6583202FB83
:101B300003F33E4AA2FB0323DB093B4A1360354B08
:101B40001A78384B1A70384B1B68092B2BD87B68D6
:101B5000B3F8DA10002300931423BE22BE2003F052
:101B600099FD7B68B3F8D8007B68B3F8DA107B681E
:101B7000D3F8DC207B68B3F81A310024009403F01A
:101B8000D5FC7B68B3F8D830183B98B27B68B3F8C3
:101B9000DA10254B1A687B68B3F81A3100240094D8
:101BA00003F0EAFCA0E0204B1B68632B40D87B6865
:101BB000B3F8DA10002300931423BE22BE2003F0F2
:101BC00069FD7B68B3F8D8007B68B3F8DA107B68EE
:101BD000D3F8DC207B68B3F81A310024009403F0BA
:101BE000A5FC7B68B3F8D830283B98B27B68B3F883
:101BF000DA100D4B1A687B68B3F81A310024009490
:101C000003F0BAFC70E000BF5D030010C4030010D5
:101C1000D803001060030010D00300105E03001012
:101C2000C6030010D9030010D40300108180808007
:101C30002F4B1B68B3F57A7F2BD27B68B3F8DA1091
:101C4000002300931423BE22BE2003F023FD7B68F3
:101C5000B3F8D8007B68B3F8DA107B68D3F8DC20DF
:101C60007B68B3F81A310024009403F05FFC7B68B2
:101C7000B3F8D8303C3B98B27B68B3F8DA101C4B11
:101C80001A687B68B3F81A310024009403F074FCDE
:101C90002AE07B68B3F8DA10002300931423BE22F5
:101CA000BE2003F0F7FC7B68B3F8D8007B68B3F87C
:101CB000DA107B68D3F8DC207B68B3F81A31002493
:101CC000009403F033FC7B68B3F8D8304D3B98B2F6
:101CD0007B68B3F8DA10064B1A687B68B3F81A31E0
:101CE0000024009403F048FC00BF0C37BD4690BDB3
:101CF000D403001090B585B002AF78605E4B1B78BE
:101D00001A465E4B1B8802FB03F35D4A82FB0312FB
:101D10001A44D211DB17D31A9AB25A4B1A805A4B73
:101D20001B781A46554B1B8802FB03F3544A82FB6F
:101D300003121A44D211DB17D31A9AB2534B1A80EA
:101D4000534B1A884F4B1B889A4205D1514B1A7836
:101D5000514B1B789A423FD04F4B1A784D4B1A701B
:101D6000484B1A884A4B1A807B68B3F8E0007B68BE
:101D7000B3F8E620414B1B88D31A99B27B68B3F8BD
:101D8000E4207B68B3F8E030D31A9CB23B4B1A884E
:101D90003C4B1B88D31A9BB200220092224603F0D0
:101DA00079FC7B68B3F8E0007B68B3F8E620354B3C
:101DB0001B88D31A99B27B68B3F8E4207B68B3F828
:101DC000E030D31A9AB22F4B1C887B68B3F81E31CF
:101DD0000093234603F05EFC304B1A882B4B1B8884
:101DE0009A4205D12E4B1A782B4B1B789A423FD042
:101DF000294B1A782A4B1A70244B1A88274B1A80C1
:101E00007B68B3F8E8007B68B3F8EE201B4B1B88B7
:101E1000D31A99B27B68B3F8EC207B68B3F8E8304A
:101E2000D31A9CB2154B1A88184B1B88D31A9BB235
:101E300000220092224603F02DFC7B68B3F8E800F4
:101E40007B68B3F8EE20114B1B88D31A99B27B68DC
:101E5000B3F8EC207B68B3F8E830D31A9AB20B4B96
:101E60001C887B68B3F81C310093234603F012FCF6
:101E700000BF0C37BD4690BD5D030010BC030010D1
:101E800081808080B40300105E030010B603001050
:101E9000B8030010DA03001060030010BA0300104A
:101EA000DB03001080B400AF134B1B78012B0ED165
:101EB000124B1B681B6CB3F57A7F17D30F4B1B6853
:101EC0001A6C0E4B1B68A2F5FA721A640EE00B4BEB
:101ED0001B681B6C42F20E72934207D8074B1B68BB
:101EE0001A6C064B1B6802F5FA721A6400BFBD46F5
:101EF0005DF8047B704700BF86030010E0030020FC
:101F000080B500AF0648FFF74BFD0548FFF7F2FE2E
:101F10000348FFF7D3FA0248FEF758FD00BF80BD23
:101F20003402001080B582B002AF0D4B01221A704E
:101F300000230093F0234FF4A0720021002003F04F
:101F4000A9FB084B1B6800221A64002201210648E5
:101F500009F058F8282003F041FB00BFBD4680BDC2
:101F600054030010E00300200008024080B582B056
:101F700002AF284B1B78002B0BD1264B01221A7085
:101F800000230093F0234FF4A0720021002003F0FF
:101F900081FB214B1B78052B26D81F4B1B78013367
:101FA000DAB21D4B1A701D4B1B884DF2065293423C
:101FB00007D81A4B1B8803F52B5338339AB2174BAB
:101FC0001A80164B1B8800220092154A6421642057
:101FD00003F0ACFA114B1B8800220092114A7D21BC
:101FE0007D2003F0A3FA12E00023009314238C2237
:101FF0006421642003F04EFB00230093142350223D
:102000007D217D2003F046FB074B01221A7000BFA3
:10201000BD4680BDDD030010740300107603001080
:1020200088370308943703085503001080B582B041
:1020300002AF674B00221A70664B1B78002B40F0F2
:102040009D80644B01221A7000230093F0234FF40B
:10205000A0720021002003F01DFB5F4BB4221A8008
:102060005E4BB4221A805E4BB4221A805D4BB422C0
:102070001A805D4BB4221A805C4BB4221A705C4B00
:10208000B4221A705B4BB4221A705B4B64221A7034
:102090005A4B05221A705A4BB4221A70594B40F20F
:1020A0004B121A80584B42F210721A80574B002282
:1020B0001A60574B00221A70564B00221A70564B6A
:1020C00000221A70554B40F24B121A60544B42F2E8
:1020D00010721A60534BB4221A70534BB4221A7008
:1020E000524BB4221A70524BB4221A70514B002238
:1020F0001A70514B00221A70504B00221A80504B1C
:102100004FF6FF721A804F4B00221A604E4B00228E
:102110001A604E4B00221A604D4B00221A704D4B34
:102120004FF0FF321A604C4B4FF0FF321A604B4BAE
:1021300063221A704A4B63221A704A4B63221A7048
:10214000464B63221A70484B63221A70474B632236
:102150001A70474B63221A70464B09221A70464B7D
:1021600000221A70454B00221A70454B00221A704B
:10217000444B00221A70444B63221A702E4B1B787A
:10218000052B1DD82C4B1B780133DAB22A4B1A7061
:102190002B4B1B8842F6F822934207D9284B1B8809
:1021A000A3F52B53383B9AB2254B1A80244B1B883E
:1021B00000220092354A6421642003F0B7F904E05C
:1021C000334B02221A70FFF7ADFE00BFBD4680BD43
:1021D00055030010DC030010B4030010B603001018
:1021E000B8030010BA030010BC030010BE030010B7
:1021F000BF030010C0030010C1030010C203001091
:10220000C3030010C4030010C6030010C80300106D
:10221000CC030010CD030010CE030010D00300103B
:10222000D4030010D8030010D9030010DA03001003
:10223000DB03001074030010750300107603001018
:1022400078030010A8030010AC030010B0030010C6
:10225000DD030010E0030010E4030010E9030010A8
:10226000EA030010EB030010EC030010ED03001074
:10227000EE030010EF03001064030010F4030010DD
:10228000F5030010F6030010F70300109C37030855
:102290005603001080B582B002AF2D4B1B68002B97
:1022A00016D12C4B1B682A4A136000230093F0239D
:1022B0004FF4A0720021002003F0ECF94FF47843B2
:1022C0000093F0234FF4A0720021002003F0E2F904
:1022D000204B1A681E4B1B68D31AC82B0AD14FF427
:1022E000FC630093F0234FF4A0720021002003F060
:1022F000D1F910E0174B1A68154B1B68D31AB3F5C8
:10230000C87F08D11F230093F0234FF4A07200214F
:10231000002003F0BFF90F4B1A680D4B1B68D31A4E
:10232000B3F5167F10D900230093F0234FF4A07269
:102330000021002003F0AEF9074B00221A70044B75
:1023400000221A6000F00AF800BFBD4680BD00BF41
:10235000C8030010700300107C03001080B400AFAD
:10236000444B00221A60444B00221A60434B002267
:102370001A60434BB4221A80424BB4221A80424B5B
:10238000B4221A80414BB4221A80414BB4221A80E5
:10239000404B63221A70404B63221A703F4B6322FA
:1023A0001A703F4B64221A703E4B05221A703E4B46
:1023B00063221A703D4B40F24B121A803C4B42F2A2
:1023C00010721A803B4B00221A603B4B00221A709D
:1023D0003A4B00221A703A4B00221A70394B4FF4D4
:1023E000AA721A60384B42F210721A60374B63229D
:1023F0001A70374B63221A70364B63221A70364BB1
:1024000063221A70354B00221A70354B00221A7065
:10241000344B4FF0FF321A60334B4FF0FF321A60EB
:10242000324B63221A70324B63221A70314B632293
:102430001A70314B63221A70304B63221A70304B82
:1024400063221A702F4B63221A702F4B00221A70CE
:102450002E4B00221A702E4B00221A702D4B002298
:102460001A702D4B63221A7000BFBD465DF8047BC5
:10247000704700BFA8030010AC030010B0030010A9
:10248000B4030010B6030010B8030010BA03001024
:10249000BC030010BE030010BF030010C0030010F7
:1024A000C1030010C2030010C3030010C4030010D6
:1024B000C6030010C8030010CC030010CD030010A9
:1024C000CE030010D0030010D4030010D803001076
:1024D000D9030010DA030010DB030010DC03001046
:1024E000DD030010E0030010E4030010E903001016
:1024F000EA030010EB030010EC030010ED030010E2
:10250000EE030010EF03001064030010F40300104A
:10251000F5030010F6030010F703001080B582B039
:1025200002AF72B600BF9E4B1B78002B0BD19D4BA8
:102530001B78022B07D0002201219B4808F062FD86
:102540009A4B00221A709A4B1B78012B40F0128193
:10255000984B1B78002B00F0E080964B1B78022BE9
:1025600000F2DB80934B1A78934B1A70934B1B78D5
:10257000012B1AD100F036F9FFF794FC904B1B7831
:10258000002B0BD18F48FEF71BFE8E48FEF734FC64
:102590008C48FEF7E7FE8B48FEF706FD834B1B7861
:1025A0001A460121804808F02DFD854B1B78002B31
:1025B00040F09F80844B1A78814B1B789A420ED052
:1025C0007F4B1A78804B1A70FFF7C8FE00230093E8
:1025D000F0234FF4A0720021002003F05BF87B4B46
:1025E0001B78012B0DD1794B00221A70734B0022FE
:1025F0001A70774B01221A706D4B00221A70FEF789
:10260000CBF96E4B1B78002B17D1724B1A68724BAB
:10261000A3FB02131B09322101FB03F3D31A002B86
:1026200040F0B2806B4B1B68002B00F0AD80FFF7D1
:102630009DFC674B01221A70A6E0684B1B78002BAB
:1026400054D1674B1A785F4B83F818215D4B93F890
:102650001831002B0FD15B4B4FF63672A3F81A21BD
:10266000584B4BF20412A3F81E21564B4EF65572EE
:10267000A3F81C2127E0534B93F81831012B0FD1FD
:10268000504B49F66662A3F81A214E4B4FF6205282
:10269000A3F81E214B4B4FF47842A3F81C2112E003
:1026A000484B93F81831022B0DD1464B1922A3F851
:1026B0001A21444B48F27D62A3F81E21414B40F29F
:1026C000FF72A3F81C21434B1A68434BA3FB021370
:1026D0001B09322101FB03F3D31A002B54D13D4BCC
:1026E0001B68002B50D0FFF70BFC4DE0FFF7D2FD2D
:1026F0004AE0354B1A78324B1B789A4244D0304B23
:102700001A78314B1A7000230093F0234FF4A07213
:102710000021002002F0BEFF36E0264B1B78002B84
:1027200033D1254B1B78002B2FD0254B00221A705C
:10273000274B1B78012B12D1264B1A68264BA3FB83
:1027400002131B09322101FB03F3D31A002B1CD106
:10275000204B1B68002B18D0FFF768FC15E01C4BC2
:102760001B78022B11D1194B1B78002B0DD1FFF7D1
:10277000D9FB0AE0154B1B78002B02D1FFF7D2FBE7
:1027800003E0FEF709F900E000BF124B1B680133BC
:10279000104A136062B600BF00BFBD4680BD00BFD7
:1027A0006303001061030010000802408C03001056
:1027B000580300105A0300107A030010550300104C
:1027C0008B03001034020010E803001054030010C3
:1027D00056030010700300101F85EB517C0300109E
:1027E0006003001080B500AF274B1B68002B05D19C
:1027F00002F00EFA03461A46244B1A70234B1B783C
:10280000002B34D1224B1B68002B30D1214B1B688D
:10281000042B2CD0204B1B78002B07D102F078FF23
:1028200003461E4A13601C4B01221A701C4B1B7876
:10283000012B03D01B4B1B78032B11D11A4B1B7898
:10284000002B0DD0194B1B78002B0FD1174B0122F9
:102850001A70124B1B681946002002F08FFA05E02F
:10286000124B00221A7002F0B7FA06E005E002F0FF
:10287000CFF903461A46054B1A70034B1B68013308
:10288000014A136000BF80BDF80300100804001067
:102890000004001004040010880000208C000020B8
:1028A000FC0300105B0300105A0300108B030010A0
:1028B00080B582B000AF984805F0FCFA03461A468E
:1028C000964B1A60964B1B68002B0FD1924804F070
:1028D00027FE944B48F612721A60924B1B681946F9
:1028E0008D4805F098F8904B03221A708E4B1B7898
:1028F000022B04D08C4B1B78032B40F0D4808A4BE6
:102900001B78042B00F0CF800023FB7107E0FB79DC
:10291000864A002142F82310FB790133FB71FB79D1
:10292000142BF4D9824B1B680133814A1360814B0D
:102930001B6801337F4A13607F4B1B6801337E4A5B
:1029400013607E4B1B6801337C4A13607C4B1B6811
:1029500001337B4A1360764B1B68B3F5FA6F16D9C7
:102960000121122001F01AFE764B00221A70764BDC
:1029700000221A70754B00221A70754B00221A70D3
:10298000744B00221A70744B00221A7003E000216D
:10299000122001F003FE674B1B68B3F5FA6F13D9E1
:1029A0000121132001F0FAFD6C4B00221A706C4BD0
:1029B00000221A706B4B00221A706B4B00221A70A7
:1029C0006A4B00221A7003E00021132001F0E6FD9B
:1029D000594B1B68B3F5FA6F07D90121152001F097
:1029E000DDFD634B00221A7003E00021152001F089
:1029F000D5FD524B1B68B3F5FA6F10D90121142095
:102A000001F0CCFD5B4B00221A705B4B00221A7068
:102A10005A4B00221A705A4B00221A7003E0002110
:102A2000142001F0BBFD454B1B68B3F5FA6F10D9BC
:102A30000121142001F0B2FD4E4B00221A704E4BC2
:102A400000221A704D4B00221A704D4B00221A7052
:102A500003E00021142001F0A1FD314B1A68494B1D
:102A6000A3FB02139B09C82101FB03F3D31A002B1C
:102A700019D1454B01221A61434B00229A60424B07
:102A80004FF400721A60414B1B780133DAB23F4BAE
:102A90001A703E4B1A783E4B1A703E4B3C4A3A49EC
:102AA0001D4804F0C6FD3C4B1B68B3F57A7F02D38A
:102AB0001D4B01221A701C4B1B78012B02D1374B86
:102AC00001221A70354B1B78012B08D1124804F0F3
:102AD00090FD0346002B02D10F4804F065FD2E4BFC
:102AE0001B6801332C4A13600D4B1B6801330C4AE1
:102AF00013600023BB7106E0BB79254A0021D15445
:102B0000BB790133BB71BB79072BF5D900BF00BF7F
:102B10000837BD4680BD00BFC40000201C04001063
:102B20001804001090000020CC04001020040010B5
:102B30000805001004050010140500100C05001015
:102B400010050010DC040010DB040010D704001096
:102B5000D3040010D6040010DF040010CE040010CF
:102B6000CF040010D0040010D2040010D9040010CB
:102B7000DA040010DD040010D4040010DE0400109C
:102B8000D50400101F85EB51A0040010180500109B
:102B9000B8040010C0040010C8040010C4040010E1
:102BA00080B582B000AF78607B685B6AB3F5001FC8
:102BB00000F03F81B3F5001F00F24281B3F5801FA2
:102BC00000F03081B3F5801F00F23A81B3F5002F99
:102BD00000F02181B3F5002F00F23281B3F5802F90
:102BE00000F01281B3F5802F00F22A81B3F5803F07
:102BF00000F00381B3F5803F00F22281B3F5004F6E
:102C000000F0F780B3F5004F00F21A81B3F5804F62
:102C100000F0E880B3F5804F00F21281B3F5005F59
:102C200000F0D980B3F5005F00F20A81B3F5805F50
:102C300000F0CA80B3F5805F00F20281B3F5006F47
:102C400000F0BB80B3F5006F00F2FA80B3F5806F3F
:102C500000F0AC80B3F5806F00F2F280B3F5007F36
:102C600000F09D80B3F5007F00F2EA80B3F5807F2D
:102C700000F08E80B3F5807F00F2E280802B00F0C0
:102C80008080802B00F2DC80202B49D8002B00F0C4
:102C9000D780013B1F2B00F2D38001A252F823F012
:102CA000272D0208352D0208412E0208432D020867
:102CB000412E0208412E0208412E0208512D020821
:102CC000412E0208412E0208412E0208412E020820
:102CD000412E0208412E0208412E0208592D0208F9
:102CE000412E0208412E0208412E0208412E020800
:102CF000412E0208412E0208412E0208412E0208F0
:102D0000412E0208412E0208412E0208412E0208DF
:102D1000412E0208412E0208412E0208672D0208AA
:102D2000402B27D08CE0494B01221A60786805F0CF
:102D3000E9F886E0454B02225A60786805F0E2F82F
:102D40007FE0424B03229A60786805F0DBF878E078
:102D5000786805F0D7F874E03C4B05221A61786872
:102D600005F0D0F86DE0394B06225A61786805F01D
:102D7000C9F866E0354B07229A61786805F0C2F819
:102D80005FE0324B0822DA61786805F0BBF858E062
:102D90002E4B09221A62786805F0B4F851E02B4BEB
:102DA0000A225A62786805F0ADF84AE0274B0B22F8
:102DB0009A62786805F0A6F843E0244B0C22DA62A8
:102DC000786805F09FF83CE0204B0D221A63786884
:102DD00005F098F835E01D4B0E225A63786805F02F
:102DE00091F82EE0194B0F229A63786805F08AF863
:102DF00027E0164B11221A6423E0144B12225A6466
:102E0000786805F07FF81CE0104B13229A6478680C
:102E100005F078F815E00D4B1422DA64786805F0B7
:102E200071F80EE0094B15221A65786805F06AF80A
:102E300007E0064B16225A65786805F063F800E053
:102E400000BF00BF0837BD4680BD00BF2004001092
:102E500080B58AB000AF7860954B1B680133944A07
:102E60001360944B1B78012B18D1934B934A00218C
:102E7000934804F0AEFC914B1B68B3F5A26F0AD1E6
:102E80008D4B5A788F4B1A708B4B5B78112B02D17C
:102E9000002002F017F80AF07FFBCFE1844B1B689B
:102EA0000133834A1360844B844A0021844804F030
:102EB00090FC824B1B68B3F5A26F14D17E4B5A78FD
:102EC000804B1A707C4B5B78112B0CD17E4B00220F
:102ED0001A707E4B1B78042B02D07C4B02221A7096
:102EE0007B4B00221A60754B1B68972B16D1724BD7
:102EF0001A78784B1A70704B1A79774B1A706E4BA0
:102F0000DA78764B1A706C4B5A78754B1A706A4B9C
:102F10009A78744B1A70744B00221A60674B1B68C6
:102F2000982B1AD1644B1A78704B1A70624B5A78EE
:102F30006F4B1A70604B9A786E4B1A705E4BDA7852
:102F40006D4B1A705C4B1A796C4B1A705A4B5A794C
:102F50006B4B1A706B4B00221A60584B1B68992BF5
:102F600012D1554B1A78684B1A70534B5A78674BED
:102F70001A70514B9A78664B1A704F4BDA78654B42
:102F80001A70654B00221A604C4B1B6840F20B1202
:102F9000934203D1484B1A78604B1A70474B1B6819
:102FA00040F20F12934206D1434B1A785C4B1A70D1
:102FB0005C4B00221A60414B1B6840F20122934295
:102FC00025D1594B00221A603B4B1B7887F82330E0
:102FD000394B5B7887F82130374B9B7887F8223064
:102FE00007F120030022194650480BF0CDFA324B6E
:102FF000DB783B73304B1B797B732F4B5B79BB7357
:1030000007F10C030022194648480BF0C5F92B4B79
:103010001B6840F20272934230D1284B1B69444A2C
:103020001361264B5B68424A5360244B9B69404ABC
:103030009361224B9B683E4A9360204BDB683C4A7D
:10304000D3601E4B1B683A4A13601C4B5B69384ABD
:103050005361002387F827300CE097F8272097F872
:1030600027301549895C334AD15497F8273001330A
:1030700087F8273097F82730072BEED90F4B00221F
:103080001A610E4B00225A600C4B00229A610B4BC6
:1030900000229A60094B0022DA60084B00221A6075
:1030A000064B00225A61002387F826304EE000BF0D
:1030B0007404001039060010980400107C040010FD
:1030C000C4000020CD040010C4040010CC04001083
:1030D000C8040010CE040010CF040010D00400106B
:1030E000D2040010D904001004050010DC04001004
:1030F000DB040010D7040010D3040010D604001025
:10310000DF04001008050010DD040010D4040010D6
:10311000DE040010D50400100C050010D8040010C7
:10312000DA0400101405001010050010E802002059
:10313000E8040010E004001097F82630414A00210E
:10314000D15497F82630013387F8263097F8263087
:10315000072BF1D93C4B1B781A463C4B1A603C4B71
:103160001A783C4B1A703C4B1A783C4B1A703C4B0B
:103170001A783C4B1A703C4B1A783C4B1A70324B05
:103180001A783B4B1A703B4B1A783B4B1A703B4BEF
:103190001A783B4B1A703B4B1A783B4B1A703B4BDF
:1031A0001A783B4B1A703B4B1B78002B07D03A4BDD
:1031B0001B78002B03D1374B1A78374B1A70374BDB
:1031C0001A78374B1A70374B1A78374B1A70374BBF
:1031D0001A78374B1A70374B1A78374B1A70374BAF
:1031E0001A78374B1A70374B1A78374B1A70374B9F
:1031F0001B78032B14D0032B19DC012B02D0022BDC
:1032000007D014E0324B01221A70324B00221A70A0
:1032100014E02F4B00221A702E4B01221A700DE081
:103220002B4B01221A702B4B01221A7006E0284BFF
:1032300000221A70274B00221A7000BF00BF2837E7
:10324000BD4680BD98040010CF040010000000109F
:10325000DA04001004000010CE0400105A0300101D
:10326000D20400105B030010D70400105C030010B0
:103270005D030010D00400105E030010D60400109F
:103280005F030010D404001060030010D904001084
:1032900061030010D804001063030010D304001071
:1032A00065030010DD0400108A030010DE04001026
:1032B00088030010DC04001087030010DF040010F6
:1032C00089030010D504001086030010DB040010F1
:1032D000840300108503001080B58AB000AF7860C9
:1032E000964B1B680133954A1360954B1B78012B55
:1032F00018D1944B944A0021944804F06AFA924BF6
:103300001B68B3F5A26F0AD18E4B5A78904B1A7096
:103310008C4B5B78112B02D1002001F0D3FD0AF019
:103320003BF9D3E18B4B1B6801338A4A1360854B11
:10333000854A0021854804F04CFA834B1B68B3F59D
:10334000A26F14D17F4B5A78814B1A707D4B5B78FA
:10335000112B0CD1804B00221A70804B1B78042B50
:1033600002D07E4B02221A707D4B00221A60764BEF
:103370001B68972B16D1734B1A787A4B1A70714BC6
:103380001A79794B1A706F4BDA78784B1A706D4B4B
:103390005A78774B1A706B4B9A78764B1A70764B3B
:1033A00000221A60684B1B68982B1AD1654B1A785B
:1033B000724B1A70634B5A78714B1A70614B9A7842
:1033C000704B1A705F4BDA786F4B1A705D4B1A793D
:1033D0006E4B1A705B4B5A796D4B1A706D4B002215
:1033E0001A60594B1B68992B12D1564B1A786A4BAD
:1033F0001A70544B5A78694B1A70524B9A78684B32
:103400001A70504BDA78674B1A70674B00221A60BB
:103410004D4B1B6840F20B12934203D1494B1A7873
:10342000624B1A70484B1B6840F20F12934206D150
:10343000444B1A785E4B1A705E4B00221A60424B66
:103440001B6840F20122934227D15B4B00221A6095
:103450003C4B1B78303BDBB287F82330394B5B7831
:1034600087F82130374B9B7887F8223007F120030B
:103470000022194651480BF087F8324BDB783B733A
:10348000304B1B797B732F4B5B79BB7307F10C03BC
:103490000022194649480AF07FFF2B4B1B6840F277
:1034A0000272934230D1284B1B69454A1361264B67
:1034B0005B68434A5360244B9B69414A9361224BAA
:1034C0009B683F4A9360204BDB683D4AD3601E4BAC
:1034D0001B683B4A13601C4B5B69394A53610023EC
:1034E00087F827300CE097F8272097F82730154900
:1034F000895C344AD15497F82730013387F8273054
:1035000097F82730072BEED90F4B00221A610E4B8C
:1035100000225A600C4B00229A610B4B00229A60E9
:10352000094B0022DA60084B00221A60064B002289
:103530005A61002387F8263050E000BF780400105D
:1035400039060010980400107C040010C40000200C
:10355000CD04001074040010C4040010CC0400104A
:10356000C8040010CE040010CF040010D0040010D6
:10357000D2040010D904001004050010DC0400106F
:10358000DB040010D7040010D3040010D604001090
:10359000DF04001008050010DD040010D404001042
:1035A000DE040010D50400100C050010D804001033
:1035B000DA0400101405001010050010E8020020C5
:1035C000E8040010E004001097F82630414A00217A
:1035D000D15497F82630013387F8263097F82630F3
:1035E000072BF1D93C4B1B781A463C4B1A603C4BDD
:1035F0001A783C4B1A703C4B1A783C4B1A703C4B77
:103600001A783C4B1A703C4B1A783C4B1A70324B70
:103610001A783B4B1A703B4B1A783B4B1A703B4B5A
:103620001A783B4B1A703B4B1A783B4B1A703B4B4A
:103630001A783B4B1A703B4B1B78002B07D03A4B48
:103640001B78002B03D0374B1A78374B1A70374B47
:103650001A78374B1A70374B1A78374B1A70374B2A
:103660001A78374B1A70374B1A78374B1A70374B1A
:103670001A78374B1A70374B1A78374B1A70374B0A
:103680001B78032B14D0032B19DC012B02D0022B47
:1036900007D014E0324B01221A70324B00221A700C
:1036A00014E02F4B00221A702E4B01221A700DE0ED
:1036B0002B4B01221A702B4B01221A7006E0284B6B
:1036C00000221A70274B00221A7000BF00BF283753
:1036D000BD4680BD98040010CF040010000000100B
:1036E000DA04001004000010CE0400105A03001089
:1036F000D20400105B030010D70400105C0300101C
:103700005D030010D00400105E030010D60400100A
:103710005F030010D404001060030010D9040010EF
:1037200061030010D804001063030010D3040010DC
:1037300065030010DD0400108A030010DE04001091
:1037400088030010DC04001087030010DF04001061
:1037500089030010D504001086030010DB0400105C
:10376000840300108503001080B582B000AF1948B3
:1037700008F0A4F903461A46174B1A60154808F0DA
:10378000ABF90346154A1360144B1B68042B0AD18E
:1037900002F082FE114B00221A60114B1B680133AC
:1037A0000F4A13600DE00023FB7107E0FB790D4A1F
:1037B000002142F82310FB790133FB71FB79072BC1
:1037C000F4D9094B1B680133074A136000BF08375F
:1037D000BD4680BD640200202005001004040010D6
:1037E0000C040010240500101C05001080B483B0E8
:1037F00000AF78607B681B6CB3F5007F00F08780BA
:10380000B3F5007F00F28980802B7AD0802B00F204
:103810008480202B48D8002B7FD0013B1F2B7CD8E5
:1038200001A252F823F000BFAF380208BB380208EB
:103830001B390208C73802081B3902081B39020865
:103840001B390208D33802081B3902081B39020849
:103850001B3902081B3902081B3902081B390208F0
:103860001B390208DF3802081B3902081B3902081D
:103870001B3902081B3902081B3902081B390208D0
:103880001B3902081B3902081B3902081B390208C0
:103890001B3902081B3902081B3902081B390208B0
:1038A0001B390208EB380208402B24D035E01E4BB0
:1038B0001B6801331C4A136030E01B4B5B6801330B
:1038C000194A53602AE0184B9B680133164A9360EB
:1038D00024E0154BDB680133134AD3601EE0124B22
:1038E0001B690133104A136118E00F4B5B69013308
:1038F0000D4A536112E00C4B9B6901330A4A9361F4
:103900000CE0094BDB690133074AD36106E0064B43
:103910001B6A0133044A136200E000BF00BF0C378A
:10392000BD465DF8047B70472405001080B582B069
:1039300000AF7B4B1B680133794A1360794B1B68DE
:10394000002B02D1784B00221A70784B5B783E2B0B
:1039500001D100F0DBFA754B5B78282B01D100F028
:10396000E7FC724B5B78852B01D100F01FFD6F4B9C
:103970005B78102B15D16D4B9B78012B01D100F09A
:1039800069F96A4B9B78032B01D100F0A7F9674BCB
:103990009B78022B05D1644B1B78012B01D100F0E1
:1039A000E1F9624BDB78862B09D1604B9B78F12BD8
:1039B00005D15E4B5B78222B01D100F043FC5B4BC1
:1039C0005B78112B05D1594B9B78012B01D100F06D
:1039D00019FA564B5B78112B05D1544B9B78032B6E
:1039E00001D100F051FA514B5B78142B01D100F05A
:1039F000DFFA4E4B5B78192B01D100F019FB4A4BD3
:103A00001B78012B4ED1494B5B78312B17D1474B9B
:103A10009B78012B13D1454BDB783E2B05D1434BD3
:103A20001B793E2B01D100F0FFFC404BDB783F2B94
:103A300005D13E4B1B793F2B01D100F02BFD3B4BB9
:103A40005B782A2B16D1394B9B78042B07D1374B47
:103A5000DB780C3B364A52F8233098470AE0334B68
:103A60009B78042B06D0314BDB780C3B304A52F864
:103A7000233098472D4B5B78222B13D12B4B9B780F
:103A8000002B05D1294BDB78052B01D100F008FC78
:103A9000264B9B78F12B05D1244BDB78802B01D171
:103AA00000F090FB234B00221A61224B00225A6047
:103AB000204B00229A601F4B0022DA601D4B00222F
:103AC0001A601D4B00221A611B4B00225A601A4BD0
:103AD00000229A61184B00229A60174B0022DA608C
:103AE000154B00221A60144B00225A610023FB710F
:103AF0000AE0FB79114A0021D154FB790B4A0021DD
:103B0000D154FB790133FB71FB79072BF1D9054BBC
:103B10001B680133034A136000BF0837BD4680BDF0
:103B200004FC00104805001000FC0010E004001028
:103B3000040000204C050010E8040010640500108B
:103B400080B500AF184B08221A61174B40F2037280
:103B50001A60164B07221A70154B5B784033DAB2A5
:103B6000124B5A70124B9A78104B9A70104BDA78AD
:103B70000E4BDA700F4B1B68DAB20C4B1A710E4BFE
:103B80001B68DAB2094B5A710C4B1A78074B9A71C1
:103B90000B4B1A78054BDA710A4B044A02490A4862
:103BA00003F047FD00BF80BD4C0500106405001008
:103BB000E0040010000400100404001008040010C9
:103BC000FC0300106C050010C400002080B500AF9D
:103BD000174B08221A61164B40F203721A60154BFC
:103BE00007221A70144B5B784033DAB2114B5A70CB
:103BF000114B9A780F4B9A700F4BDA780D4BDA70A5
:103C00000E4B1A780B4B1A710D4B1A78094B5A71DF
:103C10000C4B1A78074B9A710B4B1A78054BDA71DB
:103C20000A4B044A02490A4803F003FD00BF80BD65
:103C30004C05001064050010E00400107B03001028
:103C40007C03001058030010540300106C05001092
:103C5000C400002080B500AF194B1B69194A1361DD
:103C6000184B40F203721A60154B1B69DBB2013B23
:103C7000DAB2154B1A70154B5B784033DAB2124B3F
:103C80005A70124B9A78104B9A700F4B0022DA70D0
:103C90000D4B00221A710C4B00225A710A4B002264
:103CA0009A71094B0022DA71094B00221A70094BF4
:103CB000054A0449084803F0BCFC00BF80BD00BFB2
:103CC000E80400104C05001064050010E00400102A
:103CD00000FC00106C050010C400002080B500AF8F
:103CE000194B1B69194A1361174B1B680133174A9B
:103CF0001360154B1B69DBB2013BDAB2144B1A702F
:103D0000144B5B784033DAB2114B5A70114B9A78EE
:103D10000F4B9A700E4B0022DA700D4B00221A7175
:103D20000B4B00225A710A4B00229A71084B002259
:103D3000DA71094B01221A70084B054A03490848F9
:103D400003F077FC00BF80BDE80400104C050010B4
:103D500064050010E004001000FC00106C05001069
:103D6000C400002080B500AF72B600BF1E4B1B69B7
:103D70001E4A13611C4B1B6801331C4A13601A4B0B
:103D80001B69DBB2013BDAB2194B1A70194B5B7835
:103D90004033DAB2164B5A70164B9A78144B9A701D
:103DA000134B0022DA70124B00221A71104B0022C2
:103DB0005A710F4B00229A710D4B0022DA710E4B93
:103DC00002221A7000F02CFD62B600BF0B4B084AAD
:103DD00006490B4803F02DFC012003F057F90020A1
:103DE00001F070F800BF80BDE80400104C05001021
:103DF00064050010E004001000FC00106C050010C9
:103E0000C400002080B500AF72B600BF194B03227A
:103E10001A61184B40F203721A60174B02221A7093
:103E2000154B51225A70144B01229A70124B0022EA
:103E3000DA70114B00221A710F4B00225A710E4B8F
:103E400000229A710C4B0022DA710C4B05221A7079
:103E500000F0E6FC62B600BF094B074A0549094875
:103E600003F0E7FB012003F011F9002001F02AF82C
:103E700000BF80BD4C0500106405001000FC001060
:103E80006C050010C400002080B500AF72B600BF02
:103E9000194B03221A61184B40F203721A60174B38
:103EA00002221A70154B51225A70144B03229A7039
:103EB000124B0022DA70114B00221A710F4B0022B4
:103EC0005A710E4B00229A710C4B0022DA710C4B86
:103ED00006221A7000F0A4FC62B600BF094B074A24
:103EE0000549094803F0A5FB012003F0CFF80020A5
:103EF00000F0E8FF00BF80BD4C0500106405001015
:103F000000FC00106C050010C400002080B500AF5C
:103F10001E4B1B691E4A13611C4B1B6801331C4A54
:103F200013601A4B1B69DBB2013BDAB2194B1A70F2
:103F3000194B5B784033DAB2164B5A70164B9A78AD
:103F4000144B9A70134B0022DA70124B00221A7134
:103F5000104B00225A710F4B00229A710D4B002218
:103F6000DA710E4B00221A700D4B1B78042B02D015
:103F70000B4B02221A700B4B00221A700A4B054A97
:103F800003490A4803F055FB00BF80BDE804001058
:103F90004C05001064050010E0040010C40400107B
:103FA000CC040010C80400106C050010C4000020F0
:103FB00080B500AF184B1B69184A1361164B1B687C
:103FC0000133164A1360144B1B69DBB2013BDAB2B2
:103FD000134B1A70134B5B784033DAB2104B5A70A4
:103FE0000F4B00229A700E4B0022DA700C4B00220D
:103FF0001A710B4B00225A71094B00229A71084B1F
:104000000022DA7100F086FA074B054A0349074897
:1040100003F00FFB00BF80BDE80400104C0500104A
:1040200064050010E00400106C050010C4000020BE
:1040300080B500AF5E4B08221A615D4B40F20372FF
:104040001A605C4B07221A705A4B59225A70594B0E
:104050000A229A70584B1B68DAB2564BDA70564BEC
:104060005B68DAB2534B1A71534B9B68DAB2514B0F
:104070005A71514BDB68DAB24E4B9A714E4B1B6949
:10408000DAB24C4BDA714D4B4A4A49494C4803F07D
:10409000D0FA052002F0FAFF454B08221A61444B82
:1040A00040F203721A60434B07221A70414B5922A7
:1040B0005A70404B0A229A703F4B5B69DAB23D4B13
:1040C000DA703D4B9B69DAB23A4B1A713A4BDB69B5
:1040D000DAB2384B5A71384B1B6ADAB2354B9A71E7
:1040E000354B5B6ADAB2334BDA71344B314A3049C3
:1040F000334803F09EFA052002F0C8FF2C4B08223B
:104100001A612B4B40F203721A602A4B07221A7075
:10411000284B59225A70274B0A229A70264B9B6AC9
:10412000DAB2244BDA70244BDB6ADAB2214B1A7113
:10413000214B1B6BDAB21F4B5A711F4B5B6BDAB210
:104140001C4B9A711C4B9B6BDAB21A4BDA711B4BEE
:10415000184A17491A4803F06CFA052002F096FF36
:10416000134B06221A61124B40F203721A60114B74
:1041700005221A700F4B59225A700E4B0A229A7060
:104180000D4BDB6BDAB20B4BDA700B4B1B6CDAB2FC
:10419000084B1A71084B5B6CDAB2064B5A71074B2D
:1041A000044A0349064803F044FA00BF80BD00BF3B
:1041B0004C05001064050010740500106C0500101B
:1041C000C400002080B500AF174B08221A61174BBE
:1041D0001B680133144A1360154B07221A70154BE4
:1041E0005B784033DAB2124B5A70124B9A78104B0C
:1041F0009A70104BDA780E4BDA700F4B5A780C4BE2
:104200001A710D4B1A780A4B5A71094B01229A7197
:10421000074B0122DA71094B054A0349084803F0AC
:1042200008FA00BF80BD00BF4C050010E804001074
:1042300064050010E0040010000000206C05001070
:10424000C400002080B500AF0F4B05221A610F4B50
:104250001B6801330C4A13600D4B04221A700C4B7F
:1042600062225A700A4BF1229A70094B8622DA7048
:10427000084B1A78064B1A71074B054A0249074842
:1042800003F0D7F900BF80BD4C050010E804001012
:104290006405001000FC00106C050010C400002034
:1042A00080B500AF1B4B08221A611B4B1B68013302
:1042B000184A1360194B07221A70194B5B78403368
:1042C000DAB2164B5A70164B9A78144B9A70144BFC
:1042D000DA78124BDA70134B1B681B0EDAB20F4BF5
:1042E0001A71104B1B681B0CDAB20C4B5A710D4B38
:1042F0001B681B0ADAB2094B9A710A4B1B68DAB2C7
:10430000064BDA71084B054A0249084803F091F957
:1043100000BF80BD4C050010E804001064050010CB
:10432000E004001004FC00106C050010C400002024
:1043300080B500AF164B1B69164A1361144B1B68FE
:104340000133144A1360144B02221A70134B5B782A
:104350004033DAB2104B5A70104B9A780E4B9A7069
:104360000E4B9B78002B03D10D4B02221A7006E0F6
:104370000A4B9B78012B02D1094B04221A70094B7E
:10438000054A0449084803F054F900BF80BD00BF46
:10439000E80400104C05001064050010E004001053
:1043A000CC0400106C050010C400002080B500AFE4
:1043B000164B1B69164A1361144B1B680133144AD0
:1043C0001360144B1A78144B1A70124B5B784033FD
:1043D000DAB2114B5A700F4B9A780F4B9A700D4B03
:1043E0009B78012B03D10D4B01221A7006E0094B7B
:1043F0009B78022B02D1094B00221A70084B064A07
:104400000349084803F015F900BF80BDE804001017
:104410004C050010E004001064050010BC050010FD
:104420006C050010C400002080B500AF144B0522BD
:104430001A61134B40F203721A60124B04221A7075
:10444000104B71225A700F4B01229A700D4B3E2275
:10445000DA700C4B3E221A710A4B00225A71094B3A
:1044600000229A71074B0022DA71074B01221A7061
:10447000064B044A0249064803F0DBF800BF80BD42
:104480004C050010640500107C0300106C05001042
:10449000C400002080B500AF174B05221A61164BEF
:1044A00040F203721A60154B04221A70134B7122EA
:1044B0005A70124B01229A70104B3F22DA700F4B48
:1044C0003F221A710D4B00225A710C4B00229A7137
:1044D0000A4B0022DA710A4B5A790A4B1A70084BC0
:1044E0005A79094B1A70094B044A0349084803F0EA
:1044F000A0F800BF80BD00BF4C050010640500108F
:10450000E0040010FC030010620300106C050010B2
:10451000C400002080B582B000AF0023FB7124E00E
:10452000FB79184A002142F82310FB79062B09D8A1
:10453000FB79154A002142F82310FB79134A002128
:1045400042F82310FB79032B04D8FB79104A002191
:1045500042F82310FB79082B04D8FB790D4A00217F
:1045600042F82310FB790133FB71FB79142BD7D967
:104570004822002108480EF091FC00BF0837BD46D4
:1045800080BD00BF20040010140600104806001073
:1045900000060010240500107405001080B483B0DC
:1045A00000AF03460A46FB711346BB71254B1B78CF
:1045B000002B40D1BB79012B23D1FB79013B5B0060
:1045C0000133214A52F82330012B08D0FB79013BFB
:1045D0005B0001331C4A52F82330002B2BD1FB79AE
:1045E000013B5B00FA79184941F82320BB795A1C3A
:1045F000FB79013B5B0001331146134A42F823105B
:1046000019E0FB79013B5B0001330F4A52F823307C
:10461000012B10D1FB79013B5B00FA790A4941F883
:104620002320BB795A1CFB79013B5B000133114607
:10463000054A42F8231000BF0C37BD465DF8047BE5
:10464000704700BFBC0500107405001080B582B033
:1046500000AF464B1B68002B21D10023FB711BE0F0
:10466000FB79002B07D0FB79012B04D1FB79404A61
:10467000002142F82310FB7903F00103DBB2002B89
:1046800007D0FB79022B04D9FB79394A002142F883
:104690002310FB790133FB71FB79112BE0D9002347
:1046A000BB7156E0BB79334A52F82330002B04D05B
:1046B00001210F20FFF772FF03E000210F20FFF719
:1046C0006DFFBB79062B1DD8BB792B4A52F82330DE
:1046D000002B04D001211020FFF760FF03E0002130
:1046E0001020FFF75BFFBB79244A52F82330002BE0
:1046F00004D001211120FFF751FF03E00021112018
:10470000FFF74CFFBB79032B0ED8BB791C4A52F83C
:104710002330002B04D001211020FFF73FFF03E0DE
:1047200000211020FFF73AFFBB79082B0ED8BB7988
:10473000144A52F82330002B04D001211020FFF737
:104740002DFF03E000211020FFF728FFBB79013384
:10475000BB71BB79142BA5D9044B1B680133034AE9
:10476000136000BF0837BD4680BD00BF7005001054
:1047700074050010200400101406001048060010F4
:10478000000600102405001080B582B000AF122290
:104790001D491E4800F0E2F81B4B1B68FE2B04D994
:1047A0004822002118480EF079FB022218491948C6
:1047B00000F0D4F8164B1B684FF6FE72934214D9E2
:1047C0000023FB7107E0FB79114A002142F8231016
:1047D000FB790133FB71FB79012BF4D9022302220F
:1047E0000B490C4800F064F809E0094B1B68DAB289
:1047F000094B1A70064B5B68DAB2084B1A7000BF9F
:104800000837BD4680BD00BF7405001000C0000819
:10481000EC050010008000081400001018000010C3
:1048200080B500AF0B4B1B781A460B4B1A600B4B35
:104830001B781A46084B5A60022302220649084890
:1048400000F036F8032312220649074800F030F83A
:1048500000BF80BD14000010EC050010180000100F
:10486000008000087405001000C0000880B500AF8B
:104870000C4B1B78012B05D1FFF786FF094B022259
:104880001A7008E0084B1B78012B04D1FFF7C8FF12
:10489000054B02221A70054B1B680133034A136053
:1048A00000BF80BDE9050010E8050010E405001018
:1048B000B0B588B000AFF860B9603B601346FB80CC
:1048C0000023FB613B68BB613B687B6105F072FEC6
:1048D000214B00221A60204B02221A611E4ABB693A
:1048E00093607A69BB69D31A01331B4AD36007F11D
:1048F00010031946184805F0CBFF0346002B1FD0C4
:1049000005F08AFE034622E0FB699B00BA68134467
:104910001B6800221C46154622462B46F9680220D9
:1049200005F044FD0346002B06D1FB680433FB6011
:10493000FB690133FB6103E005F06EFE034606E010
:10494000FB88FA699A42DFD305F056FE0023184629
:104950002037BD46B0BD00BF9400002080B487B0B2
:1049600000AFF860B9601346FB800023FB820EE0C5
:10497000FB8A9B001A46FB6813441946FB8A9B007E
:10498000BA6813440A681A60FB8A0133FB82FA8A08
:10499000FB889A42ECD300BF00BF1C37BD465DF8D0
:1049A000047B704780B582B000AF6D4803F0C0FD56
:1049B00003461A466B4B1A606B4804F081FA0346B3
:1049C0001A466A4B1A60674B1B68042B03D1674B6E
:1049D0001B68042B11D0664B00221A600023FB7168
:1049E00007E0FB79634A002142F82310FB79013389
:1049F000FB71FB79032BF4D909E001F0B1F85E4BB0
:104A00001B6801335C4A1360594B00221A60564BF5
:104A10005B6DB3F5807F7DD0B3F5807F00F284803D
:104A2000202B47D8002B7FD0013B1F2B7CD801A225
:104A300052F823F0BB4A0208CD4A0208294B02086B
:104A4000DF4A0208294B0208294B0208294B0208B9
:104A5000294B0208294B0208294B0208294B02085E
:104A6000294B0208294B0208294B0208294B02084E
:104A7000294B0208294B0208294B0208294B02083E
:104A8000294B0208294B0208294B0208294B02082E
:104A9000294B0208294B0208294B0208294B02081E
:104AA000294B0208294B0208294B0208294B02080E
:104AB000F14A0208402B24D036E0304B1B6801330A
:104AC0002E4A13602A4B01221A603FE02B4B5B6891
:104AD00001332A4A5360264B02221A6036E0274BE4
:104AE0009B680133254A9360214B04221A602DE014
:104AF000224BDB680133214AD3601D4B20221A6010
:104B000024E01E4B1B6901331C4A1361184B4022E1
:104B10001A601BE0194B9B690133184A9361144BCF
:104B20004FF480721A6011E0114B00221A600023CA
:104B3000BB7107E0BB79114A002142F82310BB7911
:104B40000133BB71BB79052BF4D900BF0C4B1B683B
:104B500001330B4A136000BF0837BD4680BD00BF5C
:104B600028010020FC050010800100201006001024
:104B700000040010000600101004001014060010BD
:104B8000F805001080B483B000AF78607B68DB6B01
:104B9000402B25D0402B2CD8202B18D0202B28D8C8
:104BA000012B02D0022B09D023E0174B1B680133E5
:104BB000154A1360154B01221A601EE0124B5B6808
:104BC0000133114A5360114B02221A6015E00E4B5B
:104BD0009B6801330C4A93600C4B20221A600CE056
:104BE000094BDB680133084AD360084B40221A6046
:104BF00003E0064B00221A6000BF00BF0C37BD4621
:104C00005DF8047B704700BF000600100004001030
:104C100080B500AF064A0749074800F011F803467F
:104C20001A46064B1A70054B1B78184680BD00BF0C
:104C3000640200208001002028010020C000002024
:104C400080B584B000AFF860B9607A6062B600BF2A
:104C5000274AFB681360274ABB681360264A7B68B3
:104C60001360264B00221A6000224FF48051244822
:104C700006F0C8F900224FF40061214806F0C2F99D
:104C800001224FF400611E4806F0BCF9012002F039
:104C9000FDF98021122000F0DDF803461A46194B79
:104CA0001A700FE0012002F0F1F98021122000F0CB
:104CB000D1F803461A46134B1A70134B1B68013385
:104CC000114A13600F4B1B78002BEBD1012002F02F
:104CD000DDF972B600BF002000F018F803461A464E
:104CE000084B1A70074B1B7818461037BD4680BD1D
:104CF000A8000020AC000020F4050010B000002047
:104D0000000C0240C10000201404001080B584B0E3
:104D100000AF78600023FB601EE0154AFB6812F8C4
:104D200013201349FB685B000B445B78194610465F
:104D300000F090F803461A460E4B1A700D4B1B7884
:104D4000002B06D00023FB600B4B1B6801330A4A83
:104D50001360FB680133FB60054AFB6812F81330EF
:104D6000FF2BDAD1034B1B7818461037BD4680BDA8
:104D700038380308C20000201404001080B582B047
:104D800000AF7860396000F027F87B68002B0BD10A
:104D90000F4A3B6813600F4B186847F230533A686C
:104DA000002103F035FA0DE07B68012B0AD1084B96
:104DB00000221A60074B186847F230533A68022104
:104DC00003F026FA002318460837BD4680BD00BF11
:104DD000B0000020A800002080B500AF034B1B6886
:104DE000184603F0B5FA0023184680BDA80000203D
:104DF00080B582B000AF7860124B1B68002B05D0E5
:104E0000104B1B68104A1268104698470F4B1B68DE
:104E1000002B0BD07B68986B7B681B682833194686
:104E20000A4B1A6847F2305303F0D6FD064B1B6855
:104E30000133054A1360064B00221A6000BF083791
:104E4000BD4680BDBC000020B8000020B00000209E
:104E5000B400002080B588B004AF03460A46FB7159
:104E60001346BB710123FB730A4B1868FB799AB296
:104E70000123029301230193BB1D009301234221CF
:104E800006F0ACFA0346FB73FB7B18461037BD46B1
:104E900080BD00BFF405001080B400AFBFF34F8F9A
:104EA00000BF064BDB6803F4E0620449044B134384
:104EB000CB60BFF34F8F00BF00BFFDE700ED00E008
:104EC0000400FA0580B582B000AF0346FB7172B6EC
:104ED00000BFFB79002B0CD0FB79074A52F8232046
:104EE0000132054941F82320FB79044A012142F8A7
:104EF0002310FFF7D1FF00BF08FC00103CFC00109E
:104F000080B582B000AF364B1B68002B1FD1002349
:104F1000FB7119E0FB79334A52F82330002B0CD097
:104F200001210E20FFF73AFBFB792E4A002142F8BF
:104F300023102D4B01221A7003E000210E20FFF7F1
:104F40002DFBFB790133FB71FB790C2BE2D9274B4D
:104F50001B78002B03D1254B01221A7037E0234B1D
:104F60001B78022B33D11E4B1B68B3F5FA6F03D2AB
:104F70001F4B01221A702AE01E4B1B78012B12D105
:104F80001B4B02221A701C4B1B6800221A641B4B1D
:104F90001B78002B0AD1194B1B78022B06D0174B1C
:104FA00001221A7002E0124B01221A70104B1B787A
:104FB000022B06D1114B1B78022B02D10C4B032282
:104FC0001A700B4B1B78032B01D100F015F9044B21
:104FD0001B680133024A136000BF0837BD4680BD1D
:104FE000340600103CFC001038060010E9050010E3
:104FF00030060010C4040010E0030020E805001093
:1050000080B500AF00220121754805F0FBFF0022AA
:105010004FF4C051734805F0F5FF0421724805F0C4
:10502000F5FE0821704805F0F1FE10216E4805F0EC
:10503000EDFE20216C4805F0E9FE40216A4805F0AC
:10504000E5FE0121684805F0E1FE0221664805F011
:10505000DDFE4FF40051624805F0D8FE4FF4804168
:105060005F4805F0D3FE4FF400415D4805F0CEFEE9
:1050700002215B4805F0CAFE0421594805F0C6FE2E
:105080000821574805F0C2FE1021554805F0BEFE24
:105090002021534805F0BAFE4FF48061504805F0D6
:1050A000B5FE4FF480514E4805F0B0FE01214C484A
:1050B00005F0ACFE02214D4805F0A8FE04214B4846
:1050C00005F0A4FE0821494805F0A0FE202147482C
:1050D00005F09CFE8021454805F098FE4FF40071D4
:1050E000424805F093FE4FF48061404805F08EFE83
:1050F0004FF400413D4805F089FE04213C4805F08D
:1051000085FE4FF480513A4805F080FE4FF400517F
:10511000374805F07BFE4FF48041354805F076FEB8
:105120004FF40041324805F071FE4FF400612D4804
:1051300005F06CFE4FF480512A4805F067FE4FF4ED
:1051400080712A4805F062FE0121264805F05EFEC6
:105150000221244805F05AFE0421224805F056FE9B
:105160000821204805F052FE10211E4805F04EFE91
:1051700020211C4805F04AFE40211A4805F046FE51
:105180008021184805F042FE4FF48071154805F063
:105190003DFE4FF40071134805F038FE4FF4806176
:1051A000104805F033FE4FF400610E4805F02EFE66
:1051B0004FF480510B4805F029FE4FF40061094877
:1051C00005F024FE0B4B1B6B0A4A23F00403136308
:1051D000084B1B6B074A23F08003136300BF80BD9D
:1051E00000080240000C0240001002400000024093
:1051F000000402400038024080B582B000AF0120B8
:1052000001F044FF72B600BF01F064FC1D4803F0DA
:105210009FF81D4809F05EFD1C4809F067FC1C481A
:1052200006F08AF8174802F0D1FF0023FB7107E06F
:1052300097F90730184602F0BBFFFB790133FB7189
:10524000FB79512BF4D9FFF7DBFE124B1B6B114A94
:1052500023F480031363104B1B680F4A23F00503EC
:1052600013600E4B01221A7062B600BF01210120AB
:1052700008F058F90020FFF725FE00BF0837BD46AB
:1052800080BD00BF28010020E0030020280300208B
:10529000640200200038024010E000E039060010EF
:1052A00080B500AF0F4809F0ADFB03461A460E4B20
:1052B0001A600D4B1B68042B0AD10C4B01221A708B
:1052C0000B4B1B6801330A4A136000F037FF02E002
:1052D000064B00221A70074B1B680133054A136006
:1052E00000BF80BD00020020400600107B030010BC
:1052F000640600103C06001090B585B000AF04466F
:10530000084611461A462346FB800346BB800B46DF
:105310007B8013463B800023FB8108E03A88B988F4
:10532000FB88184600F066F8FB890133FB81FA8997
:105330007B889A42F2D300BF00BF1437BD4690BDB0
:1053400090B585B000AF0446084611461A4623467C
:10535000FB800346BB800B467B8013463B800023CB
:10536000FB8108E03A88B988FB88184600F042F8CB
:10537000FB890133FB81FA897B889A42F2D300BF13
:1053800000BF1437BD4690BD90B583B000AF044652
:10539000084611461A462346FB800346BB800B464F
:1053A0007B8013463B803B8B7A88B988F888FFF76F
:1053B000A3FFBA883B8813449BB2013B99B23B8B55
:1053C0007A88F888FFF798FF3B8B3A88B988F88885
:1053D000FFF7B6FFFA887B8813449BB2013B98B273
:1053E0003B8B3A88B988FFF7ABFF00BF0C37BD464F
:1053F00090BD000080B582B000AF0346FB800B4635
:10540000BB8013467B80FB8801339AB2BB88013393
:105410009BB2B988F88800F0F0F8034A7B881380C3
:1054200000BF0837BD4680BD0000086090B585B05C
:1054300000AF0446084611461A462346FB80034641
:10544000BB800B46FB7013463B800323BB720023DB
:10545000FB730023BB735EE000233B7352E0FB78D9
:10546000203BBA7A03FB02F213465B001344DB00D5
:105470001946BB7BBA7A02FB03F3CA183B7B134481
:10548000294AD35C7B730023FB7232E097F90D301D
:10549000002B12DAFB7A9AB2FB8813449AB2FB7B98
:1054A0009BB2134498B2BB7B9AB2BB8813449BB2A5
:1054B0003A881946FFF79EFF15E03A8C3B889A42DE
:1054C00011D0FB7A9AB2FB8813449AB2FB7B9BB251
:1054D000134498B2BB7B9AB2BB8813449BB23A8CFC
:1054E0001946FFF787FF7B7B5B007B73FB7A0133F9
:1054F000FB72FB7A072BC9D9FB7B0833FB733B7B21
:1055000001333B733A7BBB7A9A42A8D30023FB73E7
:10551000BB7B0133BB73BB7B172B9DD900BF00BF87
:105520001437BD4690BD00BF9438030890B587B0CE
:1055300002AFBA601A460346FB810B46BB81134695
:10554000FB800FE0BB681A78FC88B989F8893B8C2E
:1055500000932346FFF76AFFFB891133FB81BB6889
:105560000133BB60BB681B78002BEBD100BF00BFD1
:105570001437BD4690BD000090B58BB002AFBA6045
:105580001A460346FB810B46BB811346FB8007F19D
:105590001403BA68084918460DF05EFCFC8807F150
:1055A0001402B989F8893B8E00932346FFF7BEFFAA
:1055B00000BF2437BD4690BDA837030880B483B030
:1055C00000AF0346FB80044AFB88138000BF0C3702
:1055D000BD465DF8047B70470000086080B483B06E
:1055E00000AF0346FB804FF0C042FB88138000BF32
:1055F0000C37BD465DF8047B704790B583B000AFB3
:105600000446084611461A462346FB800346BB80E3
:105610000B467B8013463B802A20FFF7DFFFFB8889
:105620001B0A9BB21846FFF7C9FFFB88DBB29BB28F
:105630001846FFF7C3FF7B881B0A9BB21846FFF78B
:10564000BDFF7B88DBB29BB21846FFF7B7FF2B206C
:10565000FFF7C4FFBB881B0A9BB21846FFF7AEFFDB
:10566000BB88DBB29BB21846FFF7A8FF3B881B0A3A
:105670009BB21846FFF7A2FF3B88DBB29BB21846ED
:10568000FFF79CFF2C20FFF7A9FF00BF0C37BD469A
:1056900090BD000090B585B000AF044608461146A5
:1056A0001A462346FB800346BB800B467B8013468D
:1056B0003B80FA887B8813449BB2013B9CB2BA883A
:1056C0003B8813449BB2013B9BB2B988F8882246C1
:1056D000FFF793FF0023FB810FE00023BB8105E070
:1056E0000A4A3B8C1380BB890133BB81BA897B8812
:1056F0009A42F5D3FB890133FB81FA893B889A42B0
:10570000EBD300BF00BF1437BD4690BD000008605A
:1057100080B400AF024B1846BD465DF8047B70476D
:105720000000086080B582B002AF0120FFF756FF8D
:105730001120FFF753FFB620FFF750FF0A20FFF7B5
:105740003DFFC220FFF73AFF3620FFF747FF6820F2
:10575000FFF734FF3A20FFF741FF5520FFF72EFFF8
:10576000E020FFF73BFF1020FFF728FF1020FFF796
:1057700025FF1020FFF722FF0820FFF71FFF0E2054
:10578000FFF71CFF0620FFF719FF4220FFF716FF67
:105790002820FFF713FF3620FFF710FF0320FFF745
:1057A0000DFF0E20FFF70AFF0420FFF707FF13206D
:1057B000FFF704FF0E20FFF701FF0C20FFF7FEFEAE
:1057C000E120FFF70BFF0C20FFF7F8FE2320FFF787
:1057D000F5FE2620FFF7F2FE0420FFF7EFFE0C2077
:1057E000FFF7ECFE0420FFF7E9FE3920FFF7E6FEA5
:1057F0002420FFF7E3FE4B20FFF7E0FE0320FFF736
:10580000DDFE0B20FFF7DAFE0B20FFF7D7FE33207B
:10581000FFF7D4FE3720FFF7D1FE0F20FFF7CEFEB3
:105820002A20FFF7DBFE0020FFF7C8FE0020FFF76D
:10583000C5FE0020FFF7C2FEEF20FFF7BFFE2B20C2
:10584000FFF7CCFE0020FFF7B9FE0020FFF7B6FE01
:105850000120FFF7B3FE3F20FFF7B0FE2920FFF73E
:10586000BDFE2C20FFF7BAFE00230093F0234FF477
:10587000A07200210020FFF787FDEF2340F23F12C6
:1058800000210020FFF7B9FE00231846BD4680BD69
:1058900080B400AF034B1B889BB21846BD465DF831
:1058A000047B70470000086080B58AB000AF7D4B74
:1058B0007D4A1A607B4B04225A607A4B00229A6020
:1058C000784B0022DA60774B4FF470221A61754BE7
:1058D0004FF440125A61734B01221A76714B012228
:1058E0005A76704B01229A766E4B0122DA766D4B16
:1058F00001221A776B4B01225A776A4801F0EAFBC2
:105900000346002B01D000F085FF06237B610023B6
:10591000BB610123FB6100233B6101233B624FF428
:1059200099533B6000237B604FF6E073BB6000231C
:10593000FB603B4619465B4801F012FD07237B6183
:105940000023BB610123FB6100233B6101233B6218
:105950004FF497533B6000237B604FF6E073BB60CE
:105960000023FB603B4619464E4801F0F9FC082332
:105970007B610023BB610123FB6100233B610123A9
:105980003B624FF498533B6000237B604FF6E0731B
:10599000BB600023FB603B461946424801F0E0FC37
:1059A00009237B610023BB610123FB6100233B6171
:1059B00001233B6242F260133B6000237B604FF6A1
:1059C000E073BB600023FB603B461946354801F09D
:1059D000C7FC0A237B610023BB610123FB61002319
:1059E0003B6101233B6242F2E0133B6000237B609A
:1059F0004FF6E073BB600023FB603B461946294825
:105A000001F0AEFC0B237B610023BB610123FB6132
:105A100000233B6101233B624FF422433B600023A0
:105A20007B604FF6E073BB600023FB603B4619468A
:105A30001C4801F095FC0C237B610023BB61012312
:105A4000FB6100233B6101233B624EF240033B605C
:105A500000237B604FF6E073BB600023FB603B4696
:105A60001946104801F07CFC0D237B610023BB61CB
:105A70000123FB6100233B6101233B6244F22003CD
:105A80003B6000237B604FF6E073BB600023FB604C
:105A90003B461946034801F063FC00BF2837BD466A
:105AA00080BD00BFC40000200064004080B58AB003
:105AB00000AF786007F1140300221A605A609A6000
:105AC000DA601A617B681B68224A93423DD1002349
:105AD0003B61214B1B6C204A43F0007313641E4B47
