:020000040800F2
:10000000000002200D140008351300083D130008FD
:10001000451300084D1300085513000800000000A8
:100020000000000000000000000000005D13000858
:100030006B13000800000000791300088713000804
:100040005D140008931300085D1400085D14000897
:100050009F130008AB1300085D1400085D1400082E
:100060005D1400085D1400085D1400085D140008AC
:100070005D1400085D1400085D1400085D1400089C
:100080005D1400085D1400085D140008B913000831
:10009000CD1300085D1400085D1400085D1400080D
:1000A0005D1400085D1400085D1400085D1400086C
:1000B0005D1400085D1400085D1400085D1400085C
:1000C0005D1400085D1400085D1400085D1400084C
:1000D0005D1400085D1400085D1400085D1400083C
:1000E0005D1400085D1400085D1400085D1400082C
:1000F0005D1400085D1400085D1400085D1400081C
:100100005D1400085D1400085D1400085D1400080B
:100110005D1400085D1400085D1400085D140008FB
:100120005D1400085D1400085D1400085D140008EB
:100130005D1400085D1400085D1400085D140008DB
:100140005D1400085D1400085D1400085D140008CB
:100150005D1400085D1400085D1400085D140008BB
:100160005D1400085D1400085D1400085D140008AB
:100170005D1400085D1400085D1400080000000014
:080180005D140008E113000802
:1001880010B5054C237833B9044B13B10448AFF3C9
:1001980000800123237010BD1C0000200000000017
:1001A8008838000808B5034B1BB103490348AFF36F
:1001B800008008BD000000002000002088380008EA
:1001C80053B94AB9002908BF00281CBF4FF0FF31B6
:1001D8004FF0FF3000F088B9ADF1080C6DE904CE9E
:1001E80000F006F8DDF804E0DDE9022304B070470A
:1001F8002DE9F047089D8E4604468846002B4AD1D3
:100208008A42174662D9B2FA82F64EB1C6F1200385
:1002180001FA06F820FA03F3B74043EA0808B440A5
:100228004FEA174E1FFA87FCB8FBFEF1230C0EFBB2
:10023800118843EA084301FB0CF29A4209D9FB18DA
:1002480001F1FF3080F0EA809A4240F2E7800239FB
:100258003B449A1AA3B2B2FBFEF00EFB102243EA0B
:10026800024300FB0CFC9C4509D9FB1800F1FF3246
:1002780080F0D6809C4540F2D3803B44023840EA67
:100288000140A3EB0C0300211DB1F3400022C5E996
:100298000032BDE8F0878B4205D90DB1C5E90001F0
:1002A80000210846F5E7B3FA83F1002946D17345E2
:1002B80002D3824200F20581841A6EEB0302012008
:1002C8009046002DE5D0C5E90048E2E7002A00F095
:1002D8009080B2FA82F6002E40F0A4808A1A030CAD
:1002E8004FEA174E80B2BCB20121B2FBFEFC0EFBF6
:1002F8001C2243EA024304FB0CF29A4207D9FB187A
:100308000CF1FF3802D29A4200F2E080C4469B1AF0
:10031800B3FBFEF20EFB123340EA034302FB04F484
:100328009C4207D9FB1802F1FF3002D29C4200F22E
:10033800CA8002461B1B42EA0C40A5E7C1F1200611
:100348008B4022FA06F71F430EFA01F420FA06F34F
:100358002EFA06FE4FEA1749234300FA01F81FFA5E
:1003680087FCBEFBF9F01C0C09FB10EE44EA0E44B6
:1003780000FB0CFEA64502FA01F209D93C1900F16E
:10038800FF3A80F09C80A64540F2998002383C44B0
:10039800A4EB0E041FFA83FEB4FBF9F309FB134424
:1003A8004EEA044403FB0CFCA44508D93C1903F1AC
:1003B800FF3E80F08280A4457FD9023B3C4443EA5B
:1003C8000040A4EB0C04A0FB02EC64457346E14634
:1003D80062D35FD05DB1B8EB030264EB090404FAA1
:1003E80006F622FA01F31E43CC40C5E90064002159
:1003F8004FE7B1FBF2FC010C41EA0E4180B240EA42
:1004080001423B4638463C46B846BE462026B1FB2C
:10041800F7F1A2EB080241EA0C4166E7014618E74A
:1004280010462CE7C6F120022EFA02F3B740B1407D
:1004380020FA02F24FEA174E0A43B3FBFEF8BCB2A9
:100448000EFB1833110C41EA034108FB04F9B040D4
:1004580089454FEA104380B23ED9791808F1FF3C2C
:1004680001D289451FD8A1EB0901B1FBFEF909FBAF
:1004780004F80EFB191192B242EA0142424529D210
:10048800BA1809F1FF31C4D24245C2D2A9F102011A
:100498003A44BEE7F0459DD2BEEB02036CEB070C75
:1004A8000138E14696E7A7EB09094944A8F1020C8F
:1004B800B1FBFEF909FB04F8DBE773467FE750461A
:1004C80066E70846FDE63B44023A33E7ACF1020C26
:1004D8003B441CE749469CE7A1EB0901C446B1FB34
:1004E800FEF909FB04F8C4E7704700BF80B58AB07D
:1004F80000AF2B4B2B4A1A60294B04225A60284B19
:1005080000229A60264B0022DA60254B4FF47022B5
:100518001A61234B4FF440125A61214B01221A767B
:100528001F4B01225A761E4B01229A761C4B012240
:10053800DA761B4B01221A77194B01225A77184891
:1005480000F0FCFF0346002B01D000F089FE0D23CC
:100558007B610023BB610123FB6100233B61012315
:100568003B624EF280033B6000237B604FF6E073F2
:10057800BB600023FB603B461946094801F024F99B
:10058800074801F001FA084B06221A60064B1B685F
:100598001946034801F02EFC00BF2837BD4680BD30
:1005A80038000020006400409C00002080B58AB01C
:1005B80000AF786007F1140300221A605A609A604D
:1005C800DA601A617B681B68224A93423DD1002396
:1005D8003B61214B1B6C204A43F0007313641E4B94
:1005E8001B6C03F000733B613B690023FB601A4BF3
:1005F8001B6B194A43F001031363174B1B6B03F082
:100608000103FB60FB684FF400637B610223BB615D
:100618000023FB6103233B6209237B6207F1140378
:1006280019460E4802F0E6FA4FF480537B61022324
:10063800BB610123FB6103233B6209237B6207F152
:1006480014031946054802F0D5FA00BF2837BD46FD
:1006580080BD00BF00640040003802400000024036
:1006680080B58CB000AF07F11C0300221A605A60F5
:100678009A60DA601A610023BB614B4B1B6B4A4AD4
:1006880043F010031363484B1B6B03F01003BB616B
:10069800BB6900237B61444B1B6B434A43F0040353
:1006A8001363414B1B6B03F004037B617B690023DD
:1006B8003B613D4B1B6B3C4A43F0800313633A4B51
:1006C8001B6B03F080033B613B690023FB60364BE7
:1006D8001B6B354A43F001031363334B1B6B03F069
:1006E8000103FB60FB680023BB602F4B1B6B2E4A8A
:1006F80043F0020313632C4B1B6B03F00203BB6034
:10070800BB6800237B60284B1B6B274A43F0080318
:100718001363254B1B6B03F008037B607B684FF664
:10072800FF73FB6103233B6200237B6207F11C0319
:1007380019461E4802F05EFA4FF6FF73FB61032369
:100748003B6200237B6207F11C031946184802F03C
:1007580051FA48F2FF73FB6103233B6200237B627B
:1007680007F11C031946134802F044FA4FF6FF73C9
:10077800FB6103233B6200237B6207F11C031946DC
:100788000D4802F037FA4FF6FF73FB6103233B6213
:1007980000237B6207F11C031946084802F02AFA75
:1007A80000BF3037BD4680BD00380240001002400F
:1007B800000802400000024000040240000C024011
:1007C80080B400AFBFF34F8F00BF064BDB6803F464
:1007D800E0620449044B1343CB60BFF34F8F00BF63
:1007E80000BFFDE700ED00E00400FA0580B582B027
:1007F80000AF7860244B254A0021254801F0D8F93C
:10080800244B1B78062B0CD0062B0DDC022B02D0B8
:10081800052B03D008E000F095FC30E000F018FC50
:100828002DE000F009FC2AE0174B5B78502B25D10E
:10083800154B9B78022B21D1144B1B69164A136167
:10084800124B1B680133144A13600F4B1A78134B71
:100858001A700D4B5B784033DAB2104B5A700A4B62
:100868009A780E4B9A700B4B02221A700C4B0B4A5B
:100878000949074801F0CCF800F064FC00BF00BF4C
:100888000837BD4680BD00BFA0000020B000002092
:100898003800002004000020CC000020A800002020
:1008A800E400002080B582B000AF7860244B254A70
:1008B8000021254801F07CF9244B1B78062B0CD02D
:1008C800062B0DDC022B02D0052B03D008E000F02C
:1008D80039FC30E000F0BCFB2DE000F0ADFB2AE075
:1008E800174B5B78102B25D1154B9B78022B21D108
:1008F800144B1B69164A1361124B1B680133144AC7
:1009080013600F4B1A78134B1A700D4B5B784033FA
:10091800DAB2104B5A700A4B9A780E4B9A700B4BFE
:1009280002221A700C4B0B4A0949074801F070F86B
:1009380000F008FC00BF00BF0837BD4680BD00BFFF
:10094800A0000020B0000020380000200400002093
:10095800CC000020A8000020E400002080B582B070
:1009680000AF00F079FD00F095F8FFF779FEFFF78A
:10097800BDFD00F0F9F83C4B00221A603B4B002209
:100988001A603B4B1B6801223A49184600F088F967
:10099800384B1B68B3F1FF3F07D0374B374A1A6013
:1009A800354B1B681B68364A1360354B1B68022B96
:1009B80007D0334B1B68062B03D0314B1B68052B24
:1009C80012D12F4B1B68DAB22E4B1A702C4B1B68B6
:1009D800062B02D100F030FB41E0294B1B68052BA8
:1009E8003DD100F035FB3AE0224B1B68B3F1FF3FE5
:1009F80037D0254B5B6F03F00063002B13D0234BDC
:100A08007B6005E07B6800221A607B6804337B60AA
:100A18007B681F4A9342F5D31B4B5B6F1A4A43F01E
:100A28000063536718E0184B5B6F03F00073002BEB
:100A380012D0164B3B6005E03B6800221A603B6809
:100A480004333B603B68124A9342F5D30E4B5B6F0D
:100A58000D4A43F00073536700F0C6FA01E000BF87
:100A680000BF00BFFDE700BFF0000020EC00002041
:100A780008000020F40000200000002000FC001006
:100A8800F8000020040000200038024000F00010A8
:100A9800FFFF001080B594B000AF07F120033022AB
:100AA8000021184602F0C0FE07F10C0300221A606C
:100AB8005A609A60DA601A610023BB60284B1B6C8D
:100AC800274A43F080531364254B1B6C03F0805373
:100AD800BB60BB6800237B60224B1B68214A43F440
:100AE800804313601F4B1B6803F480437B607B6863
:100AF80001233B624FF480337B620223BB634FF4D4
:100B08008003FB6304233B64A8237B640223BB6448
:100B18000423FB6407F12003184602F021FA034678
:100B2800002B01D000F09CFB0F23FB6002233B61EC
:100B380000237B614FF4A053BB614FF48053FB61EA
:100B480007F10C030521184602F082FC0346002B2E
:100B580001D000F085FB00BF5037BD4680BD00BF07
:100B6800003802400070004080B500AF0022072125
:100B7800012001F074FC012001F08DFC0022062107
:100B8800042001F06CFC042001F085FC0022042103
:100B9800512001F064FC512001F07DFC002200216D
:100BA800142001F05CFC142001F075FC00220321E4
:100BB800132001F054FC132001F06DFC00220521E4
:100BC800052001F04CFC052001F065FC00BF80BD4C
:100BD80080B588B000AF3B1D00221A605A609A6049
:100BE800DA601A6100233B600023FB610023BB61CC
:100BF8000523FB610723BB6101F06CFD00237B60CB
:100C080002237B61FB69FB60BA69FB69D31A013374
:100C18003B613A463B1D1146184601F0C9FE0346A2
:100C2800002B03D001F088FD034602E001F074FDBB
:100C3800002318462037BD4680BDB0B586B000AF4A
:100C4800F860B9601346FB8000237B6101F042FD28
:100C58001BE07B699B00BA6813441B6800221C4692
:100C6800154622462B46F968022001F02FFC034660
:100C7800002B06D1FB680433FB607B6901337B6181
:100C880003E001F059FD034606E0FB887A699A42C1
:100C9800DFD301F041FD002318461837BD46B0BD2B
:100CA80080B487B000AFF860B9601346FB800023BA
:100CB800FB820EE0FB8A9B001A46FB681344194628
:100CC800FB8A9B00BA6813440A681A60FB8A0133DE
:100CD800FB82FA8AFB889A42ECD300BF00BF1C371C
:100CE800BD465DF8047B704780B582B000AF234BEA
:100CF8001B69234A1361214B1B680133204A136087
:100D0800204B1A78204B1A701E4B5B784033DAB2AE
:100D18001D4B5A701B4B9A781B4B9A701B4B022227
:100D28001A701B4B184A16491A4800F071FE002326
:100D3800FB7106E0FB79144A0021D154FB79013399
:100D4800FB71FB79072BF5D90D4B00221A610C4B6F
:100D580000225A600A4B00229A60094B0022DA608E
:100D6800074B00221A60064B00221A75084B002216
:100D78001A6000BF0837BD4680BD00BFB000002024
:100D8800CC000020A0000020A800002004000020C3
:100D9800E40000203800002080B582B000AF344B5A
:100DA8009B791A06324B5B791B041A43304B1B792B
:100DB8001B0213432E4AD27813431A462D4B1A604E
:100DC80072B600BF2C4B1B6801222A491846FFF750
:100DD80034FF62B600BF284B1B680433264A1360F1
:100DE800264B1B680133254A1360254B1B69254A8E
:100DF8001361234B1B680133224A13601C4B1A787A
:100E0800214B1A701A4B5B784033DAB21E4B5A707A
:100E1800174B9A781C4B9A701C4B1B4A19491C4853
:100E280000F0F6FD0023FB7106E0FB79164A00216D
:100E3800D154FB790133FB71FB79072BF5D9114BA1
:100E480000221A610F4B00225A600E4B00229A6052
:100E58000C4B0022DA600B4B00221A60094B00226F
:100E68001A750A4B00221A6000BF0837BD4680BDBC
:100E7800A0000020E8000020F0000020EC00002086
:100E8800B0000020CC000020A8000020E4000020D2
:100E98003800002080B582B000AF214B1B69214A81
:100EA80013611F4B1B6801331E4A13601E4B1A78CF
:100EB8001E4B1A701C4B5B784033DAB21B4B5A70CE
:100EC800194B9A78194B9A70194B184A15491948B1
:100ED80000F09EFD0023FB7106E0FB79134A002118
:100EE800D154FB790133FB71FB79072BF5D90D4BF5
:100EF80000221A610B4B00225A600A4B00229A60AA
:100F0800084B0022DA60074B00221A60054B0022CA
:100F18001A75074B00221A6000BF0837BD4680BD0E
:100F2800B0000020CC000020A0000020A800002075
:100F3800E40000203800002080B582B000AF72B60F
:100F480000BF234B1B69234A1361214B1B680133E4
:100F5800204A1360204B1A78204B1A701E4B5B787E
:100F68004033DAB21D4B5A701B4B9A781B4B9A7060
:100F78001B4B1A4A17491B4800F04AFDFFF728FE89
:100F88000023FB7106E0FB79144A0021D154FB7958
:100F98000133FB71FB79072BF5D90E4B00221A613F
:100FA8000C4B00225A600B4B00229A60094B00221E
:100FB800DA60084B00221A60064B00221A75084BAB
:100FC80000221A6062B600BF00BF0837BD4680BD68
:100FD800B0000020CC000020A0000020A8000020C5
:100FE800E40000203800002080B582B000AF0F4B2D
:100FF8001B681B687B6072B600BF0D4A0B4B1B68F1
:1010080093607B683B603B6883F3088800BF074BAD
:101018001B6804331B681A46064B1A60054B1B688D
:10102800984700BF0837BD4680BD00BF0C000020B0
:1010380000ED00E0FC00002080B500AF72B600BFF4
:10104800024B1B6800221A60FFF7BAFB0000002061
:1010580080B582B000AF72B600BF094B1B68002292
:101068001A60084B7B6005E07B6800221A607B6889
:1010780004337B607B68044A9342F5D3FFF7A0FBF7
:101088000000002000F00010FFFF001080B582B0C3
:1010980000AF254B1B69254A1361234B1B6801339D
:1010A800224A1360224B1A78224B1A70204B5B7825
:1010B8004033DAB21F4B5A701D4B9A781D4B9A7009
:1010C8001B4BDA781B4BDA701B4B1A78194B1A71C9
:1010D8001A4B184A15491A4800F09AFC0023FB716C
:1010E80006E0FB79134A0021D154FB790133FB71E7
:1010F800FB79072BF5D90D4B00221A610B4B002207
:101108005A600A4B00229A60084B0022DA60074BAB
:1011180000221A60054B00221A75084B00221A603B
:1011280000BF0837BD4680BDB0000020CC000020BD
:10113800A0000020A800002004000020E4000020F7
:101148003800002080B582B000AF3D4B5B78222B81
:1011580009D13B4B9B78F12B05D1394BDB78862B9A
:1011680001D1FFF793FF364B1B78042B09D1344B81
:101178005B78312B05D1324B1B79002B01D1FFF75E
:10118800DBFE2F4B5B78342B10D12D4B1B791B04C6
:1011980043F000622A4B5B791B021343284A927979
:1011A80013431A46274B1A60FFF79EFD244B5B78C2
:1011B800362B01D1FFF7F0FD214B5B78372B05D19A
:1011C8001F4B1B78012B01D1FFF764FE1C4B5B788A
:1011D800112B30D11A4B9B78012B2CD11A4B1B6940
:1011E8001A4A1361184B1B680133184A1360144BD1
:1011F8001A78174B1A70124B5B784033DAB2144BDB
:101208005A700F4B9A78124B9A700D4BDA78104B34
:10121800DA70104B0E4A0D490F4800F0F9FB002315
:101228007B6002E07B6801337B607B680B4A9342FA
:10123800F8D9FFF70DFF00BF0837BD4680BD00BFD6
:10124800A0000020F0000020B0000020CC0000200A
:10125800A8000020E4000020380000203F0D030013
:1012680080B500AF72B600BFFFF7AAFA80B582B0AA
:1012780000AF00237B60214B5B6C204A43F4804322
:1012880053641E4B5B6C03F480437B607B680023D4
:101298003B601A4B1B6C194A43F080531364174B7D
:1012A8001B6C03F080533B603B6800220D216FF0FC
:1012B8000B0001F0D4F800220C216FF00A0001F0B5
:1012C800CEF800220B216FF0090001F0C8F80022C7
:1012D8000A216FF0040001F0C2F8002209216FF022
:1012E800030001F0BCF8002208216FF0010001F0B2
:1012F800B6F800BF0837BD4680BD00BF00380240C1
:1013080080B400AFBFF34F8F00BF064BDB6803F418
:10131800E0620449044B1343CB60BFF34F8F00BF17
:1013280000BFFDE700ED00E00400FA0580B500AF5E
:10133800FFF7E6FF80B500AFFFF7E2FF80B500AF2B
:10134800FFF7DEFF80B500AFFFF7DAFF80B500AF2B
:10135800FFF7D6FF80B400AF00BFBD465DF8047B41
:10136800704780B400AF00BFBD465DF8047B70478E
:1013780080B400AF00BFBD465DF8047B704780B500
:1013880000AF00F0BBF800BF80BD80B500AF01F032
:10139800CDFD00BF80BD80B500AF01F0EBF800BF08
:1013A80080BD80B400AF00BFBD465DF8047B7047C8
:1013B80080B500AF024800F043FD00BF80BD00BF0C
:1013C8003800002080B500AF024800F039FD00BFAA
:1013D80080BD00BF3800002080B500AFFFF790FF48
:1013E80080B400AF064BD3F88830054A43F4700345
:1013F800C2F8883000BFBD465DF8047B704700BF67
:1014080000ED00E0DFF834D0FFF7EAFF0C480D49A3
:101418000D4A002302E0D458C4500433C4188C4247
:10142800F9D30A4A0A4C002301E013600432A242AD
:10143800FBD302F001FAFFF791FA7047000002208F
:10144800000000201C000020C03800081C000020FC
:1014580024010020FEE7000080B500AF0E4B1B689A
:101468000D4A43F4007313600B4B1B680A4A43F49C
:1014780080631360084B1B68074A43F4807313604A
:10148800032000F0E1FF0F2000F008F8FFF7EEFE60
:101498000023184680BD00BF003C024080B582B0E2
:1014A80000AF7860124B1A68124B1B7819464FF43C
:1014B8007A73B3FBF1F3B2FBF3F3184600F0F9FFCC
:1014C8000346002B01D001230EE07B680F2B0AD8BE
:1014D800002279684FF0FF3000F0C1FF064A7B68B0
:1014E8001360002300E0012318460837BD4680BD7D
:1014F80010000020180000201400002080B400AF65
:10150800064B1B781A46064B1B681344044A1360A3
:1015180000BFBD465DF8047B704700BF180000207F
:101528000001002080B400AF034B1B681846BD467D
:101538005DF8047B704700BF0001002080B584B0CF
:1015480000AF78607B68002B01D101231CE17B6828
:1015580093F82030DBB2002B31D17B688C4A1A64B7
:101568007B688C4A5A647B688B4A9A647B688B4A8E
:10157800DA647B688A4A9A627B688A4ADA627B689C
:10158800894A1A637B68894A5A637B68884A9A63DE
:101598007B68884ADA637B68874A1A657B68874A6A
:1015A8005A657B68864A9A657B68DB6D002B02D199
:1015B8007B68844ADA657B68DB6D786898477B6866
:1015C8001B681A687B681B6842F001021A60FFF703
:1015D800A9FFF86012E0FFF7A5FF0246FB68D31ADF
:1015E8000A2B0BD97B685B6A43F400327B685A622A
:1015F8007B68052283F820200123C5E07B681B68EF
:101608005B6803F00103002BE5D07B681B681A6850
:101618007B681B6822F002021A60FFF783FFF860FC
:1016280012E0FFF77FFF0246FB68D31A0A2B0BD99B
:101638007B685B6A43F400327B685A627B680522E8
:1016480083F8202001239FE07B681B685B6803F018
:101658000203002BE5D17B681B7E012B08D17B6838
:101668001B681A687B681B6842F080021A6007E0F2
:101678007B681B681A687B681B6822F080021A6006
:101688007B685B7E012B08D17B681B681A687B68C6
:101698001B6842F040021A6007E07B681B681A6802
:1016A8007B681B6822F040021A607B689B7E012BD6
:1016B80008D17B681B681A687B681B6842F02002A7
:1016C8001A6007E07B681B681A687B681B6822F051
:1016D80020021A607B68DB7E012B08D17B681B68BF
:1016E8001A687B681B6822F010021A6007E07B68A2
:1016F8001B681A687B681B6842F010021A607B68D6
:101708001B7F012B08D17B681B681A687B681B68E4
:1017180042F008021A6007E07B681B681A687B6859
:101728001B6822F008021A607B685B7F012B08D1D6
:101738007B681B681A687B681B6842F004021A60A1
:1017480007E07B681B681A687B681B6822F0040244
:101758001A607B689A687B68DB681A437B681B6938
:101768001A437B685B6942EA03017B685B685A1E1F
:101778007B681B680A43DA617B6800225A627B68CF
:10178800012283F82020002318461037BD4680BD6B
:10179800AD080008F50700084B2200085F22000882
:1017A800D3210008E7210008FB2100080F220008C8
:1017B8002322000837220008732200088722000825
:1017C8009B220008B505000880B487B000AF786098
:1017D80039607B681B687B617B6893F82030FB74F9
:1017E800FB7C012B03D0FB7C022B40F0BE80654BB9
:1017F8007B617B69D3F8003243F001027B69C3F84F
:1018080000227B69D3F8003223F47C527B69C3F849
:1018180000227B69D3F800223B685B6A1B021A43EB
:101828007B69C3F800223B685B6903F01F03012250
:1018380002FA03F3FB607B69D3F81C22FB68DB43E5
:101848001A407B69C3F81C223B68DB69002B23D153
:101858007B69D3F80C22FB68DB431A407B69C3F829
:101868000C223B68DB6819043B685B689BB23A68EA
:10187800526919437B69483243F832103B689B68C8
:1018880019043B681B689AB23B685B690A4379692B
:101898004833DB000B445A603B68DB69012B22D1DB
:1018A8007B69D3F80C22FB681A437B69C3F80C22C6
:1018B8003B681B6819043B685B689BB23A685269CD
:1018C80019437B69483243F832103B689B68190416
:1018D8003B68DB689AB23B685B690A4379694833BD
:1018E800DB000B445A603B689B69002B09D17B697C
:1018F800D3F80422FB68DB431A407B69C3F804224F
:1019080007E07B69D3F80422FB681A437B69C3F8B4
:1019180004223B681B69002B09D17B69D3F8142288
:10192800FB68DB431A407B69C3F8142207E07B6934
:10193800D3F81422FB681A437B69C3F814223B6866
:101948001B6A012B07D17B69D3F81C22FB681A4359
:101958007B69C3F81C227B69D3F8003223F00102AB
:101968007B69C3F80022002306E07B685B6A43F4C6
:1019780080227B685A62012318461C37BD465DF8F1
:10198800047B70470064004080B584B000AF786085
:101998007B6893F82030DBB2012B2ED17B680222C2
:1019A80083F820207B681B681A687B681B6822F014
:1019B80001021A60FFF7B6FDF86012E0FFF7B2FD0A
:1019C8000246FB68D31A0A2B0BD97B685B6A43F47F
:1019D80000327B685A627B68052283F82020012345
:1019E80012E07B681B685B6803F00103002BE5D1FC
:1019F8007B6800225A62002306E07B685B6A43F436
:101A080000227B685A62012318461037BD4680BD04
:101A180080B489B000AFF860B9607A603B60FB6859
:101A280093F82030FB77FB681B689B68BB61FB7FE2
:101A3800012B03D0FB7F022B40F0AD80BB6903F084
:101A48008063002B0AD1BB6903F00063002B05D12A
:101A5800BB6903F08053002B00F09580BB691B0E17
:101A680003F003037B6101227B699A403B681A609B
:101A7800BB689B68002B0DD1BB681B685A05BB6807
:101A8800DB68F96809681A437B6918331B010B4442
:101A98001A600FE0BB685B68DA00BB689B681A4392
:101AA800BB68DB68F96809681A437B6918331B014E
:101AB8000B441A60FB681968BB681A697B6918339C
:101AC8001B010B4404331A60BB681B7D012B11D129
:101AD800FB681A687B6918331B01134404331B68BD
:101AE800FA68116843F480727B6918331B010B4450
:101AF80004331A607B6807331B781A067B68063341
:101B08001B781B041A437B6805331B781B0213439D
:101B18007A68043212781046FA68116843EA0002BB
:101B28007B691B010B4403F5C6731A607B6803339A
:101B38001B781A067B6802331B781B041A437B68E0
:101B480001331B781B0213437A6812781046FA682F
:101B5800116843EA00027B691B010B4403F5C47357
:101B68001A60FB681A687B6918331B0113441B68E9
:101B7800FA68116843F001027B6918331B010B44B2
:101B88001A6000230EE0FB685B6A43F40012FB68EE
:101B98005A62012306E0FB685B6A43F48022FB6813
:101BA8005A62012318462437BD465DF8047B704706
:101BB80080B487B000AFF860B9607A603B60FB68BA
:101BC80093F82030FB75FB7D012B03D0FB7D022BA6
:101BD80040F00381BB68002B0ED1FB681B68DB68F3
:101BE80003F00303002B16D1FB685B6A43F4001271
:101BF800FB685A620123F7E0FB681B681B6903F066
:101C08000303002B07D1FB685B6A43F40012FB68EF
:101C18005A620123E8E0FB681A68BB681B331B01A2
:101C280013441B6803F004027B689A607B689B6816
:101C3800002B0CD1FB681A68BB681B331B011344CB
:101C48001B685B0DC3F30A027B681A600BE0FB6834
:101C58001A68BB681B331B0113441B68DB0823F09D
:101C680060427B685A60FB681A68BB681B331B01BB
:101C780013441B6803F002027B68DA60FB681A6889
:101C8800BB681B331B01134404331B6803F00803B0
:101C9800002B03D07B6808221A610BE0FB681A68E6
:101CA800BB681B331B01134404331B6803F00F028A
:101CB8007B681A61FB681A68BB681B331B011344F5
:101CC80004331B681B0ADAB27B689A61FB681A68DE
:101CD800BB681B331B01134404331B681B0C9AB2EB
:101CE8007B685A61FB681A68BB681B01134403F5DB
:101CF800DC731B68DAB23B681A70FB681A68BB6849
:101D08001B01134403F5DC731B681A0A3B68013393
:101D1800D2B21A70FB681A68BB681B01134403F53A
:101D2800DC731B681A0C3B680233D2B21A70FB686A
:101D38001A68BB681B01134403F5DC731B681A0E91
:101D48003B680333D2B21A70FB681A68BB681B0180
:101D5800134403F5DE731A683B680433D2B21A7071
:101D6800FB681A68BB681B01134403F5DE731B6824
:101D78001A0A3B680533D2B21A70FB681A68BB6846
:101D88001B01134403F5DE731B681A0C3B6806330A
:101D9800D2B21A70FB681A68BB681B01134403F5BA
:101DA800DE731B681A0E3B680733D2B21A70BB6821
:101DB800002B08D1FB681B68DA68FB681B6842F0D7
:101DC8002002DA6007E0FB681B681A69FB681B6879
:101DD80042F020021A61002306E0FB685B6A43F4C4
:101DE8008022FB685A62012318461C37BD465DF8FD
:101DF800047B704780B485B000AF786039607B6839
:101E080093F82030FB73FB7B012B02D0FB7B022B6A
:101E180009D17B681B6859697B681B683A680A4363
:101E28005A61002306E07B685B6A43F480227B6882
:101E38005A62012318461437BD465DF8047B704783
:101E480080B58AB000AF786000237B627B681B682E
:101E58005B693B627B681B685B68FB617B681B682E
:101E68009B68BB617B681B68DB687B617B681B6860
:101E78001B693B617B681B689B69FB603B6A03F0DD
:101E88000103002B00F08380BB6903F00103002BE2
:101E980025D07B681B6801229A60BB6903F00203A6
:101EA800002B04D07B689B6A7868984717E0BB6969
:101EB80003F00403002B04D07B6A43F400637B62C5
:101EC8000DE0BB6903F00803002B04D07B6A43F4E0
:101ED80080537B6203E07B685B6B78689847BB69DB
:101EE80003F48073002B26D07B681B684FF4807244
:101EF8009A60BB6903F40073002B04D07B68DB6A2B
:101F08007868984717E0BB6903F48063002B04D016
:101F18007B6A43F400537B620DE0BB6903F4006302
:101F2800002B04D07B6A43F480437B6203E07B6828
:101F38009B6B78689847BB6903F48033002B26D0E5
:101F48007B681B684FF480329A60BB6903F40033E6
:101F5800002B04D07B681B6B7868984717E0BB6937
:101F680003F48023002B04D07B6A43F400437B6294
:101F78000DE0BB6903F40023002B04D07B6A43F413
:101F880080337B6203E07B68DB6B786898473B6A49
:101F980003F00803002B0CD07B6903F01003002B1F
:101FA80007D07B6A43F400737B627B681B6810224E
:101FB800DA603B6A03F00403002B0CD07B6903F062
:101FC8000803002B07D07B681B680822DA607B684F
:101FD8005B6C786898473B6A03F00203002B0AD0D1
:101FE8007B681B68DB6803F00303002B03D07B6866
:101FF8001B6C786898473B6A03F04003002B0CD0B1
:102008003B6903F01003002B07D07B6A43F480631D
:102018007B627B681B6810221A613B6A03F020030D
:10202800002B0CD03B6903F00803002B07D07B681A
:102038001B6808221A617B68DB6C786898473B6AE2
:1020480003F01003002B0AD07B681B681B6903F0A0
:102058000303002B03D07B689B6C786898473B6A26
:1020680003F40033002B0CD0FB6903F01003002BA2
:1020780007D07B681B6810225A607B681B6D7868E4
:1020880098473B6A03F48033002B0CD0FB6903F0BC
:102098000803002B07D07B681B6808225A607B68FE
:1020A8005B6D786898473B6A03F40043002B7BD04C
:1020B800FB6903F00403002B72D03B6A03F48073BE
:1020C800002B08D0FB6803F00103002B03D07B6AC8
:1020D80043F001037B623B6A03F40073002B08D0D2
:1020E800FB6803F00203002B03D07B6A43F0020372
:1020F8007B623B6A03F48063002B08D0FB6803F023
:102108000403002B03D07B6A43F004037B623B6A21
:1021180003F40063002B43D0FB6803F07003002B2B
:102128003ED0FB6803F07003602B2BD0602B2ED8B9
:10213800502B22D0502B2AD8402B19D0402B26D8F0
:10214800302B10D0302B22D8102B02D0202B05D0CA
:102158001DE07B6A43F008037B6219E07B6A43F069
:1021680010037B6214E07B6A43F020037B620FE07C
:102178007B6A43F040037B620AE07B6A43F080039A
:102188007B6205E07B6A43F480737B6200E000BFFA
:102198007B681B689A697B681B6822F070029A61E9
:1021A8007B681B6804225A607B6A002B09D07B6815
:1021B8005A6A7B6A1A437B685A627B689B6D7868A7
:1021C800984700BF2837BD4680BD80B483B000AFB4
:1021D800786000BF0C37BD465DF8047B704780B45B
:1021E80083B000AF786000BF0C37BD465DF8047B54
:1021F800704780B483B000AF786000BF0C37BD462D
:102208005DF8047B704780B483B000AF786000BF8E
:102218000C37BD465DF8047B704780B483B000AFCF
:10222800786000BF0C37BD465DF8047B704780B40A
:1022380083B000AF786000BF0C37BD465DF8047B03
:10224800704780B483B000AF786000BF0C37BD46DC
:102258005DF8047B704780B483B000AF786000BF3E
:102268000C37BD465DF8047B704780B483B000AF7F
:10227800786000BF0C37BD465DF8047B704780B4BA
:1022880083B000AF786000BF0C37BD465DF8047BB3
:10229800704780B483B000AF786000BF0C37BD468C
:1022A8005DF8047B7047000080B485B000AF7860AB
:1022B8007B6803F00703FB600C4BDB68BB60BA6804
:1022C8004FF6FF031340BB60FB681A02BB68134359
:1022D80043F0BF6343F40033BB60044ABB68D36078
:1022E80000BF1437BD465DF8047B704700ED00E081
:1022F80080B400AF044BDB681B0A03F007031846E1
:10230800BD465DF8047B704700ED00E080B483B003
:1023180000AF0346FB7197F90730002B0BDBFB7905
:1023280003F01F02074997F907305B09012000FAFB
:1023380002F241F8232000BF0C37BD465DF8047B4C
:10234800704700BF00E100E080B483B000AF0346EF
:102358003960FB7197F90730002B0ADB3B68DAB26A
:102368000C4997F907301201D2B20B4483F80023C5
:102378000AE03B68DAB20849FB7903F00F03043B33
:102388001201D2B20B441A7600BF0C37BD465DF875
:10239800047B704700E100E000ED00E080B489B004
:1023A80000AFF860B9607A60FB6803F00703FB616F
:1023B800FB69C3F10703042B28BF0423BB61FB6936
:1023C8000433062B02D9FB69033B00E000237B6141
:1023D8004FF0FF32BB6902FA03F3DA43BB681A40D5
:1023E8007B699A404FF0FF317B6901FA03F3D943C7
:1023F8007B680B40134318462437BD465DF8047BC1
:102408007047000080B582B000AF78607B68013B00
:10241800B3F1807F01D301230FE00A4A7B68013BB7
:1024280053600F214FF0FF30FFF78EFF054B00225E
:102438009A60044B07221A60002318460837BD46E5
:1024480080BD00BF10E000E080B582B000AF7860CA
:102458007868FFF729FF00BF0837BD4680BD80B503
:1024680086B000AF0346B9607A60FB7300237B61D6
:10247800FFF73EFF78617A68B9687869FFF78EFFE1
:10248800024697F90F3011461846FFF75DFF00BF67
:102498001837BD4680BD80B582B000AF0346FB71DA
:1024A80097F907301846FFF731FF00BF0837BD46D8
:1024B80080BD80B582B000AF78607868FFF7A2FF72
:1024C800034618460837BD4680BD000080B586B073
:1024D80000AFF860B960C7E900230123FB75234BFF
:1024E8001B7E012B01D102233BE0204B01221A76EF
:1024F8004CF2503000F02CF90346FB75FB7D002BA5
:102508002BD1FB68002B05D13B781946B86800F041
:10251800D7F916E0FB68012B05D13B881946B86846
:1025280000F0AAF90DE0FB68022B05D13B681946BB
:10253800B86800F07FF904E0D7E90023B86800F034
:1025480047F94CF2503000F003F90346FB75084B8D
:102558001B69074A23F001031361044B00221A7612
:10256800FB7D18461837BD4680BD00BF040100201A
:10257800003C024080B582B000AF00237B60494B2D
:10258800DB6803F0F203002B20D0474B1B78DBB24B
:10259800012B07D1444BDB687B60434B4FF0FF3284
:1025A800DA600BE0404B1B78DBB2022B03D13E4BC9
:1025B8001B697B6002E03C4B5B697B6000F0A2F921
:1025C800786800F07DF8384B00221A70354BDB68CC
:1025D80003F00103002B4AD0324B0122DA60324B60
:1025E8001B78DBB2012B2DD12F4B5B68013B2E4AA8
:1025F80053602D4B5B68002B15D02B4BDB687B6041
:10260800786800F053F8284BDB680133264AD3601A
:10261800254BDB687B60244B1B7ADBB21946786854
:1026280000F05AFA23E04FF0FF337B601E4A7B68C4
:10263800D3601D4B00221A7000F096FA786800F0FB
:1026480035F814E0184B1B78DBB2022B07D100F0E9
:102658008BFA154B1B69184600F028F804E0124B5A
:102668005B69184600F022F80F4B00221A700E4BD7
:102678001B78DBB2002B11D10A4B1B69094A23F0E6
:10268800FF031361074B1B69064A23F0807313612C
:10269800044B1B69034A23F00073136100BF08371A
:1026A800BD4680BD003C02400401002080B483B0D8
:1026B80000AF786000BF0C37BD465DF8047B7047FB
:1026C80080B483B000AF786000BF0C37BD465DF8BA
:1026D800047B704780B483B000AF0023FB710B4BC1
:1026E8001B69002B0BDA094B094A5A60074B094A48
:1026F8005A60064B1B69002B01DA0123FB71FB7939
:1027080018460C37BD465DF8047B7047003C024014
:1027180023016745AB89EFCD80B400AF054B1B693A
:10272800044A43F00043136100231846BD465DF890
:10273800047B7047003C024080B400AF034BDB6968
:102748001846BD465DF8047B704700BF04010020B1
:1027580080B584B000AF78600023FB601A4B00227C
:10276800DA61FEF7DFFEF86010E07B68B3F1FF3F47
:102778000CD07B68002B07D0FEF7D4FE0246FB681E
:10278800D31A7A689A4201D2032319E00F4BDB6807
:1027980003F48033002BE8D10C4BDB6803F0010312
:1027A800002B02D0094B0122DA60084BDB6803F0EA
:1027B800F203002B03D000F0A5F8012300E000236A
:1027C80018461037BD4680BD04010020003C024079
:1027D80080B485B000AFF860C7E90023144B1B69CB
:1027E800134A23F440731361114B1B69104A43F4D5
:1027F800407313610E4B1B690D4A43F001031361CB
:10280800FB683A681A60BFF36F8F00BFD7E9000111
:102818004FF000024FF000030A000023F96804316A
:1028280013460B6000BF1437BD465DF8047B704744
:10283800003C024080B483B000AF786039600D4B33
:102848001B690C4A23F4407313610A4B1B69094A3C
:1028580043F400731361074B1B69064A43F00103F5
:1028680013617B683A681A6000BF0C37BD465DF893
:10287800047B7047003C024080B483B000AF7860AE
:102888000B467B800D4B1B690C4A23F44073136184
:102898000A4B1B69094A43F480731361074B1B6990
:1028A800064A43F0010313617B687A881A8000BFE7
:1028B8000C37BD465DF8047B704700BF003C024002
:1028C80080B483B000AF78600B46FB700C4B1B697B
:1028D8000B4A23F440731361094B094A1B691361BE
:1028E800074B1B69064A43F0010313617B68FA78BA
:1028F8001A7000BF0C37BD465DF8047B704700BFF7
:10290800003C024080B400AF274BDB6803F01003A3
:10291800002B08D0254BDB6943F01003234AD36111
:10292800214B1022DA60204BDB6803F02003002BD8
:1029380008D01E4BDB6943F008031C4AD3611A4BCD
:102948002022DA60184BDB6803F04003002B08D024
:10295800164BDB6943F00403144AD361124B40223F
:10296800DA60114BDB6803F08003002B08D00F4BB3
:10297800DB6943F002030D4AD3610B4B8022DA6016
:10298800094BDB6803F00203002B08D0074BDB6917
:1029980043F02003054AD361034B0222DA6000BFEB
:1029A800BD465DF8047B7047003C024004010020EE
:1029B80080B584B000AF786039600123FB730023D1
:1029C800BB60314B1B7E012B01D1022358E02E4BFB
:1029D80001221A764CF25030FFF7BAFE0346FB7319
:1029E800FB7B002B48D13B684FF0FF321A607B68B5
:1029F8001B68012B15D17B681B69DAB27B685B68A1
:102A08001946104600F044F84CF25030FFF7A0FE8B
:102A18000346FB731D4B1B691C4A23F00403136117
:102A280028E07B689B68BB601CE07B681B69DBB2A5
:102A38001946B86800F050F84CF25030FFF788FE9D
:102A48000346FB73114B1B69104A23F0FA03136109
:102A5800FB7B002B03D03B68BA681A600AE0BB68AE
:102A68000133BB607B68DA687B689B681344BA688B
:102A78009A42DAD300F078F8034B00221A76FB7BEF
:102A880018461037BD4680BD04010020003C0240B6
:102A980080B483B000AF03463960FB710D4B1B69EE
:102AA8000C4A23F4407313610A4B1B69094A43F02B
:102AB80004031361074B1A69FB791B021343054A88
:102AC80043F48033136100BF0C37BD465DF8047BC7
:102AD800704700BF003C024080B485B000AF78600A
:102AE8000B46FB700023FB60FB78002B02D1002310
:102AF800FB6010E0FB78012B03D14FF48073FB607F
:102B080009E0FB78022B03D14FF40073FB6002E06D
:102B18004FF44073FB60134B1B69124A23F4407354
:102B28001361104B1A690F49FB6813430B610D4B76
:102B38001B690C4A23F0F80313610A4B1A697B6876
:102B4800DB001343074A43F002031361054B1B697B
:102B5800044A43F48033136100BF1437BD465DF85F
:102B6800047B7047003C024080B400AF204B1B68D8
:102B780003F40073002B17D01D4B1B681C4A23F469
:102B8800007313601A4B1B68194A43F400631360FF
:102B9800174B1B68164A23F400631360144B1B6819
:102BA800134A43F400731360114B1B6803F48063EA
:102BB800002B17D00E4B1B680D4A23F4806313605B
:102BC8000B4B1B680A4A43F480531360084B1B687D
:102BD800074A23F480531360054B1B68044A43F4E7
:102BE8008063136000BFBD465DF8047B704700BF7B
:102BF800003C024080B489B000AF7860396000239F
:102C08007B6100233B610023BB610023FB616BE117
:102C18000122FB6902FA03F37B613B681B687A694E
:102C280013403B613A697B699A4240F05A813B689C
:102C38005B6803F00303012B05D03B685B6803F076
:102C48000303022B30D17B689B68BB61FB695B0087
:102C5800032202FA03F3DB43BA691340BB613B6802
:102C6800DA68FB695B0002FA03F3BA691343BB61D4
:102C78007B68BA699A607B685B68BB610122FB6903
:102C880002FA03F3DB43BA691340BB613B685B6834
:102C98001B0903F00102FB6902FA03F3BA69134343
:102CA800BB617B68BA695A603B685B6803F00303E1
:102CB800032B17D07B68DB68BB61FB695B000322D1
:102CC80002FA03F3DB43BA691340BB613B689A68B5
:102CD800FB695B0002FA03F3BA691343BB617B68C3
:102CE800BA69DA603B685B6803F00303022B23D1FF
:102CF800FB69DA087B68083253F82230BB61FB694C
:102D080003F007039B000F2202FA03F3DB43BA69BF
:102D18001340BB613B681A69FB6903F007039B001A
:102D280002FA03F3BA691343BB61FB69DA087B68EB
:102D38000832B96943F822107B681B68BB61FB69DC
:102D48005B00032202FA03F3DB43BA691340BB6159
:102D58003B685B6803F00302FB695B0002FA03F35C
:102D6800BA691343BB617B68BA691A603B685B68E0
:102D780003F44033002B00F0B4800023FB60604B69
:102D88005B6C5F4A43F4804353645D4B5B6C03F4B4
:102D98008043FB60FB685B4AFB699B08023352F87F
:102DA8002330BB61FB6903F003039B000F2202FA87
:102DB80003F3DB43BA691340BB617B68524A934211
:102DC8002BD07B68514A934225D07B68504A934266
:102DD8001FD07B684F4A934219D07B684E4A934272
:102DE80013D07B684D4A93420DD07B684C4A93427E
:102DF80007D07B684B4A934201D107230EE0082392
:102E08000CE006230AE0052308E0042306E0032378
:102E180004E0022302E0012300E00023FA6902F043
:102E2800030292009340BA691343BB613549FB69B9
:102E38009B080233BA6941F823203B4B9B68BB616E
:102E48003B69DB43BA691340BB613B685B6803F4C9
:102E58008013002B03D0BA693B691343BB61324A24
:102E6800BB699360304BDB68BB613B69DB43BA6984
:102E78001340BB613B685B6803F40013002B03D06D
:102E8800BA693B691343BB61274ABB69D360264BC8
:102E98005B68BB613B69DB43BA691340BB613B6854
:102EA8005B6803F40033002B03D0BA693B69134312
:102EB800BB611D4ABB6953601B4B1B68BB613B6907
:102EC800DB43BA691340BB613B685B6803F480333A
:102ED800002B03D0BA693B691343BB61124ABB6933
:102EE8001360FB690133FB61FB690F2B7FF690AE22
:102EF80000BF00BF2437BD465DF8047B704700BFA4
:102F0800003802400038014000000240000402403E
:102F180000080240000C0240001002400014024069
:102F280000180240001C0240003C014080B500AF80
:102F3800064B5B6903F48033002B05D000F008F8DA
:102F4800024B4FF480325A6100BF80BD003C014003
:102F580080B400AF00BFBD465DF8047B7047000039
:102F680080B586B000AF78607B68002B01D1012363
:102F780067E27B681B6803F00103002B75D0884B60
:102F88009B6803F00C03042B0CD0854B9B6803F063
:102F98000C03082B12D1824B5B6803F48003B3F552
:102FA800800F0BD17E4B1B6803F40033002B5BD0E2
:102FB8007B685B68002B57D1012342E27B685B6822
:102FC800B3F5803F06D1764B1B68754A43F48033CE
:102FD80013601DE07B685B68B3F5A02F0CD1704BC4
:102FE8001B686F4A43F4802313606D4B1B686C4A5F
:102FF80043F4803313600BE0694B1B68684A23F481
:1030080080331360664B1B68654A23F48023136082
:103018007B685B68002B13D0FEF784FA386108E000
:10302800FEF780FA02463B69D31A642B01D90323C1
:1030380007E25B4B1B6803F40033002BF0D014E06D
:10304800FEF770FA386108E0FEF76CFA02463B6951
:10305800D31A642B01D90323F3E1514B1B6803F402
:103068000033002BF0D100E000BF7B681B6803F041
:103078000203002B63D04A4B9B6803F00C03002B20
:103088000BD0474B9B6803F00C03082B1CD1444B17
:103098005B6803F48003002B16D1414B1B6803F0D7
:1030A8000203002B05D07B68DB68012B01D00123CC
:1030B800C7E13B4B1B6823F0F8027B681B69DB0008
:1030C800374913430B603AE07B68DB68002B20D05C
:1030D800344B01221A60FEF725FA386108E0FEF742
:1030E80021FA02463B69D31A022B01D90323A8E12E
:1030F8002B4B1B6803F00203002BF0D0284B1B68F6
:1031080023F0F8027B681B69DB00254913430B6039
:1031180015E0244B00221A60FEF704FA386108E033
:10312800FEF700FA02463B69D31A022B01D90323A2
:1031380087E11B4B1B6803F00203002BF0D17B686F
:103148001B6803F00803002B36D07B685B69002BF3
:1031580016D0154B01221A60FEF7E4F9386108E031
:10316800FEF7E0F902463B69D31A022B01D9032383
:1031780067E10B4B5B6F03F00203002BF0D01BE001
:10318800094B00221A60FEF7CDF938610EE0FEF710
:10319800C9F902463B69D31A022B07D9032350E128
:1031A8000038024000004742800E4742884B5B6F60
:1031B80003F00203002BEAD17B681B6803F00403C9
:1031C800002B00F097800023FB75814B1B6C03F0EC
:1031D8008053002B0FD10023BB607D4B1B6C7C4AB6
:1031E80043F0805313647A4B1B6C03F08053BB602D
:1031F800BB680123FB75774B1B6803F48073002BB6
:1032080018D1744B1B68734A43F480731360FEF73C
:1032180089F9386108E0FEF785F902463B69D31A57
:10322800022B01D903230CE16A4B1B6803F480735A
:10323800002BF0D07B689B68012B06D1644B1B6F79
:10324800634A43F0010313671CE07B689B68052B06
:103258000CD15F4B1B6F5E4A43F0040313675C4B52
:103268001B6F5B4A43F0010313670BE0584B1B6F5E
:10327800574A23F001031367554B1B6F544A23F039
:10328800040313677B689B68002B15D0FEF74AF987
:1032980038610AE0FEF746F902463B69D31A41F263
:1032A8008832934201D90323CBE0494B1B6F03F0CB
:1032B8000203002BEED014E0FEF734F938610AE07F
:1032C800FEF730F902463B69D31A41F2883293423D
:1032D80001D90323B5E03E4B1B6F03F00203002B1B
:1032E800EED1FB7D012B05D1394B1B6C384A23F0FD
:1032F800805313647B689B69002B00F0A180344BDA
:103308009B6803F00C03082B5CD07B689B69022B3D
:1033180041D1314B00221A60FEF704F9386108E008
:10332800FEF700F902463B69D31A022B01D90323A1
:1033380087E0274B1B6803F00073002BF0D17B68F4
:10334800DA697B681B6A1A437B685B6A9B011A43CC
:103358007B689B6A5B08013B1B041A437B68DB6A3A
:103368001B061B4913434B601B4B01221A60FEF7D7
:10337800D9F8386108E0FEF7D5F802463B69D31A58
:10338800022B01D903235CE0114B1B6803F0007387
:10339800002BF0D054E0104B00221A60FEF7C2F860
:1033A800386108E0FEF7BEF802463B69D31A022BE3
:1033B80001D9032345E0064B1B6803F00073002B7B
:1033C800F0D13DE07B689B69012B07D1012338E0F0
:1033D8000038024000700040600047421B4B5B68A9
:1033E800FB607B689B69012B28D0FB6803F4800293
:1033F8007B68DB699A4221D1FB6803F03F027B6856
:103408001B6A9A421AD1FA6847F6C07313407A6861
:10341800526A9201934211D1FB6803F440327B68EF
:103428009B6A5B08013B1B049A4207D1FB6803F0C7
:1034380070627B68DB6A1B069A4201D0012300E0B8
:10344800002318461837BD4680BD00BF003802402B
:1034580080B584B000AF786039607B68002B01D1FB
:103468000123CCE0684B1B6803F007033A689A42D3
:103478000CD9654B3A68D2B21A70634B1B6803F0DB
:1034880007033A689A4201D00123B8E07B681B68B9
:1034980003F00203002B20D07B681B6803F00403B1
:1034A800002B05D0594B9B68584A43F4E05393606E
:1034B8007B681B6803F00803002B05D0534B9B68FF
:1034C800524A43F460439360504B9B6823F0F002E8
:1034D8007B689B684D4913438B607B681B6803F0CE
:1034E8000103002B44D07B685B68012B07D1474B55
:1034F8001B6803F40033002B19D101237FE07B689C
:103508005B68022B03D07B685B68032B07D13F4BBA
:103518001B6803F00073002B09D101236FE03B4BBC
:103528001B6803F00203002B01D1012367E0374B2E
:103538009B6823F003027B685B68344913438B6004
:10354800FDF7F0FFF8600AE0FDF7ECFF0246FB68C4
:10355800D31A41F28832934201D903234FE02B4B0F
:103568009B6803F00C027B685B689B009A42EBD176
:10357800254B1B6803F007033A689A420CD2224B8A
:103588003A68D2B21A70204B1B6803F007033A68F6
:103598009A4201D0012332E07B681B6803F00403E0
:1035A800002B08D0194B9B6823F4E0527B68DB683A
:1035B800164913438B607B681B6803F00803002BD4
:1035C80009D0124B9B6823F460427B681B69DB00BF
:1035D8000E4913438B6000F021F802460B4B9B68A1
:1035E8001B0903F00F030A49CB5C22FA03F3094ACB
:1035F8001360094B1B681846FDF750FF0023184657
:103608001037BD4680BD00BF003C02400038024074
:10361800A038000810000020140000202DE9B04F49
:1036280094B000AF00237B640023FB6400233B6459
:103638000023BB64794B9B6803F00C03082B0DD067
:10364800082B00F2E180002B02D0042B03D0DBE032
:10365800734BBB64DBE0734BBB64D8E06F4B5B68B8
:1036680003F03F037B646D4B5B6803F48003002B1E
:1036780063D06A4B5B689B090022BB63FA63BB6B30
:10368800C3F308033B6300237B63D7E90C45224659
:103698002B464FF000004FF00001590141EAD2617A
:1036A800500102460B462146511A3961294663EBFF
:1036B80001037B614FF000024FF00003D7E904AB30
:1036C80059468B01514643EA916351468A01514656
:1036D800B2EB0108594663EB01094FF000024FF0C5
:1036E80000034FEAC90343EA58734FEAC8029046F9
:1036F8009946234618EB0303BB602B4649EB0303AB
:10370800FB604FF000024FF00003D7E9024529465D
:103718004B02214643EAD15321464A021046194634
:103728007B6C0022BB62FA62D7E90A23FCF748FDEA
:1037380002460B461346FB6458E0384B5B689B090E
:10374800002218461146C0F308033B6200237B623F
:10375800D7E9088942464B464FF000004FF0000178
:10376800590141EAD261500102460B464146B2EB8B
:10377800010A494663EB010B4FF000024FF00003CA
:103788004FEA8B1343EA9A634FEA8A12B2EB0A04B0
:1037980063EB0B054FF000024FF00003EB0043EA28
:1037A8005473E20014461D464346E3183B604B46FB
:1037B80045EB03037B604FF000024FF00003D7E9AD
:1037C800004529468B02214643EA915321468A0245
:1037D800104619467B6C0022BB61FA61D7E90623C3
:1037E800FCF7EEFC02460B461346FB640B4B5B688A
:1037F8001B0C03F0030301335B003B64FA6C3B6C66
:10380800B2FBF3F3BB6402E0054BBB6400BFBB6CC7
:1038180018465037BD46BDE8B08F00BF003802409B
:103828000024F40000127A0002440346934200D1B7
:10383800704703F8011BF9E770B50D4D0D4C641B7B
:10384800A4100026A64209D10B4D0C4C00F018F824
:10385800641BA4100026A64205D170BD55F8043B90
:1038680098470136EEE755F8043B98470136F2E7EA
:10387800B8380008B8380008B8380008BC3800085C
:10388800F8B500BFF8BC08BC9E467047F8B500BF45
:08389800F8BC08BC9E46704715
:1038A00000000000000000000102030406070809F0
:0838B00048C9FF7F0100000080
:0438B800AD01000856
:0438BC008901000876
:1038C00000FC0010070000000000020800000208D1
:0C38D0000024F4001000000001000000C3
:040000050800140DCE
:00000001FF
