:020000040806EC
:1000000000FC0120155C0608DD540608EB540608C8
:10001000F9540608075506081555060800000000A3
:10002000000000000000000000000000F1BF060812
:10003000235506080000000041C20608FDB5060869
:10004000655C060831550608655C0608655C0608AF
:10005000435506084F550608655C0608655C0608AA
:10006000655C0608655C0608655C0608655C060854
:10007000655C0608655C0608655C0608655C060844
:10008000655C0608655C06085D5506080000000012
:10009000000000000000000000000000655C060891
:1000A000655C0608655C0608655C0608655C060814
:1000B000715506088555060899550608655C0608B9
:1000C000655C0608655C0608655C0608AD550608B3
:1000D000655C0608C1550608655C0608000000005E
:1000E000655C0608655C0608655C060800000000A3
:1000F000000000000000000000000000655C060831
:1001000000000000655C0608D5550608655C060819
:1001100000000000000000000000000000000000DF
:10012000655C0608655C0608655C0608655C060893
:10013000655C0608000000000000000000000000F0
:10014000000000000000000000000000655C0608E0
:10015000655C0608655C0608655C0608655C060863
:10016000655C0608655C06080000000000000000F1
:10017000000000000000000000000000000000007F
:1001800000000000E9550608000000000000000023
:08019000655C0608655C0608C9
:1001A00010B5054C237833B9044B13B10448AFF3B1
:1001B00000800123237010BD3001012000000000E9
:1001C0009CE9060808B5034B1BB103490348AFF38C
:1001D000008008BD00000000340101209CE90608F1
:1001E00053B94AB9002908BF00281CBF4FF0FF319E
:1001F0004FF0FF3000F088B9ADF1080C6DE904CE86
:1002000000F006F8DDF804E0DDE9022304B07047F1
:100210002DE9F047089D8E4604468846002B4AD1BA
:100220008A42174662D9B2FA82F64EB1C6F120036D
:1002300001FA06F820FA03F3B74043EA0808B4408D
:100240004FEA174E1FFA87FCB8FBFEF1230C0EFB9A
:10025000118843EA084301FB0CF29A4209D9FB18C2
:1002600001F1FF3080F0EA809A4240F2E7800239E3
:100270003B449A1AA3B2B2FBFEF00EFB102243EAF3
:10028000024300FB0CFC9C4509D9FB1800F1FF322E
:1002900080F0D6809C4540F2D3803B44023840EA4F
:1002A0000140A3EB0C0300211DB1F3400022C5E97E
:1002B0000032BDE8F0878B4205D90DB1C5E90001D8
:1002C00000210846F5E7B3FA83F1002946D17345CA
:1002D00002D3824200F20581841A6EEB03020120F0
:1002E0009046002DE5D0C5E90048E2E7002A00F07D
:1002F0009080B2FA82F6002E40F0A4808A1A030C95
:100300004FEA174E80B2BCB20121B2FBFEFC0EFBDD
:100310001C2243EA024304FB0CF29A4207D9FB1861
:100320000CF1FF3802D29A4200F2E080C4469B1AD8
:10033000B3FBFEF20EFB123340EA034302FB04F46C
:100340009C4207D9FB1802F1FF3002D29C4200F216
:10035000CA8002461B1B42EA0C40A5E7C1F12006F9
:100360008B4022FA06F71F430EFA01F420FA06F337
:100370002EFA06FE4FEA1749234300FA01F81FFA46
:1003800087FCBEFBF9F01C0C09FB10EE44EA0E449E
:1003900000FB0CFEA64502FA01F209D93C1900F156
:1003A000FF3A80F09C80A64540F2998002383C4498
:1003B000A4EB0E041FFA83FEB4FBF9F309FB13440C
:1003C0004EEA044403FB0CFCA44508D93C1903F194
:1003D000FF3E80F08280A4457FD9023B3C4443EA43
:1003E0000040A4EB0C04A0FB02EC64457346E1461C
:1003F00062D35FD05DB1B8EB030264EB090404FA89
:1004000006F622FA01F31E43CC40C5E90064002140
:100410004FE7B1FBF2FC010C41EA0E4180B240EA29
:1004200001423B4638463C46B846BE462026B1FB14
:10043000F7F1A2EB080241EA0C4166E7014618E732
:1004400010462CE7C6F120022EFA02F3B740B14065
:1004500020FA02F24FEA174E0A43B3FBFEF8BCB291
:100460000EFB1833110C41EA034108FB04F9B040BC
:1004700089454FEA104380B23ED9791808F1FF3C14
:1004800001D289451FD8A1EB0901B1FBFEF909FB97
:1004900004F80EFB191192B242EA0142424529D2F8
:1004A000BA1809F1FF31C4D24245C2D2A9F1020102
:1004B0003A44BEE7F0459DD2BEEB02036CEB070C5D
:1004C0000138E14696E7A7EB09094944A8F1020C77
:1004D000B1FBFEF909FB04F8DBE773467FE7504602
:1004E00066E70846FDE63B44023A33E7ACF1020C0E
:1004F0003B441CE749469CE7A1EB0901C446B1FB1C
:10050000FEF909FB04F8C4E7704700BF80B400AFF0
:100510006C4B1B69032B02D16B4B01221A706B4B86
:100520001B78002B25D1684B1B78012B1DD1684B04
:1005300064221A70674B1B680133664A1360654B6F
:100540001B68654A934240F28F80614B00221A700B
:10055000604B00221A605B4B00221A615F4B002245
:100560001A61594B00221A707EE0594B00221A7012
:100570007AE0544B1B69032B05D1524B00221A61C0
:10058000564B00221A61504B00221A70544B1B78B4
:10059000002B0DD14D4B1B781A46920013441A467E
:1005A00091001A460B461344DAB2494B1A705BE0CD
:1005B000464B1B785B08DBB20133DAB2494B1A7049
:1005C000494B1B78022B03D1484B02221A7002E0E0
:1005D000464B01221A70464B1B78002B07D1454B26
:1005E0001B78002B03D1444B01221A701AE0404BB8
:1005F0001B781A463F4B1B78D31A002BB8BF5B42BF
:10060000102B03DD3C4B10221A700BE0384B1B788B
:100610001A46384B1B78D31A002BB8BF5B42DAB2AC
:10062000354B1A70344B1B781A46304B1B781344E9
:100630002C4A12781344DBB2DB00DAB2244B1A7076
:10064000234B1B782D4AA2FB03239B08DBB21A46DF
:1006500092001344DAB21E4B1A701C4B1B78002B0D
:1006600002D11B4B00221A70194B1B78002B1FD094
:10067000174B1B781A46224B1B685B6B9A4207D9B3
:100680001F4B1B685A6B1E4B1B6805325A6313E0E5
:100690000F4B1B781A461A4B1B685B6B9A420BD2A6
:1006A000174B1B685A6B164B1B68053A5A6303E0DD
:1006B000134B1B6800225A6300BFBD465DF8047BE4
:1006C000704700BF34000120660101206101012054
:1006D0006701012068010120407E05002000012003
:1006E000620101206C010120630101206D010120E4
:1006F00065010120640101206E010120CDCCCCCC2C
:100700001006012098B500AF7A4B1B68002B18D15A
:10071000794B1B68794A12685A63794B1B68794A8E
:100720001268DA63764B1B68774A12689A63744BD7
:100730001B68764A12685A63714B1B68744A1268C8
:100740001A64744B1B68002B02D1FFF7DFFE03E035
:10075000694B1B6800225A636E4B5B68002B40F0AC
:100760008B8201216C4807F025F803461A466B4B33
:100770001A706A4B1B78002B05D1694B02221A6153
:10078000684B02221A61664B1B69012B2AD1664B0A
:100790001B78C3F59C6302331A46594B1B68DB6B0D
:1007A0009A4209D9564B1B68DA6B5F4B1B78194686
:1007B000534B1B680A44DA635B4B1B78C3F59C639D
:1007C00002331A464E4B1B689B6B9A4232D94C4BF4
:1007D0001B689A6B544B1B781946494B1B680A449B
:1007E0009A6327E04E4B1B69022B23D14E4B1B789B
:1007F0001A46434B1B68DB6B9A4209D2404B1B687D
:10080000DA6B494B1B7819463D4B1B68521ADA6369
:10081000454B1B781A463A4B1B689B6B9A4209D290
:10082000374B1B689A6B404B1B781946344B1B683F
:10083000521A9A633C4B1B781A46314B1B689B6BD0
:100840009A420DD9384B1B781A462D4B1B68DB6B2F
:100850009A4205D9324B00221A61324B00221A61AA
:10086000324B1A78324B1B789A4203D3314B012218
:100870001A706AE02D4B1A782D4B1B789A4209D2D8
:100880002A4B5A782A4B1B789A4203D3294B0222CF
:100890001A705AE0254B5A78254B1B789A4209D298
:1008A000224B9A78224B1B789A4203D3214B032286
:1008B0001A704AE01D4B9A781D4B1B789A4209D258
:1008C0001A4BDA781A4B1B789A4203D3194B04223D
:1008D0001A703AE0154BDA78154B1B789A422BD2F6
:1008E000124B1A79124B1B789A4225D3114B0522D1
:1008F0001A702AE07001012010060120A8FD0120D5
:10090000C4060120ACFD0120B0FD0120B4FD012092
:10091000B8FD0120340301200000024074010120D1
:1009200034000120200001204E0101201800012088
:100930001D000120750101207B4B1A797B4B1B7830
:100940009A4202D27A4B06221A707A4B1B78012BFC
:1009500066D1774B1B78052B31D8774B1B685A6BC8
:10096000764B1B78C3F59C6302339A421ED2724BBE
:100970001B681A6C714B1B78C3F59C6302339A4257
:1009800014D26D4B1B685A6B6C4B1B7819466A4B23
:100990001B680A445A63684B1B681A6C674B1B78C8
:1009A0001946654B1B680A441A64AAE0614B1B7820
:1009B000012B40F0A6805F4B02221A70A1E05E4B33
:1009C0001B685A6B5E4B1B78C3F59C6302339A42DB
:1009D0001ED2594B1B681A6C594B1B78C3F59C638C
:1009E00002339A4214D2544B1B685A6B544B1B78F7
:1009F0001946514B1B680A445A634F4B1B681A6CCB
:100A00004F4B1B7819464C4B1B680A441A6478E01C
:100A1000484B1B78012B74D1464B02221A7070E0B0
:100A2000444B1B78022B6CD1414B1B78052B32D8E1
:100A3000414B1B685B6B414A127893421BD93E4B7A
:100A40001B681B6C3D4A1278934214D93A4B1B68C1
:100A50005A6B3A4B1B781946374B1B68521A5A632C
:100A6000354B1B681A6C354B1B781946324B1B688B
:100A7000521A1A6445E02F4B1B78022B41D12D4BA3
:100A800000221A702C4B1B6800225A632A4B1B68E9
:100A900000221A6435E0264B1B78062B31D1264BF9
:100AA0001B685B6B264A127893421BD9224B1B684A
:100AB0001B6C234A1278934214D91F4B1B685A6B44
:100AC0001F4B1B7819461C4B1B68521A5A631A4B52
:100AD0001B681A6C1A4B1B781946174B1B68521A65
:100AE0001A640EE0134B1B78022B0AD1114B002223
:100AF0001A70114B1B6800225A630F4B1B680022AF
:100B00001A64104B1B78012B20D10F4BDB6840F689
:100B1000B73293421AD9074B1B78002B64D1054B8F
:100B200001221A7060E000BF180001201D000120A2
:100B30007501012076010120C40601204C0101202D
:100B40004D0101201E000120340001203F4B1B7885
:100B5000022B03D03D4B1B78032B2DD13C4B1A7835
:100B60003C4B1B789A4206D03A4B1A78384B1A7095
:100B7000394B00221A60384B1B68002B03D1374BCE
:100B80001B68354A1360354B1A68334B1B68D11A02
:100B90002E4B1B789A1E324B1B78581E314C134635
:100BA0005B0013445B00034434F8133099421BD3B9
:100BB000284B01221A7017E0244B1B78042B0DD10F
:100BC000294B1B68002B0FD1244B1B68264A13604E
:100BD000264B1B781A46264B1A6005E01E4B002256
:100BE0001A601B4B00221A701C4B1A681E4B1B68A4
:100BF000D31A204A127893420FD21B4B1B68002B4A
:100C00000BD0144B1B78002B07D1124B01221A700A
:100C1000174B1B68013B164A13600E4B1B78002BC9
:100C20000BD1134B1B68002B07D00A4B01221A7003
:100C30000F4B1B68013B0E4A13600D4B1B68002BCA
:100C400036D1094B00221A6032E000BF1E0001209D
:100C50007701012076010120780101207001012037
:100C600075010120000001207C01012050010120BC
:100C7000800101204F010120584B1B6800225A635C
:100C8000564B1B6800229A63544B1B680022DA63A0
:100C9000524B1B6800221A64514B00221A60514BC0
:100CA00000221A70504B00221A70504B00221A700A
:100CB0004A4B1B681A6C13461B029B1A4C4AA2FB38
:100CC00003239B0ADAB24B4B1A70444B1B685A6BD6
:100CD00013461B029B1A464AA2FB03239B0ADAB265
:100CE000444B5A703D4B1B68DA6B13461B029B1A30
:100CF0003F4AA2FB03239B0ADAB23E4B9A70374B62
:100D00001B689A6B13461B029B1A394AA2FB0323EA
:100D10009B0ADAB2374BDA70374B1B685A6B1346B3
:100D20001B029B1A354AA2FB03235B09DAB2314B43
:100D30001A712A4B1B681A6C13461B029B1A2C4A09
:100D4000A2FB03239B0ADAB22D4B1A70234B1B68BC
:100D50005A6B13461B029B1A254AA2FB03239B0ACC
:100D6000DAB2274B5A701D4B1B68DB6B254AA2FB7E
:100D70000323DB09DAB2224B9A70184B1B689B6B7A
:100D8000204AA2FB0323DB09DAB21D4BDA701A4BAF
:100D90001B685B6BDAB21A4B1A71174B1B685B6BE3
:100DA000194A13600D4B1B68DB6B184A13600B4B21
:100DB0001B689B6B164A1360084B1B685B6B154ADC
:100DC0001360064B1B681B6C134A1360134B1B68A4
:100DD0000133124A136000BF98BD00BFC406012052
:100DE00078010120760101207701012075010120A1
:100DF0005917B7D154010120100601201F85EB516E
:100E00005C01012081808080A8FD0120ACFD0120D3
:100E1000B0FD0120B4FD0120B8FD012070010120CA
:100E200080B582B000AF0023FB7124E0FB79A14ABA
:100E300052F82330002B1BD00023BB7114E0BB7988
:100E40009D4A002142F82310BB799C4A002142F8B8
:100E50002310BB799A4A0021D154BB79994A0021C9
:100E6000D154BB790133BB71BB79042BE7D905E0C1
:100E7000FB790133FB71FB79022BD7D900237B71FE
:100E80001AE07B79904A52F82330002B11D08A4B1C
:100E900000221A61894B00221A61894B00221A71C3
:100EA0008A4B012283F83120884B012283F83020BD
:100EB00005E07B7901337B717B79042BE1D97E4B93
:100EC0001B697E4A136100233B7159E03B79002B7B
:100ED00052D03B79022B4FD03A797C4913465B00C4
:100EE00013449B000B4401331B78002B45D13B7905
:100EF000714A52F82330764A127893423DD23A79B9
:100F0000724913465B0013449B000B4404331B6877
:100F1000591C6E4813465B0013449B000344043382
:100F200019603A79694913465B0013449B000B44EE
:100F300004331B68674A127893421ED13A79634999
:100F400013465B0013449B000B44043300221A60D9
:100F50003A795E4913465B0013449B000B4401330E
:100F600001221A703A79594913465B0013449B00D9
:100F70000B4401221A7000E000BF3B7901333B7142
:100F80003B79032BA2D90023FB702AE0FA784F4962
:100F900013465B0013449B000B441B78002B18D1B5
:100FA000FB78454A52F82330FA784B4931F8122041
:100FB000934205D8FB78414A002142F823100DE006
:100FC000FA78FB783C4951F822203C4941F823202B
:100FD00004E0FB78394AFF2142F82310FB78013303
:100FE000FB70FB78032BD1D90023BB7014E0BB78D6
:100FF000314A52F8232013461B029A1A374BA3FB9F
:101000000213D21A52081344DA0ABB78D1B22D4A1D
:10101000D154BB780133BB70BB78032BE7D9274B86
:101020001B69DAB2264B1A71244B1B6840F2DB5263
:10103000934203D8224B00221A7016E01F4B1B6804
:1010400040F2DB52934208D91C4B1B68B3F57A6F10
:1010500003D21B4B01221A7007E0184B1B68B3F533
:101060007A6F02D3164B02221A70144B9B68B3F5A9
:10107000966F03D2124B00229A7039E00F4B9B6897
:10108000B3F5966F08D30D4B9B68B3F5FA6F03D297
:101090000B4B01229A702BE0084B9B68B3F5FA6F5B
:1010A0001ED3064B9B68B3F57A6F19D2044B02220C
:1010B0009A701DE01403012020000120340001205B
:1010C0004800012050000120580201209001012019
:1010D0008401012085010120880101200101100007
:1010E0004C4B9B68B3F57A6F02D34B4B03229A703B
:1010F000484B5B6840F6B732934203D9464B012216
:101100005A7002E0444B00225A70424BDB6840F6B2
:10111000B732934203D9404B0122DA7002E03E4BD2
:101120000022DA7000237B7048E07A783B4913464E
:101130005B0013449B000B4401331B78012B22D12D
:101140007A78364913465B0013449B000B441B78A6
:10115000002B18D07B780133D8B27A782F49134608
:101160005B0013449B000B441B78194602F08AFD78
:101170007A782A4913465B0013449B000B440133E1
:1011800002221A7017E07A78244913465B00134450
:101190009B000B441B78002B0DD17B780133D8B218
:1011A0007A781E4913465B0013449B000B441B785E
:1011B000194602F067FD7B7801337B707B78032B47
:1011C000B3D9174B1B68012B02D1134B00221A71A4
:1011D000134B5B68012B06D10E4B1B69032B02D10D
:1011E0000D4B00221A710E4B9B68012B02D10A4B4A
:1011F0000022DA700A4BDB68012B02D1064B002279
:101200005A70084B1B680133064A136000BF083749
:10121000BD4680BD3400012048000120900101201E
:1012200058000120CC010120B0B500AF034B1B6872
:10123000002B05D100F090FE3AE000BF3C020120F7
:101240009C4B1B68012B33D100F04CFB9A4B0122C5
:101250001A709A4B01221A70984B4FF480725A60A0
:10126000964B02221A72954B00225A72934B00221F
:101270009A72924800F0D0FB904B01221A708F4B6B
:1012800040F201125A608D4B05221A728B4B0022DC
:101290005A728A4B00229A72884B0022DA72874B6C
:1012A00000221A73854B00225A73844800F0B4FB65
:1012B00000F0B3FC0346824A1360814B1B68002B8D
:1012C00000F02A817F4B5B68002B5BD17D4800F0EA
:1012D0001BFC0346002B55D07A4B5B68992B0ED133
:1012E000784B5A7A784B1A70764BDA7A774B1A70B9
:1012F000744B5A7B764B1A70764B00221A60714BF6
:101300005B68982B0ED16F4B1A7B734B1A706D4B29
:101310009A7B724B1A706B4B5A7A714B1A70714BE5
:1013200000221A60674B5B68972B06D1654B5A7B8E
:101330006D4B1A706D4B00221A60624B5B68B3F5FF
:10134000A26F12D15F4B5B7A102B0ED15D4B5A7A94
:10135000674B1A70584B1B78032B02D0564B022256
:101360001A70644B4FF4FA621A80564B5B68B3F5FF
:10137000E06F07D1604A534B14461D460FCD0FC492
:101380002B6823605D4B5B68002B5BD15B4800F0F2
:10139000BBFB0346002B55D0584B5B68992B0ED1F5
:1013A000564B5A7A484B1A70544BDA7A474B1A709C
:1013B000524B5A7B464B1A70464B00221A604F4BD9
:1013C0005B68982B0ED14D4B1A7B434B1A704B4BDD
:1013D0009A7B424B1A70494B5A7A414B1A70414BD7
:1013E00000221A60454B5B68972B06D1434B5A7B12
:1013F0003D4B1A703D4B00221A60404B5B68B3F5C1
:10140000A26F12D13D4B5B7A102B0ED13B4B5A7A17
:10141000374B1A70284B1B78032B02D0264B022225
:101420001A70344B4FF4FA621A80344B5B68B3F590
:10143000E06F07D1304A314B14461D460FCD0FC423
:101440002B6823601F4B00221A701E4B00225A602B
:101450001C4B00221A721B4B00225A72194B00229D
:101460009A72184B0022DA72164B00221A73154B2F
:1014700000225A73134B00229A73124B0022DA7324
:10148000104B00221A741D4B00221A701B4B0022B5
:101490005A601A4B00221A72184B00225A72174BCC
:1014A00000229A72154B0022DA72144B00221A7332
:1014B00026E000BF3C020120E8010120400201209B
:1014C00054020120EC01012061010120640101208E
:1014D0001E000120D00101206501012062010120D0
:1014E00063010120D40101201D000120D801012049
:1014F0006A0001206800012028020120000201206A
:10150000764B00225A73754B00229A73734B00225C
:10151000DA73724B00221A7400F0BAFB0346002BF8
:1015200016D06F4B19686F4BA3FB01231A091346A2
:101530009B0013449B00CA1A002A09D1684B1B6800
:10154000002B05D0684B1B680133674A136002E02B
:10155000654B00221A6000F0B4FB0346002B16D046
:101560005F4B19685F4BA3FB01231A0913469B00CD
:1015700013449B00CA1A002A09D1594B1B68002B3F
:1015800005D0594B5B680133574A536002E0564B14
:1015900000225A6000F063FB0346002B1AD0504B28
:1015A0001968504BA3FB01231A0913469B001344EF
:1015B0009B00CA1A002A0DD1494B1B68002B09D089
:1015C000494B9B680133484A93600121092002F08E
:1015D00059FB06E0444B00229A600021092002F0EA
:1015E00051FB424B1B78002B07D0414B1B78002B43
:1015F0000AD13F4B01221A7006E03D4B1B78012BAC
:1016000002D13B4B00221A703A4B1B88002B06D0AC
:10161000384B1B88013B9AB2364B1A800AE0354B97
:101620001B88002B06D1324B1B78022B02D1304B8A
:1016300001221A702E4B1B78032B00F00C812E4BCD
:101640001B78022B40F007812C4B1B6801332B4A7F
:1016500013602B4B1B680133294A1360294B1B680D
:101660000133284A1360254B1B68B3F5FA6F0DD977
:1016700001210B2002F006FB234B00221A70234BA2
:1016800000221A70224BFF221A7003E000210B2067
:1016900002F0F8FA1A4B1B68B3F5FA6F0DD9012165
:1016A000062002F0EFFA1B4B00221A701A4B0022A0
:1016B0001A701A4B00221A7003E00021062002F073
:1016C000E1FA104B1B68B3F5FA6F2BD90121072003
:1016D00002F0D8FA124B00221A7027E00002012013
:1016E0003C020120CDCCCCCCDC0101204800012003
:1016F000E80101206800012011040120D00101202F
:10170000D4010120D80101206101012064010120E0
:101710001E000120650101206201012063010120FA
:101720001D0001200021072002F0ACFA5E4B196871
:101730005E4BA3FB01231A0913469B0013449B0035
:10174000CA1A002A35D15A4B01221A70584B4FF44D
:1017500080725A60564B02221A72564B1A78544BBA
:101760005A72544B9A78524B9A72514800F054F97D
:101770004F4B00221A704E4B00225A604C4B0022F5
:101780001A724B4B00225A72494B00229A72484BF4
:101790000022DA72464B00221A73454B00225A731C
:1017A000434B00229A73424B0022DA73404B0022D3
:1017B0001A743D4B1A68404BA3FB02139B09C821C6
:1017C00001FB03F3D31A002B45D1394B01221A70C8
:1017D000374B40F201125A60354B05221A72374BD3
:1017E0009A78334B5A72354BDA78314B9A72314BC7
:1017F0001A792F4BDA720121314805F0DBFF0346DD
:101800001A462B4B1A732B4B5A78294B5A7328487C
:1018100000F002F9264B00221A70254B00225A6074
:10182000234B00221A72224B00225A72204B0022B4
:101830009A721F4B0022DA721D4B00221A731C4B46
:1018400000225A731A4B00229A73194B0022DA7342
:10185000174B00221A74164B00221A70144B0022E8
:101860005A60134B00221A72114B00225A72104B0D
:1018700000229A720E4B0022DA720D4B00221A736C
:101880000B4B00225A730A4B00229A73084B00221A
:10189000DA73074B00221A74034B1B680133024AA8
:1018A000136000BFB0BD00BF3C020120CDCCCCCC4A
:1018B00040020120480001201F85EB515C010120FE
:1018C0000000024080B500AF002240212C2000F033
:1018D0006BFC402240212B2000F066FC00F01EFB38
:1018E00000BF80BD80B588B000AF00F035FBFF239E
:1018F0003B71E0237B710023BB710023FB71FF234D
:101900003B70E0237B700023BB700023FB7012232D
:101910003B77E0237B770023BB770023FB77132300
:101920003B7600237B760023BB760023FB761323D4
:101930003B7520237B750023BB750023FB75A22319
:101940003B7400237B740023BB740023FB74E023EF
:101950003B7300237B730023BB730023FB73E023E3
:101960003B7200237B720023BB720023FB7200F0EA
:1019700077FA00F097FA3B1D1A462321202000F049
:1019800069FB3B461A462721242000F063FB07F140
:101990001C031A460321002000F05CFB07F118032A
:1019A0001A460721042000F055FB07F114031A46DC
:1019B0000B21082000F04EFB07F110031A461321FB
:1019C000102000F047FB07F10C031A4617211420E2
:1019D00000F040FB07F108031A461B21182000F015
:1019E00039FB0421602000F011FB0121702000F080
:1019F0000DFB00212A2000F009FB9021292000F096
:101A000005FB8221282000F001FB00F069FA012388
:101A100018462037BD4680BD80B586B000AF7860DF
:101A200072B600BF0023FB7500233B610023FB60FF
:101A300000233B7400237B740023BB740023FB74DE
:101A400000F076FB03463B733B7B03F00403DBB201
:101A5000002B17D17B6858687B681B7807F1100250
:101A6000194600F0A8F97B681A7A7B68093307F1F8
:101A70001001402000F018FB812000F03FFB012303
:101A8000FB753AE03B7B03F01003DBB2002B17D170
:101A90007B6858687B681B7807F11002194600F0D4
:101AA0008AF97B681A7A7B68093307F110014220B2
:101AB00000F0FAFA822000F021FB0123FB751CE004
:101AC0003B7B03F04003DBB2002B16D17B685868E8
:101AD0007B681B7807F11002194600F06CF97B68EF
:101AE0001A7A7B68093307F11001442000F0DCFA10
:101AF000842000F003FB0123FB7562B600BFFB7D71
:101B000018461837BD4680BD80B588B000AF7860F4
:101B100072B600BF0023FB7707F1100300221A60A2
:101B20005A609A601A730023FB6000F01FFB0346A3
:101B30003B733B7B23F03F03DBB2002B66D03B7B48
:101B400023F03F03DBB2402B0CBF01230023DAB2AA
:101B50003B7B23F03F03DBB2C02B0CBF01230023F0
:101B6000DBB21343DBB2002B07D007F110030D22C9
:101B70001946902000F028FA0CE03B7B23F03F034D
:101B8000DBB2802B06D107F110030D2219469420F9
:101B900000F01AFA3B7B03F01803DBB2102B0CD1D8
:101BA0007B6802221A70B87CF97C3A7C7B7C00F05E
:101BB000A1F802467B685A600BE07B6801221A702C
:101BC0003B7C7A7C1146184600F0D6F802467B68CA
:101BD0005A603A7D7B681A727A7D7B685A72BA7D48
:101BE0007B689A72FA7D7B68DA723A7E7B681A7338
:101BF0007A7E7B685A73BA7E7B689A73FA7E7B68BA
:101C0000DA733A7F7B681A740123FB7762B600BFF0
:101C1000FB7F18462037BD4680BD80B582B000AF3F
:101C200000233B600023FB7100F082FA03463B7007
:101C30003B7803F00103DBB2002B02D0FB790133C8
:101C4000FB713B7803F00203DBB2002B02D0FB797F
:101C50000133FB71FB7918460837BD4680BD80B55E
:101C600082B000AF00233B600023FB712D2000F009
:101C700087F903463B703B7803F02003DBB2002B6F
:101C800001D00123FB71FB7918460837BD4680BDA2
:101C900080B582B000AF00233B600023FB712D2094
:101CA00000F06EF903463B703B7803F00803DBB2AB
:101CB000002B01D00123FB71FB7918460837BD4684
:101CC00080BD80B582B000AF00233B600023FB7174
:101CD0002D2000F055F903463B703B7803F01003CC
:101CE000DBB2002B01D00123FB71FB7918460837CA
:101CF000BD4680BD90B486B000AF0446084611468C
:101D00001A462346FB710346BB710B467B71134693
:101D10003B7100237B6100233B610023FB730023A5
:101D2000BB733B7903F00303FB733B795B09BB7324
:101D30007B79DB003B61BB7B3A6913443B613B69C8
:101D40009B003B61FB7B3A6913443B613B691B028F
:101D50003B61FB793A6913443B613B691B023B6180
:101D6000BB793A6913443B613B697B617B691846E7
:101D70001837BD4690BC704780B485B000AF0346AD
:101D80000A46FB711346BB710023FB600023BB6056
:101D9000FB79DB00BB60BB795B09DBB21A46BB6831
:101DA0001344BB60BB68FB60FB6818461437BD4634
:101DB0005DF8047B704780B487B000AFF8600B46D5
:101DC0007A60FB720023FB75FB7A022B2ED1FB6835
:101DD000DAB27B68DA70FB681B0AFB60FB68DAB278
:101DE0007B689A70FB681B0AFB60FB68DBB203F040
:101DF0000303FB75FB68DB00FB60FB68DBB223F0D1
:101E00001F03DAB2FB7D1344FB75FB7D0833FB75C2
:101E1000FB7D23F01403DAB27B685A70FB681B0A5F
:101E2000FB60FB68DAB27B681A7013E07B68002203
:101E30009A707B680022DA70FB685B01FB60FB68CC
:101E4000DAB27B685A70FB681B0AFB60FB68DAB287
:101E50007B681A7000BF1C37BD465DF8047B704775
:101E600080B582B000AF0A23FB71012210210B481C
:101E700005F0B8FC0A4807F087F80346012B01D1AA
:101E8000012306E0FB79013BFB71FB79002BF1D1CB
:101E9000002318460837BD4680BD00BF0008024039
:101EA000DC04012080B582B000AF0A23FB718021E1
:101EB0000F2000F0ABF80E2000F062F8034603F0AC
:101EC000E003802B01D1012306E0FB79013BFB718C
:101ED000FB79002BEFD1002318460837BD4680BDA3
:101EE00080B582B000AF0A23FB7100210F2000F003
:101EF0008DF80E2000F044F8034603F0E003002BB9
:101F000001D1012306E0FB79013BFB71FB79002B3A
:101F1000EFD1002318460837BD4680BD80B582B09A
:101F200000AF0A23FB7120210F2000F06FF80E2074
:101F300000F026F8034603F0E003202B01D1012333
:101F400006E0FB79013BFB71FB79002BEFD100230D
:101F500018460837BD4680BD80B500AF002210216D
:101F6000064805F03FFCC02000F046F90122102190
:101F7000024805F037FC00BF80BD00BF00080240EA
:101F800080B584B000AF0346FB710023FB730022D1
:101F900010210C4805F026FC032000F02DF9FB79F8
:101FA000184600F029F900F04DF90346FB730122B1
:101FB0001021044805F016FCFB7B18461037BD467F
:101FC00080BD00BF0008024080B582B000AF03466C
:101FD0003960FB711346BB71002210210A4805F0DD
:101FE00001FCFB79184600F007F9BB7919463868FF
:101FF00000F03AF901221021034805F0F3FB00BF7D
:102000000837BD4680BD00BF0008024080B582B0E1
:1020100000AF03460A46FB711346BB710022102134
:102020000B4805F0DFFB022000F0E6F8FB791846CC
:1020300000F0E2F8BB79184600F0DEF8012210212A
:10204000034805F0CFFB00BF0837BD4680BD00BF89
:102050000008024080B582B000AF03463A60FB71D1
:102060000B46BB71002210210E4805F0BBFB02207D
:1020700000F0C2F8FB79184600F0BEF8BA79FB7997
:10208000D31ADBB20133DBB21946386800F0C6F868
:1020900001221021034805F0A5FB00BF0837BD460B
:1020A00080BD00BF0008024080B584B000AFB960B9
:1020B0007B600346FB731346BB73002210210E485E
:1020C00005F090FBFB7B184600F096F80421B868F9
:1020D00000F0A4F8BB7B184600F08EF8BB7B1946D5
:1020E000786800F09BF801221021034805F07AFB84
:1020F00000BF1037BD4680BD0008024080B582B0E9
:1021000000AF0346FB7100221021084805F06AFB6E
:10211000FB79184600F070F801221021034805F001
:1021200061FB00BF0837BD4680BD00BF000802400C
:1021300080B582B000AF0023FB71002210210A4855
:1021400005F050FBA02000F057F800F07BF80346A4
:10215000FB7101221021044805F044FBFB7918466D
:102160000837BD4680BD00BF0008024080B582B080
:1021700000AF0023FB71002210210A4805F032FB5A
:10218000B02000F039F800F05DF80346FB71012241
:102190001021044805F026FBFB7918460837BD4698
:1021A00080BD00BF0008024080B582B000AF03468A
:1021B000FB710B46BB7113467B71002210210D4849
:1021C00005F010FB052000F017F8FB79184600F029
:1021D00013F8BB79184600F00FF87B79184600F029
:1021E0000BF801221021034805F0FCFA00BF083764
:1021F000BD4680BD0008024080B582B000AF0346F6
:10220000FB71F91D02230122034806F067F900BFA4
:102210000837BD4680BD00BFDC04012080B582B018
:1022200000AF78600B46FB70FB789AB202237968A6
:10223000034806F053F900BF0837BD4680BD00BF14
:10224000DC04012080B582B000AF0023FB71F91DD2
:1022500002230122034806F085FAFB791846083765
:10226000BD4680BDDC04012080B582B000AF78603F
:102270000B46FB70FB789AB202237968034806F09C
:1022800071FA00BF0837BD4680BD00BFDC040120E5
:1022900080B582B000AF5F4808F0D4FC03461A4610
:1022A0005D4B1A605D4B1B78002B07D05B4B1B7896
:1022B0001A465B4B1A61594B00221A70554B5B6CE6
:1022C000002B0DD10023FB7107E0FB79554A00215B
:1022D00042F82310FB790133FB71FB79042BF4D90D
:1022E0004D4B1B68E02B00F08380E02B00F28880D0
:1022F000242B4FD8242B00F2838001A252F823F024
:102300009B23060801240608012406080124060868
:1023100001240608012406080124060801240608F1
:1023200001240608012406080124060801240608E1
:1023300001240608012406080124060801240608D1
:1023400001240608012406080124060801240608C1
:1023500001240608012406080124060801240608B1
:1023600001240608012406080124060801240608A1
:102370000124060801240608012406080124060891
:10238000A5230608C3230608CD230608D72306087D
:10239000B9230608A02B23D032E01F4B1B68224A2A
:1023A00013602EE0012221491A4808F045F91A4B22
:1023B0001B681D4A136024E0174B1B681A4A136000
:1023C0001FE0154B1B68184A13601AE0124B1B687C
:1023D000154A136015E0104B1B68134A136010E098
:1023E0000D4B1B68104A13600A4800F023F808E000
:1023F000094B1B680C4A1360064800F01BF800E00C
:1024000000BF0B4B1B680133094A136000BF08373C
:10241000BD4680BD2C0801208002012078020120E9
:1024200020000120580201206C02012070020120CE
:102430007C02012080B584B000AF7860786808F035
:102440001FFCF860FB68102B42D801A252F823F061
:10245000D124060895240608A1240608D1240608DC
:10246000AD240608D1240608D1240608D124060884
:10247000B9240608D1240608D1240608D124060868
:10248000D1240608D1240608D1240608D124060840
:10249000C5240608114B1B680133104A136018E06D
:1024A0000E4B5B6801330D4A536012E00B4B9B6887
:1024B00001330A4A93600CE0084BDB680133074A9A
:1024C000D36006E0054B1B690133044A136100E049
:1024D00000BF00BF1037BD4680BD00BF58020120BD
:1024E00080B582B000AF78607B681B68194A934260
:1024F0002CD1194B1B780A2B0ED1184B1B78032BB0
:1025000006D817480CF0CDF80346DAB2154B1A700E
:10251000124B00221A7014E0104B1B78022B0DD8BE
:102520000E4B1B781A460C4B19780D4B99540B4BDC
:102530001B780133DAB2094B1A7002E0074B002214
:102540001A7001220449786808F076F800BF08374D
:10255000BD4680BD001001407002012079020120BB
:10256000740201207802012080B58AB000AF786043
:102570000B467B8007F10C0300221A605A609A60B8
:10258000DA601A617B88FB840023BB84012387F80F
:10259000233040F201733B6101233B7308233B75F9
:1025A0007B88072B21D97B881B0A9BB25BB203F087
:1025B0000F035BB243F010035BB2DBB27B757B8829
:1025C000DBB2BB7507F10C030B33062279681846A2
:1025D0000CF08CF90623BB84FB8C063BFB8407F1D3
:1025E0000C031846FFF718FA58E07B88DBB203F0BB
:1025F0000F03DBB27B757A8807F10C030A33796825
:1026000018460CF073F97B88DBB20133DBB23B7503
:1026100007F10C031846FFF7FFF942E097F9233062
:1026200003F00F035BB243F020035BB2DBB27B75B8
:10263000FB8C062B10D9BB8C7A68D11807F10C03E0
:102640000A33072218460CF051F9BB8C0733BB84C0
:10265000FB8C073BFB8414E0BB8C7A68D118FA8CA6
:1026600007F10C030A3318460CF040F9FB8CDBB27F
:102670000133DBB23B75BA8CFB8C1344BB84002363
:10268000FB8407F10C031846FFF7C6F997F82330CF
:10269000013387F82330012003F0B0FBFB8C002BC3
:1026A000BCD12837BD4680BD80B500AF344BDB7A46
:1026B000012B03D1334B01221A7006E0304BDB7A39
:1026C000022B02D12F4B00221A702F4B03221A72B9
:1026D0002D4B40F201725A602B4B01221A702A4B8B
:1026E00002225A72284BC5229A72254BDA7A264B5F
:1026F000DA722548FFF790F9234B00221A70224B1B
:1027000000225A60204B00221A721F4B00225A727C
:102710001D4B00229A721C4B0022DA721A4B0022C7
:102720001A73194B00225A73174B00229A73164BD7
:102730000022DA73144B00221A74114B00221A7013
:102740000F4B00225A600E4B00221A720C4B0022D3
:102750005A720B4B00229A72094B0022DA72084B14
:1027600000221A73064B00225A73054B00229A73FB
:10277000034B0022DA73024B00221A7400BF80BDA3
:10278000280201209C0201201402012080B500AF24
:10279000344BDB7A012B03D1334B03221A7006E052
:1027A000304BDB7A002B02D12F4B02221A702F4BB9
:1027B00003221A722D4B40F201725A602B4B0122F8
:1027C0001A702A4B02225A72284B68229A72254BA1
:1027D000DA7A264BDA722548FFF71EF9234B0022DE
:1027E0001A70224B00225A60204B00221A721F4B93
:1027F00000225A721D4B00229A721C4B0022DA7280
:102800001A4B00221A73194B00225A73174B0022DD
:102810009A73164B0022DA73144B00221A74114B70
:1028200000221A700F4B00225A600E4B00221A72BF
:102830000C4B00225A720B4B00229A72094B002259
:10284000DA72084B00221A73064B00225A73054BAA
:1028500000229A73034B0022DA73024B00221A748F
:1028600000BF80BD28020120E801012014020120E0
:1028700080B500AF2C4B03221A722B4B40F2017231
:102880005A60294B01221A70274B02225A72264B9A
:102890007E229A72244B0022DA722348FFF7BCF89A
:1028A000214B00221A70204B00225A601E4B00223E
:1028B0001A721D4B00225A721B4B00229A721A4B3D
:1028C0000022DA72184B00221A73174B00225A7337
:1028D000154B00229A73144B0022DA73124B00221C
:1028E0001A74124B00221A70104B00225A600F4BC0
:1028F00000221A720D4B00225A720C4B00229A725F
:102900000A4B0022DA72094B00221A73074B00228D
:102910005A73064B00229A73044B0022DA73034B5E
:1029200000221A7400BF80BD140201202802012079
:1029300080B500AF0F4B03221A720E4B40F20172AA
:102940005A600C4B01221A700A4B02225A72094B30
:1029500050229A72074B0422DA72074B03221A7034
:102960000448FFF759F801F083FC002001F09AFDBC
:1029700000BF80BD14020120BCFD012080B500AF66
:102980000F4B03221A720E4B40F201725A600C4B2D
:1029900001221A700A4B02225A72094B50229A7273
:1029A000074B0522DA72074B04221A700448FFF71E
:1029B00033F801F05DFC002001F074FD00BF80BD24
:1029C00014020120BCFD012080B500AF3B4B082262
:1029D0001A723A4B40F201725A60384B01221A7057
:1029E000364B08225A72354B62229A72334B0022C0
:1029F000DA72324B02221A73314B1B68DAB22F4B58
:102A00005A732F4B5B68DAB22C4B9A732C4B9B6832
:102A1000DAB22A4BDA732A4BDB68DAB2274B1A7424
:102A20002648FEF7F9FF264B1B6902211846FFF7DF
:102A30009BFD224B00221A70204B00225A601F4B34
:102A400000221A721D4B00225A721C4B00229A72ED
:102A50001A4B0022DA72194B00221A73174B00220C
:102A60005A73164B00229A73144B0022DA73134BDD
:102A700000221A74134B00221A70124B00225A6063
:102A8000104B00221A720F4B00225A720D4B00227B
:102A90009A720C4B0022DA720A4B00221A73094B0D
:102AA00000225A73074B00229A73064B0022DA73F6
:102AB000044B00221A7400BF80BD00BF1402012025
:102AC000E00301202802012080B500AF3B4B082223
:102AD0001A723A4B40F201725A60384B01221A7056
:102AE000364B13225A72354B62229A72334B0022B4
:102AF000DA72324B03221A73314B1B68DAB22F4B56
:102B00005A732F4B5B68DAB22C4B9A732C4B9B6831
:102B1000DAB22A4BDA732A4BDB68DAB2274B1A7423
:102B20002648FEF779FF264B1B6906211846FFF75A
:102B30001BFD224B00221A70204B00225A601F4BB3
:102B400000221A721D4B00225A721C4B00229A72EC
:102B50001A4B0022DA72194B00221A73174B00220B
:102B60005A73164B00229A73144B0022DA73134BDC
:102B700000221A74134B00221A70124B00225A6062
:102B8000104B00221A720F4B00225A720D4B00227A
:102B90009A720C4B0022DA720A4B00221A73094B0C
:102BA00000225A73074B00229A73064B0022DA73F5
:102BB000044B00221A7400BF80BD00BF1402012024
:102BC000B80301202802012080B500AF364B08224F
:102BD0001A72354B40F201725A60334B01221A705F
:102BE000314B07225A72304B62229A722E4BF122DD
:102BF000DA722D4B80221A732C4B5A782A4B5A7357
:102C00002A4B1A78284B9A73284B9A78264BDA73FA
:102C1000264BDA78244B1A742348FEF7FDFE224B2C
:102C200000221A70204B00225A601F4B00221A7299
:102C30001D4B00225A721C4B00229A721A4B002222
:102C4000DA72194B00221A73174B00225A73164B73
:102C500000229A73144B0022DA73134B00221A7469
:102C6000134B00221A70124B00225A60104B0022A4
:102C70001A720F4B00225A720D4B00229A720C4BA3
:102C80000022DA720A4B00221A73094B00225A738F
:102C9000074B00229A73064B0022DA73044B002282
:102CA0001A7400BF80BD00BF140201206C00012017
:102CB0002802012080B500AF304B05221A722F4B3D
:102CC00040F201725A602D4B01221A702B4B0422E4
:102CD0005A722A4B62229A72284BF122DA72274BDF
:102CE00086221A73264B1A78244B5A732348FEF710
:102CF00093FE224B00221A70204B00225A601F4B79
:102D000000221A721D4B00225A721C4B00229A722A
:102D10001A4B0022DA72194B00221A73174B002249
:102D20005A73164B00229A73144B0022DA73134B1A
:102D300000221A74134B00221A70124B00225A60A0
:102D4000104B00221A720F4B00225A720D4B0022B8
:102D50009A720C4B0022DA720A4B00221A73094B4A
:102D600000225A73074B00229A73064B0022DA7333
:102D7000044B00221A7400BF80BD00BF1402012062
:102D8000BCFD01202802012080B500AF394B05228F
:102D90001A72384B40F201725A60364B01221A7097
:102DA000344B07225A72334B62229A72314B002203
:102DB000DA72304B05221A732F4B1B681B0EDAB2E6
:102DC0002C4B5A732C4B1B681B0CDAB2294B9A7391
:102DD000294B1B681B0ADAB2264BDA73264B1B6899
:102DE000DAB2244B1A742348FEF716FE214B002258
:102DF0001A70204B00225A601E4B00221A721D4B83
:102E000000225A721B4B00229A721A4B0022DA726D
:102E1000184B00221A73174B00225A73154B0022CD
:102E20009A73144B0022DA73124B00221A74134B5C
:102E300000221A70114B00225A60104B00221A72A5
:102E40000E4B00225A720D4B00229A720B4B00223D
:102E5000DA720A4B00221A73084B00225A73074B8E
:102E600000229A73054B0022DA73044B00221A7475
:102E700000BF80BD14020120C0FD012028020120F6
:102E800080B500AF3C4B08221A723B4B40F20172F6
:102E90005A60394B01221A70374B07225A72364B4F
:102EA0006A229A72354BDB7A042B03D0324B012213
:102EB000DA7206E0314BDB7A042B02D12E4B04226E
:102EC000DA722D4B00221A732D4B1A782A4B5A7343
:102ED0002C4B1A78284B9A732B4B1A78264BDA73A3
:102EE000294B5A78244B1A742348FEF795FD224B40
:102EF00000221A70204B00225A601F4B00221A72C7
:102F00001D4B00225A721C4B00229A721A4B00224F
:102F1000DA72194B00221A73174B00225A73164BA0
:102F200000229A73144B0022DA73134B00221A7496
:102F3000124B00221A70114B00225A600F4B0022D4
:102F40001A720E4B00225A720C4B00229A720B4BD3
:102F50000022DA72094B00221A73084B00225A73BE
:102F6000064B00229A73054B0022DA73034B0022B2
:102F70001A7400BF80BD00BF140201202802012086
:102F800048000120500001209001012080B500AFD1
:102F90003C4B08221A723B4B40F201725A60394B8B
:102FA00001221A70374B07225A72364B6A229A72E4
:102FB000354BDB7A042B03D0324B0122DA7206E068
:102FC000314BDB7A042B02D12E4B0422DA722D4BCB
:102FD00001221A732D4B9A782A4B5A732C4B9A78EC
:102FE000284B9A732B4B1A7E264BDA73294B5A7E49
:102FF000244B1A742348FEF70FFD224B00221A704F
:10300000204B00225A601F4B00221A721D4B0022D7
:103010005A721C4B00229A721A4B0022DA72194B18
:1030200000221A73174B00225A73164B00229A7310
:10303000144B0022DA73134B00221A74124B002235
:103040001A70114B00225A600F4B00221A720E4B5D
:1030500000225A720C4B00229A720B4B0022DA7239
:10306000094B00221A73084B00225A73064B0022A8
:103070009A73054B0022DA73034B00221A7400BFC7
:1030800080BD00BF14020120280201204800012059
:10309000500001209001012080B500AF3C4B082278
:1030A0001A723B4B40F201725A60394B01221A707E
:1030B000374B07225A72364B6A229A72354BDB7AAB
:1030C000042B03D0324B0122DA7206E0314BDB7A5B
:1030D000042B02D12E4B0422DA722D4B05221A73D7
:1030E0002D4B9A782A4B5A732B4BDA78284B9A73CC
:1030F0002A4B9A78264BDA73284BDA78244B1A74C9
:103100002348FEF789FC224B00221A70204B002234
:103110005A601F4B00221A721D4B00225A721C4B20
:1031200000229A721A4B0022DA72194B00221A738B
:10313000174B00225A73164B00229A73144B00222D
:10314000DA73134B00221A74124B00221A70114BBF
:1031500000225A600F4B00221A720E4B00225A7244
:103160000C4B00229A720B4B0022DA72094B0022A0
:103170001A73084B00225A73064B00229A73054BB0
:103180000022DA73034B00221A7400BF80BD00BF17
:103190001402012028020120540101205C010120B9
:1031A00080B500AF3C4B08221A723B4B40F20172D3
:1031B0005A60394B01221A70374B07225A72364B2C
:1031C0006A229A72354BDB7A042B03D0324B0122F0
:1031D000DA7206E0314BDB7A042B02D12E4B04224B
:1031E000DA722D4B06221A732D4B1A782A4B5A731A
:1031F0002B4B5A78284B9A732A4B1A78264BDA7342
:10320000284B5A78244B1A742348FEF705FC224BAE
:1032100000221A70204B00225A601F4B00221A72A3
:103220001D4B00225A721C4B00229A721A4B00222C
:10323000DA72194B00221A73174B00225A73164B7D
:1032400000229A73144B0022DA73134B00221A7473
:10325000124B00221A70114B00225A600F4B0022B1
:103260001A720E4B00225A720C4B00229A720B4BB0
:103270000022DA72094B00221A73084B00225A739B
:10328000064B00229A73054B0022DA73034B00228F
:103290001A7400BF80BD00BF140201202802012063
:1032A000540101205C01012080B500AF384B06229B
:1032B0001A72374B40F201725A60354B01221A7074
:1032C000334B05225A72324B6A229A72314BDB7AA7
:1032D000042B03D02E4B0122DA7206E02D4BDB7A51
:1032E000042B02D12A4B0422DA72294B07221A73CB
:1032F000294B1A79264B5A73284B1A79244B9A7307
:103300002348FEF789FB224B00221A70204B002233
:103310005A601F4B00221A721D4B00225A721C4B1E
:1033200000229A721A4B0022DA72194B00221A7389
:10333000174B00225A73164B00229A73144B00222B
:10334000DA73134B00221A74124B00221A70114BBD
:1033500000225A600F4B00221A720E4B00225A7242
:103360000C4B00229A720B4B0022DA72094B00229E
:103370001A73084B00225A73064B00229A73054BAE
:103380000022DA73034B00221A7400BF80BD00BF15
:103390001402012028020120540101205C010120B7
:1033A00080B500AF3C4B08221A723B4B40F20172D1
:1033B0005A60394B01221A70374B07225A72364B2A
:1033C0006A229A72354BDB7A042B03D0324B0122EE
:1033D000DA7206E0314BDB7A042B02D12E4B042249
:1033E000DA722D4B0A221A732D4B5A782A4B5A73D4
:1033F0002C4B5A78284B9A732B4B1A7B264BDA733B
:10340000294B5A7B244B1A742348FEF705FB224BA9
:1034100000221A70204B00225A601F4B00221A72A1
:103420001D4B00225A721C4B00229A721A4B00222A
:10343000DA72194B00221A73174B00225A73164B7B
:1034400000229A73144B0022DA73134B00221A7471
:10345000124B00221A70114B00225A600F4B0022AF
:103460001A720E4B00225A720C4B00229A720B4BAE
:103470000022DA72094B00221A73084B00225A7399
:10348000064B00229A73054B0022DA73034B00228D
:103490001A7400BF80BD00BF140201202802012061
:1034A00048000120500001209001012080B500AFAC
:1034B0003D4B08221A723C4B40F201725A603A4B63
:1034C00001221A70384B07225A72374B6A229A72BD
:1034D000364BDB7A042B03D0334B0122DA7206E041
:1034E000324BDB7A042B02D12F4B0422DA722E4BA3
:1034F0000B221A732E4BDA782B4B5A732D4BDA783A
:10350000294B9A732C4B93F82420274BDA732A4BC0
:1035100093F82520244B1A742348FEF77DFA224B9A
:1035200000221A70204B00225A601F4B00221A7290
:103530001D4B00225A721C4B00229A721A4B002219
:10354000DA72194B00221A73174B00225A73164B6A
:1035500000229A73144B0022DA73134B00221A7460
:10356000124B00221A70114B00225A600F4B00229E
:103570001A720E4B00225A720C4B00229A720B4B9D
:103580000022DA72094B00221A73084B00225A7388
:10359000064B00229A73054B0022DA73034B00227C
:1035A0001A7400BF80BD00BF140201202802012050
:1035B00048000120500001209001012080B500AF9B
:1035C0002E4B03221A722D4B40F201725A602B4B84
:1035D00001221A70294B02225A72284B50229A72E9
:1035E000264B0122DA72264B00221A702348FEF77E
:1035F00013FA224B00221A70204B00225A601F4BF4
:1036000000221A721D4B00225A721C4B00229A7221
:103610001A4B0022DA72194B00221A73174B002240
:103620005A73164B00229A73144B0022DA73134B11
:1036300000221A74134B00221A70124B00225A6097
:10364000104B00221A720F4B00225A720D4B0022AF
:103650009A720C4B0022DA720A4B00221A73094B41
:1036600000225A73074B00229A73064B0022DA732A
:10367000044B00221A7400BF80BD00BF1402012059
:10368000BCFD01202802012080B500AF2E4B032293
:103690001A722D4B40F201725A602B4B01221A70A4
:1036A000294B02225A72284B50229A72264B03222F
:1036B000DA72264B01221A702348FEF7ADF9224B2D
:1036C00000221A70204B00225A601F4B00221A72EF
:1036D0001D4B00225A721C4B00229A721A4B002278
:1036E000DA72194B00221A73174B00225A73164BC9
:1036F00000229A73144B0022DA73134B00221A74BF
:10370000134B00221A70124B00225A60104B0022F9
:103710001A720F4B00225A720D4B00229A720C4BF8
:103720000022DA720A4B00221A73094B00225A73E4
:10373000074B00229A73064B0022DA73044B0022D7
:103740001A7400BF80BD00BF14020120BCFD01201F
:103750002802012080B500AF0F4B03221A720E4BD6
:1037600040F201725A600C4B01221A700A4B02227D
:103770005A72094B50229A72074B0222DA72074B97
:1037800002221A700448FEF747F900F071FD00208C
:1037900000F088FE00BF80BD14020120BCFD0120A6
:1037A00080B500AF0F4B03221A720E4B40F201722C
:1037B0005A600C4B01221A700A4B02225A72094BB2
:1037C00051229A72074B0122DA72074B05221A70B6
:1037D0000448FEF721F900F04BFD002000F062FEE6
:1037E00000BF80BD14020120BCFD012080B500AFE8
:1037F0000F4B03221A720E4B40F201725A600C4BAF
:1038000001221A700A4B02225A72094B51229A72F3
:10381000074B0322DA72074B06221A700448FEF7A0
:10382000FBF800F025FD002000F03CFE00BF80BD4D
:1038300014020120BCFD012080B500AF2D4B0222F7
:103840001A722C4B40F201725A602A4B01221A70F4
:10385000284B01225A72274B54229A726822002167
:1038600025480AF0B3FF2348FEF7D6F8214B002283
:103870001A70204B00225A601E4B00221A721D4BF8
:1038800000225A721B4B00229A721A4B0022DA72E3
:10389000184B00221A73174B00225A73154B002243
:1038A0009A73144B0022DA73124B00221A74134BD2
:1038B00000221A70114B00225A60104B00221A721B
:1038C0000E4B00225A720D4B00229A720B4B0022B3
:1038D000DA720A4B00221A73084B00225A73074B04
:1038E00000229A73054B0022DA73044B00221A74EB
:1038F00000BF80BD14020120A00201202802012087
:1039000080B500AF72B600BF1B4B08221A721A4B6B
:1039100040F201725A60184B01221A70164B0722AE
:103920005A72154B59229A72134B0A22DA72134BB0
:103930001B68DAB2104B1A73104B5B68DAB20E4B8D
:103940005A730E4B9B68DAB20B4B9A730B4BDB68C6
:10395000DAB2094BDA73094B1B69DAB2064B1A74F7
:103960000548FEF759F815210448FEF7FDFD62B63B
:1039700000BF00BF80BD00BF14020120A0020120D3
:1039800080B500AF5D4B1B6801335C4A13605C4B34
:103990001B68002B02D15B4B00221A705A4B9B7A9A
:1039A0003E2B01D1FEF764FF574B9B7A282B01D1A8
:1039B000FEF7ECFE544B9B7A852B01D1FEF774FE8B
:1039C000514B9B7A102B29D14F4BDB7A012B01D124
:1039D000FFF7F4FD4C4BDB7A032B01D1FFF754FECC
:1039E000494BDB7A022B05D1464B1B78012B01D1C9
:1039F000FFF7B0FE444BDB7A042B05D1414B1B781B
:103A0000012B01D1FEF794FF3F4BDB7A052B05D14B
:103A10003C4B1B78012B01D1FEF7B0FF3A4B1B7BCF
:103A2000862B09D1384BDB7AF12B05D1364B9B7AAB
:103A3000222B01D1FFF73EF9334B9B7A112B09D191
:103A4000314BDB7A012B05D12F4B5B7A022B01D155
:103A5000FFF7A6FE2C4B9B7A112B09D12A4BDB7A60
:103A6000032B05D1284B5B7A022B01D1FFF7BEFE59
:103A7000254B9B7A142B01D1FFF7DEFE224B9B7A5C
:103A8000192B01D1FFF73CFF1E4B1B78012B3FD1B7
:103A90001D4B9B7A2A2B0AD11B4BDB7A042B06D1B8
:103AA000194B1B7B1A46194B53F822309847164B7B
:103AB0009B7A222B40F09780134BDB7A002B11D19D
:103AC000114B1B7B022B01D1FEF77EFF0E4B1B7BA4
:103AD000032B01D1FEF7F8FF0B4B1B7B052B01D10C
:103AE000FFF752F9084BDB7AF12B7CD1064B1B7B9D
:103AF000802B78D1FFF768F875E000BFC0FD01208A
:103B000084020120BCFD0120280201207000012058
:103B1000594B9B7A222B0BD0574B9B7A102B62D19F
:103B2000554BDB7A012B03D1534BDB7A032B5AD055
:103B3000524B04221A72514B40F201725A604F4BA1
:103B400001221A704D4B03225A724C4B7F229A72FB
:103B50004A4B1922DA72494B22221A734748FDF761
:103B60005BFF464B00221A70444B00225A60434BC5
:103B700000221A72414B00225A72404B00229A7264
:103B80003E4B0022DA723D4B00221A733B4B00225F
:103B90005A733A4B00229A73384B0022DA73374B30
:103BA00000221A74344B00221A70334B00225A60E0
:103BB000314B00221A72304B00225A722E4B0022D7
:103BC0009A722D4B0022DA722B4B00221A732A4B69
:103BD00000225A73284B00229A73274B0022DA7373
:103BE000254B00221A74254B00221A70234B002209
:103BF0005A60224B00221A72204B00225A721F4B2D
:103C000000229A721D4B0022DA721C4B00221A739A
:103C10001A4B00225A73194B00229A73174B002239
:103C2000DA73164B00221A74134B00221A70124BCF
:103C300000225A60104B00221A720F4B00225A7257
:103C40000D4B00229A720C4B0022DA720A4B0022B2
:103C50001A73094B00225A73074B00229A73064BC2
:103C60000022DA73044B00221A74054B1B680133DF
:103C7000034A136000BF80BD280201201402012006
:103C80008402012080B582B000AF03460A46FB7172
:103C90001346BB7172B600BF154B1B78002B21D1A8
:103CA000BB79012B0FD1134B01221A70114B4FF42A
:103CB00086725A600F4B01221A720E4AFB795372B8
:103CC0000C48FDF7A9FEFB79013B5B00FA790A4934
:103CD00041F82320FB79013B5B000133BA790649A7
:103CE00041F8232062B600BF00BF0837BD4680BD43
:103CF0009C02012088020120A002012080B483B030
:103D000000AF7860044B01221A7000BF0C37BD462B
:103D10005DF8047B704700BF0803012080B582B0C6
:103D200000AF7860134802F055FC0346124A136056
:103D3000114B1B68042B12D0042B16D8012B02D078
:103D4000022B06D011E00D4B1B6801330B4A1360A8
:103D50000BE00A4B5B680133084A536005E0074BF0
:103D60009B680133054A936000BF00BF0837BD461A
:103D700080BD00BF20040120200301201403012086
:103D800080B582B000AF734802F024FC0346724A4B
:103D90001360714B1B68002B03D06E48FFF7BEFF0A
:103DA000B2E00023FB7107E0FB796C4A002142F886
:103DB0002310FB790133FB71FB79022BF4D9A3E0CB
:103DC000674B1B78032B67D801A252F823F000BF82
:103DD000E13D06080F3E06083D3E06086B3E06081C
:103DE00001224FF480715F4803F0FCFC00224FF485
:103DF00080615D4803F0F6FC002210215A4803F070
:103E0000F1FC00222021584803F0ECFC45E00022A0
:103E10004FF48071534803F0E5FC01224FF48061B8
:103E2000514803F0DFFC002210214F4803F0DAFC78
:103E3000002220214C4803F0D5FC2EE000224FF454
:103E40008071484803F0CEFC00224FF48061464860
:103E500003F0C8FC00221021434803F0C3FC0122F8
:103E60002021414803F0BEFC17E001224FF480718D
:103E70003C4803F0B7FC00224FF480613A4803F05D
:103E8000B1FC01221021384803F0ACFC00222021B3
:103E9000354803F0A7FC00E000BF2E4802F038F8D8
:103EA000324B00221A7004E0314B1B680133304A58
:103EB00013602E4B1B78002B05D12D4B1B6844F64D
:103EC0001F629342F0D92A4B1B6844F6206293424A
:103ED00003D101210A20FFF7D5FE254B00221A60ED
:103EE0001C4802F024FA01461D4B1B781A4689B281
:103EF000204B23F81210174802F0C8F8184B1B7813
:103F00000133DAB2164B1A70154B1B78032B7FF670
:103F100057AF134B00221A70164B1B881A46164BCC
:103F20001A60144B5B881A46134B5A60114B9B88DE
:103F30001A46114B9A600F4BDB881A460E4BDA601B
:103F40000E4B1B6801330D4A136000BF0837BD4696
:103F500080BD00BF200401202403012014030120A0
:103F60002803012000000240000402400803012051
:103F70002C0301200C03012020000120300301202C
:103F800080B500AF374B1B68002B27D10021364886
:103F900005F04AFB0021354805F046FB0421334873
:103FA00005F042FB0821314805F03EFB0C212F486B
:103FB00005F03AFB2C4B1B6800225A632B4B1B6805
:103FC00000225A63294B1B6800229A63274B1B6807
:103FD0000022DA63254B1B6800221A64224805F090
:103FE000C6FE0346042B05D1214B1B680133204A32
:103FF000136002E01E4B00221A601C4805F0B7FE59
:104000000346042B05D11A4B5B680133184A5360F1
:1040100002E0174B00225A60164805F0A8FE03463E
:10402000042B05D1124B9B680133114A936002E0C7
:104030000F4B00229A60104805F099FE0346042BAE
:1040400005D10B4BDB680133094AD36002E0084B12
:104050000022DA60034B1B680133024A136000BF81
:1040600080BD00BF4403012010060120C4060120CA
:1040700034030120780701205C05012080B582B05F
:1040800000AF1A226749684800F0C2F90A2267495E
:10409000674800F0BDF906226649674800F0B8F9A4
:1040A000604B1B68B3F1FF3F05D1682200215D48DA
:1040B0000AF08CFB07E0614A5A4B10461946682308
:1040C0001A460AF013FC594B1B68B3F1FF3F33D17A
:1040D0005B4B1B689AB25B4B1A80594B5B689AB278
:1040E000584B5A80564B9B689AB2564B9A80544B09
:1040F000DB689AB2534BDA80514B1B69DAB2524BF0
:104100001A704F4B5B69DAB2504B1A704C4B9B697B
:10411000DAB24F4B1A704A4BDB69DAB24D4B1A7068
:10412000474B1B6ADAB24C4B1A7002230A224449ED
:104130003F4800F017F92CE03C4B1B689AB2414B0A
:104140001A803A4B5B689AB23E4B5A80374B9B6859
:104150009AB23C4B9A80354BDB689AB2394BDA8085
:10416000324B1B69DAB2384B1A70304B5B69DAB2EA
:10417000364B1A702D4B9B69DAB2364B1A702B4BAB
:10418000DB69DAB2324B1A70284B1B6ADAB2324B57
:104190001A70284B1B68B3F1FF3F21D10023FB713C
:1041A0000AE0FA79FB792D4951F822202C4941F88F
:1041B0002320FB790133FB71FB79032BF1D9274BCA
:1041C0001B69DAB2274B1A70244B5B69DAB2264BB3
:1041D0001A70032306222149174800F0C3F81AE099
:1041E0000023BB710AE0BA79BB79124951F8222049
:1041F0001B4941F82320BB790133BB71BB79032BE9
:10420000F1D90C4B1B69DAB2164B1A70094B5B697A
:10421000DAB2154B1A70154B01221A7000BF08371D
:10422000BD4680BD5003012000000108B8030120F5
:1042300000800008E003012000C00008A002012067
:104240008C000120880101208501012084010120CA
:104250004D0101204C0101204E010120B40001203C
:10426000580001204F010120500101204D03012081
:1042700080B582B000AF0023FB7114E0FB79154AD2
:1042800052F82320FB79144951F823309A4207D081
:10429000124B01221A701A220F490E480AF026FB0F
:1042A000FB790133FB71FB79192BE7D90B4B1B7899
:1042B000012B08D1094B00221A7004231A22054948
:1042C000074800F04FF8074B01221A7000BF08376B
:1042D000BD4680BD50030120A0020120F80301204B
:1042E000000001084E03012080B500AF194B1B7878
:1042F000032B07D1184B1B78002B03D1174B01223E
:104300001A7006E0134B1B78022B02D1124B0022CD
:104310001A70124B1B78002B02D0012B09D011E030
:104320000E4B02221A70FFF7A9FE0C4B03221A70E3
:1043300008E00A4B02221A70FFF79AFF074B03228C
:104340001A7000BF064B1B680133054A136000BF9B
:1043500080BD00BF110401204E0301204C03012049
:1043600048030120B0B588B000AFF860B9603B6089
:104370001346FB800023FB613B68BB613B687B61AC
:1043800002F010FD214B00221A60204B02221A611C
:104390001E4ABB6993607A69BB69D31A01331B4A11
:1043A000D36007F110031946184802F079FE03465E
:1043B000002B1FD002F028FD034622E0FB699B0082
:1043C000BA6813441B6800221C46154622462B4639
:1043D000F968022002F0E2FB0346002B06D1FB68DD
:1043E0000433FB60FB690133FB6103E002F00CFD69
:1043F000034606E0FB88FA699A42DFD302F0F4FC38
:10440000002318462037BD46B0BD00BFFC03012085
:1044100080B487B000AFF860B9601346FB8000231A
:10442000FB820EE0FB8A9B001A46FB681344194688
:10443000FB8A9B00BA6813440A681A60FB8A01333E
:10444000FB82FA8AFB889A42ECD300BF00BF1C377C
:10445000BD465DF8047B704780B400AFBFF34F8F5B
:1044600000BF064BDB6803F4E0620449044B1343CE
:10447000CB60BFF34F8F00BF00BFFDE700ED00E052
:104480000400FA0580B500AF00F070F800F028F8DD
:10449000034B1B680133024A136000BF80BD00BF9D
:1044A0001404012080B582B000AF0346FB7172B6E0
:1044B00000BFFB79002B0AD0064B00221A60064A87
:1044C000FB791370054B1B680133044A1360FFF737
:1044D000C3FF00BFC0FD0120C4FD0120C8FD0120B5
:1044E00080B582B000AF1D4B5B6F1C4A43F08073F8
:1044F00053671B4B1B78002B2CD1194B01221A70D0
:104500000023FB711BE0FB79002B07D0FB79012B0B
:1045100004D1FB79134A002142F82310FB7903F000
:104520000103DBB2002B07D0FB79022B04D9FB7906
:104530000C4A002142F82310FB790133FB71FB790F
:10454000192BE0D9084B1B78002B03D00121082040
:10455000FFF798FB00BF0837BD4680BD003802401A
:104560001C040120A0020120C4FD012080B500AF81
:10457000304B1B78042B01D100F08CF82D4B1B78AD
:10458000002B05D12B4B02221A702B4B00221A60F4
:104590002A4B1B78022B0FD0294B1B88B3F5966F43
:1045A0000AD20121274803F005F90346012B03D065
:1045B000254B1B69032B05D11E4B02221A701E4B83
:1045C00000221A601D4B1B78002B16D11C4B1B8838
:1045D000B3F5966F11D2174B1B78022B0DD1012129
:1045E000184803F0E7F80346002B06D1164B1B6969
:1045F000032B02D00F4B03221A700E4B1B78032B98
:1046000016D10D4B1B68002B03D1104B1B680A4AB7
:1046100013600E4B1A68084B1B68D31AB3F5FA6F78
:1046200006D9054B1B68002B02D0024B04221A70DE
:1046300000BF80BD1104012018040120E801012001
:104640000C0301200000024034000120140401206A
:1046500080B500AF01210D4803F0ACF80346012BF3
:104660000DD10B4B1B780133DAB2094B1A70084B92
:104670001B78032B06D10020FFF714FF02E0044B48
:1046800000221A7003F062F900BF80BD00000240F2
:104690001D04012080B582B000AF72B600BF0221B8
:1046A000914802F0A3FF04218F4802F09FFF0821E8
:1046B0008D4802F09BFF10218B4802F097FF2021CC
:1046C000894802F093FF4021874802F08FFF802144
:1046D000854802F08BFF4FF48071834802F086FF1B
:1046E0004FF40071804802F081FF4FF480617E48F2
:1046F00002F07CFF4FF400617B4802F077FF4FF43B
:104700008051794802F072FF4FF40041764802F080
:104710006DFF0121754802F069FF0221734802F024
:1047200065FF0421714802F061FF08216F4802F023
:104730005DFF10216D4802F059FF20216B4802F007
:1047400055FF4021694802F051FF8021674802F07F
:104750004DFF4FF48071654802F048FF4FF400713F
:10476000624802F043FF4FF48061604802F03EFF70
:104770004FF400615D4802F039FF4FF480515B480F
:1047800002F034FF4FF40051584802F02FFF4FF46D
:104790008041564802F02AFF4FF40041534802F08E
:1047A00025FF0121524802F021FF0221504802F06A
:1047B0001DFF04214E4802F019FF08214C4802F069
:1047C00015FF10214A4802F011FF2021484802F04D
:1047D0000DFF4021464802F009FF8021444802F0C5
:1047E00005FF4FF48071424802F000FF4FF4007162
:1047F0003F4802F0FBFE4FF480613D4802F0F6FEB8
:104800004FF400613A4802F0F1FE4FF4805138480D
:1048100002F0ECFE4FF40051354802F0E7FE4FF491
:104820008041334802F0E2FE4FF40041304802F08C
:10483000DDFE04212F4802F0D9FE01212E4802F0AE
:10484000D5FE02212C4802F0D1FE2C4B1B6B2B4ACB
:1048500023F002031363294B1B6B284A23F0040344
:104860001363264B1B6B254A23F0800313632448F4
:1048700004F068FE234804F065FE234804F046FD7A
:10488000224805F09DFEFDF71DF8214803F0F4FDD8
:1048900000F012FE0023FB7107E097F9073018467D
:1048A00002F0DCF8FB790133FB71FB79512BF4D971
:1048B000184B1B68174A23F005031360164B0022A0
:1048C0001A70164B00221A60154804F07DFD62B67E
:1048D00000BF0121012002F0FFFF0020FFF7E2FDF1
:1048E00000BF0837BD4680BD000002400004024002
:1048F00000080240000C0240001C02400038024048
:1049000010060120C40601205C0501202C080120AE
:10491000DC04012010E000E0C4FD0120C8FD0120FE
:104920007807012080B584B000AF3B4600221A60B2
:104930005A609A60DA60214B214A1A601F4B4FF48B
:1049400080325A601D4B00229A601C4B00221A6173
:104950001A4B00221A76194B002283F82020174B9D
:104960000022DA62154B174A9A62144B0022DA6071
:10497000124B0122DA61114B002283F830200F4BD9
:1049800001225A610D4801F05DFA0346002B01D067
:1049900000F026FC04233B6001237B600723BB60FF
:1049A0003B461946054801F0E3FC0346002B01D0C5
:1049B00000F016FC00BF1037BD4680BD200401206A
:1049C000002001400100000F80B58AB000AF786080
:1049D00007F1140300221A605A609A60DA601A61C3
:1049E0007B681B68174A934227D100233B61164B13
:1049F0005B6C154A43F480735364134B5B6C03F494
:104A000080733B613B690023FB600F4B1B6B0E4ABD
:104A100043F0010313630C4B1B6B03F00103FB60BA
:104A2000FB6810237B610323BB610023FB6107F15B
:104A300014031946054802F055FC00BF2837BD464F
:104A400080BD00BF0020014000380240000002404D
:104A500080B400AF064BD3E90023501C43F10001A2
:104A6000034BC3E9000100BFBD465DF8047B7047FE
:104A70009804012080B400AF064BD3E90023501CFA
:104A800043F10001034BC3E9000100BFBD465DF8DF
:104A9000047B70479004012080B582B000AF78603D
:104AA00039602320FFF7FEFC00BF0837BD4680BDFC
:104AB00080B500AF2220FFF7F5FC00BF80BD0000ED
:104AC00080B500AF284B00220121284806F0A2FE45
:104AD0000346274A1360274B00220121264806F08F
:104AE00099FE0346254A1360254B002201212548E3
:104AF00006F090FE0346244A13601D4B1B680521F7
:104B0000184606F003FF1D4B1B680A21184606F0E5
:104B1000FDFE1D4B1B686421184606F0F7FEFFF7EB
:104B2000E3FB1A4A00211A4806F0CCFD0346194A55
:104B30001360194A0021194806F0C4FD0346184ABB
:104B40001360184A0021184806F0BCFD0346174AB6
:104B50001360174A0021174806F0B4FD0346164AB1
:104B6000136000BF80BD00BFC0EA0608CD4C060838
:104B7000D0040120D0EA0608194D0608D40401200B
:104B8000E0EA06084D4D0608D804012030EA060880
:104B9000BD4B0608C004012054EA0608094C06086B
:104BA000C404012078EA0608514C0608C804012014
:104BB0009CEA06088D4C0608CC040120B0B582B0F2
:104BC00000AF78600D4B1B78012B0AD10C4B1B7882
:104BD000022B06D1FBF796FDFCF722F9074B0022CA
:104BE0001A70084BD3E90023541C43F10005054B10
:104BF000C3E90045002008F0B5FAE3E78704012087
:104C000011040120A0040120B0B582B000AF78608B
:104C10000D4B1B78012B0AD1FFF734FCFFF7B0F8DE
:104C2000FFF7AEF9FDF734FB074B00221A70074B74
:104C3000D3E90023541C43F10005044BC3E90045AC
:104C4000002008F08FFAE3E785040120A804012082
:104C5000B0B582B000AF78600A4B1B78012B04D14D
:104C6000FFF742FB074B00221A70074BD3E90023E2
:104C7000541C43F10005044BC3E90045002008F033
:104C800071FAE9E789040120B0040120B0B582B0CF
:104C900000AF78600B4B1B78012B06D1FCF7C4FAF0
:104CA000FEF76EFE074B00221A70074BD3E9002374
:104CB000541C43F10005044BC3E90045002008F0F3
:104CC00051FAE7E786040120B804012080B582B0DC
:104CD00000AF78600B4B01221A700B4B01221A7047
:104CE0000A4B01221A700A4B1B68184608F0E2FAB8
:104CF000084B1B68184608F0DDFA00BF0837BD46B0
:104D000080BD00BF840401208504012086040120A9
:104D1000C4040120CC04012080B582B000AF7860CB
:104D2000074B01221A70074B01221A70064B1B68B1
:104D3000184608F0BFFA00BF0837BD4680BD00BF67
:104D40008704012088040120C004012080B582B0BE
:104D500000AF7860054B01221A70054B1B6818469E
:104D600008F0A8FA00BF0837BD4680BD89040120BD
:104D7000C804012080B58AB000AF07F114030022F7
:104D80001A605A609A60DA601A6100233B618C4BAA
:104D90001B6B8B4A43F004031363894B1B6B03F0BB
:104DA00004033B613B690023FB60854B1B6B844A1A
:104DB00043F080031363824B1B6B03F08003FB60A3
:104DC000FB680023BB607E4B1B6B7D4A43F00103F5
:104DD00013637B4B1B6B03F00103BB60BB680023B9
:104DE0007B60774B1B6B764A43F002031363744B73
:104DF0001B6B03F002037B607B6800233B60704BFE
:104E00001B6B6F4A43F0080313636D4B1B6B03F07E
:104E100008033B603B6800224FF62371694802F0AB
:104E2000E1FC00224FF48171674802F0DBFC0122B3
:104E30001021644802F0D6FC002240F2FC71634865
:104E400002F0D0FC00220421614802F0CBFC4FF4B8
:104E500000537B610123BB610023FB6100233B62A4
:104E600007F114031946574802F03CFA4FF4404347
:104E70007B610123BB610223FB6100233B6207F1DD
:104E8000140319464F4802F02DFA41F623737B6153
:104E90000123BB610223FB6103233B6207F114037F
:104EA0001946484802F01EFA0C237B610323BB61BC
:104EB0000023FB6107F114031946424802F012FA7D
:104EC00001237B610023BB610223FB6107F1140313
:104ED00019463D4802F006FA02237B610123BB61BB
:104EE0000023FB6100233B6207F114031946364897
:104EF00002F0F8F941F60C037B610323BB61002348
:104F0000FB6107F1140319462F4802F0EBF9102357
:104F10007B610123BB610123FB6103233B6207F13A
:104F200014031946274802F0DDF940F2BC737B6197
:104F30000123BB610223FB6103233B6207F11403DE
:104F40001946224802F0CEF94FF470437B610323E7
:104F5000BB610023FB6107F1140319461B4802F0F3
:104F6000C1F94FF480737B610123BB610223FB61B4
:104F700003233B6207F114031946134802F0B2F908
:104F800004237B610123BB610223FB6103233B629A
:104F900007F1140319460E4802F0A4F940237B617F
:104FA0000123BB610023FB6100233B6207F1140373
:104FB0001946064802F096F900BF2837BD4680BD65
:104FC0000038024000080240000002400004024095
:104FD000000C024080B582B000AF00F0CDFE00F0C2
:104FE00031F8FFF7C7FEFFF79DFC00F001F900F074
:104FF0008BFB00F013FB00F079FD00F01DFC00F0CE
:1050000089F801210C4802F0D5FB03461A460B4BE8
:105010001A700B4B7B6000233B603B46184602F046
:10502000FBFB06F005FBFFF74BFD06F025FB2B20F5
:10503000FFF738FA00BFFDE700000240100401202E
:105040000200010080B594B000AF07F120033022C8
:105050000021184609F0BAFB07F10C0300221A6080
:105060005A609A60DA601A610023BB60274B1B6CA0
:10507000264A43F080531364244B1B6C03F0805387
:10508000BB60BB6800237B60214B1B68204A43F454
:10509000404313601E4B1B6803F440437B607B68F6
:1050A00001233B624FF480337B620223BB634FF4E6
:1050B0008003FB6304233B6464237B640223BB649F
:1050C0000423FB6407F12003184602F04FFC03465B
:1050D000002B01D000F084F80F23FB6002233B611A
:1050E00000237B614FF48053BB610023FB6107F118
:1050F0000C030321184602F0B1FE0346002B01D039
:1051000000F06EF800BF5037BD4680BD0038024049
:105110000070004080B500AF00220621052001F09C
:1051200065FC052001F07EFC00220621042001F030
:105130005DFC042001F076FC00220621012001F034
:1051400055FC012001F06EFC002206211C2001F01C
:105150004DFC1C2001F066FC002206211D2001F000
:1051600045FC1D2001F05EFC00220621252001F0F7
:105170003DFC252001F056FC00220621232001F0F1
:1051800035FC232001F04EFC00220621512001F0C5
:105190002DFC512001F046FC00220521122001F0D7
:1051A00025FC122001F03EFC00BF80BD80B582B01E
:1051B00000AF78607B681B68074A934201D1FFF714
:1051C00047FA7B681B68054A934201D100F0F6FD5F
:1051D00000BF0837BD4680BD00080040000C0040FD
:1051E00080B500AF2A20FFF75DF900BFFDE70000A2
:1051F00080B500AF174B184A1A60164B4FF48272F5
:105200005A60144B00229A60124B0022DA60114B54
:1052100000221A610F4B00225A610E4B4FF40072AC
:105220009A610C4B1822DA610A4B00221A62094B70
:1052300000225A62074B00229A62064B0A22DA6267
:10524000044803F05DF80346002B01D0FFF7C8FFC8
:1052500000BF80BDDC0401200030014080B58AB071
:1052600000AF786007F1140300221A605A609A6058
:10527000DA601A617B681B68194A93422BD10023BC
:105280003B61184B5B6C174A43F480535364154BD6
:105290005B6C03F480533B613B690023FB60114B63
:1052A0001B6B104A43F0010313630E4B1B6B03F09F
:1052B0000103FB60FB68E0237B610223BB610023E9
:1052C000FB6103233B6205237B6207F1140319464C
:1052D000054802F007F800BF2837BD4680BD00BF73
:1052E00000300140003802400000024080B582B02A
:1052F00000AF78607B681B68094A93420CD1094B68
:105300005B6C084A23F480535364E021064802F0A2
:105310006DF9232001F094FB00BF0837BD4680BD26
:1053200000300140003802400000024080B582B0E9
:1053300000AF00237B60214B5B6C204A43F4804329
:1053400053641E4B5B6C03F480437B607B680023DB
:105350003B601A4B1B6C194A43F080531364174B84
:105360001B6C03F080533B603B68002206216FF00A
:105370000B0001F03BFB002206216FF00A0001F058
:1053800035FB002206216FF0090001F02FFB0022FF
:1053900006216FF0040001F029FB002206216FF0C6
:1053A000030001F023FB00220F216FF0010001F048
:1053B0001DFB00BF0837BD4680BD00BF003802405E
:1053C00080B58EB000AF78600023FB620023BB6223
:1053D0000023FB60334B1B6C324A43F00803136419
:1053E000304B1B6C03F00803FB60FB6807F11002F5
:1053F00007F114031146184602F050FF3B6AFB62A6
:10540000FB6A002B03D102F021FF786304E002F075
:105410001DFF03465B007B637B6B234AA2FB0323D8
:105420009B0C013BBB62214B214A1A601F4B40F28F
:10543000E732DA601D4ABB6A53601C4B00221A61D6
:105440001A4B00229A60194B00229A61174803F008
:1054500001FF034687F8333097F83330002B1BD118
:10546000124803F0B1FF034687F8333097F8333022
:10547000002B11D1322001F0D5FA7B680F2B08D810
:1054800000227968322001F0B1FA0A4A7B68136081
:1054900002E0012387F8333097F833301846383765
:1054A000BD4680BD0038024083DE1B435C05012001
:1054B000000C0040D000012080B400AF064B1B68F8
:1054C000DA68054B1B6822F00102DA6000BFBD46B6
:1054D0005DF8047B704700BF5C05012080B500AF1C
:1054E0002420FEF7DFFF00BF80BD80B500AF252080
:1054F000FEF7D8FF00BFFDE780B500AF2620FEF71E
:10550000D1FF00BFFDE780B500AF2720FEF7CAFF3F
:1055100000BFFDE780B500AF2820FEF7C3FF00BF46
:10552000FDE780B400AF00BFBD465DF8047B704767
:1055300080B500AF02F0F0F92C20FEF7B3FF00BFFA
:1055400080BD80B500AF01F07DFB00BF80BD80B4A1
:1055500000AF00BFBD465DF8047B704780B500AF6B
:10556000024800F0D0FD00BF80BD00BF2004012034
:1055700080B500AF024804F007F900BF80BD00BF4E
:105580001006012080B500AF024804F0FDF800BF0E
:1055900080BD00BFC406012080B500AF024804F002
:1055A000F3F800BF80BD00BF7807012080B500AFD1
:1055B000024803F099FB00BF80BD00BFDC0401205E
:1055C00080B500AF024805F05DF800BF80BD00BFA8
:1055D0002C08012080B500AF024804F0D5F800BFC8
:1055E00080BD00BF5C05012080B500AF2920FEF71B
:1055F00059FF00BF80BD000080B400AF064BD3F858
:105600008830054A43F47003C2F8883000BFBD46B5
:105610005DF8047B704700BF00ED00E080B58EB000
:1056200000AF07F1280300221A605A609A60DA601E
:1056300007F1200300221A605A603B1D00221A6005
:105640005A609A60DA601A615A619A612D4B4FF084
:1056500080421A602B4B41F2FF325A60294B0022E4
:105660009A60284BC722DA60264B00221A61254B2C
:1056700000229A61234803F0EDFD0346002B01D080
:10568000FFF7AEFD4FF48053BB6207F128031946C4
:105690001C4804F04BFA0346002B01D0FFF7A0FD95
:1056A000184803F0F3FE0346002B01D0FFF798FDE6
:1056B00000233B6200237B6207F120031946114857
:1056C00004F094FE0346002B01D0FFF789FD602310
:1056D0007B600023BB600023FB6004237B613B1DD8
:1056E00000221946074804F05FF90346002B01D059
:1056F000FFF776FD034800F03FF900BF3837BD469D
:1057000080BD00BF1006012080B58EB000AF07F14C
:10571000280300221A605A609A60DA6007F12003B9
:1057200000221A605A603B1D00221A605A609A607B
:10573000DA601A615A619A613D4B3E4A1A603C4BED
:1057400063225A603A4B00229A60394B42F20F7240
:10575000DA60374B00221A61354B00229A613448D7
:1057600003F078FD0346002B01D0FFF739FD4FF41D
:105770008053BB6207F1280319462D4804F0D6F97F
:105780000346002B01D0FFF72BFD294803F07EFED6
:105790000346002B01D0FFF723FD00233B620023CB
:1057A0007B6207F120031946214804F01FFE0346DF
:1057B000002B01D0FFF714FD60237B600023BB604A
:1057C0000023FB6000237B613B1D00221946184823
:1057D00004F0EAF80346002B01D0FFF701FD3B1D62
:1057E00004221946124804F0DFF80346002B01D0CA
:1057F000FFF7F6FC3B1D082219460D4804F0D4F8CB
:105800000346002B01D0FFF7EBFC3B1D0C22194691
:10581000074804F0C9F80346002B01D0FFF7E0FC6D
:10582000034800F0A9F800BF3837BD4680BD00BF6F
:10583000C40601200004004080B586B000AF07F127
:10584000080300221A605A609A60DA603B46002220
:105850001A605A601D4B1E4A1A601C4B42F20F72AE
:105860005A601A4B00229A60184B40F2CF72DA60ED
:10587000164B00221A61154B00229A61134803F05F
:10588000E9FC0346002B01D0FFF7AAFC4FF480533C
:10589000BB6007F1080319460C4804F047F90346BA
:1058A000002B01D0FFF79CFC00233B6000237B60B2
:1058B0003B461946054804F099FD0346002B01D0EC
:1058C000FFF78EFC00BF1837BD4680BD780701206A
:1058D0000008004080B586B000AF78607B681B6828
:1058E000B3F1804F0ED100237B61204B1B6C1F4A0C
:1058F00043F0010313641D4B1B6C03F001037B6138
:105900007B692EE07B681B68194A93420ED1002305
:105910003B61164B1B6C154A43F002031364134B97
:105920001B6C03F002033B613B691AE07B681B6858
:10593000104A934215D10023FB600C4B1B6C0B4AA1
:1059400043F004031364094B1B6C03F00403FB6076
:10595000FB68002205211E2001F048F81E2001F0FE
:1059600061F800BF1837BD4680BD00BF0038024057
:10597000000400400008004080B58AB000AF7860A5
:1059800007F1140300221A605A609A60DA601A6103
:105990007B681B68B3F1804F1FD100233B61314B03
:1059A0001B6B304A43F0010313632E4B1B6B03F058
:1059B00001033B613B694FF400437B610223BB6100
:1059C0000123FB6103233B6201237B6207F1140384
:1059D0001946254801F086FC40E07B681B68234A95
:1059E00093423BD10023FB601E4B1B6B1D4A43F0CF
:1059F000020313631B4B1B6B03F00203FB60FB688A
:105A00000023BB60174B1B6B164A43F00403136360
:105A1000144B1B6B03F00403BB60BB6803237B6167
:105A20000223BB610123FB6103233B6202237B62F0
:105A300007F1140319460E4801F054FCC0237B61A2
:105A40000223BB610123FB6103233B6202237B62D0
:105A500007F114031946074801F044FC00BF28373A
:105A6000BD4680BD003802400000024000040040F6
:105A7000000402400008024080B582B000AF7860A8
:105A80007B681B68B3F1804F09D1154B1B6C144A1E
:105A900023F0010313641C2000F0D2FF1CE07B689C
:105AA0001B68104A934209D10D4B1B6C0C4A23F022
:105AB000020313641D2000F0C3FF0DE07B681B6828
:105AC000094A934208D1064B1B6C054A23F0040394
:105AD00013641E2000F0B4FF00BF0837BD4680BD30
